{"abi":[{"inputs":[{"internalType":"uint256","name":"_minimumContribution","type":"uint256"},{"internalType":"address","name":"_creator","type":"address"}],"stateMutability":"nonpayable","type":"constructor"},{"inputs":[],"name":"_numRequest","outputs":[{"internalType":"uint256","name":"","type":"uint256"}],"stateMutability":"view","type":"function"},{"inputs":[{"internalType":"uint256","name":"_index","type":"uint256"}],"name":"approveRequest","outputs":[],"stateMutability":"nonpayable","type":"function"},{"inputs":[{"internalType":"address","name":"","type":"address"}],"name":"approvers","outputs":[{"internalType":"bool","name":"","type":"bool"}],"stateMutability":"view","type":"function"},{"inputs":[],"name":"contribute","outputs":[],"stateMutability":"payable","type":"function"},{"inputs":[{"internalType":"string","name":"_description","type":"string"},{"internalType":"uint256","name":"_value","type":"uint256"},{"internalType":"address","name":"_recipient","type":"address"}],"name":"createRequest","outputs":[],"stateMutability":"nonpayable","type":"function"},{"inputs":[{"internalType":"uint256","name":"_index","type":"uint256"}],"name":"finalizeRequest","outputs":[],"stateMutability":"payable","type":"function"},{"inputs":[],"name":"getCampaignSummary","outputs":[{"internalType":"uint256","name":"minimumContribution","type":"uint256"},{"internalType":"uint256","name":"contractBalance","type":"uint256"},{"internalType":"uint256","name":"requestCount","type":"uint256"},{"internalType":"uint256","name":"contributorsCount","type":"uint256"},{"internalType":"address","name":"managerAddress","type":"address"}],"stateMutability":"view","type":"function"},{"inputs":[],"name":"getRequestsCount","outputs":[{"internalType":"uint256","name":"","type":"uint256"}],"stateMutability":"view","type":"function"},{"inputs":[],"name":"getTotalBalance","outputs":[{"internalType":"uint256","name":"","type":"uint256"}],"stateMutability":"view","type":"function"},{"inputs":[],"name":"manager","outputs":[{"internalType":"address","name":"","type":"address"}],"stateMutability":"view","type":"function"},{"inputs":[],"name":"minimumContribution","outputs":[{"internalType":"uint256","name":"","type":"uint256"}],"stateMutability":"view","type":"function"},{"inputs":[],"name":"peopleJoinedForContribution","outputs":[{"internalType":"uint256","name":"","type":"uint256"}],"stateMutability":"view","type":"function"},{"inputs":[{"internalType":"uint256","name":"","type":"uint256"}],"name":"requests","outputs":[{"internalType":"string","name":"description","type":"string"},{"internalType":"uint256","name":"value","type":"uint256"},{"internalType":"address","name":"recipient","type":"address"},{"internalType":"bool","name":"complete","type":"bool"},{"internalType":"uint256","name":"approvalCount","type":"uint256"}],"stateMutability":"view","type":"function"}],"devdoc":{"kind":"dev","methods":{},"version":1},"evm":{"assembly":"    /* \"Kickstarter.sol\":62:3082  contract Campaign {... */\n  mstore(0x40, 0x80)\n    /* \"Kickstarter.sol\":535:682  constructor(uint256 _minimumContribution, address _creator) {... */\n  callvalue\n  dup1\n  iszero\n  tag_1\n  jumpi\n  0x00\n  dup1\n  revert\ntag_1:\n  pop\n  mload(0x40)\n  sub(codesize, bytecodeSize)\n  dup1\n  bytecodeSize\n  dup4\n  codecopy\n  dup2\n  dup2\n  add\n  0x40\n  mstore\n  dup2\n  add\n  swap1\n  tag_2\n  swap2\n  swap1\n  tag_3\n  jump\t// in\ntag_2:\n    /* \"Kickstarter.sol\":615:623  _creator */\n  dup1\n    /* \"Kickstarter.sol\":605:612  manager */\n  0x02\n  0x00\n    /* \"Kickstarter.sol\":605:623  manager = _creator */\n  0x0100\n  exp\n  dup2\n  sload\n  dup2\n  0xffffffffffffffffffffffffffffffffffffffff\n  mul\n  not\n  and\n  swap1\n  dup4\n  0xffffffffffffffffffffffffffffffffffffffff\n  and\n  mul\n  or\n  swap1\n  sstore\n  pop\n    /* \"Kickstarter.sol\":655:675  _minimumContribution */\n  dup2\n    /* \"Kickstarter.sol\":633:652  minimumContribution */\n  0x03\n    /* \"Kickstarter.sol\":633:675  minimumContribution = _minimumContribution */\n  dup2\n  swap1\n  sstore\n  pop\n    /* \"Kickstarter.sol\":535:682  constructor(uint256 _minimumContribution, address _creator) {... */\n  pop\n  pop\n    /* \"Kickstarter.sol\":62:3082  contract Campaign {... */\n  jump(tag_6)\n    /* \"#utility.yul\":88:205   */\ntag_8:\n    /* \"#utility.yul\":197:198   */\n  0x00\n    /* \"#utility.yul\":194:195   */\n  dup1\n    /* \"#utility.yul\":187:199   */\n  revert\n    /* \"#utility.yul\":334:411   */\ntag_10:\n    /* \"#utility.yul\":371:378   */\n  0x00\n    /* \"#utility.yul\":400:405   */\n  dup2\n    /* \"#utility.yul\":389:405   */\n  swap1\n  pop\n    /* \"#utility.yul\":334:411   */\n  swap2\n  swap1\n  pop\n  jump\t// out\n    /* \"#utility.yul\":417:539   */\ntag_11:\n    /* \"#utility.yul\":490:514   */\n  tag_23\n    /* \"#utility.yul\":508:513   */\n  dup2\n    /* \"#utility.yul\":490:514   */\n  tag_10\n  jump\t// in\ntag_23:\n    /* \"#utility.yul\":483:488   */\n  dup2\n    /* \"#utility.yul\":480:515   */\n  eq\n    /* \"#utility.yul\":470:533   */\n  tag_24\n  jumpi\n    /* \"#utility.yul\":529:530   */\n  0x00\n    /* \"#utility.yul\":526:527   */\n  dup1\n    /* \"#utility.yul\":519:531   */\n  revert\n    /* \"#utility.yul\":470:533   */\ntag_24:\n    /* \"#utility.yul\":417:539   */\n  pop\n  jump\t// out\n    /* \"#utility.yul\":545:688   */\ntag_12:\n    /* \"#utility.yul\":602:607   */\n  0x00\n    /* \"#utility.yul\":633:639   */\n  dup2\n    /* \"#utility.yul\":627:640   */\n  mload\n    /* \"#utility.yul\":618:640   */\n  swap1\n  pop\n    /* \"#utility.yul\":649:682   */\n  tag_26\n    /* \"#utility.yul\":676:681   */\n  dup2\n    /* \"#utility.yul\":649:682   */\n  tag_11\n  jump\t// in\ntag_26:\n    /* \"#utility.yul\":545:688   */\n  swap3\n  swap2\n  pop\n  pop\n  jump\t// out\n    /* \"#utility.yul\":694:820   */\ntag_13:\n    /* \"#utility.yul\":731:738   */\n  0x00\n    /* \"#utility.yul\":771:813   */\n  0xffffffffffffffffffffffffffffffffffffffff\n    /* \"#utility.yul\":764:769   */\n  dup3\n    /* \"#utility.yul\":760:814   */\n  and\n    /* \"#utility.yul\":749:814   */\n  swap1\n  pop\n    /* \"#utility.yul\":694:820   */\n  swap2\n  swap1\n  pop\n  jump\t// out\n    /* \"#utility.yul\":826:922   */\ntag_14:\n    /* \"#utility.yul\":863:870   */\n  0x00\n    /* \"#utility.yul\":892:916   */\n  tag_29\n    /* \"#utility.yul\":910:915   */\n  dup3\n    /* \"#utility.yul\":892:916   */\n  tag_13\n  jump\t// in\ntag_29:\n    /* \"#utility.yul\":881:916   */\n  swap1\n  pop\n    /* \"#utility.yul\":826:922   */\n  swap2\n  swap1\n  pop\n  jump\t// out\n    /* \"#utility.yul\":928:1050   */\ntag_15:\n    /* \"#utility.yul\":1001:1025   */\n  tag_31\n    /* \"#utility.yul\":1019:1024   */\n  dup2\n    /* \"#utility.yul\":1001:1025   */\n  tag_14\n  jump\t// in\ntag_31:\n    /* \"#utility.yul\":994:999   */\n  dup2\n    /* \"#utility.yul\":991:1026   */\n  eq\n    /* \"#utility.yul\":981:1044   */\n  tag_32\n  jumpi\n    /* \"#utility.yul\":1040:1041   */\n  0x00\n    /* \"#utility.yul\":1037:1038   */\n  dup1\n    /* \"#utility.yul\":1030:1042   */\n  revert\n    /* \"#utility.yul\":981:1044   */\ntag_32:\n    /* \"#utility.yul\":928:1050   */\n  pop\n  jump\t// out\n    /* \"#utility.yul\":1056:1199   */\ntag_16:\n    /* \"#utility.yul\":1113:1118   */\n  0x00\n    /* \"#utility.yul\":1144:1150   */\n  dup2\n    /* \"#utility.yul\":1138:1151   */\n  mload\n    /* \"#utility.yul\":1129:1151   */\n  swap1\n  pop\n    /* \"#utility.yul\":1160:1193   */\n  tag_34\n    /* \"#utility.yul\":1187:1192   */\n  dup2\n    /* \"#utility.yul\":1160:1193   */\n  tag_15\n  jump\t// in\ntag_34:\n    /* \"#utility.yul\":1056:1199   */\n  swap3\n  swap2\n  pop\n  pop\n  jump\t// out\n    /* \"#utility.yul\":1205:1712   */\ntag_3:\n    /* \"#utility.yul\":1284:1290   */\n  0x00\n    /* \"#utility.yul\":1292:1298   */\n  dup1\n    /* \"#utility.yul\":1341:1343   */\n  0x40\n    /* \"#utility.yul\":1329:1338   */\n  dup4\n    /* \"#utility.yul\":1320:1327   */\n  dup6\n    /* \"#utility.yul\":1316:1339   */\n  sub\n    /* \"#utility.yul\":1312:1344   */\n  slt\n    /* \"#utility.yul\":1309:1428   */\n  iszero\n  tag_36\n  jumpi\n    /* \"#utility.yul\":1347:1426   */\n  tag_37\n  tag_8\n  jump\t// in\ntag_37:\n    /* \"#utility.yul\":1309:1428   */\ntag_36:\n    /* \"#utility.yul\":1467:1468   */\n  0x00\n    /* \"#utility.yul\":1492:1556   */\n  tag_38\n    /* \"#utility.yul\":1548:1555   */\n  dup6\n    /* \"#utility.yul\":1539:1545   */\n  dup3\n    /* \"#utility.yul\":1528:1537   */\n  dup7\n    /* \"#utility.yul\":1524:1546   */\n  add\n    /* \"#utility.yul\":1492:1556   */\n  tag_12\n  jump\t// in\ntag_38:\n    /* \"#utility.yul\":1482:1556   */\n  swap3\n  pop\n    /* \"#utility.yul\":1438:1566   */\n  pop\n    /* \"#utility.yul\":1605:1607   */\n  0x20\n    /* \"#utility.yul\":1631:1695   */\n  tag_39\n    /* \"#utility.yul\":1687:1694   */\n  dup6\n    /* \"#utility.yul\":1678:1684   */\n  dup3\n    /* \"#utility.yul\":1667:1676   */\n  dup7\n    /* \"#utility.yul\":1663:1685   */\n  add\n    /* \"#utility.yul\":1631:1695   */\n  tag_16\n  jump\t// in\ntag_39:\n    /* \"#utility.yul\":1621:1695   */\n  swap2\n  pop\n    /* \"#utility.yul\":1576:1705   */\n  pop\n    /* \"#utility.yul\":1205:1712   */\n  swap3\n  pop\n  swap3\n  swap1\n  pop\n  jump\t// out\n    /* \"Kickstarter.sol\":62:3082  contract Campaign {... */\ntag_6:\n  dataSize(sub_0)\n  dup1\n  dataOffset(sub_0)\n  0x00\n  codecopy\n  0x00\n  return\nstop\n\nsub_0: assembly {\n        /* \"Kickstarter.sol\":62:3082  contract Campaign {... */\n      mstore(0x40, 0x80)\n      jumpi(tag_1, lt(calldatasize, 0x04))\n      shr(0xe0, calldataload(0x00))\n      dup1\n      0x8a9cfd55\n      gt\n      tag_15\n      jumpi\n      dup1\n      0xb7e622cb\n      gt\n      tag_16\n      jumpi\n      dup1\n      0xb7e622cb\n      eq\n      tag_11\n      jumpi\n      dup1\n      0xd7bb99ba\n      eq\n      tag_12\n      jumpi\n      dup1\n      0xd7d1bbdb\n      eq\n      tag_13\n      jumpi\n      dup1\n      0xf0fa0eb9\n      eq\n      tag_14\n      jumpi\n      jump(tag_1)\n    tag_16:\n      dup1\n      0x8a9cfd55\n      eq\n      tag_8\n      jumpi\n      dup1\n      0x937e09b1\n      eq\n      tag_9\n      jumpi\n      dup1\n      0xa00c96d7\n      eq\n      tag_10\n      jumpi\n      jump(tag_1)\n    tag_15:\n      dup1\n      0x03441006\n      eq\n      tag_2\n      jumpi\n      dup1\n      0x0a144391\n      eq\n      tag_3\n      jumpi\n      dup1\n      0x12b58349\n      eq\n      tag_4\n      jumpi\n      dup1\n      0x3410452a\n      eq\n      tag_5\n      jumpi\n      dup1\n      0x481c6a75\n      eq\n      tag_6\n      jumpi\n      dup1\n      0x81d12c58\n      eq\n      tag_7\n      jumpi\n    tag_1:\n      0x00\n      dup1\n      revert\n        /* \"Kickstarter.sol\":2063:2480  function finalizeRequest(uint256 _index) public payable restricted {... */\n    tag_2:\n      tag_17\n      0x04\n      dup1\n      calldatasize\n      sub\n      dup2\n      add\n      swap1\n      tag_18\n      swap2\n      swap1\n      tag_19\n      jump\t// in\n    tag_18:\n      tag_20\n      jump\t// in\n    tag_17:\n      stop\n        /* \"Kickstarter.sol\":439:480  mapping(address => bool) public approvers */\n    tag_3:\n      callvalue\n      dup1\n      iszero\n      tag_21\n      jumpi\n      0x00\n      dup1\n      revert\n    tag_21:\n      pop\n      tag_22\n      0x04\n      dup1\n      calldatasize\n      sub\n      dup2\n      add\n      swap1\n      tag_23\n      swap2\n      swap1\n      tag_24\n      jump\t// in\n    tag_23:\n      tag_25\n      jump\t// in\n    tag_22:\n      mload(0x40)\n      tag_26\n      swap2\n      swap1\n      tag_27\n      jump\t// in\n    tag_26:\n      mload(0x40)\n      dup1\n      swap2\n      sub\n      swap1\n      return\n        /* \"Kickstarter.sol\":1188:1290  function getTotalBalance() public view returns (uint256) {... */\n    tag_4:\n      callvalue\n      dup1\n      iszero\n      tag_28\n      jumpi\n      0x00\n      dup1\n      revert\n    tag_28:\n      pop\n      tag_29\n      tag_30\n      jump\t// in\n    tag_29:\n      mload(0x40)\n      tag_31\n      swap2\n      swap1\n      tag_32\n      jump\t// in\n    tag_31:\n      mload(0x40)\n      dup1\n      swap2\n      sub\n      swap1\n      return\n        /* \"Kickstarter.sol\":2990:3080  function getRequestsCount() public view returns (uint) {... */\n    tag_5:\n      callvalue\n      dup1\n      iszero\n      tag_33\n      jumpi\n      0x00\n      dup1\n      revert\n    tag_33:\n      pop\n      tag_34\n      tag_35\n      jump\t// in\n    tag_34:\n      mload(0x40)\n      tag_36\n      swap2\n      swap1\n      tag_32\n      jump\t// in\n    tag_36:\n      mload(0x40)\n      dup1\n      swap2\n      sub\n      swap1\n      return\n        /* \"Kickstarter.sol\":371:393  address public manager */\n    tag_6:\n      callvalue\n      dup1\n      iszero\n      tag_37\n      jumpi\n      0x00\n      dup1\n      revert\n    tag_37:\n      pop\n      tag_38\n      tag_39\n      jump\t// in\n    tag_38:\n      mload(0x40)\n      tag_40\n      swap2\n      swap1\n      tag_41\n      jump\t// in\n    tag_40:\n      mload(0x40)\n      dup1\n      swap2\n      sub\n      swap1\n      return\n        /* \"Kickstarter.sol\":322:365  mapping(uint256 => Request) public requests */\n    tag_7:\n      callvalue\n      dup1\n      iszero\n      tag_42\n      jumpi\n      0x00\n      dup1\n      revert\n    tag_42:\n      pop\n      tag_43\n      0x04\n      dup1\n      calldatasize\n      sub\n      dup2\n      add\n      swap1\n      tag_44\n      swap2\n      swap1\n      tag_19\n      jump\t// in\n    tag_44:\n      tag_45\n      jump\t// in\n    tag_43:\n      mload(0x40)\n      tag_46\n      swap6\n      swap5\n      swap4\n      swap3\n      swap2\n      swap1\n      tag_47\n      jump\t// in\n    tag_46:\n      mload(0x40)\n      dup1\n      swap2\n      sub\n      swap1\n      return\n        /* \"Kickstarter.sol\":1296:1646  function createRequest(... */\n    tag_8:\n      callvalue\n      dup1\n      iszero\n      tag_48\n      jumpi\n      0x00\n      dup1\n      revert\n    tag_48:\n      pop\n      tag_49\n      0x04\n      dup1\n      calldatasize\n      sub\n      dup2\n      add\n      swap1\n      tag_50\n      swap2\n      swap1\n      tag_51\n      jump\t// in\n    tag_50:\n      tag_52\n      jump\t// in\n    tag_49:\n      stop\n        /* \"Kickstarter.sol\":399:433  uint256 public minimumContribution */\n    tag_9:\n      callvalue\n      dup1\n      iszero\n      tag_53\n      jumpi\n      0x00\n      dup1\n      revert\n    tag_53:\n      pop\n      tag_54\n      tag_55\n      jump\t// in\n    tag_54:\n      mload(0x40)\n      tag_56\n      swap2\n      swap1\n      tag_32\n      jump\t// in\n    tag_56:\n      mload(0x40)\n      dup1\n      swap2\n      sub\n      swap1\n      return\n        /* \"Kickstarter.sol\":2486:2984  function getCampaignSummary()... */\n    tag_10:\n      callvalue\n      dup1\n      iszero\n      tag_57\n      jumpi\n      0x00\n      dup1\n      revert\n    tag_57:\n      pop\n      tag_58\n      tag_59\n      jump\t// in\n    tag_58:\n      mload(0x40)\n      tag_60\n      swap6\n      swap5\n      swap4\n      swap3\n      swap2\n      swap1\n      tag_61\n      jump\t// in\n    tag_60:\n      mload(0x40)\n      dup1\n      swap2\n      sub\n      swap1\n      return\n        /* \"Kickstarter.sol\":290:316  uint256 public _numRequest */\n    tag_11:\n      callvalue\n      dup1\n      iszero\n      tag_62\n      jumpi\n      0x00\n      dup1\n      revert\n    tag_62:\n      pop\n      tag_63\n      tag_64\n      jump\t// in\n    tag_63:\n      mload(0x40)\n      tag_65\n      swap2\n      swap1\n      tag_32\n      jump\t// in\n    tag_65:\n      mload(0x40)\n      dup1\n      swap2\n      sub\n      swap1\n      return\n        /* \"Kickstarter.sol\":855:1182  function contribute() public payable {... */\n    tag_12:\n      tag_66\n      tag_67\n      jump\t// in\n    tag_66:\n      stop\n        /* \"Kickstarter.sol\":1652:2057  function approveRequest(uint256 _index) public {... */\n    tag_13:\n      callvalue\n      dup1\n      iszero\n      tag_68\n      jumpi\n      0x00\n      dup1\n      revert\n    tag_68:\n      pop\n      tag_69\n      0x04\n      dup1\n      calldatasize\n      sub\n      dup2\n      add\n      swap1\n      tag_70\n      swap2\n      swap1\n      tag_19\n      jump\t// in\n    tag_70:\n      tag_71\n      jump\t// in\n    tag_69:\n      stop\n        /* \"Kickstarter.sol\":486:528  uint256 public peopleJoinedForContribution */\n    tag_14:\n      callvalue\n      dup1\n      iszero\n      tag_72\n      jumpi\n      0x00\n      dup1\n      revert\n    tag_72:\n      pop\n      tag_73\n      tag_74\n      jump\t// in\n    tag_73:\n      mload(0x40)\n      tag_75\n      swap2\n      swap1\n      tag_32\n      jump\t// in\n    tag_75:\n      mload(0x40)\n      dup1\n      swap2\n      sub\n      swap1\n      return\n        /* \"Kickstarter.sol\":2063:2480  function finalizeRequest(uint256 _index) public payable restricted {... */\n    tag_20:\n        /* \"Kickstarter.sol\":755:762  manager */\n      0x02\n      0x00\n      swap1\n      sload\n      swap1\n      0x0100\n      exp\n      swap1\n      div\n      0xffffffffffffffffffffffffffffffffffffffff\n      and\n        /* \"Kickstarter.sol\":741:762  msg.sender == manager */\n      0xffffffffffffffffffffffffffffffffffffffff\n      and\n        /* \"Kickstarter.sol\":741:751  msg.sender */\n      caller\n        /* \"Kickstarter.sol\":741:762  msg.sender == manager */\n      0xffffffffffffffffffffffffffffffffffffffff\n      and\n      eq\n        /* \"Kickstarter.sol\":720:831  require(... */\n      tag_77\n      jumpi\n      mload(0x40)\n      0x08c379a000000000000000000000000000000000000000000000000000000000\n      dup2\n      mstore\n      0x04\n      add\n      tag_78\n      swap1\n      tag_79\n      jump\t// in\n    tag_78:\n      mload(0x40)\n      dup1\n      swap2\n      sub\n      swap1\n      revert\n    tag_77:\n        /* \"Kickstarter.sol\":2140:2157  Request storage r */\n      0x00\n        /* \"Kickstarter.sol\":2160:2168  requests */\n      0x01\n        /* \"Kickstarter.sol\":2160:2176  requests[_index] */\n      0x00\n        /* \"Kickstarter.sol\":2169:2175  _index */\n      dup4\n        /* \"Kickstarter.sol\":2160:2176  requests[_index] */\n      dup2\n      mstore\n      0x20\n      add\n      swap1\n      dup2\n      mstore\n      0x20\n      add\n      0x00\n      keccak256\n        /* \"Kickstarter.sol\":2140:2176  Request storage r = requests[_index] */\n      swap1\n      pop\n        /* \"Kickstarter.sol\":2256:2257  2 */\n      0x02\n        /* \"Kickstarter.sol\":2226:2253  peopleJoinedForContribution */\n      sload(0x05)\n        /* \"Kickstarter.sol\":2226:2257  peopleJoinedForContribution / 2 */\n      tag_81\n      swap2\n      swap1\n      tag_82\n      jump\t// in\n    tag_81:\n        /* \"Kickstarter.sol\":2207:2208  r */\n      dup2\n        /* \"Kickstarter.sol\":2207:2222  r.approvalCount */\n      0x03\n      add\n      sload\n        /* \"Kickstarter.sol\":2207:2258  r.approvalCount > (peopleJoinedForContribution / 2) */\n      gt\n        /* \"Kickstarter.sol\":2186:2329  require(... */\n      tag_83\n      jumpi\n      mload(0x40)\n      0x08c379a000000000000000000000000000000000000000000000000000000000\n      dup2\n      mstore\n      0x04\n      add\n      tag_84\n      swap1\n      tag_85\n      jump\t// in\n    tag_84:\n      mload(0x40)\n      dup1\n      swap2\n      sub\n      swap1\n      revert\n    tag_83:\n        /* \"Kickstarter.sol\":2348:2349  r */\n      dup1\n        /* \"Kickstarter.sol\":2348:2358  r.complete */\n      0x02\n      add\n      0x14\n      swap1\n      sload\n      swap1\n      0x0100\n      exp\n      swap1\n      div\n      0xff\n      and\n        /* \"Kickstarter.sol\":2347:2358  !r.complete */\n      iszero\n        /* \"Kickstarter.sol\":2339:2397  require(!r.complete, \"Request has been approved already.\") */\n      tag_86\n      jumpi\n      mload(0x40)\n      0x08c379a000000000000000000000000000000000000000000000000000000000\n      dup2\n      mstore\n      0x04\n      add\n      tag_87\n      swap1\n      tag_88\n      jump\t// in\n    tag_87:\n      mload(0x40)\n      dup1\n      swap2\n      sub\n      swap1\n      revert\n    tag_86:\n        /* \"Kickstarter.sol\":2416:2417  r */\n      dup1\n        /* \"Kickstarter.sol\":2416:2427  r.recipient */\n      0x02\n      add\n      0x00\n      swap1\n      sload\n      swap1\n      0x0100\n      exp\n      swap1\n      div\n      0xffffffffffffffffffffffffffffffffffffffff\n      and\n        /* \"Kickstarter.sol\":2408:2437  payable(r.recipient).transfer */\n      0xffffffffffffffffffffffffffffffffffffffff\n      and\n        /* \"Kickstarter.sol\":2408:2446  payable(r.recipient).transfer(r.value) */\n      0x08fc\n        /* \"Kickstarter.sol\":2438:2439  r */\n      dup3\n        /* \"Kickstarter.sol\":2438:2445  r.value */\n      0x01\n      add\n      sload\n        /* \"Kickstarter.sol\":2408:2446  payable(r.recipient).transfer(r.value) */\n      swap1\n      dup2\n      iszero\n      mul\n      swap1\n      mload(0x40)\n      0x00\n      mload(0x40)\n      dup1\n      dup4\n      sub\n      dup2\n      dup6\n      dup9\n      dup9\n      call\n      swap4\n      pop\n      pop\n      pop\n      pop\n      iszero\n      dup1\n      iszero\n      tag_90\n      jumpi\n      returndatasize\n      0x00\n      dup1\n      returndatacopy\n      revert(0x00, returndatasize)\n    tag_90:\n      pop\n        /* \"Kickstarter.sol\":2469:2473  true */\n      0x01\n        /* \"Kickstarter.sol\":2456:2457  r */\n      dup2\n        /* \"Kickstarter.sol\":2456:2466  r.complete */\n      0x02\n      add\n      0x14\n        /* \"Kickstarter.sol\":2456:2473  r.complete = true */\n      0x0100\n      exp\n      dup2\n      sload\n      dup2\n      0xff\n      mul\n      not\n      and\n      swap1\n      dup4\n      iszero\n      iszero\n      mul\n      or\n      swap1\n      sstore\n      pop\n        /* \"Kickstarter.sol\":2130:2480  {... */\n      pop\n        /* \"Kickstarter.sol\":2063:2480  function finalizeRequest(uint256 _index) public payable restricted {... */\n      pop\n      jump\t// out\n        /* \"Kickstarter.sol\":439:480  mapping(address => bool) public approvers */\n    tag_25:\n      mstore(0x20, 0x04)\n      dup1\n      0x00\n      mstore\n      keccak256(0x00, 0x40)\n      0x00\n      swap2\n      pop\n      sload\n      swap1\n      0x0100\n      exp\n      swap1\n      div\n      0xff\n      and\n      dup2\n      jump\t// out\n        /* \"Kickstarter.sol\":1188:1290  function getTotalBalance() public view returns (uint256) {... */\n    tag_30:\n        /* \"Kickstarter.sol\":1236:1243  uint256 */\n      0x00\n        /* \"Kickstarter.sol\":1262:1283  address(this).balance */\n      selfbalance\n        /* \"Kickstarter.sol\":1255:1283  return address(this).balance */\n      swap1\n      pop\n        /* \"Kickstarter.sol\":1188:1290  function getTotalBalance() public view returns (uint256) {... */\n      swap1\n      jump\t// out\n        /* \"Kickstarter.sol\":2990:3080  function getRequestsCount() public view returns (uint) {... */\n    tag_35:\n        /* \"Kickstarter.sol\":3039:3043  uint */\n      0x00\n        /* \"Kickstarter.sol\":3062:3073  _numRequest */\n      dup1\n      sload\n        /* \"Kickstarter.sol\":3055:3073  return _numRequest */\n      swap1\n      pop\n        /* \"Kickstarter.sol\":2990:3080  function getRequestsCount() public view returns (uint) {... */\n      swap1\n      jump\t// out\n        /* \"Kickstarter.sol\":371:393  address public manager */\n    tag_39:\n      0x02\n      0x00\n      swap1\n      sload\n      swap1\n      0x0100\n      exp\n      swap1\n      div\n      0xffffffffffffffffffffffffffffffffffffffff\n      and\n      dup2\n      jump\t// out\n        /* \"Kickstarter.sol\":322:365  mapping(uint256 => Request) public requests */\n    tag_45:\n      mstore(0x20, 0x01)\n      dup1\n      0x00\n      mstore\n      keccak256(0x00, 0x40)\n      0x00\n      swap2\n      pop\n      swap1\n      pop\n      dup1\n      0x00\n      add\n      dup1\n      sload\n      tag_93\n      swap1\n      tag_94\n      jump\t// in\n    tag_93:\n      dup1\n      0x1f\n      add\n      0x20\n      dup1\n      swap2\n      div\n      mul\n      0x20\n      add\n      mload(0x40)\n      swap1\n      dup2\n      add\n      0x40\n      mstore\n      dup1\n      swap3\n      swap2\n      swap1\n      dup2\n      dup2\n      mstore\n      0x20\n      add\n      dup3\n      dup1\n      sload\n      tag_95\n      swap1\n      tag_94\n      jump\t// in\n    tag_95:\n      dup1\n      iszero\n      tag_96\n      jumpi\n      dup1\n      0x1f\n      lt\n      tag_97\n      jumpi\n      0x0100\n      dup1\n      dup4\n      sload\n      div\n      mul\n      dup4\n      mstore\n      swap2\n      0x20\n      add\n      swap2\n      jump(tag_96)\n    tag_97:\n      dup3\n      add\n      swap2\n      swap1\n      0x00\n      mstore\n      keccak256(0x00, 0x20)\n      swap1\n    tag_98:\n      dup2\n      sload\n      dup2\n      mstore\n      swap1\n      0x01\n      add\n      swap1\n      0x20\n      add\n      dup1\n      dup4\n      gt\n      tag_98\n      jumpi\n      dup3\n      swap1\n      sub\n      0x1f\n      and\n      dup3\n      add\n      swap2\n    tag_96:\n      pop\n      pop\n      pop\n      pop\n      pop\n      swap1\n      dup1\n      0x01\n      add\n      sload\n      swap1\n      dup1\n      0x02\n      add\n      0x00\n      swap1\n      sload\n      swap1\n      0x0100\n      exp\n      swap1\n      div\n      0xffffffffffffffffffffffffffffffffffffffff\n      and\n      swap1\n      dup1\n      0x02\n      add\n      0x14\n      swap1\n      sload\n      swap1\n      0x0100\n      exp\n      swap1\n      div\n      0xff\n      and\n      swap1\n      dup1\n      0x03\n      add\n      sload\n      swap1\n      pop\n      dup6\n      jump\t// out\n        /* \"Kickstarter.sol\":1296:1646  function createRequest(... */\n    tag_52:\n        /* \"Kickstarter.sol\":755:762  manager */\n      0x02\n      0x00\n      swap1\n      sload\n      swap1\n      0x0100\n      exp\n      swap1\n      div\n      0xffffffffffffffffffffffffffffffffffffffff\n      and\n        /* \"Kickstarter.sol\":741:762  msg.sender == manager */\n      0xffffffffffffffffffffffffffffffffffffffff\n      and\n        /* \"Kickstarter.sol\":741:751  msg.sender */\n      caller\n        /* \"Kickstarter.sol\":741:762  msg.sender == manager */\n      0xffffffffffffffffffffffffffffffffffffffff\n      and\n      eq\n        /* \"Kickstarter.sol\":720:831  require(... */\n      tag_100\n      jumpi\n      mload(0x40)\n      0x08c379a000000000000000000000000000000000000000000000000000000000\n      dup2\n      mstore\n      0x04\n      add\n      tag_101\n      swap1\n      tag_79\n      jump\t// in\n    tag_101:\n      mload(0x40)\n      dup1\n      swap2\n      sub\n      swap1\n      revert\n    tag_100:\n        /* \"Kickstarter.sol\":1441:1458  Request storage r */\n      0x00\n        /* \"Kickstarter.sol\":1461:1469  requests */\n      0x01\n        /* \"Kickstarter.sol\":1461:1484  requests[_numRequest++] */\n      0x00\n        /* \"Kickstarter.sol\":1470:1481  _numRequest */\n      dup1\n      0x00\n        /* \"Kickstarter.sol\":1470:1483  _numRequest++ */\n      dup2\n      sload\n      dup1\n      swap3\n      swap2\n      swap1\n      tag_103\n      swap1\n      tag_104\n      jump\t// in\n    tag_103:\n      swap2\n      swap1\n      pop\n      sstore\n        /* \"Kickstarter.sol\":1461:1484  requests[_numRequest++] */\n      dup2\n      mstore\n      0x20\n      add\n      swap1\n      dup2\n      mstore\n      0x20\n      add\n      0x00\n      keccak256\n        /* \"Kickstarter.sol\":1441:1484  Request storage r = requests[_numRequest++] */\n      swap1\n      pop\n        /* \"Kickstarter.sol\":1510:1522  _description */\n      dup4\n        /* \"Kickstarter.sol\":1494:1495  r */\n      dup2\n        /* \"Kickstarter.sol\":1494:1507  r.description */\n      0x00\n      add\n        /* \"Kickstarter.sol\":1494:1522  r.description = _description */\n      swap1\n      dup2\n      tag_105\n      swap2\n      swap1\n      tag_106\n      jump\t// in\n    tag_105:\n      pop\n        /* \"Kickstarter.sol\":1542:1548  _value */\n      dup3\n        /* \"Kickstarter.sol\":1532:1533  r */\n      dup2\n        /* \"Kickstarter.sol\":1532:1539  r.value */\n      0x01\n      add\n        /* \"Kickstarter.sol\":1532:1548  r.value = _value */\n      dup2\n      swap1\n      sstore\n      pop\n        /* \"Kickstarter.sol\":1572:1582  _recipient */\n      dup2\n        /* \"Kickstarter.sol\":1558:1559  r */\n      dup2\n        /* \"Kickstarter.sol\":1558:1569  r.recipient */\n      0x02\n      add\n      0x00\n        /* \"Kickstarter.sol\":1558:1582  r.recipient = _recipient */\n      0x0100\n      exp\n      dup2\n      sload\n      dup2\n      0xffffffffffffffffffffffffffffffffffffffff\n      mul\n      not\n      and\n      swap1\n      dup4\n      0xffffffffffffffffffffffffffffffffffffffff\n      and\n      mul\n      or\n      swap1\n      sstore\n      pop\n        /* \"Kickstarter.sol\":1605:1610  false */\n      0x00\n        /* \"Kickstarter.sol\":1592:1593  r */\n      dup2\n        /* \"Kickstarter.sol\":1592:1602  r.complete */\n      0x02\n      add\n      0x14\n        /* \"Kickstarter.sol\":1592:1610  r.complete = false */\n      0x0100\n      exp\n      dup2\n      sload\n      dup2\n      0xff\n      mul\n      not\n      and\n      swap1\n      dup4\n      iszero\n      iszero\n      mul\n      or\n      swap1\n      sstore\n      pop\n        /* \"Kickstarter.sol\":1638:1639  0 */\n      0x00\n        /* \"Kickstarter.sol\":1620:1621  r */\n      dup2\n        /* \"Kickstarter.sol\":1620:1635  r.approvalCount */\n      0x03\n      add\n        /* \"Kickstarter.sol\":1620:1639  r.approvalCount = 0 */\n      dup2\n      swap1\n      sstore\n      pop\n        /* \"Kickstarter.sol\":1431:1646  {... */\n      pop\n        /* \"Kickstarter.sol\":1296:1646  function createRequest(... */\n      pop\n      pop\n      pop\n      jump\t// out\n        /* \"Kickstarter.sol\":399:433  uint256 public minimumContribution */\n    tag_55:\n      sload(0x03)\n      dup2\n      jump\t// out\n        /* \"Kickstarter.sol\":2486:2984  function getCampaignSummary()... */\n    tag_59:\n        /* \"Kickstarter.sol\":2574:2598  uint minimumContribution */\n      0x00\n        /* \"Kickstarter.sol\":2612:2632  uint contractBalance */\n      dup1\n        /* \"Kickstarter.sol\":2646:2663  uint requestCount */\n      0x00\n        /* \"Kickstarter.sol\":2677:2699  uint contributorsCount */\n      dup1\n        /* \"Kickstarter.sol\":2713:2735  address managerAddress */\n      0x00\n        /* \"Kickstarter.sol\":2829:2850  address(this).balance */\n      selfbalance\n        /* \"Kickstarter.sol\":2811:2850  contractBalance = address(this).balance */\n      swap4\n      pop\n        /* \"Kickstarter.sol\":2875:2886  _numRequest */\n      sload(0x00)\n        /* \"Kickstarter.sol\":2860:2886  requestCount = _numRequest */\n      swap3\n      pop\n        /* \"Kickstarter.sol\":2916:2943  peopleJoinedForContribution */\n      sload(0x05)\n        /* \"Kickstarter.sol\":2896:2943  contributorsCount = peopleJoinedForContribution */\n      swap2\n      pop\n        /* \"Kickstarter.sol\":2970:2977  manager */\n      0x02\n      0x00\n      swap1\n      sload\n      swap1\n      0x0100\n      exp\n      swap1\n      div\n      0xffffffffffffffffffffffffffffffffffffffff\n      and\n        /* \"Kickstarter.sol\":2953:2977  managerAddress = manager */\n      swap1\n      pop\n        /* \"Kickstarter.sol\":2486:2984  function getCampaignSummary()... */\n      swap1\n      swap2\n      swap3\n      swap4\n      swap5\n      jump\t// out\n        /* \"Kickstarter.sol\":290:316  uint256 public _numRequest */\n    tag_64:\n      sload(0x00)\n      dup2\n      jump\t// out\n        /* \"Kickstarter.sol\":855:1182  function contribute() public payable {... */\n    tag_67:\n        /* \"Kickstarter.sol\":936:955  minimumContribution */\n      sload(0x03)\n        /* \"Kickstarter.sol\":923:932  msg.value */\n      callvalue\n        /* \"Kickstarter.sol\":923:955  msg.value >= minimumContribution */\n      lt\n      iszero\n        /* \"Kickstarter.sol\":902:1046  require(... */\n      tag_109\n      jumpi\n      mload(0x40)\n      0x08c379a000000000000000000000000000000000000000000000000000000000\n      dup2\n      mstore\n      0x04\n      add\n      tag_110\n      swap1\n      tag_111\n      jump\t// in\n    tag_110:\n      mload(0x40)\n      dup1\n      swap2\n      sub\n      swap1\n      revert\n    tag_109:\n        /* \"Kickstarter.sol\":1061:1070  approvers */\n      0x04\n        /* \"Kickstarter.sol\":1061:1082  approvers[msg.sender] */\n      0x00\n        /* \"Kickstarter.sol\":1071:1081  msg.sender */\n      caller\n        /* \"Kickstarter.sol\":1061:1082  approvers[msg.sender] */\n      0xffffffffffffffffffffffffffffffffffffffff\n      and\n      0xffffffffffffffffffffffffffffffffffffffff\n      and\n      dup2\n      mstore\n      0x20\n      add\n      swap1\n      dup2\n      mstore\n      0x20\n      add\n      0x00\n      keccak256\n      0x00\n      swap1\n      sload\n      swap1\n      0x0100\n      exp\n      swap1\n      div\n      0xff\n      and\n        /* \"Kickstarter.sol\":1056:1138  if (!approvers[msg.sender]) {... */\n      tag_112\n      jumpi\n        /* \"Kickstarter.sol\":1098:1125  peopleJoinedForContribution */\n      0x05\n      0x00\n        /* \"Kickstarter.sol\":1098:1127  peopleJoinedForContribution++ */\n      dup2\n      sload\n      dup1\n      swap3\n      swap2\n      swap1\n      tag_113\n      swap1\n      tag_104\n      jump\t// in\n    tag_113:\n      swap2\n      swap1\n      pop\n      sstore\n      pop\n        /* \"Kickstarter.sol\":1056:1138  if (!approvers[msg.sender]) {... */\n    tag_112:\n        /* \"Kickstarter.sol\":1171:1175  true */\n      0x01\n        /* \"Kickstarter.sol\":1147:1156  approvers */\n      0x04\n        /* \"Kickstarter.sol\":1147:1168  approvers[msg.sender] */\n      0x00\n        /* \"Kickstarter.sol\":1157:1167  msg.sender */\n      caller\n        /* \"Kickstarter.sol\":1147:1168  approvers[msg.sender] */\n      0xffffffffffffffffffffffffffffffffffffffff\n      and\n      0xffffffffffffffffffffffffffffffffffffffff\n      and\n      dup2\n      mstore\n      0x20\n      add\n      swap1\n      dup2\n      mstore\n      0x20\n      add\n      0x00\n      keccak256\n      0x00\n        /* \"Kickstarter.sol\":1147:1175  approvers[msg.sender] = true */\n      0x0100\n      exp\n      dup2\n      sload\n      dup2\n      0xff\n      mul\n      not\n      and\n      swap1\n      dup4\n      iszero\n      iszero\n      mul\n      or\n      swap1\n      sstore\n      pop\n        /* \"Kickstarter.sol\":855:1182  function contribute() public payable {... */\n      jump\t// out\n        /* \"Kickstarter.sol\":1652:2057  function approveRequest(uint256 _index) public {... */\n    tag_71:\n        /* \"Kickstarter.sol\":1730:1739  approvers */\n      0x04\n        /* \"Kickstarter.sol\":1730:1751  approvers[msg.sender] */\n      0x00\n        /* \"Kickstarter.sol\":1740:1750  msg.sender */\n      caller\n        /* \"Kickstarter.sol\":1730:1751  approvers[msg.sender] */\n      0xffffffffffffffffffffffffffffffffffffffff\n      and\n      0xffffffffffffffffffffffffffffffffffffffff\n      and\n      dup2\n      mstore\n      0x20\n      add\n      swap1\n      dup2\n      mstore\n      0x20\n      add\n      0x00\n      keccak256\n      0x00\n      swap1\n      sload\n      swap1\n      0x0100\n      exp\n      swap1\n      div\n      0xff\n      and\n        /* \"Kickstarter.sol\":1709:1818  require(... */\n      tag_115\n      jumpi\n      mload(0x40)\n      0x08c379a000000000000000000000000000000000000000000000000000000000\n      dup2\n      mstore\n      0x04\n      add\n      tag_116\n      swap1\n      tag_117\n      jump\t// in\n    tag_116:\n      mload(0x40)\n      dup1\n      swap2\n      sub\n      swap1\n      revert\n    tag_115:\n        /* \"Kickstarter.sol\":1850:1858  requests */\n      0x01\n        /* \"Kickstarter.sol\":1850:1866  requests[_index] */\n      0x00\n        /* \"Kickstarter.sol\":1859:1865  _index */\n      dup3\n        /* \"Kickstarter.sol\":1850:1866  requests[_index] */\n      dup2\n      mstore\n      0x20\n      add\n      swap1\n      dup2\n      mstore\n      0x20\n      add\n      0x00\n      keccak256\n        /* \"Kickstarter.sol\":1850:1876  requests[_index].approvals */\n      0x04\n      add\n        /* \"Kickstarter.sol\":1850:1888  requests[_index].approvals[msg.sender] */\n      0x00\n        /* \"Kickstarter.sol\":1877:1887  msg.sender */\n      caller\n        /* \"Kickstarter.sol\":1850:1888  requests[_index].approvals[msg.sender] */\n      0xffffffffffffffffffffffffffffffffffffffff\n      and\n      0xffffffffffffffffffffffffffffffffffffffff\n      and\n      dup2\n      mstore\n      0x20\n      add\n      swap1\n      dup2\n      mstore\n      0x20\n      add\n      0x00\n      keccak256\n      0x00\n      swap1\n      sload\n      swap1\n      0x0100\n      exp\n      swap1\n      div\n      0xff\n      and\n        /* \"Kickstarter.sol\":1849:1888  !requests[_index].approvals[msg.sender] */\n      iszero\n        /* \"Kickstarter.sol\":1828:1953  require(... */\n      tag_118\n      jumpi\n      mload(0x40)\n      0x08c379a000000000000000000000000000000000000000000000000000000000\n      dup2\n      mstore\n      0x04\n      add\n      tag_119\n      swap1\n      tag_120\n      jump\t// in\n    tag_119:\n      mload(0x40)\n      dup1\n      swap2\n      sub\n      swap1\n      revert\n    tag_118:\n        /* \"Kickstarter.sol\":2004:2008  true */\n      0x01\n        /* \"Kickstarter.sol\":1963:1971  requests */\n      dup1\n        /* \"Kickstarter.sol\":1963:1979  requests[_index] */\n      0x00\n        /* \"Kickstarter.sol\":1972:1978  _index */\n      dup4\n        /* \"Kickstarter.sol\":1963:1979  requests[_index] */\n      dup2\n      mstore\n      0x20\n      add\n      swap1\n      dup2\n      mstore\n      0x20\n      add\n      0x00\n      keccak256\n        /* \"Kickstarter.sol\":1963:1989  requests[_index].approvals */\n      0x04\n      add\n        /* \"Kickstarter.sol\":1963:2001  requests[_index].approvals[msg.sender] */\n      0x00\n        /* \"Kickstarter.sol\":1990:2000  msg.sender */\n      caller\n        /* \"Kickstarter.sol\":1963:2001  requests[_index].approvals[msg.sender] */\n      0xffffffffffffffffffffffffffffffffffffffff\n      and\n      0xffffffffffffffffffffffffffffffffffffffff\n      and\n      dup2\n      mstore\n      0x20\n      add\n      swap1\n      dup2\n      mstore\n      0x20\n      add\n      0x00\n      keccak256\n      0x00\n        /* \"Kickstarter.sol\":1963:2008  requests[_index].approvals[msg.sender] = true */\n      0x0100\n      exp\n      dup2\n      sload\n      dup2\n      0xff\n      mul\n      not\n      and\n      swap1\n      dup4\n      iszero\n      iszero\n      mul\n      or\n      swap1\n      sstore\n      pop\n        /* \"Kickstarter.sol\":2018:2026  requests */\n      0x01\n        /* \"Kickstarter.sol\":2018:2034  requests[_index] */\n      0x00\n        /* \"Kickstarter.sol\":2027:2033  _index */\n      dup3\n        /* \"Kickstarter.sol\":2018:2034  requests[_index] */\n      dup2\n      mstore\n      0x20\n      add\n      swap1\n      dup2\n      mstore\n      0x20\n      add\n      0x00\n      keccak256\n        /* \"Kickstarter.sol\":2018:2048  requests[_index].approvalCount */\n      0x03\n      add\n      0x00\n        /* \"Kickstarter.sol\":2018:2050  requests[_index].approvalCount++ */\n      dup2\n      sload\n      dup1\n      swap3\n      swap2\n      swap1\n      tag_121\n      swap1\n      tag_104\n      jump\t// in\n    tag_121:\n      swap2\n      swap1\n      pop\n      sstore\n      pop\n        /* \"Kickstarter.sol\":1652:2057  function approveRequest(uint256 _index) public {... */\n      pop\n      jump\t// out\n        /* \"Kickstarter.sol\":486:528  uint256 public peopleJoinedForContribution */\n    tag_74:\n      sload(0x05)\n      dup2\n      jump\t// out\n        /* \"#utility.yul\":7:82   */\n    tag_122:\n        /* \"#utility.yul\":40:46   */\n      0x00\n        /* \"#utility.yul\":73:75   */\n      0x40\n        /* \"#utility.yul\":67:76   */\n      mload\n        /* \"#utility.yul\":57:76   */\n      swap1\n      pop\n        /* \"#utility.yul\":7:82   */\n      swap1\n      jump\t// out\n        /* \"#utility.yul\":88:205   */\n    tag_123:\n        /* \"#utility.yul\":197:198   */\n      0x00\n        /* \"#utility.yul\":194:195   */\n      dup1\n        /* \"#utility.yul\":187:199   */\n      revert\n        /* \"#utility.yul\":211:328   */\n    tag_124:\n        /* \"#utility.yul\":320:321   */\n      0x00\n        /* \"#utility.yul\":317:318   */\n      dup1\n        /* \"#utility.yul\":310:322   */\n      revert\n        /* \"#utility.yul\":334:411   */\n    tag_125:\n        /* \"#utility.yul\":371:378   */\n      0x00\n        /* \"#utility.yul\":400:405   */\n      dup2\n        /* \"#utility.yul\":389:405   */\n      swap1\n      pop\n        /* \"#utility.yul\":334:411   */\n      swap2\n      swap1\n      pop\n      jump\t// out\n        /* \"#utility.yul\":417:539   */\n    tag_126:\n        /* \"#utility.yul\":490:514   */\n      tag_186\n        /* \"#utility.yul\":508:513   */\n      dup2\n        /* \"#utility.yul\":490:514   */\n      tag_125\n      jump\t// in\n    tag_186:\n        /* \"#utility.yul\":483:488   */\n      dup2\n        /* \"#utility.yul\":480:515   */\n      eq\n        /* \"#utility.yul\":470:533   */\n      tag_187\n      jumpi\n        /* \"#utility.yul\":529:530   */\n      0x00\n        /* \"#utility.yul\":526:527   */\n      dup1\n        /* \"#utility.yul\":519:531   */\n      revert\n        /* \"#utility.yul\":470:533   */\n    tag_187:\n        /* \"#utility.yul\":417:539   */\n      pop\n      jump\t// out\n        /* \"#utility.yul\":545:684   */\n    tag_127:\n        /* \"#utility.yul\":591:596   */\n      0x00\n        /* \"#utility.yul\":629:635   */\n      dup2\n        /* \"#utility.yul\":616:636   */\n      calldataload\n        /* \"#utility.yul\":607:636   */\n      swap1\n      pop\n        /* \"#utility.yul\":645:678   */\n      tag_189\n        /* \"#utility.yul\":672:677   */\n      dup2\n        /* \"#utility.yul\":645:678   */\n      tag_126\n      jump\t// in\n    tag_189:\n        /* \"#utility.yul\":545:684   */\n      swap3\n      swap2\n      pop\n      pop\n      jump\t// out\n        /* \"#utility.yul\":690:1019   */\n    tag_19:\n        /* \"#utility.yul\":749:755   */\n      0x00\n        /* \"#utility.yul\":798:800   */\n      0x20\n        /* \"#utility.yul\":786:795   */\n      dup3\n        /* \"#utility.yul\":777:784   */\n      dup5\n        /* \"#utility.yul\":773:796   */\n      sub\n        /* \"#utility.yul\":769:801   */\n      slt\n        /* \"#utility.yul\":766:885   */\n      iszero\n      tag_191\n      jumpi\n        /* \"#utility.yul\":804:883   */\n      tag_192\n      tag_123\n      jump\t// in\n    tag_192:\n        /* \"#utility.yul\":766:885   */\n    tag_191:\n        /* \"#utility.yul\":924:925   */\n      0x00\n        /* \"#utility.yul\":949:1002   */\n      tag_193\n        /* \"#utility.yul\":994:1001   */\n      dup5\n        /* \"#utility.yul\":985:991   */\n      dup3\n        /* \"#utility.yul\":974:983   */\n      dup6\n        /* \"#utility.yul\":970:992   */\n      add\n        /* \"#utility.yul\":949:1002   */\n      tag_127\n      jump\t// in\n    tag_193:\n        /* \"#utility.yul\":939:1002   */\n      swap2\n      pop\n        /* \"#utility.yul\":895:1012   */\n      pop\n        /* \"#utility.yul\":690:1019   */\n      swap3\n      swap2\n      pop\n      pop\n      jump\t// out\n        /* \"#utility.yul\":1025:1151   */\n    tag_128:\n        /* \"#utility.yul\":1062:1069   */\n      0x00\n        /* \"#utility.yul\":1102:1144   */\n      0xffffffffffffffffffffffffffffffffffffffff\n        /* \"#utility.yul\":1095:1100   */\n      dup3\n        /* \"#utility.yul\":1091:1145   */\n      and\n        /* \"#utility.yul\":1080:1145   */\n      swap1\n      pop\n        /* \"#utility.yul\":1025:1151   */\n      swap2\n      swap1\n      pop\n      jump\t// out\n        /* \"#utility.yul\":1157:1253   */\n    tag_129:\n        /* \"#utility.yul\":1194:1201   */\n      0x00\n        /* \"#utility.yul\":1223:1247   */\n      tag_196\n        /* \"#utility.yul\":1241:1246   */\n      dup3\n        /* \"#utility.yul\":1223:1247   */\n      tag_128\n      jump\t// in\n    tag_196:\n        /* \"#utility.yul\":1212:1247   */\n      swap1\n      pop\n        /* \"#utility.yul\":1157:1253   */\n      swap2\n      swap1\n      pop\n      jump\t// out\n        /* \"#utility.yul\":1259:1381   */\n    tag_130:\n        /* \"#utility.yul\":1332:1356   */\n      tag_198\n        /* \"#utility.yul\":1350:1355   */\n      dup2\n        /* \"#utility.yul\":1332:1356   */\n      tag_129\n      jump\t// in\n    tag_198:\n        /* \"#utility.yul\":1325:1330   */\n      dup2\n        /* \"#utility.yul\":1322:1357   */\n      eq\n        /* \"#utility.yul\":1312:1375   */\n      tag_199\n      jumpi\n        /* \"#utility.yul\":1371:1372   */\n      0x00\n        /* \"#utility.yul\":1368:1369   */\n      dup1\n        /* \"#utility.yul\":1361:1373   */\n      revert\n        /* \"#utility.yul\":1312:1375   */\n    tag_199:\n        /* \"#utility.yul\":1259:1381   */\n      pop\n      jump\t// out\n        /* \"#utility.yul\":1387:1526   */\n    tag_131:\n        /* \"#utility.yul\":1433:1438   */\n      0x00\n        /* \"#utility.yul\":1471:1477   */\n      dup2\n        /* \"#utility.yul\":1458:1478   */\n      calldataload\n        /* \"#utility.yul\":1449:1478   */\n      swap1\n      pop\n        /* \"#utility.yul\":1487:1520   */\n      tag_201\n        /* \"#utility.yul\":1514:1519   */\n      dup2\n        /* \"#utility.yul\":1487:1520   */\n      tag_130\n      jump\t// in\n    tag_201:\n        /* \"#utility.yul\":1387:1526   */\n      swap3\n      swap2\n      pop\n      pop\n      jump\t// out\n        /* \"#utility.yul\":1532:1861   */\n    tag_24:\n        /* \"#utility.yul\":1591:1597   */\n      0x00\n        /* \"#utility.yul\":1640:1642   */\n      0x20\n        /* \"#utility.yul\":1628:1637   */\n      dup3\n        /* \"#utility.yul\":1619:1626   */\n      dup5\n        /* \"#utility.yul\":1615:1638   */\n      sub\n        /* \"#utility.yul\":1611:1643   */\n      slt\n        /* \"#utility.yul\":1608:1727   */\n      iszero\n      tag_203\n      jumpi\n        /* \"#utility.yul\":1646:1725   */\n      tag_204\n      tag_123\n      jump\t// in\n    tag_204:\n        /* \"#utility.yul\":1608:1727   */\n    tag_203:\n        /* \"#utility.yul\":1766:1767   */\n      0x00\n        /* \"#utility.yul\":1791:1844   */\n      tag_205\n        /* \"#utility.yul\":1836:1843   */\n      dup5\n        /* \"#utility.yul\":1827:1833   */\n      dup3\n        /* \"#utility.yul\":1816:1825   */\n      dup6\n        /* \"#utility.yul\":1812:1834   */\n      add\n        /* \"#utility.yul\":1791:1844   */\n      tag_131\n      jump\t// in\n    tag_205:\n        /* \"#utility.yul\":1781:1844   */\n      swap2\n      pop\n        /* \"#utility.yul\":1737:1854   */\n      pop\n        /* \"#utility.yul\":1532:1861   */\n      swap3\n      swap2\n      pop\n      pop\n      jump\t// out\n        /* \"#utility.yul\":1867:1957   */\n    tag_132:\n        /* \"#utility.yul\":1901:1908   */\n      0x00\n        /* \"#utility.yul\":1944:1949   */\n      dup2\n        /* \"#utility.yul\":1937:1950   */\n      iszero\n        /* \"#utility.yul\":1930:1951   */\n      iszero\n        /* \"#utility.yul\":1919:1951   */\n      swap1\n      pop\n        /* \"#utility.yul\":1867:1957   */\n      swap2\n      swap1\n      pop\n      jump\t// out\n        /* \"#utility.yul\":1963:2072   */\n    tag_133:\n        /* \"#utility.yul\":2044:2065   */\n      tag_208\n        /* \"#utility.yul\":2059:2064   */\n      dup2\n        /* \"#utility.yul\":2044:2065   */\n      tag_132\n      jump\t// in\n    tag_208:\n        /* \"#utility.yul\":2039:2042   */\n      dup3\n        /* \"#utility.yul\":2032:2066   */\n      mstore\n        /* \"#utility.yul\":1963:2072   */\n      pop\n      pop\n      jump\t// out\n        /* \"#utility.yul\":2078:2288   */\n    tag_27:\n        /* \"#utility.yul\":2165:2169   */\n      0x00\n        /* \"#utility.yul\":2203:2205   */\n      0x20\n        /* \"#utility.yul\":2192:2201   */\n      dup3\n        /* \"#utility.yul\":2188:2206   */\n      add\n        /* \"#utility.yul\":2180:2206   */\n      swap1\n      pop\n        /* \"#utility.yul\":2216:2281   */\n      tag_210\n        /* \"#utility.yul\":2278:2279   */\n      0x00\n        /* \"#utility.yul\":2267:2276   */\n      dup4\n        /* \"#utility.yul\":2263:2280   */\n      add\n        /* \"#utility.yul\":2254:2260   */\n      dup5\n        /* \"#utility.yul\":2216:2281   */\n      tag_133\n      jump\t// in\n    tag_210:\n        /* \"#utility.yul\":2078:2288   */\n      swap3\n      swap2\n      pop\n      pop\n      jump\t// out\n        /* \"#utility.yul\":2294:2412   */\n    tag_134:\n        /* \"#utility.yul\":2381:2405   */\n      tag_212\n        /* \"#utility.yul\":2399:2404   */\n      dup2\n        /* \"#utility.yul\":2381:2405   */\n      tag_125\n      jump\t// in\n    tag_212:\n        /* \"#utility.yul\":2376:2379   */\n      dup3\n        /* \"#utility.yul\":2369:2406   */\n      mstore\n        /* \"#utility.yul\":2294:2412   */\n      pop\n      pop\n      jump\t// out\n        /* \"#utility.yul\":2418:2640   */\n    tag_32:\n        /* \"#utility.yul\":2511:2515   */\n      0x00\n        /* \"#utility.yul\":2549:2551   */\n      0x20\n        /* \"#utility.yul\":2538:2547   */\n      dup3\n        /* \"#utility.yul\":2534:2552   */\n      add\n        /* \"#utility.yul\":2526:2552   */\n      swap1\n      pop\n        /* \"#utility.yul\":2562:2633   */\n      tag_214\n        /* \"#utility.yul\":2630:2631   */\n      0x00\n        /* \"#utility.yul\":2619:2628   */\n      dup4\n        /* \"#utility.yul\":2615:2632   */\n      add\n        /* \"#utility.yul\":2606:2612   */\n      dup5\n        /* \"#utility.yul\":2562:2633   */\n      tag_134\n      jump\t// in\n    tag_214:\n        /* \"#utility.yul\":2418:2640   */\n      swap3\n      swap2\n      pop\n      pop\n      jump\t// out\n        /* \"#utility.yul\":2646:2764   */\n    tag_135:\n        /* \"#utility.yul\":2733:2757   */\n      tag_216\n        /* \"#utility.yul\":2751:2756   */\n      dup2\n        /* \"#utility.yul\":2733:2757   */\n      tag_129\n      jump\t// in\n    tag_216:\n        /* \"#utility.yul\":2728:2731   */\n      dup3\n        /* \"#utility.yul\":2721:2758   */\n      mstore\n        /* \"#utility.yul\":2646:2764   */\n      pop\n      pop\n      jump\t// out\n        /* \"#utility.yul\":2770:2992   */\n    tag_41:\n        /* \"#utility.yul\":2863:2867   */\n      0x00\n        /* \"#utility.yul\":2901:2903   */\n      0x20\n        /* \"#utility.yul\":2890:2899   */\n      dup3\n        /* \"#utility.yul\":2886:2904   */\n      add\n        /* \"#utility.yul\":2878:2904   */\n      swap1\n      pop\n        /* \"#utility.yul\":2914:2985   */\n      tag_218\n        /* \"#utility.yul\":2982:2983   */\n      0x00\n        /* \"#utility.yul\":2971:2980   */\n      dup4\n        /* \"#utility.yul\":2967:2984   */\n      add\n        /* \"#utility.yul\":2958:2964   */\n      dup5\n        /* \"#utility.yul\":2914:2985   */\n      tag_135\n      jump\t// in\n    tag_218:\n        /* \"#utility.yul\":2770:2992   */\n      swap3\n      swap2\n      pop\n      pop\n      jump\t// out\n        /* \"#utility.yul\":2998:3097   */\n    tag_136:\n        /* \"#utility.yul\":3050:3056   */\n      0x00\n        /* \"#utility.yul\":3084:3089   */\n      dup2\n        /* \"#utility.yul\":3078:3090   */\n      mload\n        /* \"#utility.yul\":3068:3090   */\n      swap1\n      pop\n        /* \"#utility.yul\":2998:3097   */\n      swap2\n      swap1\n      pop\n      jump\t// out\n        /* \"#utility.yul\":3103:3272   */\n    tag_137:\n        /* \"#utility.yul\":3187:3198   */\n      0x00\n        /* \"#utility.yul\":3221:3227   */\n      dup3\n        /* \"#utility.yul\":3216:3219   */\n      dup3\n        /* \"#utility.yul\":3209:3228   */\n      mstore\n        /* \"#utility.yul\":3261:3265   */\n      0x20\n        /* \"#utility.yul\":3256:3259   */\n      dup3\n        /* \"#utility.yul\":3252:3266   */\n      add\n        /* \"#utility.yul\":3237:3266   */\n      swap1\n      pop\n        /* \"#utility.yul\":3103:3272   */\n      swap3\n      swap2\n      pop\n      pop\n      jump\t// out\n        /* \"#utility.yul\":3278:3524   */\n    tag_138:\n        /* \"#utility.yul\":3359:3360   */\n      0x00\n        /* \"#utility.yul\":3369:3482   */\n    tag_222:\n        /* \"#utility.yul\":3383:3389   */\n      dup4\n        /* \"#utility.yul\":3380:3381   */\n      dup2\n        /* \"#utility.yul\":3377:3390   */\n      lt\n        /* \"#utility.yul\":3369:3482   */\n      iszero\n      tag_224\n      jumpi\n        /* \"#utility.yul\":3468:3469   */\n      dup1\n        /* \"#utility.yul\":3463:3466   */\n      dup3\n        /* \"#utility.yul\":3459:3470   */\n      add\n        /* \"#utility.yul\":3453:3471   */\n      mload\n        /* \"#utility.yul\":3449:3450   */\n      dup2\n        /* \"#utility.yul\":3444:3447   */\n      dup5\n        /* \"#utility.yul\":3440:3451   */\n      add\n        /* \"#utility.yul\":3433:3472   */\n      mstore\n        /* \"#utility.yul\":3405:3407   */\n      0x20\n        /* \"#utility.yul\":3402:3403   */\n      dup2\n        /* \"#utility.yul\":3398:3408   */\n      add\n        /* \"#utility.yul\":3393:3408   */\n      swap1\n      pop\n        /* \"#utility.yul\":3369:3482   */\n      jump(tag_222)\n    tag_224:\n        /* \"#utility.yul\":3516:3517   */\n      0x00\n        /* \"#utility.yul\":3507:3513   */\n      dup5\n        /* \"#utility.yul\":3502:3505   */\n      dup5\n        /* \"#utility.yul\":3498:3514   */\n      add\n        /* \"#utility.yul\":3491:3518   */\n      mstore\n        /* \"#utility.yul\":3340:3524   */\n      pop\n        /* \"#utility.yul\":3278:3524   */\n      pop\n      pop\n      pop\n      jump\t// out\n        /* \"#utility.yul\":3530:3632   */\n    tag_139:\n        /* \"#utility.yul\":3571:3577   */\n      0x00\n        /* \"#utility.yul\":3622:3624   */\n      0x1f\n        /* \"#utility.yul\":3618:3625   */\n      not\n        /* \"#utility.yul\":3613:3615   */\n      0x1f\n        /* \"#utility.yul\":3606:3611   */\n      dup4\n        /* \"#utility.yul\":3602:3616   */\n      add\n        /* \"#utility.yul\":3598:3626   */\n      and\n        /* \"#utility.yul\":3588:3626   */\n      swap1\n      pop\n        /* \"#utility.yul\":3530:3632   */\n      swap2\n      swap1\n      pop\n      jump\t// out\n        /* \"#utility.yul\":3638:4015   */\n    tag_140:\n        /* \"#utility.yul\":3726:3729   */\n      0x00\n        /* \"#utility.yul\":3754:3793   */\n      tag_227\n        /* \"#utility.yul\":3787:3792   */\n      dup3\n        /* \"#utility.yul\":3754:3793   */\n      tag_136\n      jump\t// in\n    tag_227:\n        /* \"#utility.yul\":3809:3880   */\n      tag_228\n        /* \"#utility.yul\":3873:3879   */\n      dup2\n        /* \"#utility.yul\":3868:3871   */\n      dup6\n        /* \"#utility.yul\":3809:3880   */\n      tag_137\n      jump\t// in\n    tag_228:\n        /* \"#utility.yul\":3802:3880   */\n      swap4\n      pop\n        /* \"#utility.yul\":3889:3954   */\n      tag_229\n        /* \"#utility.yul\":3947:3953   */\n      dup2\n        /* \"#utility.yul\":3942:3945   */\n      dup6\n        /* \"#utility.yul\":3935:3939   */\n      0x20\n        /* \"#utility.yul\":3928:3933   */\n      dup7\n        /* \"#utility.yul\":3924:3940   */\n      add\n        /* \"#utility.yul\":3889:3954   */\n      tag_138\n      jump\t// in\n    tag_229:\n        /* \"#utility.yul\":3979:4008   */\n      tag_230\n        /* \"#utility.yul\":4001:4007   */\n      dup2\n        /* \"#utility.yul\":3979:4008   */\n      tag_139\n      jump\t// in\n    tag_230:\n        /* \"#utility.yul\":3974:3977   */\n      dup5\n        /* \"#utility.yul\":3970:4009   */\n      add\n        /* \"#utility.yul\":3963:4009   */\n      swap2\n      pop\n        /* \"#utility.yul\":3730:4015   */\n      pop\n        /* \"#utility.yul\":3638:4015   */\n      swap3\n      swap2\n      pop\n      pop\n      jump\t// out\n        /* \"#utility.yul\":4021:4764   */\n    tag_47:\n        /* \"#utility.yul\":4240:4244   */\n      0x00\n        /* \"#utility.yul\":4278:4281   */\n      0xa0\n        /* \"#utility.yul\":4267:4276   */\n      dup3\n        /* \"#utility.yul\":4263:4282   */\n      add\n        /* \"#utility.yul\":4255:4282   */\n      swap1\n      pop\n        /* \"#utility.yul\":4328:4337   */\n      dup2\n        /* \"#utility.yul\":4322:4326   */\n      dup2\n        /* \"#utility.yul\":4318:4338   */\n      sub\n        /* \"#utility.yul\":4314:4315   */\n      0x00\n        /* \"#utility.yul\":4303:4312   */\n      dup4\n        /* \"#utility.yul\":4299:4316   */\n      add\n        /* \"#utility.yul\":4292:4339   */\n      mstore\n        /* \"#utility.yul\":4356:4434   */\n      tag_232\n        /* \"#utility.yul\":4429:4433   */\n      dup2\n        /* \"#utility.yul\":4420:4426   */\n      dup9\n        /* \"#utility.yul\":4356:4434   */\n      tag_140\n      jump\t// in\n    tag_232:\n        /* \"#utility.yul\":4348:4434   */\n      swap1\n      pop\n        /* \"#utility.yul\":4444:4516   */\n      tag_233\n        /* \"#utility.yul\":4512:4514   */\n      0x20\n        /* \"#utility.yul\":4501:4510   */\n      dup4\n        /* \"#utility.yul\":4497:4515   */\n      add\n        /* \"#utility.yul\":4488:4494   */\n      dup8\n        /* \"#utility.yul\":4444:4516   */\n      tag_134\n      jump\t// in\n    tag_233:\n        /* \"#utility.yul\":4526:4598   */\n      tag_234\n        /* \"#utility.yul\":4594:4596   */\n      0x40\n        /* \"#utility.yul\":4583:4592   */\n      dup4\n        /* \"#utility.yul\":4579:4597   */\n      add\n        /* \"#utility.yul\":4570:4576   */\n      dup7\n        /* \"#utility.yul\":4526:4598   */\n      tag_135\n      jump\t// in\n    tag_234:\n        /* \"#utility.yul\":4608:4674   */\n      tag_235\n        /* \"#utility.yul\":4670:4672   */\n      0x60\n        /* \"#utility.yul\":4659:4668   */\n      dup4\n        /* \"#utility.yul\":4655:4673   */\n      add\n        /* \"#utility.yul\":4646:4652   */\n      dup6\n        /* \"#utility.yul\":4608:4674   */\n      tag_133\n      jump\t// in\n    tag_235:\n        /* \"#utility.yul\":4684:4757   */\n      tag_236\n        /* \"#utility.yul\":4752:4755   */\n      0x80\n        /* \"#utility.yul\":4741:4750   */\n      dup4\n        /* \"#utility.yul\":4737:4756   */\n      add\n        /* \"#utility.yul\":4728:4734   */\n      dup5\n        /* \"#utility.yul\":4684:4757   */\n      tag_134\n      jump\t// in\n    tag_236:\n        /* \"#utility.yul\":4021:4764   */\n      swap7\n      swap6\n      pop\n      pop\n      pop\n      pop\n      pop\n      pop\n      jump\t// out\n        /* \"#utility.yul\":4770:4887   */\n    tag_141:\n        /* \"#utility.yul\":4879:4880   */\n      0x00\n        /* \"#utility.yul\":4876:4877   */\n      dup1\n        /* \"#utility.yul\":4869:4881   */\n      revert\n        /* \"#utility.yul\":4893:5010   */\n    tag_142:\n        /* \"#utility.yul\":5002:5003   */\n      0x00\n        /* \"#utility.yul\":4999:5000   */\n      dup1\n        /* \"#utility.yul\":4992:5004   */\n      revert\n        /* \"#utility.yul\":5016:5196   */\n    tag_143:\n        /* \"#utility.yul\":5064:5141   */\n      0x4e487b7100000000000000000000000000000000000000000000000000000000\n        /* \"#utility.yul\":5061:5062   */\n      0x00\n        /* \"#utility.yul\":5054:5142   */\n      mstore\n        /* \"#utility.yul\":5161:5165   */\n      0x41\n        /* \"#utility.yul\":5158:5159   */\n      0x04\n        /* \"#utility.yul\":5151:5166   */\n      mstore\n        /* \"#utility.yul\":5185:5189   */\n      0x24\n        /* \"#utility.yul\":5182:5183   */\n      0x00\n        /* \"#utility.yul\":5175:5190   */\n      revert\n        /* \"#utility.yul\":5202:5483   */\n    tag_144:\n        /* \"#utility.yul\":5285:5312   */\n      tag_241\n        /* \"#utility.yul\":5307:5311   */\n      dup3\n        /* \"#utility.yul\":5285:5312   */\n      tag_139\n      jump\t// in\n    tag_241:\n        /* \"#utility.yul\":5277:5283   */\n      dup2\n        /* \"#utility.yul\":5273:5313   */\n      add\n        /* \"#utility.yul\":5415:5421   */\n      dup2\n        /* \"#utility.yul\":5403:5413   */\n      dup2\n        /* \"#utility.yul\":5400:5422   */\n      lt\n        /* \"#utility.yul\":5379:5397   */\n      0xffffffffffffffff\n        /* \"#utility.yul\":5367:5377   */\n      dup3\n        /* \"#utility.yul\":5364:5398   */\n      gt\n        /* \"#utility.yul\":5361:5423   */\n      or\n        /* \"#utility.yul\":5358:5446   */\n      iszero\n      tag_242\n      jumpi\n        /* \"#utility.yul\":5426:5444   */\n      tag_243\n      tag_143\n      jump\t// in\n    tag_243:\n        /* \"#utility.yul\":5358:5446   */\n    tag_242:\n        /* \"#utility.yul\":5466:5476   */\n      dup1\n        /* \"#utility.yul\":5462:5464   */\n      0x40\n        /* \"#utility.yul\":5455:5477   */\n      mstore\n        /* \"#utility.yul\":5245:5483   */\n      pop\n        /* \"#utility.yul\":5202:5483   */\n      pop\n      pop\n      jump\t// out\n        /* \"#utility.yul\":5489:5618   */\n    tag_145:\n        /* \"#utility.yul\":5523:5529   */\n      0x00\n        /* \"#utility.yul\":5550:5570   */\n      tag_245\n      tag_122\n      jump\t// in\n    tag_245:\n        /* \"#utility.yul\":5540:5570   */\n      swap1\n      pop\n        /* \"#utility.yul\":5579:5612   */\n      tag_246\n        /* \"#utility.yul\":5607:5611   */\n      dup3\n        /* \"#utility.yul\":5599:5605   */\n      dup3\n        /* \"#utility.yul\":5579:5612   */\n      tag_144\n      jump\t// in\n    tag_246:\n        /* \"#utility.yul\":5489:5618   */\n      swap2\n      swap1\n      pop\n      jump\t// out\n        /* \"#utility.yul\":5624:5932   */\n    tag_146:\n        /* \"#utility.yul\":5686:5690   */\n      0x00\n        /* \"#utility.yul\":5776:5794   */\n      0xffffffffffffffff\n        /* \"#utility.yul\":5768:5774   */\n      dup3\n        /* \"#utility.yul\":5765:5795   */\n      gt\n        /* \"#utility.yul\":5762:5818   */\n      iszero\n      tag_248\n      jumpi\n        /* \"#utility.yul\":5798:5816   */\n      tag_249\n      tag_143\n      jump\t// in\n    tag_249:\n        /* \"#utility.yul\":5762:5818   */\n    tag_248:\n        /* \"#utility.yul\":5836:5865   */\n      tag_250\n        /* \"#utility.yul\":5858:5864   */\n      dup3\n        /* \"#utility.yul\":5836:5865   */\n      tag_139\n      jump\t// in\n    tag_250:\n        /* \"#utility.yul\":5828:5865   */\n      swap1\n      pop\n        /* \"#utility.yul\":5920:5924   */\n      0x20\n        /* \"#utility.yul\":5914:5918   */\n      dup2\n        /* \"#utility.yul\":5910:5925   */\n      add\n        /* \"#utility.yul\":5902:5925   */\n      swap1\n      pop\n        /* \"#utility.yul\":5624:5932   */\n      swap2\n      swap1\n      pop\n      jump\t// out\n        /* \"#utility.yul\":5938:6084   */\n    tag_147:\n        /* \"#utility.yul\":6035:6041   */\n      dup3\n        /* \"#utility.yul\":6030:6033   */\n      dup2\n        /* \"#utility.yul\":6025:6028   */\n      dup4\n        /* \"#utility.yul\":6012:6042   */\n      calldatacopy\n        /* \"#utility.yul\":6076:6077   */\n      0x00\n        /* \"#utility.yul\":6067:6073   */\n      dup4\n        /* \"#utility.yul\":6062:6065   */\n      dup4\n        /* \"#utility.yul\":6058:6074   */\n      add\n        /* \"#utility.yul\":6051:6078   */\n      mstore\n        /* \"#utility.yul\":5938:6084   */\n      pop\n      pop\n      pop\n      jump\t// out\n        /* \"#utility.yul\":6090:6515   */\n    tag_148:\n        /* \"#utility.yul\":6168:6173   */\n      0x00\n        /* \"#utility.yul\":6193:6259   */\n      tag_253\n        /* \"#utility.yul\":6209:6258   */\n      tag_254\n        /* \"#utility.yul\":6251:6257   */\n      dup5\n        /* \"#utility.yul\":6209:6258   */\n      tag_146\n      jump\t// in\n    tag_254:\n        /* \"#utility.yul\":6193:6259   */\n      tag_145\n      jump\t// in\n    tag_253:\n        /* \"#utility.yul\":6184:6259   */\n      swap1\n      pop\n        /* \"#utility.yul\":6282:6288   */\n      dup3\n        /* \"#utility.yul\":6275:6280   */\n      dup2\n        /* \"#utility.yul\":6268:6289   */\n      mstore\n        /* \"#utility.yul\":6320:6324   */\n      0x20\n        /* \"#utility.yul\":6313:6318   */\n      dup2\n        /* \"#utility.yul\":6309:6325   */\n      add\n        /* \"#utility.yul\":6358:6361   */\n      dup5\n        /* \"#utility.yul\":6349:6355   */\n      dup5\n        /* \"#utility.yul\":6344:6347   */\n      dup5\n        /* \"#utility.yul\":6340:6356   */\n      add\n        /* \"#utility.yul\":6337:6362   */\n      gt\n        /* \"#utility.yul\":6334:6446   */\n      iszero\n      tag_255\n      jumpi\n        /* \"#utility.yul\":6365:6444   */\n      tag_256\n      tag_142\n      jump\t// in\n    tag_256:\n        /* \"#utility.yul\":6334:6446   */\n    tag_255:\n        /* \"#utility.yul\":6455:6509   */\n      tag_257\n        /* \"#utility.yul\":6502:6508   */\n      dup5\n        /* \"#utility.yul\":6497:6500   */\n      dup3\n        /* \"#utility.yul\":6492:6495   */\n      dup6\n        /* \"#utility.yul\":6455:6509   */\n      tag_147\n      jump\t// in\n    tag_257:\n        /* \"#utility.yul\":6174:6515   */\n      pop\n        /* \"#utility.yul\":6090:6515   */\n      swap4\n      swap3\n      pop\n      pop\n      pop\n      jump\t// out\n        /* \"#utility.yul\":6535:6875   */\n    tag_149:\n        /* \"#utility.yul\":6591:6596   */\n      0x00\n        /* \"#utility.yul\":6640:6643   */\n      dup3\n        /* \"#utility.yul\":6633:6637   */\n      0x1f\n        /* \"#utility.yul\":6625:6631   */\n      dup4\n        /* \"#utility.yul\":6621:6638   */\n      add\n        /* \"#utility.yul\":6617:6644   */\n      slt\n        /* \"#utility.yul\":6607:6729   */\n      tag_259\n      jumpi\n        /* \"#utility.yul\":6648:6727   */\n      tag_260\n      tag_141\n      jump\t// in\n    tag_260:\n        /* \"#utility.yul\":6607:6729   */\n    tag_259:\n        /* \"#utility.yul\":6765:6771   */\n      dup2\n        /* \"#utility.yul\":6752:6772   */\n      calldataload\n        /* \"#utility.yul\":6790:6869   */\n      tag_261\n        /* \"#utility.yul\":6865:6868   */\n      dup5\n        /* \"#utility.yul\":6857:6863   */\n      dup3\n        /* \"#utility.yul\":6850:6854   */\n      0x20\n        /* \"#utility.yul\":6842:6848   */\n      dup7\n        /* \"#utility.yul\":6838:6855   */\n      add\n        /* \"#utility.yul\":6790:6869   */\n      tag_148\n      jump\t// in\n    tag_261:\n        /* \"#utility.yul\":6781:6869   */\n      swap2\n      pop\n        /* \"#utility.yul\":6597:6875   */\n      pop\n        /* \"#utility.yul\":6535:6875   */\n      swap3\n      swap2\n      pop\n      pop\n      jump\t// out\n        /* \"#utility.yul\":6881:7680   */\n    tag_51:\n        /* \"#utility.yul\":6968:6974   */\n      0x00\n        /* \"#utility.yul\":6976:6982   */\n      dup1\n        /* \"#utility.yul\":6984:6990   */\n      0x00\n        /* \"#utility.yul\":7033:7035   */\n      0x60\n        /* \"#utility.yul\":7021:7030   */\n      dup5\n        /* \"#utility.yul\":7012:7019   */\n      dup7\n        /* \"#utility.yul\":7008:7031   */\n      sub\n        /* \"#utility.yul\":7004:7036   */\n      slt\n        /* \"#utility.yul\":7001:7120   */\n      iszero\n      tag_263\n      jumpi\n        /* \"#utility.yul\":7039:7118   */\n      tag_264\n      tag_123\n      jump\t// in\n    tag_264:\n        /* \"#utility.yul\":7001:7120   */\n    tag_263:\n        /* \"#utility.yul\":7187:7188   */\n      0x00\n        /* \"#utility.yul\":7176:7185   */\n      dup5\n        /* \"#utility.yul\":7172:7189   */\n      add\n        /* \"#utility.yul\":7159:7190   */\n      calldataload\n        /* \"#utility.yul\":7217:7235   */\n      0xffffffffffffffff\n        /* \"#utility.yul\":7209:7215   */\n      dup2\n        /* \"#utility.yul\":7206:7236   */\n      gt\n        /* \"#utility.yul\":7203:7320   */\n      iszero\n      tag_265\n      jumpi\n        /* \"#utility.yul\":7239:7318   */\n      tag_266\n      tag_124\n      jump\t// in\n    tag_266:\n        /* \"#utility.yul\":7203:7320   */\n    tag_265:\n        /* \"#utility.yul\":7344:7407   */\n      tag_267\n        /* \"#utility.yul\":7399:7406   */\n      dup7\n        /* \"#utility.yul\":7390:7396   */\n      dup3\n        /* \"#utility.yul\":7379:7388   */\n      dup8\n        /* \"#utility.yul\":7375:7397   */\n      add\n        /* \"#utility.yul\":7344:7407   */\n      tag_149\n      jump\t// in\n    tag_267:\n        /* \"#utility.yul\":7334:7407   */\n      swap4\n      pop\n        /* \"#utility.yul\":7130:7417   */\n      pop\n        /* \"#utility.yul\":7456:7458   */\n      0x20\n        /* \"#utility.yul\":7482:7535   */\n      tag_268\n        /* \"#utility.yul\":7527:7534   */\n      dup7\n        /* \"#utility.yul\":7518:7524   */\n      dup3\n        /* \"#utility.yul\":7507:7516   */\n      dup8\n        /* \"#utility.yul\":7503:7525   */\n      add\n        /* \"#utility.yul\":7482:7535   */\n      tag_127\n      jump\t// in\n    tag_268:\n        /* \"#utility.yul\":7472:7535   */\n      swap3\n      pop\n        /* \"#utility.yul\":7427:7545   */\n      pop\n        /* \"#utility.yul\":7584:7586   */\n      0x40\n        /* \"#utility.yul\":7610:7663   */\n      tag_269\n        /* \"#utility.yul\":7655:7662   */\n      dup7\n        /* \"#utility.yul\":7646:7652   */\n      dup3\n        /* \"#utility.yul\":7635:7644   */\n      dup8\n        /* \"#utility.yul\":7631:7653   */\n      add\n        /* \"#utility.yul\":7610:7663   */\n      tag_131\n      jump\t// in\n    tag_269:\n        /* \"#utility.yul\":7600:7663   */\n      swap2\n      pop\n        /* \"#utility.yul\":7555:7673   */\n      pop\n        /* \"#utility.yul\":6881:7680   */\n      swap3\n      pop\n      swap3\n      pop\n      swap3\n      jump\t// out\n        /* \"#utility.yul\":7686:8350   */\n    tag_61:\n        /* \"#utility.yul\":7891:7895   */\n      0x00\n        /* \"#utility.yul\":7929:7932   */\n      0xa0\n        /* \"#utility.yul\":7918:7927   */\n      dup3\n        /* \"#utility.yul\":7914:7933   */\n      add\n        /* \"#utility.yul\":7906:7933   */\n      swap1\n      pop\n        /* \"#utility.yul\":7943:8014   */\n      tag_271\n        /* \"#utility.yul\":8011:8012   */\n      0x00\n        /* \"#utility.yul\":8000:8009   */\n      dup4\n        /* \"#utility.yul\":7996:8013   */\n      add\n        /* \"#utility.yul\":7987:7993   */\n      dup9\n        /* \"#utility.yul\":7943:8014   */\n      tag_134\n      jump\t// in\n    tag_271:\n        /* \"#utility.yul\":8024:8096   */\n      tag_272\n        /* \"#utility.yul\":8092:8094   */\n      0x20\n        /* \"#utility.yul\":8081:8090   */\n      dup4\n        /* \"#utility.yul\":8077:8095   */\n      add\n        /* \"#utility.yul\":8068:8074   */\n      dup8\n        /* \"#utility.yul\":8024:8096   */\n      tag_134\n      jump\t// in\n    tag_272:\n        /* \"#utility.yul\":8106:8178   */\n      tag_273\n        /* \"#utility.yul\":8174:8176   */\n      0x40\n        /* \"#utility.yul\":8163:8172   */\n      dup4\n        /* \"#utility.yul\":8159:8177   */\n      add\n        /* \"#utility.yul\":8150:8156   */\n      dup7\n        /* \"#utility.yul\":8106:8178   */\n      tag_134\n      jump\t// in\n    tag_273:\n        /* \"#utility.yul\":8188:8260   */\n      tag_274\n        /* \"#utility.yul\":8256:8258   */\n      0x60\n        /* \"#utility.yul\":8245:8254   */\n      dup4\n        /* \"#utility.yul\":8241:8259   */\n      add\n        /* \"#utility.yul\":8232:8238   */\n      dup6\n        /* \"#utility.yul\":8188:8260   */\n      tag_134\n      jump\t// in\n    tag_274:\n        /* \"#utility.yul\":8270:8343   */\n      tag_275\n        /* \"#utility.yul\":8338:8341   */\n      0x80\n        /* \"#utility.yul\":8327:8336   */\n      dup4\n        /* \"#utility.yul\":8323:8342   */\n      add\n        /* \"#utility.yul\":8314:8320   */\n      dup5\n        /* \"#utility.yul\":8270:8343   */\n      tag_135\n      jump\t// in\n    tag_275:\n        /* \"#utility.yul\":7686:8350   */\n      swap7\n      swap6\n      pop\n      pop\n      pop\n      pop\n      pop\n      pop\n      jump\t// out\n        /* \"#utility.yul\":8356:8586   */\n    tag_150:\n        /* \"#utility.yul\":8496:8530   */\n      0x4f6e6c7920746865206d616e616765722063616e206578656375746520746869\n        /* \"#utility.yul\":8492:8493   */\n      0x00\n        /* \"#utility.yul\":8484:8490   */\n      dup3\n        /* \"#utility.yul\":8480:8494   */\n      add\n        /* \"#utility.yul\":8473:8531   */\n      mstore\n        /* \"#utility.yul\":8565:8578   */\n      0x732066756e6374696f6e2e000000000000000000000000000000000000000000\n        /* \"#utility.yul\":8560:8562   */\n      0x20\n        /* \"#utility.yul\":8552:8558   */\n      dup3\n        /* \"#utility.yul\":8548:8563   */\n      add\n        /* \"#utility.yul\":8541:8579   */\n      mstore\n        /* \"#utility.yul\":8356:8586   */\n      pop\n      jump\t// out\n        /* \"#utility.yul\":8592:8958   */\n    tag_151:\n        /* \"#utility.yul\":8734:8737   */\n      0x00\n        /* \"#utility.yul\":8755:8822   */\n      tag_278\n        /* \"#utility.yul\":8819:8821   */\n      0x2b\n        /* \"#utility.yul\":8814:8817   */\n      dup4\n        /* \"#utility.yul\":8755:8822   */\n      tag_137\n      jump\t// in\n    tag_278:\n        /* \"#utility.yul\":8748:8822   */\n      swap2\n      pop\n        /* \"#utility.yul\":8831:8924   */\n      tag_279\n        /* \"#utility.yul\":8920:8923   */\n      dup3\n        /* \"#utility.yul\":8831:8924   */\n      tag_150\n      jump\t// in\n    tag_279:\n        /* \"#utility.yul\":8949:8951   */\n      0x40\n        /* \"#utility.yul\":8944:8947   */\n      dup3\n        /* \"#utility.yul\":8940:8952   */\n      add\n        /* \"#utility.yul\":8933:8952   */\n      swap1\n      pop\n        /* \"#utility.yul\":8592:8958   */\n      swap2\n      swap1\n      pop\n      jump\t// out\n        /* \"#utility.yul\":8964:9383   */\n    tag_79:\n        /* \"#utility.yul\":9130:9134   */\n      0x00\n        /* \"#utility.yul\":9168:9170   */\n      0x20\n        /* \"#utility.yul\":9157:9166   */\n      dup3\n        /* \"#utility.yul\":9153:9171   */\n      add\n        /* \"#utility.yul\":9145:9171   */\n      swap1\n      pop\n        /* \"#utility.yul\":9217:9226   */\n      dup2\n        /* \"#utility.yul\":9211:9215   */\n      dup2\n        /* \"#utility.yul\":9207:9227   */\n      sub\n        /* \"#utility.yul\":9203:9204   */\n      0x00\n        /* \"#utility.yul\":9192:9201   */\n      dup4\n        /* \"#utility.yul\":9188:9205   */\n      add\n        /* \"#utility.yul\":9181:9228   */\n      mstore\n        /* \"#utility.yul\":9245:9376   */\n      tag_281\n        /* \"#utility.yul\":9371:9375   */\n      dup2\n        /* \"#utility.yul\":9245:9376   */\n      tag_151\n      jump\t// in\n    tag_281:\n        /* \"#utility.yul\":9237:9376   */\n      swap1\n      pop\n        /* \"#utility.yul\":8964:9383   */\n      swap2\n      swap1\n      pop\n      jump\t// out\n        /* \"#utility.yul\":9389:9569   */\n    tag_152:\n        /* \"#utility.yul\":9437:9514   */\n      0x4e487b7100000000000000000000000000000000000000000000000000000000\n        /* \"#utility.yul\":9434:9435   */\n      0x00\n        /* \"#utility.yul\":9427:9515   */\n      mstore\n        /* \"#utility.yul\":9534:9538   */\n      0x12\n        /* \"#utility.yul\":9531:9532   */\n      0x04\n        /* \"#utility.yul\":9524:9539   */\n      mstore\n        /* \"#utility.yul\":9558:9562   */\n      0x24\n        /* \"#utility.yul\":9555:9556   */\n      0x00\n        /* \"#utility.yul\":9548:9563   */\n      revert\n        /* \"#utility.yul\":9575:9755   */\n    tag_153:\n        /* \"#utility.yul\":9623:9700   */\n      0x4e487b7100000000000000000000000000000000000000000000000000000000\n        /* \"#utility.yul\":9620:9621   */\n      0x00\n        /* \"#utility.yul\":9613:9701   */\n      mstore\n        /* \"#utility.yul\":9720:9724   */\n      0x11\n        /* \"#utility.yul\":9717:9718   */\n      0x04\n        /* \"#utility.yul\":9710:9725   */\n      mstore\n        /* \"#utility.yul\":9744:9748   */\n      0x24\n        /* \"#utility.yul\":9741:9742   */\n      0x00\n        /* \"#utility.yul\":9734:9749   */\n      revert\n        /* \"#utility.yul\":9761:9946   */\n    tag_82:\n        /* \"#utility.yul\":9801:9802   */\n      0x00\n        /* \"#utility.yul\":9818:9838   */\n      tag_285\n        /* \"#utility.yul\":9836:9837   */\n      dup3\n        /* \"#utility.yul\":9818:9838   */\n      tag_125\n      jump\t// in\n    tag_285:\n        /* \"#utility.yul\":9813:9838   */\n      swap2\n      pop\n        /* \"#utility.yul\":9852:9872   */\n      tag_286\n        /* \"#utility.yul\":9870:9871   */\n      dup4\n        /* \"#utility.yul\":9852:9872   */\n      tag_125\n      jump\t// in\n    tag_286:\n        /* \"#utility.yul\":9847:9872   */\n      swap3\n      pop\n        /* \"#utility.yul\":9891:9892   */\n      dup3\n        /* \"#utility.yul\":9881:9916   */\n      tag_287\n      jumpi\n        /* \"#utility.yul\":9896:9914   */\n      tag_288\n      tag_152\n      jump\t// in\n    tag_288:\n        /* \"#utility.yul\":9881:9916   */\n    tag_287:\n        /* \"#utility.yul\":9938:9939   */\n      dup3\n        /* \"#utility.yul\":9935:9936   */\n      dup3\n        /* \"#utility.yul\":9931:9940   */\n      div\n        /* \"#utility.yul\":9926:9940   */\n      swap1\n      pop\n        /* \"#utility.yul\":9761:9946   */\n      swap3\n      swap2\n      pop\n      pop\n      jump\t// out\n        /* \"#utility.yul\":9952:10184   */\n    tag_154:\n        /* \"#utility.yul\":10092:10126   */\n      0x596f7520646f206e6f742068617665207265717569726564206e756d62657220\n        /* \"#utility.yul\":10088:10089   */\n      0x00\n        /* \"#utility.yul\":10080:10086   */\n      dup3\n        /* \"#utility.yul\":10076:10090   */\n      add\n        /* \"#utility.yul\":10069:10127   */\n      mstore\n        /* \"#utility.yul\":10161:10176   */\n      0x6f6620617070726f76616c732e00000000000000000000000000000000000000\n        /* \"#utility.yul\":10156:10158   */\n      0x20\n        /* \"#utility.yul\":10148:10154   */\n      dup3\n        /* \"#utility.yul\":10144:10159   */\n      add\n        /* \"#utility.yul\":10137:10177   */\n      mstore\n        /* \"#utility.yul\":9952:10184   */\n      pop\n      jump\t// out\n        /* \"#utility.yul\":10190:10556   */\n    tag_155:\n        /* \"#utility.yul\":10332:10335   */\n      0x00\n        /* \"#utility.yul\":10353:10420   */\n      tag_291\n        /* \"#utility.yul\":10417:10419   */\n      0x2d\n        /* \"#utility.yul\":10412:10415   */\n      dup4\n        /* \"#utility.yul\":10353:10420   */\n      tag_137\n      jump\t// in\n    tag_291:\n        /* \"#utility.yul\":10346:10420   */\n      swap2\n      pop\n        /* \"#utility.yul\":10429:10522   */\n      tag_292\n        /* \"#utility.yul\":10518:10521   */\n      dup3\n        /* \"#utility.yul\":10429:10522   */\n      tag_154\n      jump\t// in\n    tag_292:\n        /* \"#utility.yul\":10547:10549   */\n      0x40\n        /* \"#utility.yul\":10542:10545   */\n      dup3\n        /* \"#utility.yul\":10538:10550   */\n      add\n        /* \"#utility.yul\":10531:10550   */\n      swap1\n      pop\n        /* \"#utility.yul\":10190:10556   */\n      swap2\n      swap1\n      pop\n      jump\t// out\n        /* \"#utility.yul\":10562:10981   */\n    tag_85:\n        /* \"#utility.yul\":10728:10732   */\n      0x00\n        /* \"#utility.yul\":10766:10768   */\n      0x20\n        /* \"#utility.yul\":10755:10764   */\n      dup3\n        /* \"#utility.yul\":10751:10769   */\n      add\n        /* \"#utility.yul\":10743:10769   */\n      swap1\n      pop\n        /* \"#utility.yul\":10815:10824   */\n      dup2\n        /* \"#utility.yul\":10809:10813   */\n      dup2\n        /* \"#utility.yul\":10805:10825   */\n      sub\n        /* \"#utility.yul\":10801:10802   */\n      0x00\n        /* \"#utility.yul\":10790:10799   */\n      dup4\n        /* \"#utility.yul\":10786:10803   */\n      add\n        /* \"#utility.yul\":10779:10826   */\n      mstore\n        /* \"#utility.yul\":10843:10974   */\n      tag_294\n        /* \"#utility.yul\":10969:10973   */\n      dup2\n        /* \"#utility.yul\":10843:10974   */\n      tag_155\n      jump\t// in\n    tag_294:\n        /* \"#utility.yul\":10835:10974   */\n      swap1\n      pop\n        /* \"#utility.yul\":10562:10981   */\n      swap2\n      swap1\n      pop\n      jump\t// out\n        /* \"#utility.yul\":10987:11208   */\n    tag_156:\n        /* \"#utility.yul\":11127:11161   */\n      0x5265717565737420686173206265656e20617070726f76656420616c72656164\n        /* \"#utility.yul\":11123:11124   */\n      0x00\n        /* \"#utility.yul\":11115:11121   */\n      dup3\n        /* \"#utility.yul\":11111:11125   */\n      add\n        /* \"#utility.yul\":11104:11162   */\n      mstore\n        /* \"#utility.yul\":11196:11200   */\n      0x792e000000000000000000000000000000000000000000000000000000000000\n        /* \"#utility.yul\":11191:11193   */\n      0x20\n        /* \"#utility.yul\":11183:11189   */\n      dup3\n        /* \"#utility.yul\":11179:11194   */\n      add\n        /* \"#utility.yul\":11172:11201   */\n      mstore\n        /* \"#utility.yul\":10987:11208   */\n      pop\n      jump\t// out\n        /* \"#utility.yul\":11214:11580   */\n    tag_157:\n        /* \"#utility.yul\":11356:11359   */\n      0x00\n        /* \"#utility.yul\":11377:11444   */\n      tag_297\n        /* \"#utility.yul\":11441:11443   */\n      0x22\n        /* \"#utility.yul\":11436:11439   */\n      dup4\n        /* \"#utility.yul\":11377:11444   */\n      tag_137\n      jump\t// in\n    tag_297:\n        /* \"#utility.yul\":11370:11444   */\n      swap2\n      pop\n        /* \"#utility.yul\":11453:11546   */\n      tag_298\n        /* \"#utility.yul\":11542:11545   */\n      dup3\n        /* \"#utility.yul\":11453:11546   */\n      tag_156\n      jump\t// in\n    tag_298:\n        /* \"#utility.yul\":11571:11573   */\n      0x40\n        /* \"#utility.yul\":11566:11569   */\n      dup3\n        /* \"#utility.yul\":11562:11574   */\n      add\n        /* \"#utility.yul\":11555:11574   */\n      swap1\n      pop\n        /* \"#utility.yul\":11214:11580   */\n      swap2\n      swap1\n      pop\n      jump\t// out\n        /* \"#utility.yul\":11586:12005   */\n    tag_88:\n        /* \"#utility.yul\":11752:11756   */\n      0x00\n        /* \"#utility.yul\":11790:11792   */\n      0x20\n        /* \"#utility.yul\":11779:11788   */\n      dup3\n        /* \"#utility.yul\":11775:11793   */\n      add\n        /* \"#utility.yul\":11767:11793   */\n      swap1\n      pop\n        /* \"#utility.yul\":11839:11848   */\n      dup2\n        /* \"#utility.yul\":11833:11837   */\n      dup2\n        /* \"#utility.yul\":11829:11849   */\n      sub\n        /* \"#utility.yul\":11825:11826   */\n      0x00\n        /* \"#utility.yul\":11814:11823   */\n      dup4\n        /* \"#utility.yul\":11810:11827   */\n      add\n        /* \"#utility.yul\":11803:11850   */\n      mstore\n        /* \"#utility.yul\":11867:11998   */\n      tag_300\n        /* \"#utility.yul\":11993:11997   */\n      dup2\n        /* \"#utility.yul\":11867:11998   */\n      tag_157\n      jump\t// in\n    tag_300:\n        /* \"#utility.yul\":11859:11998   */\n      swap1\n      pop\n        /* \"#utility.yul\":11586:12005   */\n      swap2\n      swap1\n      pop\n      jump\t// out\n        /* \"#utility.yul\":12011:12191   */\n    tag_158:\n        /* \"#utility.yul\":12059:12136   */\n      0x4e487b7100000000000000000000000000000000000000000000000000000000\n        /* \"#utility.yul\":12056:12057   */\n      0x00\n        /* \"#utility.yul\":12049:12137   */\n      mstore\n        /* \"#utility.yul\":12156:12160   */\n      0x22\n        /* \"#utility.yul\":12153:12154   */\n      0x04\n        /* \"#utility.yul\":12146:12161   */\n      mstore\n        /* \"#utility.yul\":12180:12184   */\n      0x24\n        /* \"#utility.yul\":12177:12178   */\n      0x00\n        /* \"#utility.yul\":12170:12185   */\n      revert\n        /* \"#utility.yul\":12197:12517   */\n    tag_94:\n        /* \"#utility.yul\":12241:12247   */\n      0x00\n        /* \"#utility.yul\":12278:12279   */\n      0x02\n        /* \"#utility.yul\":12272:12276   */\n      dup3\n        /* \"#utility.yul\":12268:12280   */\n      div\n        /* \"#utility.yul\":12258:12280   */\n      swap1\n      pop\n        /* \"#utility.yul\":12325:12326   */\n      0x01\n        /* \"#utility.yul\":12319:12323   */\n      dup3\n        /* \"#utility.yul\":12315:12327   */\n      and\n        /* \"#utility.yul\":12346:12364   */\n      dup1\n        /* \"#utility.yul\":12336:12417   */\n      tag_303\n      jumpi\n        /* \"#utility.yul\":12402:12406   */\n      0x7f\n        /* \"#utility.yul\":12394:12400   */\n      dup3\n        /* \"#utility.yul\":12390:12407   */\n      and\n        /* \"#utility.yul\":12380:12407   */\n      swap2\n      pop\n        /* \"#utility.yul\":12336:12417   */\n    tag_303:\n        /* \"#utility.yul\":12464:12466   */\n      0x20\n        /* \"#utility.yul\":12456:12462   */\n      dup3\n        /* \"#utility.yul\":12453:12467   */\n      lt\n        /* \"#utility.yul\":12433:12451   */\n      dup2\n        /* \"#utility.yul\":12430:12468   */\n      sub\n        /* \"#utility.yul\":12427:12511   */\n      tag_304\n      jumpi\n        /* \"#utility.yul\":12483:12501   */\n      tag_305\n      tag_158\n      jump\t// in\n    tag_305:\n        /* \"#utility.yul\":12427:12511   */\n    tag_304:\n        /* \"#utility.yul\":12248:12517   */\n      pop\n        /* \"#utility.yul\":12197:12517   */\n      swap2\n      swap1\n      pop\n      jump\t// out\n        /* \"#utility.yul\":12523:12756   */\n    tag_104:\n        /* \"#utility.yul\":12562:12565   */\n      0x00\n        /* \"#utility.yul\":12585:12609   */\n      tag_307\n        /* \"#utility.yul\":12603:12608   */\n      dup3\n        /* \"#utility.yul\":12585:12609   */\n      tag_125\n      jump\t// in\n    tag_307:\n        /* \"#utility.yul\":12576:12609   */\n      swap2\n      pop\n        /* \"#utility.yul\":12631:12697   */\n      0xffffffffffffffffffffffffffffffffffffffffffffffffffffffffffffffff\n        /* \"#utility.yul\":12624:12629   */\n      dup3\n        /* \"#utility.yul\":12621:12698   */\n      sub\n        /* \"#utility.yul\":12618:12721   */\n      tag_308\n      jumpi\n        /* \"#utility.yul\":12701:12719   */\n      tag_309\n      tag_153\n      jump\t// in\n    tag_309:\n        /* \"#utility.yul\":12618:12721   */\n    tag_308:\n        /* \"#utility.yul\":12748:12749   */\n      0x01\n        /* \"#utility.yul\":12741:12746   */\n      dup3\n        /* \"#utility.yul\":12737:12750   */\n      add\n        /* \"#utility.yul\":12730:12750   */\n      swap1\n      pop\n        /* \"#utility.yul\":12523:12756   */\n      swap2\n      swap1\n      pop\n      jump\t// out\n        /* \"#utility.yul\":12762:12903   */\n    tag_159:\n        /* \"#utility.yul\":12811:12815   */\n      0x00\n        /* \"#utility.yul\":12834:12837   */\n      dup2\n        /* \"#utility.yul\":12826:12837   */\n      swap1\n      pop\n        /* \"#utility.yul\":12857:12860   */\n      dup2\n        /* \"#utility.yul\":12854:12855   */\n      0x00\n        /* \"#utility.yul\":12847:12861   */\n      mstore\n        /* \"#utility.yul\":12891:12895   */\n      0x20\n        /* \"#utility.yul\":12888:12889   */\n      0x00\n        /* \"#utility.yul\":12878:12896   */\n      keccak256\n        /* \"#utility.yul\":12870:12896   */\n      swap1\n      pop\n        /* \"#utility.yul\":12762:12903   */\n      swap2\n      swap1\n      pop\n      jump\t// out\n        /* \"#utility.yul\":12909:13002   */\n    tag_160:\n        /* \"#utility.yul\":12946:12952   */\n      0x00\n        /* \"#utility.yul\":12993:12995   */\n      0x20\n        /* \"#utility.yul\":12988:12990   */\n      0x1f\n        /* \"#utility.yul\":12981:12986   */\n      dup4\n        /* \"#utility.yul\":12977:12991   */\n      add\n        /* \"#utility.yul\":12973:12996   */\n      div\n        /* \"#utility.yul\":12963:12996   */\n      swap1\n      pop\n        /* \"#utility.yul\":12909:13002   */\n      swap2\n      swap1\n      pop\n      jump\t// out\n        /* \"#utility.yul\":13008:13115   */\n    tag_161:\n        /* \"#utility.yul\":13052:13060   */\n      0x00\n        /* \"#utility.yul\":13102:13107   */\n      dup3\n        /* \"#utility.yul\":13096:13100   */\n      dup3\n        /* \"#utility.yul\":13092:13108   */\n      shl\n        /* \"#utility.yul\":13071:13108   */\n      swap1\n      pop\n        /* \"#utility.yul\":13008:13115   */\n      swap3\n      swap2\n      pop\n      pop\n      jump\t// out\n        /* \"#utility.yul\":13121:13514   */\n    tag_162:\n        /* \"#utility.yul\":13190:13196   */\n      0x00\n        /* \"#utility.yul\":13240:13241   */\n      0x08\n        /* \"#utility.yul\":13228:13238   */\n      dup4\n        /* \"#utility.yul\":13224:13242   */\n      mul\n        /* \"#utility.yul\":13263:13360   */\n      tag_314\n        /* \"#utility.yul\":13293:13359   */\n      0xffffffffffffffffffffffffffffffffffffffffffffffffffffffffffffffff\n        /* \"#utility.yul\":13282:13291   */\n      dup3\n        /* \"#utility.yul\":13263:13360   */\n      tag_161\n      jump\t// in\n    tag_314:\n        /* \"#utility.yul\":13381:13420   */\n      tag_315\n        /* \"#utility.yul\":13411:13419   */\n      dup7\n        /* \"#utility.yul\":13400:13409   */\n      dup4\n        /* \"#utility.yul\":13381:13420   */\n      tag_161\n      jump\t// in\n    tag_315:\n        /* \"#utility.yul\":13369:13420   */\n      swap6\n      pop\n        /* \"#utility.yul\":13453:13457   */\n      dup1\n        /* \"#utility.yul\":13449:13458   */\n      not\n        /* \"#utility.yul\":13442:13447   */\n      dup5\n        /* \"#utility.yul\":13438:13459   */\n      and\n        /* \"#utility.yul\":13429:13459   */\n      swap4\n      pop\n        /* \"#utility.yul\":13502:13506   */\n      dup1\n        /* \"#utility.yul\":13492:13500   */\n      dup7\n        /* \"#utility.yul\":13488:13507   */\n      and\n        /* \"#utility.yul\":13481:13486   */\n      dup5\n        /* \"#utility.yul\":13478:13508   */\n      or\n        /* \"#utility.yul\":13468:13508   */\n      swap3\n      pop\n        /* \"#utility.yul\":13197:13514   */\n      pop\n      pop\n        /* \"#utility.yul\":13121:13514   */\n      swap4\n      swap3\n      pop\n      pop\n      pop\n      jump\t// out\n        /* \"#utility.yul\":13520:13580   */\n    tag_163:\n        /* \"#utility.yul\":13548:13551   */\n      0x00\n        /* \"#utility.yul\":13569:13574   */\n      dup2\n        /* \"#utility.yul\":13562:13574   */\n      swap1\n      pop\n        /* \"#utility.yul\":13520:13580   */\n      swap2\n      swap1\n      pop\n      jump\t// out\n        /* \"#utility.yul\":13586:13728   */\n    tag_164:\n        /* \"#utility.yul\":13636:13645   */\n      0x00\n        /* \"#utility.yul\":13669:13722   */\n      tag_318\n        /* \"#utility.yul\":13687:13721   */\n      tag_319\n        /* \"#utility.yul\":13696:13720   */\n      tag_320\n        /* \"#utility.yul\":13714:13719   */\n      dup5\n        /* \"#utility.yul\":13696:13720   */\n      tag_125\n      jump\t// in\n    tag_320:\n        /* \"#utility.yul\":13687:13721   */\n      tag_163\n      jump\t// in\n    tag_319:\n        /* \"#utility.yul\":13669:13722   */\n      tag_125\n      jump\t// in\n    tag_318:\n        /* \"#utility.yul\":13656:13722   */\n      swap1\n      pop\n        /* \"#utility.yul\":13586:13728   */\n      swap2\n      swap1\n      pop\n      jump\t// out\n        /* \"#utility.yul\":13734:13809   */\n    tag_165:\n        /* \"#utility.yul\":13777:13780   */\n      0x00\n        /* \"#utility.yul\":13798:13803   */\n      dup2\n        /* \"#utility.yul\":13791:13803   */\n      swap1\n      pop\n        /* \"#utility.yul\":13734:13809   */\n      swap2\n      swap1\n      pop\n      jump\t// out\n        /* \"#utility.yul\":13815:14084   */\n    tag_166:\n        /* \"#utility.yul\":13925:13964   */\n      tag_323\n        /* \"#utility.yul\":13956:13963   */\n      dup4\n        /* \"#utility.yul\":13925:13964   */\n      tag_164\n      jump\t// in\n    tag_323:\n        /* \"#utility.yul\":13986:14077   */\n      tag_324\n        /* \"#utility.yul\":14035:14076   */\n      tag_325\n        /* \"#utility.yul\":14059:14075   */\n      dup3\n        /* \"#utility.yul\":14035:14076   */\n      tag_165\n      jump\t// in\n    tag_325:\n        /* \"#utility.yul\":14027:14033   */\n      dup5\n        /* \"#utility.yul\":14020:14024   */\n      dup5\n        /* \"#utility.yul\":14014:14025   */\n      sload\n        /* \"#utility.yul\":13986:14077   */\n      tag_162\n      jump\t// in\n    tag_324:\n        /* \"#utility.yul\":13980:13984   */\n      dup3\n        /* \"#utility.yul\":13973:14078   */\n      sstore\n        /* \"#utility.yul\":13891:14084   */\n      pop\n        /* \"#utility.yul\":13815:14084   */\n      pop\n      pop\n      pop\n      jump\t// out\n        /* \"#utility.yul\":14090:14163   */\n    tag_167:\n        /* \"#utility.yul\":14135:14138   */\n      0x00\n        /* \"#utility.yul\":14090:14163   */\n      swap1\n      jump\t// out\n        /* \"#utility.yul\":14169:14358   */\n    tag_168:\n        /* \"#utility.yul\":14246:14278   */\n      tag_328\n      tag_167\n      jump\t// in\n    tag_328:\n        /* \"#utility.yul\":14287:14352   */\n      tag_329\n        /* \"#utility.yul\":14345:14351   */\n      dup2\n        /* \"#utility.yul\":14337:14343   */\n      dup5\n        /* \"#utility.yul\":14331:14335   */\n      dup5\n        /* \"#utility.yul\":14287:14352   */\n      tag_166\n      jump\t// in\n    tag_329:\n        /* \"#utility.yul\":14222:14358   */\n      pop\n        /* \"#utility.yul\":14169:14358   */\n      pop\n      pop\n      jump\t// out\n        /* \"#utility.yul\":14364:14550   */\n    tag_169:\n        /* \"#utility.yul\":14424:14544   */\n    tag_331:\n        /* \"#utility.yul\":14441:14444   */\n      dup2\n        /* \"#utility.yul\":14434:14439   */\n      dup2\n        /* \"#utility.yul\":14431:14445   */\n      lt\n        /* \"#utility.yul\":14424:14544   */\n      iszero\n      tag_333\n      jumpi\n        /* \"#utility.yul\":14495:14534   */\n      tag_334\n        /* \"#utility.yul\":14532:14533   */\n      0x00\n        /* \"#utility.yul\":14525:14530   */\n      dup3\n        /* \"#utility.yul\":14495:14534   */\n      tag_168\n      jump\t// in\n    tag_334:\n        /* \"#utility.yul\":14468:14469   */\n      0x01\n        /* \"#utility.yul\":14461:14466   */\n      dup2\n        /* \"#utility.yul\":14457:14470   */\n      add\n        /* \"#utility.yul\":14448:14470   */\n      swap1\n      pop\n        /* \"#utility.yul\":14424:14544   */\n      jump(tag_331)\n    tag_333:\n        /* \"#utility.yul\":14364:14550   */\n      pop\n      pop\n      jump\t// out\n        /* \"#utility.yul\":14556:15099   */\n    tag_170:\n        /* \"#utility.yul\":14657:14659   */\n      0x1f\n        /* \"#utility.yul\":14652:14655   */\n      dup3\n        /* \"#utility.yul\":14649:14660   */\n      gt\n        /* \"#utility.yul\":14646:15092   */\n      iszero\n      tag_336\n      jumpi\n        /* \"#utility.yul\":14691:14729   */\n      tag_337\n        /* \"#utility.yul\":14723:14728   */\n      dup2\n        /* \"#utility.yul\":14691:14729   */\n      tag_159\n      jump\t// in\n    tag_337:\n        /* \"#utility.yul\":14775:14804   */\n      tag_338\n        /* \"#utility.yul\":14793:14803   */\n      dup5\n        /* \"#utility.yul\":14775:14804   */\n      tag_160\n      jump\t// in\n    tag_338:\n        /* \"#utility.yul\":14765:14773   */\n      dup2\n        /* \"#utility.yul\":14761:14805   */\n      add\n        /* \"#utility.yul\":14958:14960   */\n      0x20\n        /* \"#utility.yul\":14946:14956   */\n      dup6\n        /* \"#utility.yul\":14943:14961   */\n      lt\n        /* \"#utility.yul\":14940:14989   */\n      iszero\n      tag_339\n      jumpi\n        /* \"#utility.yul\":14979:14987   */\n      dup2\n        /* \"#utility.yul\":14964:14987   */\n      swap1\n      pop\n        /* \"#utility.yul\":14940:14989   */\n    tag_339:\n        /* \"#utility.yul\":15002:15082   */\n      tag_340\n        /* \"#utility.yul\":15058:15080   */\n      tag_341\n        /* \"#utility.yul\":15076:15079   */\n      dup6\n        /* \"#utility.yul\":15058:15080   */\n      tag_160\n      jump\t// in\n    tag_341:\n        /* \"#utility.yul\":15048:15056   */\n      dup4\n        /* \"#utility.yul\":15044:15081   */\n      add\n        /* \"#utility.yul\":15031:15042   */\n      dup3\n        /* \"#utility.yul\":15002:15082   */\n      tag_169\n      jump\t// in\n    tag_340:\n        /* \"#utility.yul\":14661:15092   */\n      pop\n      pop\n        /* \"#utility.yul\":14646:15092   */\n    tag_336:\n        /* \"#utility.yul\":14556:15099   */\n      pop\n      pop\n      pop\n      jump\t// out\n        /* \"#utility.yul\":15105:15222   */\n    tag_171:\n        /* \"#utility.yul\":15159:15167   */\n      0x00\n        /* \"#utility.yul\":15209:15214   */\n      dup3\n        /* \"#utility.yul\":15203:15207   */\n      dup3\n        /* \"#utility.yul\":15199:15215   */\n      shr\n        /* \"#utility.yul\":15178:15215   */\n      swap1\n      pop\n        /* \"#utility.yul\":15105:15222   */\n      swap3\n      swap2\n      pop\n      pop\n      jump\t// out\n        /* \"#utility.yul\":15228:15397   */\n    tag_172:\n        /* \"#utility.yul\":15272:15278   */\n      0x00\n        /* \"#utility.yul\":15305:15356   */\n      tag_344\n        /* \"#utility.yul\":15353:15354   */\n      0x00\n        /* \"#utility.yul\":15349:15355   */\n      not\n        /* \"#utility.yul\":15341:15346   */\n      dup5\n        /* \"#utility.yul\":15338:15339   */\n      0x08\n        /* \"#utility.yul\":15334:15347   */\n      mul\n        /* \"#utility.yul\":15305:15356   */\n      tag_171\n      jump\t// in\n    tag_344:\n        /* \"#utility.yul\":15301:15357   */\n      not\n        /* \"#utility.yul\":15386:15390   */\n      dup1\n        /* \"#utility.yul\":15380:15384   */\n      dup4\n        /* \"#utility.yul\":15376:15391   */\n      and\n        /* \"#utility.yul\":15366:15391   */\n      swap2\n      pop\n        /* \"#utility.yul\":15279:15397   */\n      pop\n        /* \"#utility.yul\":15228:15397   */\n      swap3\n      swap2\n      pop\n      pop\n      jump\t// out\n        /* \"#utility.yul\":15402:15697   */\n    tag_173:\n        /* \"#utility.yul\":15478:15482   */\n      0x00\n        /* \"#utility.yul\":15624:15653   */\n      tag_346\n        /* \"#utility.yul\":15649:15652   */\n      dup4\n        /* \"#utility.yul\":15643:15647   */\n      dup4\n        /* \"#utility.yul\":15624:15653   */\n      tag_172\n      jump\t// in\n    tag_346:\n        /* \"#utility.yul\":15616:15653   */\n      swap2\n      pop\n        /* \"#utility.yul\":15686:15689   */\n      dup3\n        /* \"#utility.yul\":15683:15684   */\n      0x02\n        /* \"#utility.yul\":15679:15690   */\n      mul\n        /* \"#utility.yul\":15673:15677   */\n      dup3\n        /* \"#utility.yul\":15670:15691   */\n      or\n        /* \"#utility.yul\":15662:15691   */\n      swap1\n      pop\n        /* \"#utility.yul\":15402:15697   */\n      swap3\n      swap2\n      pop\n      pop\n      jump\t// out\n        /* \"#utility.yul\":15702:17097   */\n    tag_106:\n        /* \"#utility.yul\":15819:15856   */\n      tag_348\n        /* \"#utility.yul\":15852:15855   */\n      dup3\n        /* \"#utility.yul\":15819:15856   */\n      tag_136\n      jump\t// in\n    tag_348:\n        /* \"#utility.yul\":15921:15939   */\n      0xffffffffffffffff\n        /* \"#utility.yul\":15913:15919   */\n      dup2\n        /* \"#utility.yul\":15910:15940   */\n      gt\n        /* \"#utility.yul\":15907:15963   */\n      iszero\n      tag_349\n      jumpi\n        /* \"#utility.yul\":15943:15961   */\n      tag_350\n      tag_143\n      jump\t// in\n    tag_350:\n        /* \"#utility.yul\":15907:15963   */\n    tag_349:\n        /* \"#utility.yul\":15987:16025   */\n      tag_351\n        /* \"#utility.yul\":16019:16023   */\n      dup3\n        /* \"#utility.yul\":16013:16024   */\n      sload\n        /* \"#utility.yul\":15987:16025   */\n      tag_94\n      jump\t// in\n    tag_351:\n        /* \"#utility.yul\":16072:16139   */\n      tag_352\n        /* \"#utility.yul\":16132:16138   */\n      dup3\n        /* \"#utility.yul\":16124:16130   */\n      dup3\n        /* \"#utility.yul\":16118:16122   */\n      dup6\n        /* \"#utility.yul\":16072:16139   */\n      tag_170\n      jump\t// in\n    tag_352:\n        /* \"#utility.yul\":16166:16167   */\n      0x00\n        /* \"#utility.yul\":16190:16194   */\n      0x20\n        /* \"#utility.yul\":16177:16194   */\n      swap1\n      pop\n        /* \"#utility.yul\":16222:16224   */\n      0x1f\n        /* \"#utility.yul\":16214:16220   */\n      dup4\n        /* \"#utility.yul\":16211:16225   */\n      gt\n        /* \"#utility.yul\":16239:16240   */\n      0x01\n        /* \"#utility.yul\":16234:16852   */\n      dup2\n      eq\n      tag_354\n      jumpi\n        /* \"#utility.yul\":16896:16897   */\n      0x00\n        /* \"#utility.yul\":16913:16919   */\n      dup5\n        /* \"#utility.yul\":16910:16987   */\n      iszero\n      tag_355\n      jumpi\n        /* \"#utility.yul\":16962:16971   */\n      dup3\n        /* \"#utility.yul\":16957:16960   */\n      dup8\n        /* \"#utility.yul\":16953:16972   */\n      add\n        /* \"#utility.yul\":16947:16973   */\n      mload\n        /* \"#utility.yul\":16938:16973   */\n      swap1\n      pop\n        /* \"#utility.yul\":16910:16987   */\n    tag_355:\n        /* \"#utility.yul\":17013:17080   */\n      tag_356\n        /* \"#utility.yul\":17073:17079   */\n      dup6\n        /* \"#utility.yul\":17066:17071   */\n      dup3\n        /* \"#utility.yul\":17013:17080   */\n      tag_173\n      jump\t// in\n    tag_356:\n        /* \"#utility.yul\":17007:17011   */\n      dup7\n        /* \"#utility.yul\":17000:17081   */\n      sstore\n        /* \"#utility.yul\":16869:17091   */\n      pop\n        /* \"#utility.yul\":16204:17091   */\n      jump(tag_353)\n        /* \"#utility.yul\":16234:16852   */\n    tag_354:\n        /* \"#utility.yul\":16286:16290   */\n      0x1f\n        /* \"#utility.yul\":16282:16291   */\n      not\n        /* \"#utility.yul\":16274:16280   */\n      dup5\n        /* \"#utility.yul\":16270:16292   */\n      and\n        /* \"#utility.yul\":16320:16357   */\n      tag_357\n        /* \"#utility.yul\":16352:16356   */\n      dup7\n        /* \"#utility.yul\":16320:16357   */\n      tag_159\n      jump\t// in\n    tag_357:\n        /* \"#utility.yul\":16379:16380   */\n      0x00\n        /* \"#utility.yul\":16393:16601   */\n    tag_358:\n        /* \"#utility.yul\":16407:16414   */\n      dup3\n        /* \"#utility.yul\":16404:16405   */\n      dup2\n        /* \"#utility.yul\":16401:16415   */\n      lt\n        /* \"#utility.yul\":16393:16601   */\n      iszero\n      tag_360\n      jumpi\n        /* \"#utility.yul\":16486:16495   */\n      dup5\n        /* \"#utility.yul\":16481:16484   */\n      dup10\n        /* \"#utility.yul\":16477:16496   */\n      add\n        /* \"#utility.yul\":16471:16497   */\n      mload\n        /* \"#utility.yul\":16463:16469   */\n      dup3\n        /* \"#utility.yul\":16456:16498   */\n      sstore\n        /* \"#utility.yul\":16537:16538   */\n      0x01\n        /* \"#utility.yul\":16529:16535   */\n      dup3\n        /* \"#utility.yul\":16525:16539   */\n      add\n        /* \"#utility.yul\":16515:16539   */\n      swap2\n      pop\n        /* \"#utility.yul\":16584:16586   */\n      0x20\n        /* \"#utility.yul\":16573:16582   */\n      dup6\n        /* \"#utility.yul\":16569:16587   */\n      add\n        /* \"#utility.yul\":16556:16587   */\n      swap5\n      pop\n        /* \"#utility.yul\":16430:16434   */\n      0x20\n        /* \"#utility.yul\":16427:16428   */\n      dup2\n        /* \"#utility.yul\":16423:16435   */\n      add\n        /* \"#utility.yul\":16418:16435   */\n      swap1\n      pop\n        /* \"#utility.yul\":16393:16601   */\n      jump(tag_358)\n    tag_360:\n        /* \"#utility.yul\":16629:16635   */\n      dup7\n        /* \"#utility.yul\":16620:16627   */\n      dup4\n        /* \"#utility.yul\":16617:16636   */\n      lt\n        /* \"#utility.yul\":16614:16793   */\n      iszero\n      tag_361\n      jumpi\n        /* \"#utility.yul\":16687:16696   */\n      dup5\n        /* \"#utility.yul\":16682:16685   */\n      dup10\n        /* \"#utility.yul\":16678:16697   */\n      add\n        /* \"#utility.yul\":16672:16698   */\n      mload\n        /* \"#utility.yul\":16730:16778   */\n      tag_362\n        /* \"#utility.yul\":16772:16776   */\n      0x1f\n        /* \"#utility.yul\":16764:16770   */\n      dup10\n        /* \"#utility.yul\":16760:16777   */\n      and\n        /* \"#utility.yul\":16749:16758   */\n      dup3\n        /* \"#utility.yul\":16730:16778   */\n      tag_172\n      jump\t// in\n    tag_362:\n        /* \"#utility.yul\":16722:16728   */\n      dup4\n        /* \"#utility.yul\":16715:16779   */\n      sstore\n        /* \"#utility.yul\":16637:16793   */\n      pop\n        /* \"#utility.yul\":16614:16793   */\n    tag_361:\n        /* \"#utility.yul\":16839:16840   */\n      0x01\n        /* \"#utility.yul\":16835:16836   */\n      0x02\n        /* \"#utility.yul\":16827:16833   */\n      dup9\n        /* \"#utility.yul\":16823:16837   */\n      mul\n        /* \"#utility.yul\":16819:16841   */\n      add\n        /* \"#utility.yul\":16813:16817   */\n      dup9\n        /* \"#utility.yul\":16806:16842   */\n      sstore\n        /* \"#utility.yul\":16241:16852   */\n      pop\n      pop\n      pop\n        /* \"#utility.yul\":16204:17091   */\n    tag_353:\n      pop\n        /* \"#utility.yul\":15794:17097   */\n      pop\n      pop\n      pop\n        /* \"#utility.yul\":15702:17097   */\n      pop\n      pop\n      jump\t// out\n        /* \"#utility.yul\":17103:17392   */\n    tag_174:\n        /* \"#utility.yul\":17243:17277   */\n      0x4e6f7420656e6f756768207765692073656e7420746f206d6565742074686520\n        /* \"#utility.yul\":17239:17240   */\n      0x00\n        /* \"#utility.yul\":17231:17237   */\n      dup3\n        /* \"#utility.yul\":17227:17241   */\n      add\n        /* \"#utility.yul\":17220:17278   */\n      mstore\n        /* \"#utility.yul\":17312:17346   */\n      0x6d696e696d756d20636f6e747269627574696f6e20726571756972656d656e74\n        /* \"#utility.yul\":17307:17309   */\n      0x20\n        /* \"#utility.yul\":17299:17305   */\n      dup3\n        /* \"#utility.yul\":17295:17310   */\n      add\n        /* \"#utility.yul\":17288:17347   */\n      mstore\n        /* \"#utility.yul\":17381:17384   */\n      0x2e00000000000000000000000000000000000000000000000000000000000000\n        /* \"#utility.yul\":17376:17378   */\n      0x40\n        /* \"#utility.yul\":17368:17374   */\n      dup3\n        /* \"#utility.yul\":17364:17379   */\n      add\n        /* \"#utility.yul\":17357:17385   */\n      mstore\n        /* \"#utility.yul\":17103:17392   */\n      pop\n      jump\t// out\n        /* \"#utility.yul\":17398:17764   */\n    tag_175:\n        /* \"#utility.yul\":17540:17543   */\n      0x00\n        /* \"#utility.yul\":17561:17628   */\n      tag_365\n        /* \"#utility.yul\":17625:17627   */\n      0x41\n        /* \"#utility.yul\":17620:17623   */\n      dup4\n        /* \"#utility.yul\":17561:17628   */\n      tag_137\n      jump\t// in\n    tag_365:\n        /* \"#utility.yul\":17554:17628   */\n      swap2\n      pop\n        /* \"#utility.yul\":17637:17730   */\n      tag_366\n        /* \"#utility.yul\":17726:17729   */\n      dup3\n        /* \"#utility.yul\":17637:17730   */\n      tag_174\n      jump\t// in\n    tag_366:\n        /* \"#utility.yul\":17755:17757   */\n      0x60\n        /* \"#utility.yul\":17750:17753   */\n      dup3\n        /* \"#utility.yul\":17746:17758   */\n      add\n        /* \"#utility.yul\":17739:17758   */\n      swap1\n      pop\n        /* \"#utility.yul\":17398:17764   */\n      swap2\n      swap1\n      pop\n      jump\t// out\n        /* \"#utility.yul\":17770:18189   */\n    tag_111:\n        /* \"#utility.yul\":17936:17940   */\n      0x00\n        /* \"#utility.yul\":17974:17976   */\n      0x20\n        /* \"#utility.yul\":17963:17972   */\n      dup3\n        /* \"#utility.yul\":17959:17977   */\n      add\n        /* \"#utility.yul\":17951:17977   */\n      swap1\n      pop\n        /* \"#utility.yul\":18023:18032   */\n      dup2\n        /* \"#utility.yul\":18017:18021   */\n      dup2\n        /* \"#utility.yul\":18013:18033   */\n      sub\n        /* \"#utility.yul\":18009:18010   */\n      0x00\n        /* \"#utility.yul\":17998:18007   */\n      dup4\n        /* \"#utility.yul\":17994:18011   */\n      add\n        /* \"#utility.yul\":17987:18034   */\n      mstore\n        /* \"#utility.yul\":18051:18182   */\n      tag_368\n        /* \"#utility.yul\":18177:18181   */\n      dup2\n        /* \"#utility.yul\":18051:18182   */\n      tag_175\n      jump\t// in\n    tag_368:\n        /* \"#utility.yul\":18043:18182   */\n      swap1\n      pop\n        /* \"#utility.yul\":17770:18189   */\n      swap2\n      swap1\n      pop\n      jump\t// out\n        /* \"#utility.yul\":18195:18423   */\n    tag_176:\n        /* \"#utility.yul\":18335:18369   */\n      0x4163636f756e74206973206e6f742070617274696369706174696e6720696e20\n        /* \"#utility.yul\":18331:18332   */\n      0x00\n        /* \"#utility.yul\":18323:18329   */\n      dup3\n        /* \"#utility.yul\":18319:18333   */\n      add\n        /* \"#utility.yul\":18312:18370   */\n      mstore\n        /* \"#utility.yul\":18404:18415   */\n      0x43616d706169676e2e0000000000000000000000000000000000000000000000\n        /* \"#utility.yul\":18399:18401   */\n      0x20\n        /* \"#utility.yul\":18391:18397   */\n      dup3\n        /* \"#utility.yul\":18387:18402   */\n      add\n        /* \"#utility.yul\":18380:18416   */\n      mstore\n        /* \"#utility.yul\":18195:18423   */\n      pop\n      jump\t// out\n        /* \"#utility.yul\":18429:18795   */\n    tag_177:\n        /* \"#utility.yul\":18571:18574   */\n      0x00\n        /* \"#utility.yul\":18592:18659   */\n      tag_371\n        /* \"#utility.yul\":18656:18658   */\n      0x29\n        /* \"#utility.yul\":18651:18654   */\n      dup4\n        /* \"#utility.yul\":18592:18659   */\n      tag_137\n      jump\t// in\n    tag_371:\n        /* \"#utility.yul\":18585:18659   */\n      swap2\n      pop\n        /* \"#utility.yul\":18668:18761   */\n      tag_372\n        /* \"#utility.yul\":18757:18760   */\n      dup3\n        /* \"#utility.yul\":18668:18761   */\n      tag_176\n      jump\t// in\n    tag_372:\n        /* \"#utility.yul\":18786:18788   */\n      0x40\n        /* \"#utility.yul\":18781:18784   */\n      dup3\n        /* \"#utility.yul\":18777:18789   */\n      add\n        /* \"#utility.yul\":18770:18789   */\n      swap1\n      pop\n        /* \"#utility.yul\":18429:18795   */\n      swap2\n      swap1\n      pop\n      jump\t// out\n        /* \"#utility.yul\":18801:19220   */\n    tag_117:\n        /* \"#utility.yul\":18967:18971   */\n      0x00\n        /* \"#utility.yul\":19005:19007   */\n      0x20\n        /* \"#utility.yul\":18994:19003   */\n      dup3\n        /* \"#utility.yul\":18990:19008   */\n      add\n        /* \"#utility.yul\":18982:19008   */\n      swap1\n      pop\n        /* \"#utility.yul\":19054:19063   */\n      dup2\n        /* \"#utility.yul\":19048:19052   */\n      dup2\n        /* \"#utility.yul\":19044:19064   */\n      sub\n        /* \"#utility.yul\":19040:19041   */\n      0x00\n        /* \"#utility.yul\":19029:19038   */\n      dup4\n        /* \"#utility.yul\":19025:19042   */\n      add\n        /* \"#utility.yul\":19018:19065   */\n      mstore\n        /* \"#utility.yul\":19082:19213   */\n      tag_374\n        /* \"#utility.yul\":19208:19212   */\n      dup2\n        /* \"#utility.yul\":19082:19213   */\n      tag_177\n      jump\t// in\n    tag_374:\n        /* \"#utility.yul\":19074:19213   */\n      swap1\n      pop\n        /* \"#utility.yul\":18801:19220   */\n      swap2\n      swap1\n      pop\n      jump\t// out\n        /* \"#utility.yul\":19226:19452   */\n    tag_178:\n        /* \"#utility.yul\":19366:19400   */\n      0x557365722063616e6e6f7420617070726f76652073616d652072657175657374\n        /* \"#utility.yul\":19362:19363   */\n      0x00\n        /* \"#utility.yul\":19354:19360   */\n      dup3\n        /* \"#utility.yul\":19350:19364   */\n      add\n        /* \"#utility.yul\":19343:19401   */\n      mstore\n        /* \"#utility.yul\":19435:19444   */\n      0x2074776963652e00000000000000000000000000000000000000000000000000\n        /* \"#utility.yul\":19430:19432   */\n      0x20\n        /* \"#utility.yul\":19422:19428   */\n      dup3\n        /* \"#utility.yul\":19418:19433   */\n      add\n        /* \"#utility.yul\":19411:19445   */\n      mstore\n        /* \"#utility.yul\":19226:19452   */\n      pop\n      jump\t// out\n        /* \"#utility.yul\":19458:19824   */\n    tag_179:\n        /* \"#utility.yul\":19600:19603   */\n      0x00\n        /* \"#utility.yul\":19621:19688   */\n      tag_377\n        /* \"#utility.yul\":19685:19687   */\n      0x27\n        /* \"#utility.yul\":19680:19683   */\n      dup4\n        /* \"#utility.yul\":19621:19688   */\n      tag_137\n      jump\t// in\n    tag_377:\n        /* \"#utility.yul\":19614:19688   */\n      swap2\n      pop\n        /* \"#utility.yul\":19697:19790   */\n      tag_378\n        /* \"#utility.yul\":19786:19789   */\n      dup3\n        /* \"#utility.yul\":19697:19790   */\n      tag_178\n      jump\t// in\n    tag_378:\n        /* \"#utility.yul\":19815:19817   */\n      0x40\n        /* \"#utility.yul\":19810:19813   */\n      dup3\n        /* \"#utility.yul\":19806:19818   */\n      add\n        /* \"#utility.yul\":19799:19818   */\n      swap1\n      pop\n        /* \"#utility.yul\":19458:19824   */\n      swap2\n      swap1\n      pop\n      jump\t// out\n        /* \"#utility.yul\":19830:20249   */\n    tag_120:\n        /* \"#utility.yul\":19996:20000   */\n      0x00\n        /* \"#utility.yul\":20034:20036   */\n      0x20\n        /* \"#utility.yul\":20023:20032   */\n      dup3\n        /* \"#utility.yul\":20019:20037   */\n      add\n        /* \"#utility.yul\":20011:20037   */\n      swap1\n      pop\n        /* \"#utility.yul\":20083:20092   */\n      dup2\n        /* \"#utility.yul\":20077:20081   */\n      dup2\n        /* \"#utility.yul\":20073:20093   */\n      sub\n        /* \"#utility.yul\":20069:20070   */\n      0x00\n        /* \"#utility.yul\":20058:20067   */\n      dup4\n        /* \"#utility.yul\":20054:20071   */\n      add\n        /* \"#utility.yul\":20047:20094   */\n      mstore\n        /* \"#utility.yul\":20111:20242   */\n      tag_380\n        /* \"#utility.yul\":20237:20241   */\n      dup2\n        /* \"#utility.yul\":20111:20242   */\n      tag_179\n      jump\t// in\n    tag_380:\n        /* \"#utility.yul\":20103:20242   */\n      swap1\n      pop\n        /* \"#utility.yul\":19830:20249   */\n      swap2\n      swap1\n      pop\n      jump\t// out\n\n    auxdata: 0xa2646970667358221220c1cb83d95c0650f182d8b4975ba6f7bd86d27110a1d6ccff696dabfe50bb5ea364736f6c63430008130033\n}\n","bytecode":{"linkReferences":{},"object":"60806040523480156200001157600080fd5b50604051620017e4380380620017e483398181016040528101906200003791906200012c565b80600260006101000a81548173ffffffffffffffffffffffffffffffffffffffff021916908373ffffffffffffffffffffffffffffffffffffffff16021790555081600381905550505062000173565b600080fd5b6000819050919050565b620000a1816200008c565b8114620000ad57600080fd5b50565b600081519050620000c18162000096565b92915050565b600073ffffffffffffffffffffffffffffffffffffffff82169050919050565b6000620000f482620000c7565b9050919050565b6200010681620000e7565b81146200011257600080fd5b50565b6000815190506200012681620000fb565b92915050565b6000806040838503121562000146576200014562000087565b5b60006200015685828601620000b0565b9250506020620001698582860162000115565b9150509250929050565b61166180620001836000396000f3fe6080604052600436106100c25760003560e01c80638a9cfd551161007f578063b7e622cb11610059578063b7e622cb14610265578063d7bb99ba14610290578063d7d1bbdb1461029a578063f0fa0eb9146102c3576100c2565b80638a9cfd55146101e2578063937e09b11461020b578063a00c96d714610236576100c2565b806303441006146100c75780630a144391146100e357806312b58349146101205780633410452a1461014b578063481c6a751461017657806381d12c58146101a1575b600080fd5b6100e160048036038101906100dc9190610ac1565b6102ee565b005b3480156100ef57600080fd5b5061010a60048036038101906101059190610b4c565b6104cb565b6040516101179190610b94565b60405180910390f35b34801561012c57600080fd5b506101356104eb565b6040516101429190610bbe565b60405180910390f35b34801561015757600080fd5b506101606104f3565b60405161016d9190610bbe565b60405180910390f35b34801561018257600080fd5b5061018b6104fc565b6040516101989190610be8565b60405180910390f35b3480156101ad57600080fd5b506101c860048036038101906101c39190610ac1565b610522565b6040516101d9959493929190610c93565b60405180910390f35b3480156101ee57600080fd5b5061020960048036038101906102049190610e22565b61060d565b005b34801561021757600080fd5b50610220610754565b60405161022d9190610bbe565b60405180910390f35b34801561024257600080fd5b5061024b61075a565b60405161025c959493929190610e91565b60405180910390f35b34801561027157600080fd5b5061027a61079b565b6040516102879190610bbe565b60405180910390f35b6102986107a1565b005b3480156102a657600080fd5b506102c160048036038101906102bc9190610ac1565b6108aa565b005b3480156102cf57600080fd5b506102d8610a71565b6040516102e59190610bbe565b60405180910390f35b600260009054906101000a900473ffffffffffffffffffffffffffffffffffffffff1673ffffffffffffffffffffffffffffffffffffffff163373ffffffffffffffffffffffffffffffffffffffff161461037e576040517f08c379a000000000000000000000000000000000000000000000000000000000815260040161037590610f56565b60405180910390fd5b600060016000838152602001908152602001600020905060026005546103a49190610fd4565b8160030154116103e9576040517f08c379a00000000000000000000000000000000000000000000000000000000081526004016103e090611077565b60405180910390fd5b8060020160149054906101000a900460ff161561043b576040517f08c379a000000000000000000000000000000000000000000000000000000000815260040161043290611109565b60405180910390fd5b8060020160009054906101000a900473ffffffffffffffffffffffffffffffffffffffff1673ffffffffffffffffffffffffffffffffffffffff166108fc82600101549081150290604051600060405180830381858888f193505050501580156104a9573d6000803e3d6000fd5b5060018160020160146101000a81548160ff0219169083151502179055505050565b60046020528060005260406000206000915054906101000a900460ff1681565b600047905090565b60008054905090565b600260009054906101000a900473ffffffffffffffffffffffffffffffffffffffff1681565b600160205280600052604060002060009150905080600001805461054590611158565b80601f016020809104026020016040519081016040528092919081815260200182805461057190611158565b80156105be5780601f10610593576101008083540402835291602001916105be565b820191906000526020600020905b8154815290600101906020018083116105a157829003601f168201915b5050505050908060010154908060020160009054906101000a900473ffffffffffffffffffffffffffffffffffffffff16908060020160149054906101000a900460ff16908060030154905085565b600260009054906101000a900473ffffffffffffffffffffffffffffffffffffffff1673ffffffffffffffffffffffffffffffffffffffff163373ffffffffffffffffffffffffffffffffffffffff161461069d576040517f08c379a000000000000000000000000000000000000000000000000000000000815260040161069490610f56565b60405180910390fd5b6000600160008060008154809291906106b590611189565b9190505581526020019081526020016000209050838160000190816106da919061137d565b50828160010181905550818160020160006101000a81548173ffffffffffffffffffffffffffffffffffffffff021916908373ffffffffffffffffffffffffffffffffffffffff16021790555060008160020160146101000a81548160ff0219169083151502179055506000816003018190555050505050565b60035481565b600080600080600047935060005492506005549150600260009054906101000a900473ffffffffffffffffffffffffffffffffffffffff1690509091929394565b60005481565b6003543410156107e6576040517f08c379a00000000000000000000000000000000000000000000000000000000081526004016107dd906114e7565b60405180910390fd5b600460003373ffffffffffffffffffffffffffffffffffffffff1673ffffffffffffffffffffffffffffffffffffffff16815260200190815260200160002060009054906101000a900460ff16610850576005600081548092919061084a90611189565b91905055505b6001600460003373ffffffffffffffffffffffffffffffffffffffff1673ffffffffffffffffffffffffffffffffffffffff16815260200190815260200160002060006101000a81548160ff021916908315150217905550565b600460003373ffffffffffffffffffffffffffffffffffffffff1673ffffffffffffffffffffffffffffffffffffffff16815260200190815260200160002060009054906101000a900460ff16610936576040517f08c379a000000000000000000000000000000000000000000000000000000000815260040161092d90611579565b60405180910390fd5b6001600082815260200190815260200160002060040160003373ffffffffffffffffffffffffffffffffffffffff1673ffffffffffffffffffffffffffffffffffffffff16815260200190815260200160002060009054906101000a900460ff16156109d7576040517f08c379a00000000000000000000000000000000000000000000000000000000081526004016109ce9061160b565b60405180910390fd5b600180600083815260200190815260200160002060040160003373ffffffffffffffffffffffffffffffffffffffff1673ffffffffffffffffffffffffffffffffffffffff16815260200190815260200160002060006101000a81548160ff021916908315150217905550600160008281526020019081526020016000206003016000815480929190610a6990611189565b919050555050565b60055481565b6000604051905090565b600080fd5b600080fd5b6000819050919050565b610a9e81610a8b565b8114610aa957600080fd5b50565b600081359050610abb81610a95565b92915050565b600060208284031215610ad757610ad6610a81565b5b6000610ae584828501610aac565b91505092915050565b600073ffffffffffffffffffffffffffffffffffffffff82169050919050565b6000610b1982610aee565b9050919050565b610b2981610b0e565b8114610b3457600080fd5b50565b600081359050610b4681610b20565b92915050565b600060208284031215610b6257610b61610a81565b5b6000610b7084828501610b37565b91505092915050565b60008115159050919050565b610b8e81610b79565b82525050565b6000602082019050610ba96000830184610b85565b92915050565b610bb881610a8b565b82525050565b6000602082019050610bd36000830184610baf565b92915050565b610be281610b0e565b82525050565b6000602082019050610bfd6000830184610bd9565b92915050565b600081519050919050565b600082825260208201905092915050565b60005b83811015610c3d578082015181840152602081019050610c22565b60008484015250505050565b6000601f19601f8301169050919050565b6000610c6582610c03565b610c6f8185610c0e565b9350610c7f818560208601610c1f565b610c8881610c49565b840191505092915050565b600060a0820190508181036000830152610cad8188610c5a565b9050610cbc6020830187610baf565b610cc96040830186610bd9565b610cd66060830185610b85565b610ce36080830184610baf565b9695505050505050565b600080fd5b600080fd5b7f4e487b7100000000000000000000000000000000000000000000000000000000600052604160045260246000fd5b610d2f82610c49565b810181811067ffffffffffffffff82111715610d4e57610d4d610cf7565b5b80604052505050565b6000610d61610a77565b9050610d6d8282610d26565b919050565b600067ffffffffffffffff821115610d8d57610d8c610cf7565b5b610d9682610c49565b9050602081019050919050565b82818337600083830152505050565b6000610dc5610dc084610d72565b610d57565b905082815260208101848484011115610de157610de0610cf2565b5b610dec848285610da3565b509392505050565b600082601f830112610e0957610e08610ced565b5b8135610e19848260208601610db2565b91505092915050565b600080600060608486031215610e3b57610e3a610a81565b5b600084013567ffffffffffffffff811115610e5957610e58610a86565b5b610e6586828701610df4565b9350506020610e7686828701610aac565b9250506040610e8786828701610b37565b9150509250925092565b600060a082019050610ea66000830188610baf565b610eb36020830187610baf565b610ec06040830186610baf565b610ecd6060830185610baf565b610eda6080830184610bd9565b9695505050505050565b7f4f6e6c7920746865206d616e616765722063616e20657865637574652074686960008201527f732066756e6374696f6e2e000000000000000000000000000000000000000000602082015250565b6000610f40602b83610c0e565b9150610f4b82610ee4565b604082019050919050565b60006020820190508181036000830152610f6f81610f33565b9050919050565b7f4e487b7100000000000000000000000000000000000000000000000000000000600052601260045260246000fd5b7f4e487b7100000000000000000000000000000000000000000000000000000000600052601160045260246000fd5b6000610fdf82610a8b565b9150610fea83610a8b565b925082610ffa57610ff9610f76565b5b828204905092915050565b7f596f7520646f206e6f742068617665207265717569726564206e756d6265722060008201527f6f6620617070726f76616c732e00000000000000000000000000000000000000602082015250565b6000611061602d83610c0e565b915061106c82611005565b604082019050919050565b6000602082019050818103600083015261109081611054565b9050919050565b7f5265717565737420686173206265656e20617070726f76656420616c7265616460008201527f792e000000000000000000000000000000000000000000000000000000000000602082015250565b60006110f3602283610c0e565b91506110fe82611097565b604082019050919050565b60006020820190508181036000830152611122816110e6565b9050919050565b7f4e487b7100000000000000000000000000000000000000000000000000000000600052602260045260246000fd5b6000600282049050600182168061117057607f821691505b60208210810361118357611182611129565b5b50919050565b600061119482610a8b565b91507fffffffffffffffffffffffffffffffffffffffffffffffffffffffffffffffff82036111c6576111c5610fa5565b5b600182019050919050565b60008190508160005260206000209050919050565b60006020601f8301049050919050565b600082821b905092915050565b6000600883026112337fffffffffffffffffffffffffffffffffffffffffffffffffffffffffffffffff826111f6565b61123d86836111f6565b95508019841693508086168417925050509392505050565b6000819050919050565b600061127a61127561127084610a8b565b611255565b610a8b565b9050919050565b6000819050919050565b6112948361125f565b6112a86112a082611281565b848454611203565b825550505050565b600090565b6112bd6112b0565b6112c881848461128b565b505050565b5b818110156112ec576112e16000826112b5565b6001810190506112ce565b5050565b601f82111561133157611302816111d1565b61130b846111e6565b8101602085101561131a578190505b61132e611326856111e6565b8301826112cd565b50505b505050565b600082821c905092915050565b600061135460001984600802611336565b1980831691505092915050565b600061136d8383611343565b9150826002028217905092915050565b61138682610c03565b67ffffffffffffffff81111561139f5761139e610cf7565b5b6113a98254611158565b6113b48282856112f0565b600060209050601f8311600181146113e757600084156113d5578287015190505b6113df8582611361565b865550611447565b601f1984166113f5866111d1565b60005b8281101561141d578489015182556001820191506020850194506020810190506113f8565b8683101561143a5784890151611436601f891682611343565b8355505b6001600288020188555050505b505050505050565b7f4e6f7420656e6f756768207765692073656e7420746f206d656574207468652060008201527f6d696e696d756d20636f6e747269627574696f6e20726571756972656d656e7460208201527f2e00000000000000000000000000000000000000000000000000000000000000604082015250565b60006114d1604183610c0e565b91506114dc8261144f565b606082019050919050565b60006020820190508181036000830152611500816114c4565b9050919050565b7f4163636f756e74206973206e6f742070617274696369706174696e6720696e2060008201527f43616d706169676e2e0000000000000000000000000000000000000000000000602082015250565b6000611563602983610c0e565b915061156e82611507565b604082019050919050565b6000602082019050818103600083015261159281611556565b9050919050565b7f557365722063616e6e6f7420617070726f76652073616d65207265717565737460008201527f2074776963652e00000000000000000000000000000000000000000000000000602082015250565b60006115f5602783610c0e565b915061160082611599565b604082019050919050565b60006020820190508181036000830152611624816115e8565b905091905056fea2646970667358221220c1cb83d95c0650f182d8b4975ba6f7bd86d27110a1d6ccff696dabfe50bb5ea364736f6c63430008130033","opcodes":"PUSH1 0x80 PUSH1 0x40 MSTORE CALLVALUE DUP1 ISZERO PUSH3 0x11 JUMPI PUSH1 0x0 DUP1 REVERT JUMPDEST POP PUSH1 0x40 MLOAD PUSH3 0x17E4 CODESIZE SUB DUP1 PUSH3 0x17E4 DUP4 CODECOPY DUP2 DUP2 ADD PUSH1 0x40 MSTORE DUP2 ADD SWAP1 PUSH3 0x37 SWAP2 SWAP1 PUSH3 0x12C JUMP JUMPDEST DUP1 PUSH1 0x2 PUSH1 0x0 PUSH2 0x100 EXP DUP2 SLOAD DUP2 PUSH20 0xFFFFFFFFFFFFFFFFFFFFFFFFFFFFFFFFFFFFFFFF MUL NOT AND SWAP1 DUP4 PUSH20 0xFFFFFFFFFFFFFFFFFFFFFFFFFFFFFFFFFFFFFFFF AND MUL OR SWAP1 SSTORE POP DUP2 PUSH1 0x3 DUP2 SWAP1 SSTORE POP POP POP PUSH3 0x173 JUMP JUMPDEST PUSH1 0x0 DUP1 REVERT JUMPDEST PUSH1 0x0 DUP2 SWAP1 POP SWAP2 SWAP1 POP JUMP JUMPDEST PUSH3 0xA1 DUP2 PUSH3 0x8C JUMP JUMPDEST DUP2 EQ PUSH3 0xAD JUMPI PUSH1 0x0 DUP1 REVERT JUMPDEST POP JUMP JUMPDEST PUSH1 0x0 DUP2 MLOAD SWAP1 POP PUSH3 0xC1 DUP2 PUSH3 0x96 JUMP JUMPDEST SWAP3 SWAP2 POP POP JUMP JUMPDEST PUSH1 0x0 PUSH20 0xFFFFFFFFFFFFFFFFFFFFFFFFFFFFFFFFFFFFFFFF DUP3 AND SWAP1 POP SWAP2 SWAP1 POP JUMP JUMPDEST PUSH1 0x0 PUSH3 0xF4 DUP3 PUSH3 0xC7 JUMP JUMPDEST SWAP1 POP SWAP2 SWAP1 POP JUMP JUMPDEST PUSH3 0x106 DUP2 PUSH3 0xE7 JUMP JUMPDEST DUP2 EQ PUSH3 0x112 JUMPI PUSH1 0x0 DUP1 REVERT JUMPDEST POP JUMP JUMPDEST PUSH1 0x0 DUP2 MLOAD SWAP1 POP PUSH3 0x126 DUP2 PUSH3 0xFB JUMP JUMPDEST SWAP3 SWAP2 POP POP JUMP JUMPDEST PUSH1 0x0 DUP1 PUSH1 0x40 DUP4 DUP6 SUB SLT ISZERO PUSH3 0x146 JUMPI PUSH3 0x145 PUSH3 0x87 JUMP JUMPDEST JUMPDEST PUSH1 0x0 PUSH3 0x156 DUP6 DUP3 DUP7 ADD PUSH3 0xB0 JUMP JUMPDEST SWAP3 POP POP PUSH1 0x20 PUSH3 0x169 DUP6 DUP3 DUP7 ADD PUSH3 0x115 JUMP JUMPDEST SWAP2 POP POP SWAP3 POP SWAP3 SWAP1 POP JUMP JUMPDEST PUSH2 0x1661 DUP1 PUSH3 0x183 PUSH1 0x0 CODECOPY PUSH1 0x0 RETURN INVALID PUSH1 0x80 PUSH1 0x40 MSTORE PUSH1 0x4 CALLDATASIZE LT PUSH2 0xC2 JUMPI PUSH1 0x0 CALLDATALOAD PUSH1 0xE0 SHR DUP1 PUSH4 0x8A9CFD55 GT PUSH2 0x7F JUMPI DUP1 PUSH4 0xB7E622CB GT PUSH2 0x59 JUMPI DUP1 PUSH4 0xB7E622CB EQ PUSH2 0x265 JUMPI DUP1 PUSH4 0xD7BB99BA EQ PUSH2 0x290 JUMPI DUP1 PUSH4 0xD7D1BBDB EQ PUSH2 0x29A JUMPI DUP1 PUSH4 0xF0FA0EB9 EQ PUSH2 0x2C3 JUMPI PUSH2 0xC2 JUMP JUMPDEST DUP1 PUSH4 0x8A9CFD55 EQ PUSH2 0x1E2 JUMPI DUP1 PUSH4 0x937E09B1 EQ PUSH2 0x20B JUMPI DUP1 PUSH4 0xA00C96D7 EQ PUSH2 0x236 JUMPI PUSH2 0xC2 JUMP JUMPDEST DUP1 PUSH4 0x3441006 EQ PUSH2 0xC7 JUMPI DUP1 PUSH4 0xA144391 EQ PUSH2 0xE3 JUMPI DUP1 PUSH4 0x12B58349 EQ PUSH2 0x120 JUMPI DUP1 PUSH4 0x3410452A EQ PUSH2 0x14B JUMPI DUP1 PUSH4 0x481C6A75 EQ PUSH2 0x176 JUMPI DUP1 PUSH4 0x81D12C58 EQ PUSH2 0x1A1 JUMPI JUMPDEST PUSH1 0x0 DUP1 REVERT JUMPDEST PUSH2 0xE1 PUSH1 0x4 DUP1 CALLDATASIZE SUB DUP2 ADD SWAP1 PUSH2 0xDC SWAP2 SWAP1 PUSH2 0xAC1 JUMP JUMPDEST PUSH2 0x2EE JUMP JUMPDEST STOP JUMPDEST CALLVALUE DUP1 ISZERO PUSH2 0xEF JUMPI PUSH1 0x0 DUP1 REVERT JUMPDEST POP PUSH2 0x10A PUSH1 0x4 DUP1 CALLDATASIZE SUB DUP2 ADD SWAP1 PUSH2 0x105 SWAP2 SWAP1 PUSH2 0xB4C JUMP JUMPDEST PUSH2 0x4CB JUMP JUMPDEST PUSH1 0x40 MLOAD PUSH2 0x117 SWAP2 SWAP1 PUSH2 0xB94 JUMP JUMPDEST PUSH1 0x40 MLOAD DUP1 SWAP2 SUB SWAP1 RETURN JUMPDEST CALLVALUE DUP1 ISZERO PUSH2 0x12C JUMPI PUSH1 0x0 DUP1 REVERT JUMPDEST POP PUSH2 0x135 PUSH2 0x4EB JUMP JUMPDEST PUSH1 0x40 MLOAD PUSH2 0x142 SWAP2 SWAP1 PUSH2 0xBBE JUMP JUMPDEST PUSH1 0x40 MLOAD DUP1 SWAP2 SUB SWAP1 RETURN JUMPDEST CALLVALUE DUP1 ISZERO PUSH2 0x157 JUMPI PUSH1 0x0 DUP1 REVERT JUMPDEST POP PUSH2 0x160 PUSH2 0x4F3 JUMP JUMPDEST PUSH1 0x40 MLOAD PUSH2 0x16D SWAP2 SWAP1 PUSH2 0xBBE JUMP JUMPDEST PUSH1 0x40 MLOAD DUP1 SWAP2 SUB SWAP1 RETURN JUMPDEST CALLVALUE DUP1 ISZERO PUSH2 0x182 JUMPI PUSH1 0x0 DUP1 REVERT JUMPDEST POP PUSH2 0x18B PUSH2 0x4FC JUMP JUMPDEST PUSH1 0x40 MLOAD PUSH2 0x198 SWAP2 SWAP1 PUSH2 0xBE8 JUMP JUMPDEST PUSH1 0x40 MLOAD DUP1 SWAP2 SUB SWAP1 RETURN JUMPDEST CALLVALUE DUP1 ISZERO PUSH2 0x1AD JUMPI PUSH1 0x0 DUP1 REVERT JUMPDEST POP PUSH2 0x1C8 PUSH1 0x4 DUP1 CALLDATASIZE SUB DUP2 ADD SWAP1 PUSH2 0x1C3 SWAP2 SWAP1 PUSH2 0xAC1 JUMP JUMPDEST PUSH2 0x522 JUMP JUMPDEST PUSH1 0x40 MLOAD PUSH2 0x1D9 SWAP6 SWAP5 SWAP4 SWAP3 SWAP2 SWAP1 PUSH2 0xC93 JUMP JUMPDEST PUSH1 0x40 MLOAD DUP1 SWAP2 SUB SWAP1 RETURN JUMPDEST CALLVALUE DUP1 ISZERO PUSH2 0x1EE JUMPI PUSH1 0x0 DUP1 REVERT JUMPDEST POP PUSH2 0x209 PUSH1 0x4 DUP1 CALLDATASIZE SUB DUP2 ADD SWAP1 PUSH2 0x204 SWAP2 SWAP1 PUSH2 0xE22 JUMP JUMPDEST PUSH2 0x60D JUMP JUMPDEST STOP JUMPDEST CALLVALUE DUP1 ISZERO PUSH2 0x217 JUMPI PUSH1 0x0 DUP1 REVERT JUMPDEST POP PUSH2 0x220 PUSH2 0x754 JUMP JUMPDEST PUSH1 0x40 MLOAD PUSH2 0x22D SWAP2 SWAP1 PUSH2 0xBBE JUMP JUMPDEST PUSH1 0x40 MLOAD DUP1 SWAP2 SUB SWAP1 RETURN JUMPDEST CALLVALUE DUP1 ISZERO PUSH2 0x242 JUMPI PUSH1 0x0 DUP1 REVERT JUMPDEST POP PUSH2 0x24B PUSH2 0x75A JUMP JUMPDEST PUSH1 0x40 MLOAD PUSH2 0x25C SWAP6 SWAP5 SWAP4 SWAP3 SWAP2 SWAP1 PUSH2 0xE91 JUMP JUMPDEST PUSH1 0x40 MLOAD DUP1 SWAP2 SUB SWAP1 RETURN JUMPDEST CALLVALUE DUP1 ISZERO PUSH2 0x271 JUMPI PUSH1 0x0 DUP1 REVERT JUMPDEST POP PUSH2 0x27A PUSH2 0x79B JUMP JUMPDEST PUSH1 0x40 MLOAD PUSH2 0x287 SWAP2 SWAP1 PUSH2 0xBBE JUMP JUMPDEST PUSH1 0x40 MLOAD DUP1 SWAP2 SUB SWAP1 RETURN JUMPDEST PUSH2 0x298 PUSH2 0x7A1 JUMP JUMPDEST STOP JUMPDEST CALLVALUE DUP1 ISZERO PUSH2 0x2A6 JUMPI PUSH1 0x0 DUP1 REVERT JUMPDEST POP PUSH2 0x2C1 PUSH1 0x4 DUP1 CALLDATASIZE SUB DUP2 ADD SWAP1 PUSH2 0x2BC SWAP2 SWAP1 PUSH2 0xAC1 JUMP JUMPDEST PUSH2 0x8AA JUMP JUMPDEST STOP JUMPDEST CALLVALUE DUP1 ISZERO PUSH2 0x2CF JUMPI PUSH1 0x0 DUP1 REVERT JUMPDEST POP PUSH2 0x2D8 PUSH2 0xA71 JUMP JUMPDEST PUSH1 0x40 MLOAD PUSH2 0x2E5 SWAP2 SWAP1 PUSH2 0xBBE JUMP JUMPDEST PUSH1 0x40 MLOAD DUP1 SWAP2 SUB SWAP1 RETURN JUMPDEST PUSH1 0x2 PUSH1 0x0 SWAP1 SLOAD SWAP1 PUSH2 0x100 EXP SWAP1 DIV PUSH20 0xFFFFFFFFFFFFFFFFFFFFFFFFFFFFFFFFFFFFFFFF AND PUSH20 0xFFFFFFFFFFFFFFFFFFFFFFFFFFFFFFFFFFFFFFFF AND CALLER PUSH20 0xFFFFFFFFFFFFFFFFFFFFFFFFFFFFFFFFFFFFFFFF AND EQ PUSH2 0x37E JUMPI PUSH1 0x40 MLOAD PUSH32 0x8C379A000000000000000000000000000000000000000000000000000000000 DUP2 MSTORE PUSH1 0x4 ADD PUSH2 0x375 SWAP1 PUSH2 0xF56 JUMP JUMPDEST PUSH1 0x40 MLOAD DUP1 SWAP2 SUB SWAP1 REVERT JUMPDEST PUSH1 0x0 PUSH1 0x1 PUSH1 0x0 DUP4 DUP2 MSTORE PUSH1 0x20 ADD SWAP1 DUP2 MSTORE PUSH1 0x20 ADD PUSH1 0x0 KECCAK256 SWAP1 POP PUSH1 0x2 PUSH1 0x5 SLOAD PUSH2 0x3A4 SWAP2 SWAP1 PUSH2 0xFD4 JUMP JUMPDEST DUP2 PUSH1 0x3 ADD SLOAD GT PUSH2 0x3E9 JUMPI PUSH1 0x40 MLOAD PUSH32 0x8C379A000000000000000000000000000000000000000000000000000000000 DUP2 MSTORE PUSH1 0x4 ADD PUSH2 0x3E0 SWAP1 PUSH2 0x1077 JUMP JUMPDEST PUSH1 0x40 MLOAD DUP1 SWAP2 SUB SWAP1 REVERT JUMPDEST DUP1 PUSH1 0x2 ADD PUSH1 0x14 SWAP1 SLOAD SWAP1 PUSH2 0x100 EXP SWAP1 DIV PUSH1 0xFF AND ISZERO PUSH2 0x43B JUMPI PUSH1 0x40 MLOAD PUSH32 0x8C379A000000000000000000000000000000000000000000000000000000000 DUP2 MSTORE PUSH1 0x4 ADD PUSH2 0x432 SWAP1 PUSH2 0x1109 JUMP JUMPDEST PUSH1 0x40 MLOAD DUP1 SWAP2 SUB SWAP1 REVERT JUMPDEST DUP1 PUSH1 0x2 ADD PUSH1 0x0 SWAP1 SLOAD SWAP1 PUSH2 0x100 EXP SWAP1 DIV PUSH20 0xFFFFFFFFFFFFFFFFFFFFFFFFFFFFFFFFFFFFFFFF AND PUSH20 0xFFFFFFFFFFFFFFFFFFFFFFFFFFFFFFFFFFFFFFFF AND PUSH2 0x8FC DUP3 PUSH1 0x1 ADD SLOAD SWAP1 DUP2 ISZERO MUL SWAP1 PUSH1 0x40 MLOAD PUSH1 0x0 PUSH1 0x40 MLOAD DUP1 DUP4 SUB DUP2 DUP6 DUP9 DUP9 CALL SWAP4 POP POP POP POP ISZERO DUP1 ISZERO PUSH2 0x4A9 JUMPI RETURNDATASIZE PUSH1 0x0 DUP1 RETURNDATACOPY RETURNDATASIZE PUSH1 0x0 REVERT JUMPDEST POP PUSH1 0x1 DUP2 PUSH1 0x2 ADD PUSH1 0x14 PUSH2 0x100 EXP DUP2 SLOAD DUP2 PUSH1 0xFF MUL NOT AND SWAP1 DUP4 ISZERO ISZERO MUL OR SWAP1 SSTORE POP POP POP JUMP JUMPDEST PUSH1 0x4 PUSH1 0x20 MSTORE DUP1 PUSH1 0x0 MSTORE PUSH1 0x40 PUSH1 0x0 KECCAK256 PUSH1 0x0 SWAP2 POP SLOAD SWAP1 PUSH2 0x100 EXP SWAP1 DIV PUSH1 0xFF AND DUP2 JUMP JUMPDEST PUSH1 0x0 SELFBALANCE SWAP1 POP SWAP1 JUMP JUMPDEST PUSH1 0x0 DUP1 SLOAD SWAP1 POP SWAP1 JUMP JUMPDEST PUSH1 0x2 PUSH1 0x0 SWAP1 SLOAD SWAP1 PUSH2 0x100 EXP SWAP1 DIV PUSH20 0xFFFFFFFFFFFFFFFFFFFFFFFFFFFFFFFFFFFFFFFF AND DUP2 JUMP JUMPDEST PUSH1 0x1 PUSH1 0x20 MSTORE DUP1 PUSH1 0x0 MSTORE PUSH1 0x40 PUSH1 0x0 KECCAK256 PUSH1 0x0 SWAP2 POP SWAP1 POP DUP1 PUSH1 0x0 ADD DUP1 SLOAD PUSH2 0x545 SWAP1 PUSH2 0x1158 JUMP JUMPDEST DUP1 PUSH1 0x1F ADD PUSH1 0x20 DUP1 SWAP2 DIV MUL PUSH1 0x20 ADD PUSH1 0x40 MLOAD SWAP1 DUP2 ADD PUSH1 0x40 MSTORE DUP1 SWAP3 SWAP2 SWAP1 DUP2 DUP2 MSTORE PUSH1 0x20 ADD DUP3 DUP1 SLOAD PUSH2 0x571 SWAP1 PUSH2 0x1158 JUMP JUMPDEST DUP1 ISZERO PUSH2 0x5BE JUMPI DUP1 PUSH1 0x1F LT PUSH2 0x593 JUMPI PUSH2 0x100 DUP1 DUP4 SLOAD DIV MUL DUP4 MSTORE SWAP2 PUSH1 0x20 ADD SWAP2 PUSH2 0x5BE JUMP JUMPDEST DUP3 ADD SWAP2 SWAP1 PUSH1 0x0 MSTORE PUSH1 0x20 PUSH1 0x0 KECCAK256 SWAP1 JUMPDEST DUP2 SLOAD DUP2 MSTORE SWAP1 PUSH1 0x1 ADD SWAP1 PUSH1 0x20 ADD DUP1 DUP4 GT PUSH2 0x5A1 JUMPI DUP3 SWAP1 SUB PUSH1 0x1F AND DUP3 ADD SWAP2 JUMPDEST POP POP POP POP POP SWAP1 DUP1 PUSH1 0x1 ADD SLOAD SWAP1 DUP1 PUSH1 0x2 ADD PUSH1 0x0 SWAP1 SLOAD SWAP1 PUSH2 0x100 EXP SWAP1 DIV PUSH20 0xFFFFFFFFFFFFFFFFFFFFFFFFFFFFFFFFFFFFFFFF AND SWAP1 DUP1 PUSH1 0x2 ADD PUSH1 0x14 SWAP1 SLOAD SWAP1 PUSH2 0x100 EXP SWAP1 DIV PUSH1 0xFF AND SWAP1 DUP1 PUSH1 0x3 ADD SLOAD SWAP1 POP DUP6 JUMP JUMPDEST PUSH1 0x2 PUSH1 0x0 SWAP1 SLOAD SWAP1 PUSH2 0x100 EXP SWAP1 DIV PUSH20 0xFFFFFFFFFFFFFFFFFFFFFFFFFFFFFFFFFFFFFFFF AND PUSH20 0xFFFFFFFFFFFFFFFFFFFFFFFFFFFFFFFFFFFFFFFF AND CALLER PUSH20 0xFFFFFFFFFFFFFFFFFFFFFFFFFFFFFFFFFFFFFFFF AND EQ PUSH2 0x69D JUMPI PUSH1 0x40 MLOAD PUSH32 0x8C379A000000000000000000000000000000000000000000000000000000000 DUP2 MSTORE PUSH1 0x4 ADD PUSH2 0x694 SWAP1 PUSH2 0xF56 JUMP JUMPDEST PUSH1 0x40 MLOAD DUP1 SWAP2 SUB SWAP1 REVERT JUMPDEST PUSH1 0x0 PUSH1 0x1 PUSH1 0x0 DUP1 PUSH1 0x0 DUP2 SLOAD DUP1 SWAP3 SWAP2 SWAP1 PUSH2 0x6B5 SWAP1 PUSH2 0x1189 JUMP JUMPDEST SWAP2 SWAP1 POP SSTORE DUP2 MSTORE PUSH1 0x20 ADD SWAP1 DUP2 MSTORE PUSH1 0x20 ADD PUSH1 0x0 KECCAK256 SWAP1 POP DUP4 DUP2 PUSH1 0x0 ADD SWAP1 DUP2 PUSH2 0x6DA SWAP2 SWAP1 PUSH2 0x137D JUMP JUMPDEST POP DUP3 DUP2 PUSH1 0x1 ADD DUP2 SWAP1 SSTORE POP DUP2 DUP2 PUSH1 0x2 ADD PUSH1 0x0 PUSH2 0x100 EXP DUP2 SLOAD DUP2 PUSH20 0xFFFFFFFFFFFFFFFFFFFFFFFFFFFFFFFFFFFFFFFF MUL NOT AND SWAP1 DUP4 PUSH20 0xFFFFFFFFFFFFFFFFFFFFFFFFFFFFFFFFFFFFFFFF AND MUL OR SWAP1 SSTORE POP PUSH1 0x0 DUP2 PUSH1 0x2 ADD PUSH1 0x14 PUSH2 0x100 EXP DUP2 SLOAD DUP2 PUSH1 0xFF MUL NOT AND SWAP1 DUP4 ISZERO ISZERO MUL OR SWAP1 SSTORE POP PUSH1 0x0 DUP2 PUSH1 0x3 ADD DUP2 SWAP1 SSTORE POP POP POP POP POP JUMP JUMPDEST PUSH1 0x3 SLOAD DUP2 JUMP JUMPDEST PUSH1 0x0 DUP1 PUSH1 0x0 DUP1 PUSH1 0x0 SELFBALANCE SWAP4 POP PUSH1 0x0 SLOAD SWAP3 POP PUSH1 0x5 SLOAD SWAP2 POP PUSH1 0x2 PUSH1 0x0 SWAP1 SLOAD SWAP1 PUSH2 0x100 EXP SWAP1 DIV PUSH20 0xFFFFFFFFFFFFFFFFFFFFFFFFFFFFFFFFFFFFFFFF AND SWAP1 POP SWAP1 SWAP2 SWAP3 SWAP4 SWAP5 JUMP JUMPDEST PUSH1 0x0 SLOAD DUP2 JUMP JUMPDEST PUSH1 0x3 SLOAD CALLVALUE LT ISZERO PUSH2 0x7E6 JUMPI PUSH1 0x40 MLOAD PUSH32 0x8C379A000000000000000000000000000000000000000000000000000000000 DUP2 MSTORE PUSH1 0x4 ADD PUSH2 0x7DD SWAP1 PUSH2 0x14E7 JUMP JUMPDEST PUSH1 0x40 MLOAD DUP1 SWAP2 SUB SWAP1 REVERT JUMPDEST PUSH1 0x4 PUSH1 0x0 CALLER PUSH20 0xFFFFFFFFFFFFFFFFFFFFFFFFFFFFFFFFFFFFFFFF AND PUSH20 0xFFFFFFFFFFFFFFFFFFFFFFFFFFFFFFFFFFFFFFFF AND DUP2 MSTORE PUSH1 0x20 ADD SWAP1 DUP2 MSTORE PUSH1 0x20 ADD PUSH1 0x0 KECCAK256 PUSH1 0x0 SWAP1 SLOAD SWAP1 PUSH2 0x100 EXP SWAP1 DIV PUSH1 0xFF AND PUSH2 0x850 JUMPI PUSH1 0x5 PUSH1 0x0 DUP2 SLOAD DUP1 SWAP3 SWAP2 SWAP1 PUSH2 0x84A SWAP1 PUSH2 0x1189 JUMP JUMPDEST SWAP2 SWAP1 POP SSTORE POP JUMPDEST PUSH1 0x1 PUSH1 0x4 PUSH1 0x0 CALLER PUSH20 0xFFFFFFFFFFFFFFFFFFFFFFFFFFFFFFFFFFFFFFFF AND PUSH20 0xFFFFFFFFFFFFFFFFFFFFFFFFFFFFFFFFFFFFFFFF AND DUP2 MSTORE PUSH1 0x20 ADD SWAP1 DUP2 MSTORE PUSH1 0x20 ADD PUSH1 0x0 KECCAK256 PUSH1 0x0 PUSH2 0x100 EXP DUP2 SLOAD DUP2 PUSH1 0xFF MUL NOT AND SWAP1 DUP4 ISZERO ISZERO MUL OR SWAP1 SSTORE POP JUMP JUMPDEST PUSH1 0x4 PUSH1 0x0 CALLER PUSH20 0xFFFFFFFFFFFFFFFFFFFFFFFFFFFFFFFFFFFFFFFF AND PUSH20 0xFFFFFFFFFFFFFFFFFFFFFFFFFFFFFFFFFFFFFFFF AND DUP2 MSTORE PUSH1 0x20 ADD SWAP1 DUP2 MSTORE PUSH1 0x20 ADD PUSH1 0x0 KECCAK256 PUSH1 0x0 SWAP1 SLOAD SWAP1 PUSH2 0x100 EXP SWAP1 DIV PUSH1 0xFF AND PUSH2 0x936 JUMPI PUSH1 0x40 MLOAD PUSH32 0x8C379A000000000000000000000000000000000000000000000000000000000 DUP2 MSTORE PUSH1 0x4 ADD PUSH2 0x92D SWAP1 PUSH2 0x1579 JUMP JUMPDEST PUSH1 0x40 MLOAD DUP1 SWAP2 SUB SWAP1 REVERT JUMPDEST PUSH1 0x1 PUSH1 0x0 DUP3 DUP2 MSTORE PUSH1 0x20 ADD SWAP1 DUP2 MSTORE PUSH1 0x20 ADD PUSH1 0x0 KECCAK256 PUSH1 0x4 ADD PUSH1 0x0 CALLER PUSH20 0xFFFFFFFFFFFFFFFFFFFFFFFFFFFFFFFFFFFFFFFF AND PUSH20 0xFFFFFFFFFFFFFFFFFFFFFFFFFFFFFFFFFFFFFFFF AND DUP2 MSTORE PUSH1 0x20 ADD SWAP1 DUP2 MSTORE PUSH1 0x20 ADD PUSH1 0x0 KECCAK256 PUSH1 0x0 SWAP1 SLOAD SWAP1 PUSH2 0x100 EXP SWAP1 DIV PUSH1 0xFF AND ISZERO PUSH2 0x9D7 JUMPI PUSH1 0x40 MLOAD PUSH32 0x8C379A000000000000000000000000000000000000000000000000000000000 DUP2 MSTORE PUSH1 0x4 ADD PUSH2 0x9CE SWAP1 PUSH2 0x160B JUMP JUMPDEST PUSH1 0x40 MLOAD DUP1 SWAP2 SUB SWAP1 REVERT JUMPDEST PUSH1 0x1 DUP1 PUSH1 0x0 DUP4 DUP2 MSTORE PUSH1 0x20 ADD SWAP1 DUP2 MSTORE PUSH1 0x20 ADD PUSH1 0x0 KECCAK256 PUSH1 0x4 ADD PUSH1 0x0 CALLER PUSH20 0xFFFFFFFFFFFFFFFFFFFFFFFFFFFFFFFFFFFFFFFF AND PUSH20 0xFFFFFFFFFFFFFFFFFFFFFFFFFFFFFFFFFFFFFFFF AND DUP2 MSTORE PUSH1 0x20 ADD SWAP1 DUP2 MSTORE PUSH1 0x20 ADD PUSH1 0x0 KECCAK256 PUSH1 0x0 PUSH2 0x100 EXP DUP2 SLOAD DUP2 PUSH1 0xFF MUL NOT AND SWAP1 DUP4 ISZERO ISZERO MUL OR SWAP1 SSTORE POP PUSH1 0x1 PUSH1 0x0 DUP3 DUP2 MSTORE PUSH1 0x20 ADD SWAP1 DUP2 MSTORE PUSH1 0x20 ADD PUSH1 0x0 KECCAK256 PUSH1 0x3 ADD PUSH1 0x0 DUP2 SLOAD DUP1 SWAP3 SWAP2 SWAP1 PUSH2 0xA69 SWAP1 PUSH2 0x1189 JUMP JUMPDEST SWAP2 SWAP1 POP SSTORE POP POP JUMP JUMPDEST PUSH1 0x5 SLOAD DUP2 JUMP JUMPDEST PUSH1 0x0 PUSH1 0x40 MLOAD SWAP1 POP SWAP1 JUMP JUMPDEST PUSH1 0x0 DUP1 REVERT JUMPDEST PUSH1 0x0 DUP1 REVERT JUMPDEST PUSH1 0x0 DUP2 SWAP1 POP SWAP2 SWAP1 POP JUMP JUMPDEST PUSH2 0xA9E DUP2 PUSH2 0xA8B JUMP JUMPDEST DUP2 EQ PUSH2 0xAA9 JUMPI PUSH1 0x0 DUP1 REVERT JUMPDEST POP JUMP JUMPDEST PUSH1 0x0 DUP2 CALLDATALOAD SWAP1 POP PUSH2 0xABB DUP2 PUSH2 0xA95 JUMP JUMPDEST SWAP3 SWAP2 POP POP JUMP JUMPDEST PUSH1 0x0 PUSH1 0x20 DUP3 DUP5 SUB SLT ISZERO PUSH2 0xAD7 JUMPI PUSH2 0xAD6 PUSH2 0xA81 JUMP JUMPDEST JUMPDEST PUSH1 0x0 PUSH2 0xAE5 DUP5 DUP3 DUP6 ADD PUSH2 0xAAC JUMP JUMPDEST SWAP2 POP POP SWAP3 SWAP2 POP POP JUMP JUMPDEST PUSH1 0x0 PUSH20 0xFFFFFFFFFFFFFFFFFFFFFFFFFFFFFFFFFFFFFFFF DUP3 AND SWAP1 POP SWAP2 SWAP1 POP JUMP JUMPDEST PUSH1 0x0 PUSH2 0xB19 DUP3 PUSH2 0xAEE JUMP JUMPDEST SWAP1 POP SWAP2 SWAP1 POP JUMP JUMPDEST PUSH2 0xB29 DUP2 PUSH2 0xB0E JUMP JUMPDEST DUP2 EQ PUSH2 0xB34 JUMPI PUSH1 0x0 DUP1 REVERT JUMPDEST POP JUMP JUMPDEST PUSH1 0x0 DUP2 CALLDATALOAD SWAP1 POP PUSH2 0xB46 DUP2 PUSH2 0xB20 JUMP JUMPDEST SWAP3 SWAP2 POP POP JUMP JUMPDEST PUSH1 0x0 PUSH1 0x20 DUP3 DUP5 SUB SLT ISZERO PUSH2 0xB62 JUMPI PUSH2 0xB61 PUSH2 0xA81 JUMP JUMPDEST JUMPDEST PUSH1 0x0 PUSH2 0xB70 DUP5 DUP3 DUP6 ADD PUSH2 0xB37 JUMP JUMPDEST SWAP2 POP POP SWAP3 SWAP2 POP POP JUMP JUMPDEST PUSH1 0x0 DUP2 ISZERO ISZERO SWAP1 POP SWAP2 SWAP1 POP JUMP JUMPDEST PUSH2 0xB8E DUP2 PUSH2 0xB79 JUMP JUMPDEST DUP3 MSTORE POP POP JUMP JUMPDEST PUSH1 0x0 PUSH1 0x20 DUP3 ADD SWAP1 POP PUSH2 0xBA9 PUSH1 0x0 DUP4 ADD DUP5 PUSH2 0xB85 JUMP JUMPDEST SWAP3 SWAP2 POP POP JUMP JUMPDEST PUSH2 0xBB8 DUP2 PUSH2 0xA8B JUMP JUMPDEST DUP3 MSTORE POP POP JUMP JUMPDEST PUSH1 0x0 PUSH1 0x20 DUP3 ADD SWAP1 POP PUSH2 0xBD3 PUSH1 0x0 DUP4 ADD DUP5 PUSH2 0xBAF JUMP JUMPDEST SWAP3 SWAP2 POP POP JUMP JUMPDEST PUSH2 0xBE2 DUP2 PUSH2 0xB0E JUMP JUMPDEST DUP3 MSTORE POP POP JUMP JUMPDEST PUSH1 0x0 PUSH1 0x20 DUP3 ADD SWAP1 POP PUSH2 0xBFD PUSH1 0x0 DUP4 ADD DUP5 PUSH2 0xBD9 JUMP JUMPDEST SWAP3 SWAP2 POP POP JUMP JUMPDEST PUSH1 0x0 DUP2 MLOAD SWAP1 POP SWAP2 SWAP1 POP JUMP JUMPDEST PUSH1 0x0 DUP3 DUP3 MSTORE PUSH1 0x20 DUP3 ADD SWAP1 POP SWAP3 SWAP2 POP POP JUMP JUMPDEST PUSH1 0x0 JUMPDEST DUP4 DUP2 LT ISZERO PUSH2 0xC3D JUMPI DUP1 DUP3 ADD MLOAD DUP2 DUP5 ADD MSTORE PUSH1 0x20 DUP2 ADD SWAP1 POP PUSH2 0xC22 JUMP JUMPDEST PUSH1 0x0 DUP5 DUP5 ADD MSTORE POP POP POP POP JUMP JUMPDEST PUSH1 0x0 PUSH1 0x1F NOT PUSH1 0x1F DUP4 ADD AND SWAP1 POP SWAP2 SWAP1 POP JUMP JUMPDEST PUSH1 0x0 PUSH2 0xC65 DUP3 PUSH2 0xC03 JUMP JUMPDEST PUSH2 0xC6F DUP2 DUP6 PUSH2 0xC0E JUMP JUMPDEST SWAP4 POP PUSH2 0xC7F DUP2 DUP6 PUSH1 0x20 DUP7 ADD PUSH2 0xC1F JUMP JUMPDEST PUSH2 0xC88 DUP2 PUSH2 0xC49 JUMP JUMPDEST DUP5 ADD SWAP2 POP POP SWAP3 SWAP2 POP POP JUMP JUMPDEST PUSH1 0x0 PUSH1 0xA0 DUP3 ADD SWAP1 POP DUP2 DUP2 SUB PUSH1 0x0 DUP4 ADD MSTORE PUSH2 0xCAD DUP2 DUP9 PUSH2 0xC5A JUMP JUMPDEST SWAP1 POP PUSH2 0xCBC PUSH1 0x20 DUP4 ADD DUP8 PUSH2 0xBAF JUMP JUMPDEST PUSH2 0xCC9 PUSH1 0x40 DUP4 ADD DUP7 PUSH2 0xBD9 JUMP JUMPDEST PUSH2 0xCD6 PUSH1 0x60 DUP4 ADD DUP6 PUSH2 0xB85 JUMP JUMPDEST PUSH2 0xCE3 PUSH1 0x80 DUP4 ADD DUP5 PUSH2 0xBAF JUMP JUMPDEST SWAP7 SWAP6 POP POP POP POP POP POP JUMP JUMPDEST PUSH1 0x0 DUP1 REVERT JUMPDEST PUSH1 0x0 DUP1 REVERT JUMPDEST PUSH32 0x4E487B7100000000000000000000000000000000000000000000000000000000 PUSH1 0x0 MSTORE PUSH1 0x41 PUSH1 0x4 MSTORE PUSH1 0x24 PUSH1 0x0 REVERT JUMPDEST PUSH2 0xD2F DUP3 PUSH2 0xC49 JUMP JUMPDEST DUP2 ADD DUP2 DUP2 LT PUSH8 0xFFFFFFFFFFFFFFFF DUP3 GT OR ISZERO PUSH2 0xD4E JUMPI PUSH2 0xD4D PUSH2 0xCF7 JUMP JUMPDEST JUMPDEST DUP1 PUSH1 0x40 MSTORE POP POP POP JUMP JUMPDEST PUSH1 0x0 PUSH2 0xD61 PUSH2 0xA77 JUMP JUMPDEST SWAP1 POP PUSH2 0xD6D DUP3 DUP3 PUSH2 0xD26 JUMP JUMPDEST SWAP2 SWAP1 POP JUMP JUMPDEST PUSH1 0x0 PUSH8 0xFFFFFFFFFFFFFFFF DUP3 GT ISZERO PUSH2 0xD8D JUMPI PUSH2 0xD8C PUSH2 0xCF7 JUMP JUMPDEST JUMPDEST PUSH2 0xD96 DUP3 PUSH2 0xC49 JUMP JUMPDEST SWAP1 POP PUSH1 0x20 DUP2 ADD SWAP1 POP SWAP2 SWAP1 POP JUMP JUMPDEST DUP3 DUP2 DUP4 CALLDATACOPY PUSH1 0x0 DUP4 DUP4 ADD MSTORE POP POP POP JUMP JUMPDEST PUSH1 0x0 PUSH2 0xDC5 PUSH2 0xDC0 DUP5 PUSH2 0xD72 JUMP JUMPDEST PUSH2 0xD57 JUMP JUMPDEST SWAP1 POP DUP3 DUP2 MSTORE PUSH1 0x20 DUP2 ADD DUP5 DUP5 DUP5 ADD GT ISZERO PUSH2 0xDE1 JUMPI PUSH2 0xDE0 PUSH2 0xCF2 JUMP JUMPDEST JUMPDEST PUSH2 0xDEC DUP5 DUP3 DUP6 PUSH2 0xDA3 JUMP JUMPDEST POP SWAP4 SWAP3 POP POP POP JUMP JUMPDEST PUSH1 0x0 DUP3 PUSH1 0x1F DUP4 ADD SLT PUSH2 0xE09 JUMPI PUSH2 0xE08 PUSH2 0xCED JUMP JUMPDEST JUMPDEST DUP2 CALLDATALOAD PUSH2 0xE19 DUP5 DUP3 PUSH1 0x20 DUP7 ADD PUSH2 0xDB2 JUMP JUMPDEST SWAP2 POP POP SWAP3 SWAP2 POP POP JUMP JUMPDEST PUSH1 0x0 DUP1 PUSH1 0x0 PUSH1 0x60 DUP5 DUP7 SUB SLT ISZERO PUSH2 0xE3B JUMPI PUSH2 0xE3A PUSH2 0xA81 JUMP JUMPDEST JUMPDEST PUSH1 0x0 DUP5 ADD CALLDATALOAD PUSH8 0xFFFFFFFFFFFFFFFF DUP2 GT ISZERO PUSH2 0xE59 JUMPI PUSH2 0xE58 PUSH2 0xA86 JUMP JUMPDEST JUMPDEST PUSH2 0xE65 DUP7 DUP3 DUP8 ADD PUSH2 0xDF4 JUMP JUMPDEST SWAP4 POP POP PUSH1 0x20 PUSH2 0xE76 DUP7 DUP3 DUP8 ADD PUSH2 0xAAC JUMP JUMPDEST SWAP3 POP POP PUSH1 0x40 PUSH2 0xE87 DUP7 DUP3 DUP8 ADD PUSH2 0xB37 JUMP JUMPDEST SWAP2 POP POP SWAP3 POP SWAP3 POP SWAP3 JUMP JUMPDEST PUSH1 0x0 PUSH1 0xA0 DUP3 ADD SWAP1 POP PUSH2 0xEA6 PUSH1 0x0 DUP4 ADD DUP9 PUSH2 0xBAF JUMP JUMPDEST PUSH2 0xEB3 PUSH1 0x20 DUP4 ADD DUP8 PUSH2 0xBAF JUMP JUMPDEST PUSH2 0xEC0 PUSH1 0x40 DUP4 ADD DUP7 PUSH2 0xBAF JUMP JUMPDEST PUSH2 0xECD PUSH1 0x60 DUP4 ADD DUP6 PUSH2 0xBAF JUMP JUMPDEST PUSH2 0xEDA PUSH1 0x80 DUP4 ADD DUP5 PUSH2 0xBD9 JUMP JUMPDEST SWAP7 SWAP6 POP POP POP POP POP POP JUMP JUMPDEST PUSH32 0x4F6E6C7920746865206D616E616765722063616E206578656375746520746869 PUSH1 0x0 DUP3 ADD MSTORE PUSH32 0x732066756E6374696F6E2E000000000000000000000000000000000000000000 PUSH1 0x20 DUP3 ADD MSTORE POP JUMP JUMPDEST PUSH1 0x0 PUSH2 0xF40 PUSH1 0x2B DUP4 PUSH2 0xC0E JUMP JUMPDEST SWAP2 POP PUSH2 0xF4B DUP3 PUSH2 0xEE4 JUMP JUMPDEST PUSH1 0x40 DUP3 ADD SWAP1 POP SWAP2 SWAP1 POP JUMP JUMPDEST PUSH1 0x0 PUSH1 0x20 DUP3 ADD SWAP1 POP DUP2 DUP2 SUB PUSH1 0x0 DUP4 ADD MSTORE PUSH2 0xF6F DUP2 PUSH2 0xF33 JUMP JUMPDEST SWAP1 POP SWAP2 SWAP1 POP JUMP JUMPDEST PUSH32 0x4E487B7100000000000000000000000000000000000000000000000000000000 PUSH1 0x0 MSTORE PUSH1 0x12 PUSH1 0x4 MSTORE PUSH1 0x24 PUSH1 0x0 REVERT JUMPDEST PUSH32 0x4E487B7100000000000000000000000000000000000000000000000000000000 PUSH1 0x0 MSTORE PUSH1 0x11 PUSH1 0x4 MSTORE PUSH1 0x24 PUSH1 0x0 REVERT JUMPDEST PUSH1 0x0 PUSH2 0xFDF DUP3 PUSH2 0xA8B JUMP JUMPDEST SWAP2 POP PUSH2 0xFEA DUP4 PUSH2 0xA8B JUMP JUMPDEST SWAP3 POP DUP3 PUSH2 0xFFA JUMPI PUSH2 0xFF9 PUSH2 0xF76 JUMP JUMPDEST JUMPDEST DUP3 DUP3 DIV SWAP1 POP SWAP3 SWAP2 POP POP JUMP JUMPDEST PUSH32 0x596F7520646F206E6F742068617665207265717569726564206E756D62657220 PUSH1 0x0 DUP3 ADD MSTORE PUSH32 0x6F6620617070726F76616C732E00000000000000000000000000000000000000 PUSH1 0x20 DUP3 ADD MSTORE POP JUMP JUMPDEST PUSH1 0x0 PUSH2 0x1061 PUSH1 0x2D DUP4 PUSH2 0xC0E JUMP JUMPDEST SWAP2 POP PUSH2 0x106C DUP3 PUSH2 0x1005 JUMP JUMPDEST PUSH1 0x40 DUP3 ADD SWAP1 POP SWAP2 SWAP1 POP JUMP JUMPDEST PUSH1 0x0 PUSH1 0x20 DUP3 ADD SWAP1 POP DUP2 DUP2 SUB PUSH1 0x0 DUP4 ADD MSTORE PUSH2 0x1090 DUP2 PUSH2 0x1054 JUMP JUMPDEST SWAP1 POP SWAP2 SWAP1 POP JUMP JUMPDEST PUSH32 0x5265717565737420686173206265656E20617070726F76656420616C72656164 PUSH1 0x0 DUP3 ADD MSTORE PUSH32 0x792E000000000000000000000000000000000000000000000000000000000000 PUSH1 0x20 DUP3 ADD MSTORE POP JUMP JUMPDEST PUSH1 0x0 PUSH2 0x10F3 PUSH1 0x22 DUP4 PUSH2 0xC0E JUMP JUMPDEST SWAP2 POP PUSH2 0x10FE DUP3 PUSH2 0x1097 JUMP JUMPDEST PUSH1 0x40 DUP3 ADD SWAP1 POP SWAP2 SWAP1 POP JUMP JUMPDEST PUSH1 0x0 PUSH1 0x20 DUP3 ADD SWAP1 POP DUP2 DUP2 SUB PUSH1 0x0 DUP4 ADD MSTORE PUSH2 0x1122 DUP2 PUSH2 0x10E6 JUMP JUMPDEST SWAP1 POP SWAP2 SWAP1 POP JUMP JUMPDEST PUSH32 0x4E487B7100000000000000000000000000000000000000000000000000000000 PUSH1 0x0 MSTORE PUSH1 0x22 PUSH1 0x4 MSTORE PUSH1 0x24 PUSH1 0x0 REVERT JUMPDEST PUSH1 0x0 PUSH1 0x2 DUP3 DIV SWAP1 POP PUSH1 0x1 DUP3 AND DUP1 PUSH2 0x1170 JUMPI PUSH1 0x7F DUP3 AND SWAP2 POP JUMPDEST PUSH1 0x20 DUP3 LT DUP2 SUB PUSH2 0x1183 JUMPI PUSH2 0x1182 PUSH2 0x1129 JUMP JUMPDEST JUMPDEST POP SWAP2 SWAP1 POP JUMP JUMPDEST PUSH1 0x0 PUSH2 0x1194 DUP3 PUSH2 0xA8B JUMP JUMPDEST SWAP2 POP PUSH32 0xFFFFFFFFFFFFFFFFFFFFFFFFFFFFFFFFFFFFFFFFFFFFFFFFFFFFFFFFFFFFFFFF DUP3 SUB PUSH2 0x11C6 JUMPI PUSH2 0x11C5 PUSH2 0xFA5 JUMP JUMPDEST JUMPDEST PUSH1 0x1 DUP3 ADD SWAP1 POP SWAP2 SWAP1 POP JUMP JUMPDEST PUSH1 0x0 DUP2 SWAP1 POP DUP2 PUSH1 0x0 MSTORE PUSH1 0x20 PUSH1 0x0 KECCAK256 SWAP1 POP SWAP2 SWAP1 POP JUMP JUMPDEST PUSH1 0x0 PUSH1 0x20 PUSH1 0x1F DUP4 ADD DIV SWAP1 POP SWAP2 SWAP1 POP JUMP JUMPDEST PUSH1 0x0 DUP3 DUP3 SHL SWAP1 POP SWAP3 SWAP2 POP POP JUMP JUMPDEST PUSH1 0x0 PUSH1 0x8 DUP4 MUL PUSH2 0x1233 PUSH32 0xFFFFFFFFFFFFFFFFFFFFFFFFFFFFFFFFFFFFFFFFFFFFFFFFFFFFFFFFFFFFFFFF DUP3 PUSH2 0x11F6 JUMP JUMPDEST PUSH2 0x123D DUP7 DUP4 PUSH2 0x11F6 JUMP JUMPDEST SWAP6 POP DUP1 NOT DUP5 AND SWAP4 POP DUP1 DUP7 AND DUP5 OR SWAP3 POP POP POP SWAP4 SWAP3 POP POP POP JUMP JUMPDEST PUSH1 0x0 DUP2 SWAP1 POP SWAP2 SWAP1 POP JUMP JUMPDEST PUSH1 0x0 PUSH2 0x127A PUSH2 0x1275 PUSH2 0x1270 DUP5 PUSH2 0xA8B JUMP JUMPDEST PUSH2 0x1255 JUMP JUMPDEST PUSH2 0xA8B JUMP JUMPDEST SWAP1 POP SWAP2 SWAP1 POP JUMP JUMPDEST PUSH1 0x0 DUP2 SWAP1 POP SWAP2 SWAP1 POP JUMP JUMPDEST PUSH2 0x1294 DUP4 PUSH2 0x125F JUMP JUMPDEST PUSH2 0x12A8 PUSH2 0x12A0 DUP3 PUSH2 0x1281 JUMP JUMPDEST DUP5 DUP5 SLOAD PUSH2 0x1203 JUMP JUMPDEST DUP3 SSTORE POP POP POP POP JUMP JUMPDEST PUSH1 0x0 SWAP1 JUMP JUMPDEST PUSH2 0x12BD PUSH2 0x12B0 JUMP JUMPDEST PUSH2 0x12C8 DUP2 DUP5 DUP5 PUSH2 0x128B JUMP JUMPDEST POP POP POP JUMP JUMPDEST JUMPDEST DUP2 DUP2 LT ISZERO PUSH2 0x12EC JUMPI PUSH2 0x12E1 PUSH1 0x0 DUP3 PUSH2 0x12B5 JUMP JUMPDEST PUSH1 0x1 DUP2 ADD SWAP1 POP PUSH2 0x12CE JUMP JUMPDEST POP POP JUMP JUMPDEST PUSH1 0x1F DUP3 GT ISZERO PUSH2 0x1331 JUMPI PUSH2 0x1302 DUP2 PUSH2 0x11D1 JUMP JUMPDEST PUSH2 0x130B DUP5 PUSH2 0x11E6 JUMP JUMPDEST DUP2 ADD PUSH1 0x20 DUP6 LT ISZERO PUSH2 0x131A JUMPI DUP2 SWAP1 POP JUMPDEST PUSH2 0x132E PUSH2 0x1326 DUP6 PUSH2 0x11E6 JUMP JUMPDEST DUP4 ADD DUP3 PUSH2 0x12CD JUMP JUMPDEST POP POP JUMPDEST POP POP POP JUMP JUMPDEST PUSH1 0x0 DUP3 DUP3 SHR SWAP1 POP SWAP3 SWAP2 POP POP JUMP JUMPDEST PUSH1 0x0 PUSH2 0x1354 PUSH1 0x0 NOT DUP5 PUSH1 0x8 MUL PUSH2 0x1336 JUMP JUMPDEST NOT DUP1 DUP4 AND SWAP2 POP POP SWAP3 SWAP2 POP POP JUMP JUMPDEST PUSH1 0x0 PUSH2 0x136D DUP4 DUP4 PUSH2 0x1343 JUMP JUMPDEST SWAP2 POP DUP3 PUSH1 0x2 MUL DUP3 OR SWAP1 POP SWAP3 SWAP2 POP POP JUMP JUMPDEST PUSH2 0x1386 DUP3 PUSH2 0xC03 JUMP JUMPDEST PUSH8 0xFFFFFFFFFFFFFFFF DUP2 GT ISZERO PUSH2 0x139F JUMPI PUSH2 0x139E PUSH2 0xCF7 JUMP JUMPDEST JUMPDEST PUSH2 0x13A9 DUP3 SLOAD PUSH2 0x1158 JUMP JUMPDEST PUSH2 0x13B4 DUP3 DUP3 DUP6 PUSH2 0x12F0 JUMP JUMPDEST PUSH1 0x0 PUSH1 0x20 SWAP1 POP PUSH1 0x1F DUP4 GT PUSH1 0x1 DUP2 EQ PUSH2 0x13E7 JUMPI PUSH1 0x0 DUP5 ISZERO PUSH2 0x13D5 JUMPI DUP3 DUP8 ADD MLOAD SWAP1 POP JUMPDEST PUSH2 0x13DF DUP6 DUP3 PUSH2 0x1361 JUMP JUMPDEST DUP7 SSTORE POP PUSH2 0x1447 JUMP JUMPDEST PUSH1 0x1F NOT DUP5 AND PUSH2 0x13F5 DUP7 PUSH2 0x11D1 JUMP JUMPDEST PUSH1 0x0 JUMPDEST DUP3 DUP2 LT ISZERO PUSH2 0x141D JUMPI DUP5 DUP10 ADD MLOAD DUP3 SSTORE PUSH1 0x1 DUP3 ADD SWAP2 POP PUSH1 0x20 DUP6 ADD SWAP5 POP PUSH1 0x20 DUP2 ADD SWAP1 POP PUSH2 0x13F8 JUMP JUMPDEST DUP7 DUP4 LT ISZERO PUSH2 0x143A JUMPI DUP5 DUP10 ADD MLOAD PUSH2 0x1436 PUSH1 0x1F DUP10 AND DUP3 PUSH2 0x1343 JUMP JUMPDEST DUP4 SSTORE POP JUMPDEST PUSH1 0x1 PUSH1 0x2 DUP9 MUL ADD DUP9 SSTORE POP POP POP JUMPDEST POP POP POP POP POP POP JUMP JUMPDEST PUSH32 0x4E6F7420656E6F756768207765692073656E7420746F206D6565742074686520 PUSH1 0x0 DUP3 ADD MSTORE PUSH32 0x6D696E696D756D20636F6E747269627574696F6E20726571756972656D656E74 PUSH1 0x20 DUP3 ADD MSTORE PUSH32 0x2E00000000000000000000000000000000000000000000000000000000000000 PUSH1 0x40 DUP3 ADD MSTORE POP JUMP JUMPDEST PUSH1 0x0 PUSH2 0x14D1 PUSH1 0x41 DUP4 PUSH2 0xC0E JUMP JUMPDEST SWAP2 POP PUSH2 0x14DC DUP3 PUSH2 0x144F JUMP JUMPDEST PUSH1 0x60 DUP3 ADD SWAP1 POP SWAP2 SWAP1 POP JUMP JUMPDEST PUSH1 0x0 PUSH1 0x20 DUP3 ADD SWAP1 POP DUP2 DUP2 SUB PUSH1 0x0 DUP4 ADD MSTORE PUSH2 0x1500 DUP2 PUSH2 0x14C4 JUMP JUMPDEST SWAP1 POP SWAP2 SWAP1 POP JUMP JUMPDEST PUSH32 0x4163636F756E74206973206E6F742070617274696369706174696E6720696E20 PUSH1 0x0 DUP3 ADD MSTORE PUSH32 0x43616D706169676E2E0000000000000000000000000000000000000000000000 PUSH1 0x20 DUP3 ADD MSTORE POP JUMP JUMPDEST PUSH1 0x0 PUSH2 0x1563 PUSH1 0x29 DUP4 PUSH2 0xC0E JUMP JUMPDEST SWAP2 POP PUSH2 0x156E DUP3 PUSH2 0x1507 JUMP JUMPDEST PUSH1 0x40 DUP3 ADD SWAP1 POP SWAP2 SWAP1 POP JUMP JUMPDEST PUSH1 0x0 PUSH1 0x20 DUP3 ADD SWAP1 POP DUP2 DUP2 SUB PUSH1 0x0 DUP4 ADD MSTORE PUSH2 0x1592 DUP2 PUSH2 0x1556 JUMP JUMPDEST SWAP1 POP SWAP2 SWAP1 POP JUMP JUMPDEST PUSH32 0x557365722063616E6E6F7420617070726F76652073616D652072657175657374 PUSH1 0x0 DUP3 ADD MSTORE PUSH32 0x2074776963652E00000000000000000000000000000000000000000000000000 PUSH1 0x20 DUP3 ADD MSTORE POP JUMP JUMPDEST PUSH1 0x0 PUSH2 0x15F5 PUSH1 0x27 DUP4 PUSH2 0xC0E JUMP JUMPDEST SWAP2 POP PUSH2 0x1600 DUP3 PUSH2 0x1599 JUMP JUMPDEST PUSH1 0x40 DUP3 ADD SWAP1 POP SWAP2 SWAP1 POP JUMP JUMPDEST PUSH1 0x0 PUSH1 0x20 DUP3 ADD SWAP1 POP DUP2 DUP2 SUB PUSH1 0x0 DUP4 ADD MSTORE PUSH2 0x1624 DUP2 PUSH2 0x15E8 JUMP JUMPDEST SWAP1 POP SWAP2 SWAP1 POP JUMP INVALID LOG2 PUSH5 0x6970667358 0x22 SLT KECCAK256 0xC1 0xCB DUP4 0xD9 0x5C MOD POP CALL DUP3 0xD8 0xB4 SWAP8 JUMPDEST 0xA6 0xF7 0xBD DUP7 0xD2 PUSH18 0x10A1D6CCFF696DABFE50BB5EA364736F6C63 NUMBER STOP ADDMOD SGT STOP CALLER "},"gasEstimates":{"creation":{"codeDepositCost":"1145800","executionCost":"infinite","totalCost":"infinite"},"external":{"_numRequest()":"2451","approveRequest(uint256)":"infinite","approvers(address)":"2868","contribute()":"53244","createRequest(string,uint256,address)":"infinite","finalizeRequest(uint256)":"infinite","getCampaignSummary()":"infinite","getRequestsCount()":"2504","getTotalBalance()":"384","manager()":"2603","minimumContribution()":"2474","peopleJoinedForContribution()":"2517","requests(uint256)":"infinite"}},"methodIdentifiers":{"_numRequest()":"b7e622cb","approveRequest(uint256)":"d7d1bbdb","approvers(address)":"0a144391","contribute()":"d7bb99ba","createRequest(string,uint256,address)":"8a9cfd55","finalizeRequest(uint256)":"03441006","getCampaignSummary()":"a00c96d7","getRequestsCount()":"3410452a","getTotalBalance()":"12b58349","manager()":"481c6a75","minimumContribution()":"937e09b1","peopleJoinedForContribution()":"f0fa0eb9","requests(uint256)":"81d12c58"}},"storageLayout":{"storage":[{"astId":18,"contract":"Kickstarter.sol:Campaign","label":"_numRequest","offset":0,"slot":"0","type":"t_uint256"},{"astId":23,"contract":"Kickstarter.sol:Campaign","label":"requests","offset":0,"slot":"1","type":"t_mapping(t_uint256,t_struct(Request)16_storage)"},{"astId":25,"contract":"Kickstarter.sol:Campaign","label":"manager","offset":0,"slot":"2","type":"t_address"},{"astId":27,"contract":"Kickstarter.sol:Campaign","label":"minimumContribution","offset":0,"slot":"3","type":"t_uint256"},{"astId":31,"contract":"Kickstarter.sol:Campaign","label":"approvers","offset":0,"slot":"4","type":"t_mapping(t_address,t_bool)"},{"astId":33,"contract":"Kickstarter.sol:Campaign","label":"peopleJoinedForContribution","offset":0,"slot":"5","type":"t_uint256"}],"types":{"t_address":{"encoding":"inplace","label":"address","numberOfBytes":"20"},"t_bool":{"encoding":"inplace","label":"bool","numberOfBytes":"1"},"t_mapping(t_address,t_bool)":{"encoding":"mapping","key":"t_address","label":"mapping(address => bool)","numberOfBytes":"32","value":"t_bool"},"t_mapping(t_uint256,t_struct(Request)16_storage)":{"encoding":"mapping","key":"t_uint256","label":"mapping(uint256 => struct Campaign.Request)","numberOfBytes":"32","value":"t_struct(Request)16_storage"},"t_string_storage":{"encoding":"bytes","label":"string","numberOfBytes":"32"},"t_struct(Request)16_storage":{"encoding":"inplace","label":"struct Campaign.Request","members":[{"astId":3,"contract":"Kickstarter.sol:Campaign","label":"description","offset":0,"slot":"0","type":"t_string_storage"},{"astId":5,"contract":"Kickstarter.sol:Campaign","label":"value","offset":0,"slot":"1","type":"t_uint256"},{"astId":7,"contract":"Kickstarter.sol:Campaign","label":"recipient","offset":0,"slot":"2","type":"t_address"},{"astId":9,"contract":"Kickstarter.sol:Campaign","label":"complete","offset":20,"slot":"2","type":"t_bool"},{"astId":11,"contract":"Kickstarter.sol:Campaign","label":"approvalCount","offset":0,"slot":"3","type":"t_uint256"},{"astId":15,"contract":"Kickstarter.sol:Campaign","label":"approvals","offset":0,"slot":"4","type":"t_mapping(t_address,t_bool)"}],"numberOfBytes":"160"},"t_uint256":{"encoding":"inplace","label":"uint256","numberOfBytes":"32"}}},"userdoc":{"kind":"user","methods":{},"version":1}}