{"abi":[{"inputs":[{"internalType":"uint256","name":"_minimumContribution","type":"uint256"}],"name":"createCampaign","outputs":[],"stateMutability":"nonpayable","type":"function"},{"inputs":[{"internalType":"uint256","name":"","type":"uint256"}],"name":"deployedCampaign","outputs":[{"internalType":"address","name":"","type":"address"}],"stateMutability":"view","type":"function"},{"inputs":[],"name":"getDeployedCampaigns","outputs":[{"internalType":"address[]","name":"","type":"address[]"}],"stateMutability":"view","type":"function"}],"devdoc":{"kind":"dev","methods":{},"version":1},"evm":{"assembly":"    /* \"KickstarterFactory.sol\":107:497  contract CampaignFactory {... */\n  mstore(0x40, 0x80)\n  callvalue\n  dup1\n  iszero\n  tag_1\n  jumpi\n  0x00\n  dup1\n  revert\ntag_1:\n  pop\n  dataSize(sub_0)\n  dup1\n  dataOffset(sub_0)\n  0x00\n  codecopy\n  0x00\n  return\nstop\n\nsub_0: assembly {\n        /* \"KickstarterFactory.sol\":107:497  contract CampaignFactory {... */\n      mstore(0x40, 0x80)\n      callvalue\n      dup1\n      iszero\n      tag_1\n      jumpi\n      0x00\n      dup1\n      revert\n    tag_1:\n      pop\n      jumpi(tag_2, lt(calldatasize, 0x04))\n      shr(0xe0, calldataload(0x00))\n      dup1\n      0x4acb9d4f\n      eq\n      tag_3\n      jumpi\n      dup1\n      0xa3303a75\n      eq\n      tag_4\n      jumpi\n      dup1\n      0xb7ccb9ab\n      eq\n      tag_5\n      jumpi\n    tag_2:\n      0x00\n      dup1\n      revert\n        /* \"KickstarterFactory.sol\":384:495  function getDeployedCampaigns() public view returns (address[] memory) {... */\n    tag_3:\n      tag_6\n      tag_7\n      jump\t// in\n    tag_6:\n      mload(0x40)\n      tag_8\n      swap2\n      swap1\n      tag_9\n      jump\t// in\n    tag_8:\n      mload(0x40)\n      dup1\n      swap2\n      sub\n      swap1\n      return\n        /* \"KickstarterFactory.sol\":178:378  function createCampaign(uint256 _minimumContribution) public {... */\n    tag_4:\n      tag_10\n      0x04\n      dup1\n      calldatasize\n      sub\n      dup2\n      add\n      swap1\n      tag_11\n      swap2\n      swap1\n      tag_12\n      jump\t// in\n    tag_11:\n      tag_13\n      jump\t// in\n    tag_10:\n      stop\n        /* \"KickstarterFactory.sol\":138:171  address[] public deployedCampaign */\n    tag_5:\n      tag_14\n      0x04\n      dup1\n      calldatasize\n      sub\n      dup2\n      add\n      swap1\n      tag_15\n      swap2\n      swap1\n      tag_12\n      jump\t// in\n    tag_15:\n      tag_16\n      jump\t// in\n    tag_14:\n      mload(0x40)\n      tag_17\n      swap2\n      swap1\n      tag_18\n      jump\t// in\n    tag_17:\n      mload(0x40)\n      dup1\n      swap2\n      sub\n      swap1\n      return\n        /* \"KickstarterFactory.sol\":384:495  function getDeployedCampaigns() public view returns (address[] memory) {... */\n    tag_7:\n        /* \"KickstarterFactory.sol\":437:453  address[] memory */\n      0x60\n        /* \"KickstarterFactory.sol\":472:488  deployedCampaign */\n      0x00\n        /* \"KickstarterFactory.sol\":465:488  return deployedCampaign */\n      dup1\n      sload\n      dup1\n      0x20\n      mul\n      0x20\n      add\n      mload(0x40)\n      swap1\n      dup2\n      add\n      0x40\n      mstore\n      dup1\n      swap3\n      swap2\n      swap1\n      dup2\n      dup2\n      mstore\n      0x20\n      add\n      dup3\n      dup1\n      sload\n      dup1\n      iszero\n      tag_20\n      jumpi\n      0x20\n      mul\n      dup3\n      add\n      swap2\n      swap1\n      0x00\n      mstore\n      keccak256(0x00, 0x20)\n      swap1\n    tag_21:\n      dup2\n      0x00\n      swap1\n      sload\n      swap1\n      0x0100\n      exp\n      swap1\n      div\n      0xffffffffffffffffffffffffffffffffffffffff\n      and\n      0xffffffffffffffffffffffffffffffffffffffff\n      and\n      dup2\n      mstore\n      0x20\n      add\n      swap1\n      0x01\n      add\n      swap1\n      dup1\n      dup4\n      gt\n      tag_21\n      jumpi\n    tag_20:\n      pop\n      pop\n      pop\n      pop\n      pop\n      swap1\n      pop\n        /* \"KickstarterFactory.sol\":384:495  function getDeployedCampaigns() public view returns (address[] memory) {... */\n      swap1\n      jump\t// out\n        /* \"KickstarterFactory.sol\":178:378  function createCampaign(uint256 _minimumContribution) public {... */\n    tag_13:\n        /* \"KickstarterFactory.sol\":249:269  Campaign newCampaign */\n      0x00\n        /* \"KickstarterFactory.sol\":285:305  _minimumContribution */\n      dup2\n        /* \"KickstarterFactory.sol\":307:317  msg.sender */\n      caller\n        /* \"KickstarterFactory.sol\":272:318  new Campaign(_minimumContribution, msg.sender) */\n      mload(0x40)\n      tag_23\n      swap1\n      tag_24\n      jump\t// in\n    tag_23:\n      tag_25\n      swap3\n      swap2\n      swap1\n      tag_26\n      jump\t// in\n    tag_25:\n      mload(0x40)\n      dup1\n      swap2\n      sub\n      swap1\n      0x00\n      create\n      dup1\n      iszero\n      dup1\n      iszero\n      tag_27\n      jumpi\n      returndatasize\n      0x00\n      dup1\n      returndatacopy\n      revert(0x00, returndatasize)\n    tag_27:\n      pop\n        /* \"KickstarterFactory.sol\":249:318  Campaign newCampaign = new Campaign(_minimumContribution, msg.sender) */\n      swap1\n      pop\n        /* \"KickstarterFactory.sol\":328:344  deployedCampaign */\n      0x00\n        /* \"KickstarterFactory.sol\":358:369  newCampaign */\n      dup2\n        /* \"KickstarterFactory.sol\":328:371  deployedCampaign.push(address(newCampaign)) */\n      swap1\n      dup1\n      0x01\n      dup2\n      sload\n      add\n      dup1\n      dup3\n      sstore\n      dup1\n      swap2\n      pop\n      pop\n      0x01\n      swap1\n      sub\n      swap1\n      0x00\n      mstore\n      keccak256(0x00, 0x20)\n      add\n      0x00\n      swap1\n      swap2\n      swap1\n      swap2\n      swap1\n      swap2\n      0x0100\n      exp\n      dup2\n      sload\n      dup2\n      0xffffffffffffffffffffffffffffffffffffffff\n      mul\n      not\n      and\n      swap1\n      dup4\n      0xffffffffffffffffffffffffffffffffffffffff\n      and\n      mul\n      or\n      swap1\n      sstore\n      pop\n        /* \"KickstarterFactory.sol\":239:378  {... */\n      pop\n        /* \"KickstarterFactory.sol\":178:378  function createCampaign(uint256 _minimumContribution) public {... */\n      pop\n      jump\t// out\n        /* \"KickstarterFactory.sol\":138:171  address[] public deployedCampaign */\n    tag_16:\n      0x00\n      dup2\n      dup2\n      sload\n      dup2\n      lt\n      tag_29\n      jumpi\n      0x00\n      dup1\n      revert\n    tag_29:\n      swap1\n      0x00\n      mstore\n      keccak256(0x00, 0x20)\n      add\n      0x00\n      swap2\n      pop\n      sload\n      swap1\n      0x0100\n      exp\n      swap1\n      div\n      0xffffffffffffffffffffffffffffffffffffffff\n      and\n      dup2\n      jump\t// out\n    tag_24:\n      dataSize(sub_0)\n      dup1\n      dataOffset(sub_0)\n      dup4\n      codecopy\n      add\n      swap1\n      jump\t// out\n        /* \"#utility.yul\":7:121   */\n    tag_31:\n        /* \"#utility.yul\":74:80   */\n      0x00\n        /* \"#utility.yul\":108:113   */\n      dup2\n        /* \"#utility.yul\":102:114   */\n      mload\n        /* \"#utility.yul\":92:114   */\n      swap1\n      pop\n        /* \"#utility.yul\":7:121   */\n      swap2\n      swap1\n      pop\n      jump\t// out\n        /* \"#utility.yul\":127:311   */\n    tag_32:\n        /* \"#utility.yul\":226:237   */\n      0x00\n        /* \"#utility.yul\":260:266   */\n      dup3\n        /* \"#utility.yul\":255:258   */\n      dup3\n        /* \"#utility.yul\":248:267   */\n      mstore\n        /* \"#utility.yul\":300:304   */\n      0x20\n        /* \"#utility.yul\":295:298   */\n      dup3\n        /* \"#utility.yul\":291:305   */\n      add\n        /* \"#utility.yul\":276:305   */\n      swap1\n      pop\n        /* \"#utility.yul\":127:311   */\n      swap3\n      swap2\n      pop\n      pop\n      jump\t// out\n        /* \"#utility.yul\":317:449   */\n    tag_33:\n        /* \"#utility.yul\":384:388   */\n      0x00\n        /* \"#utility.yul\":407:410   */\n      dup2\n        /* \"#utility.yul\":399:410   */\n      swap1\n      pop\n        /* \"#utility.yul\":437:441   */\n      0x20\n        /* \"#utility.yul\":432:435   */\n      dup3\n        /* \"#utility.yul\":428:442   */\n      add\n        /* \"#utility.yul\":420:442   */\n      swap1\n      pop\n        /* \"#utility.yul\":317:449   */\n      swap2\n      swap1\n      pop\n      jump\t// out\n        /* \"#utility.yul\":455:581   */\n    tag_34:\n        /* \"#utility.yul\":492:499   */\n      0x00\n        /* \"#utility.yul\":532:574   */\n      0xffffffffffffffffffffffffffffffffffffffff\n        /* \"#utility.yul\":525:530   */\n      dup3\n        /* \"#utility.yul\":521:575   */\n      and\n        /* \"#utility.yul\":510:575   */\n      swap1\n      pop\n        /* \"#utility.yul\":455:581   */\n      swap2\n      swap1\n      pop\n      jump\t// out\n        /* \"#utility.yul\":587:683   */\n    tag_35:\n        /* \"#utility.yul\":624:631   */\n      0x00\n        /* \"#utility.yul\":653:677   */\n      tag_54\n        /* \"#utility.yul\":671:676   */\n      dup3\n        /* \"#utility.yul\":653:677   */\n      tag_34\n      jump\t// in\n    tag_54:\n        /* \"#utility.yul\":642:677   */\n      swap1\n      pop\n        /* \"#utility.yul\":587:683   */\n      swap2\n      swap1\n      pop\n      jump\t// out\n        /* \"#utility.yul\":689:797   */\n    tag_36:\n        /* \"#utility.yul\":766:790   */\n      tag_56\n        /* \"#utility.yul\":784:789   */\n      dup2\n        /* \"#utility.yul\":766:790   */\n      tag_35\n      jump\t// in\n    tag_56:\n        /* \"#utility.yul\":761:764   */\n      dup3\n        /* \"#utility.yul\":754:791   */\n      mstore\n        /* \"#utility.yul\":689:797   */\n      pop\n      pop\n      jump\t// out\n        /* \"#utility.yul\":803:982   */\n    tag_37:\n        /* \"#utility.yul\":872:882   */\n      0x00\n        /* \"#utility.yul\":893:939   */\n      tag_58\n        /* \"#utility.yul\":935:938   */\n      dup4\n        /* \"#utility.yul\":927:933   */\n      dup4\n        /* \"#utility.yul\":893:939   */\n      tag_36\n      jump\t// in\n    tag_58:\n        /* \"#utility.yul\":971:975   */\n      0x20\n        /* \"#utility.yul\":966:969   */\n      dup4\n        /* \"#utility.yul\":962:976   */\n      add\n        /* \"#utility.yul\":948:976   */\n      swap1\n      pop\n        /* \"#utility.yul\":803:982   */\n      swap3\n      swap2\n      pop\n      pop\n      jump\t// out\n        /* \"#utility.yul\":988:1101   */\n    tag_38:\n        /* \"#utility.yul\":1058:1062   */\n      0x00\n        /* \"#utility.yul\":1090:1094   */\n      0x20\n        /* \"#utility.yul\":1085:1088   */\n      dup3\n        /* \"#utility.yul\":1081:1095   */\n      add\n        /* \"#utility.yul\":1073:1095   */\n      swap1\n      pop\n        /* \"#utility.yul\":988:1101   */\n      swap2\n      swap1\n      pop\n      jump\t// out\n        /* \"#utility.yul\":1137:1869   */\n    tag_39:\n        /* \"#utility.yul\":1256:1259   */\n      0x00\n        /* \"#utility.yul\":1285:1339   */\n      tag_61\n        /* \"#utility.yul\":1333:1338   */\n      dup3\n        /* \"#utility.yul\":1285:1339   */\n      tag_31\n      jump\t// in\n    tag_61:\n        /* \"#utility.yul\":1355:1441   */\n      tag_62\n        /* \"#utility.yul\":1434:1440   */\n      dup2\n        /* \"#utility.yul\":1429:1432   */\n      dup6\n        /* \"#utility.yul\":1355:1441   */\n      tag_32\n      jump\t// in\n    tag_62:\n        /* \"#utility.yul\":1348:1441   */\n      swap4\n      pop\n        /* \"#utility.yul\":1465:1521   */\n      tag_63\n        /* \"#utility.yul\":1515:1520   */\n      dup4\n        /* \"#utility.yul\":1465:1521   */\n      tag_33\n      jump\t// in\n    tag_63:\n        /* \"#utility.yul\":1544:1551   */\n      dup1\n        /* \"#utility.yul\":1575:1576   */\n      0x00\n        /* \"#utility.yul\":1560:1844   */\n    tag_64:\n        /* \"#utility.yul\":1585:1591   */\n      dup4\n        /* \"#utility.yul\":1582:1583   */\n      dup2\n        /* \"#utility.yul\":1579:1592   */\n      lt\n        /* \"#utility.yul\":1560:1844   */\n      iszero\n      tag_66\n      jumpi\n        /* \"#utility.yul\":1661:1667   */\n      dup2\n        /* \"#utility.yul\":1655:1668   */\n      mload\n        /* \"#utility.yul\":1688:1751   */\n      tag_67\n        /* \"#utility.yul\":1747:1750   */\n      dup9\n        /* \"#utility.yul\":1732:1745   */\n      dup3\n        /* \"#utility.yul\":1688:1751   */\n      tag_37\n      jump\t// in\n    tag_67:\n        /* \"#utility.yul\":1681:1751   */\n      swap8\n      pop\n        /* \"#utility.yul\":1774:1834   */\n      tag_68\n        /* \"#utility.yul\":1827:1833   */\n      dup4\n        /* \"#utility.yul\":1774:1834   */\n      tag_38\n      jump\t// in\n    tag_68:\n        /* \"#utility.yul\":1764:1834   */\n      swap3\n      pop\n        /* \"#utility.yul\":1620:1844   */\n      pop\n        /* \"#utility.yul\":1607:1608   */\n      0x01\n        /* \"#utility.yul\":1604:1605   */\n      dup2\n        /* \"#utility.yul\":1600:1609   */\n      add\n        /* \"#utility.yul\":1595:1609   */\n      swap1\n      pop\n        /* \"#utility.yul\":1560:1844   */\n      jump(tag_64)\n    tag_66:\n        /* \"#utility.yul\":1564:1578   */\n      pop\n        /* \"#utility.yul\":1860:1863   */\n      dup6\n        /* \"#utility.yul\":1853:1863   */\n      swap4\n      pop\n        /* \"#utility.yul\":1261:1869   */\n      pop\n      pop\n      pop\n        /* \"#utility.yul\":1137:1869   */\n      swap3\n      swap2\n      pop\n      pop\n      jump\t// out\n        /* \"#utility.yul\":1875:2248   */\n    tag_9:\n        /* \"#utility.yul\":2018:2022   */\n      0x00\n        /* \"#utility.yul\":2056:2058   */\n      0x20\n        /* \"#utility.yul\":2045:2054   */\n      dup3\n        /* \"#utility.yul\":2041:2059   */\n      add\n        /* \"#utility.yul\":2033:2059   */\n      swap1\n      pop\n        /* \"#utility.yul\":2105:2114   */\n      dup2\n        /* \"#utility.yul\":2099:2103   */\n      dup2\n        /* \"#utility.yul\":2095:2115   */\n      sub\n        /* \"#utility.yul\":2091:2092   */\n      0x00\n        /* \"#utility.yul\":2080:2089   */\n      dup4\n        /* \"#utility.yul\":2076:2093   */\n      add\n        /* \"#utility.yul\":2069:2116   */\n      mstore\n        /* \"#utility.yul\":2133:2241   */\n      tag_70\n        /* \"#utility.yul\":2236:2240   */\n      dup2\n        /* \"#utility.yul\":2227:2233   */\n      dup5\n        /* \"#utility.yul\":2133:2241   */\n      tag_39\n      jump\t// in\n    tag_70:\n        /* \"#utility.yul\":2125:2241   */\n      swap1\n      pop\n        /* \"#utility.yul\":1875:2248   */\n      swap3\n      swap2\n      pop\n      pop\n      jump\t// out\n        /* \"#utility.yul\":2335:2452   */\n    tag_41:\n        /* \"#utility.yul\":2444:2445   */\n      0x00\n        /* \"#utility.yul\":2441:2442   */\n      dup1\n        /* \"#utility.yul\":2434:2446   */\n      revert\n        /* \"#utility.yul\":2581:2658   */\n    tag_43:\n        /* \"#utility.yul\":2618:2625   */\n      0x00\n        /* \"#utility.yul\":2647:2652   */\n      dup2\n        /* \"#utility.yul\":2636:2652   */\n      swap1\n      pop\n        /* \"#utility.yul\":2581:2658   */\n      swap2\n      swap1\n      pop\n      jump\t// out\n        /* \"#utility.yul\":2664:2786   */\n    tag_44:\n        /* \"#utility.yul\":2737:2761   */\n      tag_76\n        /* \"#utility.yul\":2755:2760   */\n      dup2\n        /* \"#utility.yul\":2737:2761   */\n      tag_43\n      jump\t// in\n    tag_76:\n        /* \"#utility.yul\":2730:2735   */\n      dup2\n        /* \"#utility.yul\":2727:2762   */\n      eq\n        /* \"#utility.yul\":2717:2780   */\n      tag_77\n      jumpi\n        /* \"#utility.yul\":2776:2777   */\n      0x00\n        /* \"#utility.yul\":2773:2774   */\n      dup1\n        /* \"#utility.yul\":2766:2778   */\n      revert\n        /* \"#utility.yul\":2717:2780   */\n    tag_77:\n        /* \"#utility.yul\":2664:2786   */\n      pop\n      jump\t// out\n        /* \"#utility.yul\":2792:2931   */\n    tag_45:\n        /* \"#utility.yul\":2838:2843   */\n      0x00\n        /* \"#utility.yul\":2876:2882   */\n      dup2\n        /* \"#utility.yul\":2863:2883   */\n      calldataload\n        /* \"#utility.yul\":2854:2883   */\n      swap1\n      pop\n        /* \"#utility.yul\":2892:2925   */\n      tag_79\n        /* \"#utility.yul\":2919:2924   */\n      dup2\n        /* \"#utility.yul\":2892:2925   */\n      tag_44\n      jump\t// in\n    tag_79:\n        /* \"#utility.yul\":2792:2931   */\n      swap3\n      swap2\n      pop\n      pop\n      jump\t// out\n        /* \"#utility.yul\":2937:3266   */\n    tag_12:\n        /* \"#utility.yul\":2996:3002   */\n      0x00\n        /* \"#utility.yul\":3045:3047   */\n      0x20\n        /* \"#utility.yul\":3033:3042   */\n      dup3\n        /* \"#utility.yul\":3024:3031   */\n      dup5\n        /* \"#utility.yul\":3020:3043   */\n      sub\n        /* \"#utility.yul\":3016:3048   */\n      slt\n        /* \"#utility.yul\":3013:3132   */\n      iszero\n      tag_81\n      jumpi\n        /* \"#utility.yul\":3051:3130   */\n      tag_82\n      tag_41\n      jump\t// in\n    tag_82:\n        /* \"#utility.yul\":3013:3132   */\n    tag_81:\n        /* \"#utility.yul\":3171:3172   */\n      0x00\n        /* \"#utility.yul\":3196:3249   */\n      tag_83\n        /* \"#utility.yul\":3241:3248   */\n      dup5\n        /* \"#utility.yul\":3232:3238   */\n      dup3\n        /* \"#utility.yul\":3221:3230   */\n      dup6\n        /* \"#utility.yul\":3217:3239   */\n      add\n        /* \"#utility.yul\":3196:3249   */\n      tag_45\n      jump\t// in\n    tag_83:\n        /* \"#utility.yul\":3186:3249   */\n      swap2\n      pop\n        /* \"#utility.yul\":3142:3259   */\n      pop\n        /* \"#utility.yul\":2937:3266   */\n      swap3\n      swap2\n      pop\n      pop\n      jump\t// out\n        /* \"#utility.yul\":3272:3390   */\n    tag_46:\n        /* \"#utility.yul\":3359:3383   */\n      tag_85\n        /* \"#utility.yul\":3377:3382   */\n      dup2\n        /* \"#utility.yul\":3359:3383   */\n      tag_35\n      jump\t// in\n    tag_85:\n        /* \"#utility.yul\":3354:3357   */\n      dup3\n        /* \"#utility.yul\":3347:3384   */\n      mstore\n        /* \"#utility.yul\":3272:3390   */\n      pop\n      pop\n      jump\t// out\n        /* \"#utility.yul\":3396:3618   */\n    tag_18:\n        /* \"#utility.yul\":3489:3493   */\n      0x00\n        /* \"#utility.yul\":3527:3529   */\n      0x20\n        /* \"#utility.yul\":3516:3525   */\n      dup3\n        /* \"#utility.yul\":3512:3530   */\n      add\n        /* \"#utility.yul\":3504:3530   */\n      swap1\n      pop\n        /* \"#utility.yul\":3540:3611   */\n      tag_87\n        /* \"#utility.yul\":3608:3609   */\n      0x00\n        /* \"#utility.yul\":3597:3606   */\n      dup4\n        /* \"#utility.yul\":3593:3610   */\n      add\n        /* \"#utility.yul\":3584:3590   */\n      dup5\n        /* \"#utility.yul\":3540:3611   */\n      tag_46\n      jump\t// in\n    tag_87:\n        /* \"#utility.yul\":3396:3618   */\n      swap3\n      swap2\n      pop\n      pop\n      jump\t// out\n        /* \"#utility.yul\":3624:3742   */\n    tag_47:\n        /* \"#utility.yul\":3711:3735   */\n      tag_89\n        /* \"#utility.yul\":3729:3734   */\n      dup2\n        /* \"#utility.yul\":3711:3735   */\n      tag_43\n      jump\t// in\n    tag_89:\n        /* \"#utility.yul\":3706:3709   */\n      dup3\n        /* \"#utility.yul\":3699:3736   */\n      mstore\n        /* \"#utility.yul\":3624:3742   */\n      pop\n      pop\n      jump\t// out\n        /* \"#utility.yul\":3748:4080   */\n    tag_26:\n        /* \"#utility.yul\":3869:3873   */\n      0x00\n        /* \"#utility.yul\":3907:3909   */\n      0x40\n        /* \"#utility.yul\":3896:3905   */\n      dup3\n        /* \"#utility.yul\":3892:3910   */\n      add\n        /* \"#utility.yul\":3884:3910   */\n      swap1\n      pop\n        /* \"#utility.yul\":3920:3991   */\n      tag_91\n        /* \"#utility.yul\":3988:3989   */\n      0x00\n        /* \"#utility.yul\":3977:3986   */\n      dup4\n        /* \"#utility.yul\":3973:3990   */\n      add\n        /* \"#utility.yul\":3964:3970   */\n      dup6\n        /* \"#utility.yul\":3920:3991   */\n      tag_47\n      jump\t// in\n    tag_91:\n        /* \"#utility.yul\":4001:4073   */\n      tag_92\n        /* \"#utility.yul\":4069:4071   */\n      0x20\n        /* \"#utility.yul\":4058:4067   */\n      dup4\n        /* \"#utility.yul\":4054:4072   */\n      add\n        /* \"#utility.yul\":4045:4051   */\n      dup5\n        /* \"#utility.yul\":4001:4073   */\n      tag_46\n      jump\t// in\n    tag_92:\n        /* \"#utility.yul\":3748:4080   */\n      swap4\n      swap3\n      pop\n      pop\n      pop\n      jump\t// out\n    stop\n\n    sub_0: assembly {\n            /* \"Kickstarter.sol\":62:2482  contract Campaign {... */\n          mstore(0x40, 0x80)\n            /* \"Kickstarter.sol\":535:682  constructor(uint256 _minimumContribution, address _creator) {... */\n          callvalue\n          dup1\n          iszero\n          tag_1\n          jumpi\n          0x00\n          dup1\n          revert\n        tag_1:\n          pop\n          mload(0x40)\n          sub(codesize, bytecodeSize)\n          dup1\n          bytecodeSize\n          dup4\n          codecopy\n          dup2\n          dup2\n          add\n          0x40\n          mstore\n          dup2\n          add\n          swap1\n          tag_2\n          swap2\n          swap1\n          tag_3\n          jump\t// in\n        tag_2:\n            /* \"Kickstarter.sol\":615:623  _creator */\n          dup1\n            /* \"Kickstarter.sol\":605:612  manager */\n          0x02\n          0x00\n            /* \"Kickstarter.sol\":605:623  manager = _creator */\n          0x0100\n          exp\n          dup2\n          sload\n          dup2\n          0xffffffffffffffffffffffffffffffffffffffff\n          mul\n          not\n          and\n          swap1\n          dup4\n          0xffffffffffffffffffffffffffffffffffffffff\n          and\n          mul\n          or\n          swap1\n          sstore\n          pop\n            /* \"Kickstarter.sol\":655:675  _minimumContribution */\n          dup2\n            /* \"Kickstarter.sol\":633:652  minimumContribution */\n          0x03\n            /* \"Kickstarter.sol\":633:675  minimumContribution = _minimumContribution */\n          dup2\n          swap1\n          sstore\n          pop\n            /* \"Kickstarter.sol\":535:682  constructor(uint256 _minimumContribution, address _creator) {... */\n          pop\n          pop\n            /* \"Kickstarter.sol\":62:2482  contract Campaign {... */\n          jump(tag_6)\n            /* \"#utility.yul\":88:205   */\n        tag_8:\n            /* \"#utility.yul\":197:198   */\n          0x00\n            /* \"#utility.yul\":194:195   */\n          dup1\n            /* \"#utility.yul\":187:199   */\n          revert\n            /* \"#utility.yul\":334:411   */\n        tag_10:\n            /* \"#utility.yul\":371:378   */\n          0x00\n            /* \"#utility.yul\":400:405   */\n          dup2\n            /* \"#utility.yul\":389:405   */\n          swap1\n          pop\n            /* \"#utility.yul\":334:411   */\n          swap2\n          swap1\n          pop\n          jump\t// out\n            /* \"#utility.yul\":417:539   */\n        tag_11:\n            /* \"#utility.yul\":490:514   */\n          tag_23\n            /* \"#utility.yul\":508:513   */\n          dup2\n            /* \"#utility.yul\":490:514   */\n          tag_10\n          jump\t// in\n        tag_23:\n            /* \"#utility.yul\":483:488   */\n          dup2\n            /* \"#utility.yul\":480:515   */\n          eq\n            /* \"#utility.yul\":470:533   */\n          tag_24\n          jumpi\n            /* \"#utility.yul\":529:530   */\n          0x00\n            /* \"#utility.yul\":526:527   */\n          dup1\n            /* \"#utility.yul\":519:531   */\n          revert\n            /* \"#utility.yul\":470:533   */\n        tag_24:\n            /* \"#utility.yul\":417:539   */\n          pop\n          jump\t// out\n            /* \"#utility.yul\":545:688   */\n        tag_12:\n            /* \"#utility.yul\":602:607   */\n          0x00\n            /* \"#utility.yul\":633:639   */\n          dup2\n            /* \"#utility.yul\":627:640   */\n          mload\n            /* \"#utility.yul\":618:640   */\n          swap1\n          pop\n            /* \"#utility.yul\":649:682   */\n          tag_26\n            /* \"#utility.yul\":676:681   */\n          dup2\n            /* \"#utility.yul\":649:682   */\n          tag_11\n          jump\t// in\n        tag_26:\n            /* \"#utility.yul\":545:688   */\n          swap3\n          swap2\n          pop\n          pop\n          jump\t// out\n            /* \"#utility.yul\":694:820   */\n        tag_13:\n            /* \"#utility.yul\":731:738   */\n          0x00\n            /* \"#utility.yul\":771:813   */\n          0xffffffffffffffffffffffffffffffffffffffff\n            /* \"#utility.yul\":764:769   */\n          dup3\n            /* \"#utility.yul\":760:814   */\n          and\n            /* \"#utility.yul\":749:814   */\n          swap1\n          pop\n            /* \"#utility.yul\":694:820   */\n          swap2\n          swap1\n          pop\n          jump\t// out\n            /* \"#utility.yul\":826:922   */\n        tag_14:\n            /* \"#utility.yul\":863:870   */\n          0x00\n            /* \"#utility.yul\":892:916   */\n          tag_29\n            /* \"#utility.yul\":910:915   */\n          dup3\n            /* \"#utility.yul\":892:916   */\n          tag_13\n          jump\t// in\n        tag_29:\n            /* \"#utility.yul\":881:916   */\n          swap1\n          pop\n            /* \"#utility.yul\":826:922   */\n          swap2\n          swap1\n          pop\n          jump\t// out\n            /* \"#utility.yul\":928:1050   */\n        tag_15:\n            /* \"#utility.yul\":1001:1025   */\n          tag_31\n            /* \"#utility.yul\":1019:1024   */\n          dup2\n            /* \"#utility.yul\":1001:1025   */\n          tag_14\n          jump\t// in\n        tag_31:\n            /* \"#utility.yul\":994:999   */\n          dup2\n            /* \"#utility.yul\":991:1026   */\n          eq\n            /* \"#utility.yul\":981:1044   */\n          tag_32\n          jumpi\n            /* \"#utility.yul\":1040:1041   */\n          0x00\n            /* \"#utility.yul\":1037:1038   */\n          dup1\n            /* \"#utility.yul\":1030:1042   */\n          revert\n            /* \"#utility.yul\":981:1044   */\n        tag_32:\n            /* \"#utility.yul\":928:1050   */\n          pop\n          jump\t// out\n            /* \"#utility.yul\":1056:1199   */\n        tag_16:\n            /* \"#utility.yul\":1113:1118   */\n          0x00\n            /* \"#utility.yul\":1144:1150   */\n          dup2\n            /* \"#utility.yul\":1138:1151   */\n          mload\n            /* \"#utility.yul\":1129:1151   */\n          swap1\n          pop\n            /* \"#utility.yul\":1160:1193   */\n          tag_34\n            /* \"#utility.yul\":1187:1192   */\n          dup2\n            /* \"#utility.yul\":1160:1193   */\n          tag_15\n          jump\t// in\n        tag_34:\n            /* \"#utility.yul\":1056:1199   */\n          swap3\n          swap2\n          pop\n          pop\n          jump\t// out\n            /* \"#utility.yul\":1205:1712   */\n        tag_3:\n            /* \"#utility.yul\":1284:1290   */\n          0x00\n            /* \"#utility.yul\":1292:1298   */\n          dup1\n            /* \"#utility.yul\":1341:1343   */\n          0x40\n            /* \"#utility.yul\":1329:1338   */\n          dup4\n            /* \"#utility.yul\":1320:1327   */\n          dup6\n            /* \"#utility.yul\":1316:1339   */\n          sub\n            /* \"#utility.yul\":1312:1344   */\n          slt\n            /* \"#utility.yul\":1309:1428   */\n          iszero\n          tag_36\n          jumpi\n            /* \"#utility.yul\":1347:1426   */\n          tag_37\n          tag_8\n          jump\t// in\n        tag_37:\n            /* \"#utility.yul\":1309:1428   */\n        tag_36:\n            /* \"#utility.yul\":1467:1468   */\n          0x00\n            /* \"#utility.yul\":1492:1556   */\n          tag_38\n            /* \"#utility.yul\":1548:1555   */\n          dup6\n            /* \"#utility.yul\":1539:1545   */\n          dup3\n            /* \"#utility.yul\":1528:1537   */\n          dup7\n            /* \"#utility.yul\":1524:1546   */\n          add\n            /* \"#utility.yul\":1492:1556   */\n          tag_12\n          jump\t// in\n        tag_38:\n            /* \"#utility.yul\":1482:1556   */\n          swap3\n          pop\n            /* \"#utility.yul\":1438:1566   */\n          pop\n            /* \"#utility.yul\":1605:1607   */\n          0x20\n            /* \"#utility.yul\":1631:1695   */\n          tag_39\n            /* \"#utility.yul\":1687:1694   */\n          dup6\n            /* \"#utility.yul\":1678:1684   */\n          dup3\n            /* \"#utility.yul\":1667:1676   */\n          dup7\n            /* \"#utility.yul\":1663:1685   */\n          add\n            /* \"#utility.yul\":1631:1695   */\n          tag_16\n          jump\t// in\n        tag_39:\n            /* \"#utility.yul\":1621:1695   */\n          swap2\n          pop\n            /* \"#utility.yul\":1576:1705   */\n          pop\n            /* \"#utility.yul\":1205:1712   */\n          swap3\n          pop\n          swap3\n          swap1\n          pop\n          jump\t// out\n            /* \"Kickstarter.sol\":62:2482  contract Campaign {... */\n        tag_6:\n          dataSize(sub_0)\n          dup1\n          dataOffset(sub_0)\n          0x00\n          codecopy\n          0x00\n          return\n        stop\n\n        sub_0: assembly {\n                /* \"Kickstarter.sol\":62:2482  contract Campaign {... */\n              mstore(0x40, 0x80)\n              jumpi(tag_1, lt(calldatasize, 0x04))\n              shr(0xe0, calldataload(0x00))\n              dup1\n              0x8a9cfd55\n              gt\n              tag_13\n              jumpi\n              dup1\n              0x8a9cfd55\n              eq\n              tag_7\n              jumpi\n              dup1\n              0x937e09b1\n              eq\n              tag_8\n              jumpi\n              dup1\n              0xb7e622cb\n              eq\n              tag_9\n              jumpi\n              dup1\n              0xd7bb99ba\n              eq\n              tag_10\n              jumpi\n              dup1\n              0xd7d1bbdb\n              eq\n              tag_11\n              jumpi\n              dup1\n              0xf0fa0eb9\n              eq\n              tag_12\n              jumpi\n              jump(tag_1)\n            tag_13:\n              dup1\n              0x03441006\n              eq\n              tag_2\n              jumpi\n              dup1\n              0x0a144391\n              eq\n              tag_3\n              jumpi\n              dup1\n              0x12b58349\n              eq\n              tag_4\n              jumpi\n              dup1\n              0x481c6a75\n              eq\n              tag_5\n              jumpi\n              dup1\n              0x81d12c58\n              eq\n              tag_6\n              jumpi\n            tag_1:\n              0x00\n              dup1\n              revert\n                /* \"Kickstarter.sol\":2063:2480  function finalizeRequest(uint256 _index) public payable restricted {... */\n            tag_2:\n              tag_14\n              0x04\n              dup1\n              calldatasize\n              sub\n              dup2\n              add\n              swap1\n              tag_15\n              swap2\n              swap1\n              tag_16\n              jump\t// in\n            tag_15:\n              tag_17\n              jump\t// in\n            tag_14:\n              stop\n                /* \"Kickstarter.sol\":439:480  mapping(address => bool) public approvers */\n            tag_3:\n              callvalue\n              dup1\n              iszero\n              tag_18\n              jumpi\n              0x00\n              dup1\n              revert\n            tag_18:\n              pop\n              tag_19\n              0x04\n              dup1\n              calldatasize\n              sub\n              dup2\n              add\n              swap1\n              tag_20\n              swap2\n              swap1\n              tag_21\n              jump\t// in\n            tag_20:\n              tag_22\n              jump\t// in\n            tag_19:\n              mload(0x40)\n              tag_23\n              swap2\n              swap1\n              tag_24\n              jump\t// in\n            tag_23:\n              mload(0x40)\n              dup1\n              swap2\n              sub\n              swap1\n              return\n                /* \"Kickstarter.sol\":1188:1290  function getTotalBalance() public view returns (uint256) {... */\n            tag_4:\n              callvalue\n              dup1\n              iszero\n              tag_25\n              jumpi\n              0x00\n              dup1\n              revert\n            tag_25:\n              pop\n              tag_26\n              tag_27\n              jump\t// in\n            tag_26:\n              mload(0x40)\n              tag_28\n              swap2\n              swap1\n              tag_29\n              jump\t// in\n            tag_28:\n              mload(0x40)\n              dup1\n              swap2\n              sub\n              swap1\n              return\n                /* \"Kickstarter.sol\":371:393  address public manager */\n            tag_5:\n              callvalue\n              dup1\n              iszero\n              tag_30\n              jumpi\n              0x00\n              dup1\n              revert\n            tag_30:\n              pop\n              tag_31\n              tag_32\n              jump\t// in\n            tag_31:\n              mload(0x40)\n              tag_33\n              swap2\n              swap1\n              tag_34\n              jump\t// in\n            tag_33:\n              mload(0x40)\n              dup1\n              swap2\n              sub\n              swap1\n              return\n                /* \"Kickstarter.sol\":322:365  mapping(uint256 => Request) public requests */\n            tag_6:\n              callvalue\n              dup1\n              iszero\n              tag_35\n              jumpi\n              0x00\n              dup1\n              revert\n            tag_35:\n              pop\n              tag_36\n              0x04\n              dup1\n              calldatasize\n              sub\n              dup2\n              add\n              swap1\n              tag_37\n              swap2\n              swap1\n              tag_16\n              jump\t// in\n            tag_37:\n              tag_38\n              jump\t// in\n            tag_36:\n              mload(0x40)\n              tag_39\n              swap6\n              swap5\n              swap4\n              swap3\n              swap2\n              swap1\n              tag_40\n              jump\t// in\n            tag_39:\n              mload(0x40)\n              dup1\n              swap2\n              sub\n              swap1\n              return\n                /* \"Kickstarter.sol\":1296:1646  function createRequest(... */\n            tag_7:\n              callvalue\n              dup1\n              iszero\n              tag_41\n              jumpi\n              0x00\n              dup1\n              revert\n            tag_41:\n              pop\n              tag_42\n              0x04\n              dup1\n              calldatasize\n              sub\n              dup2\n              add\n              swap1\n              tag_43\n              swap2\n              swap1\n              tag_44\n              jump\t// in\n            tag_43:\n              tag_45\n              jump\t// in\n            tag_42:\n              stop\n                /* \"Kickstarter.sol\":399:433  uint256 public minimumContribution */\n            tag_8:\n              callvalue\n              dup1\n              iszero\n              tag_46\n              jumpi\n              0x00\n              dup1\n              revert\n            tag_46:\n              pop\n              tag_47\n              tag_48\n              jump\t// in\n            tag_47:\n              mload(0x40)\n              tag_49\n              swap2\n              swap1\n              tag_29\n              jump\t// in\n            tag_49:\n              mload(0x40)\n              dup1\n              swap2\n              sub\n              swap1\n              return\n                /* \"Kickstarter.sol\":290:316  uint256 public _numRequest */\n            tag_9:\n              callvalue\n              dup1\n              iszero\n              tag_50\n              jumpi\n              0x00\n              dup1\n              revert\n            tag_50:\n              pop\n              tag_51\n              tag_52\n              jump\t// in\n            tag_51:\n              mload(0x40)\n              tag_53\n              swap2\n              swap1\n              tag_29\n              jump\t// in\n            tag_53:\n              mload(0x40)\n              dup1\n              swap2\n              sub\n              swap1\n              return\n                /* \"Kickstarter.sol\":855:1182  function contribute() public payable {... */\n            tag_10:\n              tag_54\n              tag_55\n              jump\t// in\n            tag_54:\n              stop\n                /* \"Kickstarter.sol\":1652:2057  function approveRequest(uint256 _index) public {... */\n            tag_11:\n              callvalue\n              dup1\n              iszero\n              tag_56\n              jumpi\n              0x00\n              dup1\n              revert\n            tag_56:\n              pop\n              tag_57\n              0x04\n              dup1\n              calldatasize\n              sub\n              dup2\n              add\n              swap1\n              tag_58\n              swap2\n              swap1\n              tag_16\n              jump\t// in\n            tag_58:\n              tag_59\n              jump\t// in\n            tag_57:\n              stop\n                /* \"Kickstarter.sol\":486:528  uint256 public peopleJoinedForContribution */\n            tag_12:\n              callvalue\n              dup1\n              iszero\n              tag_60\n              jumpi\n              0x00\n              dup1\n              revert\n            tag_60:\n              pop\n              tag_61\n              tag_62\n              jump\t// in\n            tag_61:\n              mload(0x40)\n              tag_63\n              swap2\n              swap1\n              tag_29\n              jump\t// in\n            tag_63:\n              mload(0x40)\n              dup1\n              swap2\n              sub\n              swap1\n              return\n                /* \"Kickstarter.sol\":2063:2480  function finalizeRequest(uint256 _index) public payable restricted {... */\n            tag_17:\n                /* \"Kickstarter.sol\":755:762  manager */\n              0x02\n              0x00\n              swap1\n              sload\n              swap1\n              0x0100\n              exp\n              swap1\n              div\n              0xffffffffffffffffffffffffffffffffffffffff\n              and\n                /* \"Kickstarter.sol\":741:762  msg.sender == manager */\n              0xffffffffffffffffffffffffffffffffffffffff\n              and\n                /* \"Kickstarter.sol\":741:751  msg.sender */\n              caller\n                /* \"Kickstarter.sol\":741:762  msg.sender == manager */\n              0xffffffffffffffffffffffffffffffffffffffff\n              and\n              eq\n                /* \"Kickstarter.sol\":720:831  require(... */\n              tag_65\n              jumpi\n              mload(0x40)\n              0x08c379a000000000000000000000000000000000000000000000000000000000\n              dup2\n              mstore\n              0x04\n              add\n              tag_66\n              swap1\n              tag_67\n              jump\t// in\n            tag_66:\n              mload(0x40)\n              dup1\n              swap2\n              sub\n              swap1\n              revert\n            tag_65:\n                /* \"Kickstarter.sol\":2140:2157  Request storage r */\n              0x00\n                /* \"Kickstarter.sol\":2160:2168  requests */\n              0x01\n                /* \"Kickstarter.sol\":2160:2176  requests[_index] */\n              0x00\n                /* \"Kickstarter.sol\":2169:2175  _index */\n              dup4\n                /* \"Kickstarter.sol\":2160:2176  requests[_index] */\n              dup2\n              mstore\n              0x20\n              add\n              swap1\n              dup2\n              mstore\n              0x20\n              add\n              0x00\n              keccak256\n                /* \"Kickstarter.sol\":2140:2176  Request storage r = requests[_index] */\n              swap1\n              pop\n                /* \"Kickstarter.sol\":2256:2257  2 */\n              0x02\n                /* \"Kickstarter.sol\":2226:2253  peopleJoinedForContribution */\n              sload(0x05)\n                /* \"Kickstarter.sol\":2226:2257  peopleJoinedForContribution / 2 */\n              tag_69\n              swap2\n              swap1\n              tag_70\n              jump\t// in\n            tag_69:\n                /* \"Kickstarter.sol\":2207:2208  r */\n              dup2\n                /* \"Kickstarter.sol\":2207:2222  r.approvalCount */\n              0x03\n              add\n              sload\n                /* \"Kickstarter.sol\":2207:2258  r.approvalCount > (peopleJoinedForContribution / 2) */\n              gt\n                /* \"Kickstarter.sol\":2186:2329  require(... */\n              tag_71\n              jumpi\n              mload(0x40)\n              0x08c379a000000000000000000000000000000000000000000000000000000000\n              dup2\n              mstore\n              0x04\n              add\n              tag_72\n              swap1\n              tag_73\n              jump\t// in\n            tag_72:\n              mload(0x40)\n              dup1\n              swap2\n              sub\n              swap1\n              revert\n            tag_71:\n                /* \"Kickstarter.sol\":2348:2349  r */\n              dup1\n                /* \"Kickstarter.sol\":2348:2358  r.complete */\n              0x02\n              add\n              0x14\n              swap1\n              sload\n              swap1\n              0x0100\n              exp\n              swap1\n              div\n              0xff\n              and\n                /* \"Kickstarter.sol\":2347:2358  !r.complete */\n              iszero\n                /* \"Kickstarter.sol\":2339:2397  require(!r.complete, \"Request has been approved already.\") */\n              tag_74\n              jumpi\n              mload(0x40)\n              0x08c379a000000000000000000000000000000000000000000000000000000000\n              dup2\n              mstore\n              0x04\n              add\n              tag_75\n              swap1\n              tag_76\n              jump\t// in\n            tag_75:\n              mload(0x40)\n              dup1\n              swap2\n              sub\n              swap1\n              revert\n            tag_74:\n                /* \"Kickstarter.sol\":2416:2417  r */\n              dup1\n                /* \"Kickstarter.sol\":2416:2427  r.recipient */\n              0x02\n              add\n              0x00\n              swap1\n              sload\n              swap1\n              0x0100\n              exp\n              swap1\n              div\n              0xffffffffffffffffffffffffffffffffffffffff\n              and\n                /* \"Kickstarter.sol\":2408:2437  payable(r.recipient).transfer */\n              0xffffffffffffffffffffffffffffffffffffffff\n              and\n                /* \"Kickstarter.sol\":2408:2446  payable(r.recipient).transfer(r.value) */\n              0x08fc\n                /* \"Kickstarter.sol\":2438:2439  r */\n              dup3\n                /* \"Kickstarter.sol\":2438:2445  r.value */\n              0x01\n              add\n              sload\n                /* \"Kickstarter.sol\":2408:2446  payable(r.recipient).transfer(r.value) */\n              swap1\n              dup2\n              iszero\n              mul\n              swap1\n              mload(0x40)\n              0x00\n              mload(0x40)\n              dup1\n              dup4\n              sub\n              dup2\n              dup6\n              dup9\n              dup9\n              call\n              swap4\n              pop\n              pop\n              pop\n              pop\n              iszero\n              dup1\n              iszero\n              tag_78\n              jumpi\n              returndatasize\n              0x00\n              dup1\n              returndatacopy\n              revert(0x00, returndatasize)\n            tag_78:\n              pop\n                /* \"Kickstarter.sol\":2469:2473  true */\n              0x01\n                /* \"Kickstarter.sol\":2456:2457  r */\n              dup2\n                /* \"Kickstarter.sol\":2456:2466  r.complete */\n              0x02\n              add\n              0x14\n                /* \"Kickstarter.sol\":2456:2473  r.complete = true */\n              0x0100\n              exp\n              dup2\n              sload\n              dup2\n              0xff\n              mul\n              not\n              and\n              swap1\n              dup4\n              iszero\n              iszero\n              mul\n              or\n              swap1\n              sstore\n              pop\n                /* \"Kickstarter.sol\":2130:2480  {... */\n              pop\n                /* \"Kickstarter.sol\":2063:2480  function finalizeRequest(uint256 _index) public payable restricted {... */\n              pop\n              jump\t// out\n                /* \"Kickstarter.sol\":439:480  mapping(address => bool) public approvers */\n            tag_22:\n              mstore(0x20, 0x04)\n              dup1\n              0x00\n              mstore\n              keccak256(0x00, 0x40)\n              0x00\n              swap2\n              pop\n              sload\n              swap1\n              0x0100\n              exp\n              swap1\n              div\n              0xff\n              and\n              dup2\n              jump\t// out\n                /* \"Kickstarter.sol\":1188:1290  function getTotalBalance() public view returns (uint256) {... */\n            tag_27:\n                /* \"Kickstarter.sol\":1236:1243  uint256 */\n              0x00\n                /* \"Kickstarter.sol\":1262:1283  address(this).balance */\n              selfbalance\n                /* \"Kickstarter.sol\":1255:1283  return address(this).balance */\n              swap1\n              pop\n                /* \"Kickstarter.sol\":1188:1290  function getTotalBalance() public view returns (uint256) {... */\n              swap1\n              jump\t// out\n                /* \"Kickstarter.sol\":371:393  address public manager */\n            tag_32:\n              0x02\n              0x00\n              swap1\n              sload\n              swap1\n              0x0100\n              exp\n              swap1\n              div\n              0xffffffffffffffffffffffffffffffffffffffff\n              and\n              dup2\n              jump\t// out\n                /* \"Kickstarter.sol\":322:365  mapping(uint256 => Request) public requests */\n            tag_38:\n              mstore(0x20, 0x01)\n              dup1\n              0x00\n              mstore\n              keccak256(0x00, 0x40)\n              0x00\n              swap2\n              pop\n              swap1\n              pop\n              dup1\n              0x00\n              add\n              dup1\n              sload\n              tag_80\n              swap1\n              tag_81\n              jump\t// in\n            tag_80:\n              dup1\n              0x1f\n              add\n              0x20\n              dup1\n              swap2\n              div\n              mul\n              0x20\n              add\n              mload(0x40)\n              swap1\n              dup2\n              add\n              0x40\n              mstore\n              dup1\n              swap3\n              swap2\n              swap1\n              dup2\n              dup2\n              mstore\n              0x20\n              add\n              dup3\n              dup1\n              sload\n              tag_82\n              swap1\n              tag_81\n              jump\t// in\n            tag_82:\n              dup1\n              iszero\n              tag_83\n              jumpi\n              dup1\n              0x1f\n              lt\n              tag_84\n              jumpi\n              0x0100\n              dup1\n              dup4\n              sload\n              div\n              mul\n              dup4\n              mstore\n              swap2\n              0x20\n              add\n              swap2\n              jump(tag_83)\n            tag_84:\n              dup3\n              add\n              swap2\n              swap1\n              0x00\n              mstore\n              keccak256(0x00, 0x20)\n              swap1\n            tag_85:\n              dup2\n              sload\n              dup2\n              mstore\n              swap1\n              0x01\n              add\n              swap1\n              0x20\n              add\n              dup1\n              dup4\n              gt\n              tag_85\n              jumpi\n              dup3\n              swap1\n              sub\n              0x1f\n              and\n              dup3\n              add\n              swap2\n            tag_83:\n              pop\n              pop\n              pop\n              pop\n              pop\n              swap1\n              dup1\n              0x01\n              add\n              sload\n              swap1\n              dup1\n              0x02\n              add\n              0x00\n              swap1\n              sload\n              swap1\n              0x0100\n              exp\n              swap1\n              div\n              0xffffffffffffffffffffffffffffffffffffffff\n              and\n              swap1\n              dup1\n              0x02\n              add\n              0x14\n              swap1\n              sload\n              swap1\n              0x0100\n              exp\n              swap1\n              div\n              0xff\n              and\n              swap1\n              dup1\n              0x03\n              add\n              sload\n              swap1\n              pop\n              dup6\n              jump\t// out\n                /* \"Kickstarter.sol\":1296:1646  function createRequest(... */\n            tag_45:\n                /* \"Kickstarter.sol\":755:762  manager */\n              0x02\n              0x00\n              swap1\n              sload\n              swap1\n              0x0100\n              exp\n              swap1\n              div\n              0xffffffffffffffffffffffffffffffffffffffff\n              and\n                /* \"Kickstarter.sol\":741:762  msg.sender == manager */\n              0xffffffffffffffffffffffffffffffffffffffff\n              and\n                /* \"Kickstarter.sol\":741:751  msg.sender */\n              caller\n                /* \"Kickstarter.sol\":741:762  msg.sender == manager */\n              0xffffffffffffffffffffffffffffffffffffffff\n              and\n              eq\n                /* \"Kickstarter.sol\":720:831  require(... */\n              tag_87\n              jumpi\n              mload(0x40)\n              0x08c379a000000000000000000000000000000000000000000000000000000000\n              dup2\n              mstore\n              0x04\n              add\n              tag_88\n              swap1\n              tag_67\n              jump\t// in\n            tag_88:\n              mload(0x40)\n              dup1\n              swap2\n              sub\n              swap1\n              revert\n            tag_87:\n                /* \"Kickstarter.sol\":1441:1458  Request storage r */\n              0x00\n                /* \"Kickstarter.sol\":1461:1469  requests */\n              0x01\n                /* \"Kickstarter.sol\":1461:1484  requests[_numRequest++] */\n              0x00\n                /* \"Kickstarter.sol\":1470:1481  _numRequest */\n              dup1\n              0x00\n                /* \"Kickstarter.sol\":1470:1483  _numRequest++ */\n              dup2\n              sload\n              dup1\n              swap3\n              swap2\n              swap1\n              tag_90\n              swap1\n              tag_91\n              jump\t// in\n            tag_90:\n              swap2\n              swap1\n              pop\n              sstore\n                /* \"Kickstarter.sol\":1461:1484  requests[_numRequest++] */\n              dup2\n              mstore\n              0x20\n              add\n              swap1\n              dup2\n              mstore\n              0x20\n              add\n              0x00\n              keccak256\n                /* \"Kickstarter.sol\":1441:1484  Request storage r = requests[_numRequest++] */\n              swap1\n              pop\n                /* \"Kickstarter.sol\":1510:1522  _description */\n              dup4\n                /* \"Kickstarter.sol\":1494:1495  r */\n              dup2\n                /* \"Kickstarter.sol\":1494:1507  r.description */\n              0x00\n              add\n                /* \"Kickstarter.sol\":1494:1522  r.description = _description */\n              swap1\n              dup2\n              tag_92\n              swap2\n              swap1\n              tag_93\n              jump\t// in\n            tag_92:\n              pop\n                /* \"Kickstarter.sol\":1542:1548  _value */\n              dup3\n                /* \"Kickstarter.sol\":1532:1533  r */\n              dup2\n                /* \"Kickstarter.sol\":1532:1539  r.value */\n              0x01\n              add\n                /* \"Kickstarter.sol\":1532:1548  r.value = _value */\n              dup2\n              swap1\n              sstore\n              pop\n                /* \"Kickstarter.sol\":1572:1582  _recipient */\n              dup2\n                /* \"Kickstarter.sol\":1558:1559  r */\n              dup2\n                /* \"Kickstarter.sol\":1558:1569  r.recipient */\n              0x02\n              add\n              0x00\n                /* \"Kickstarter.sol\":1558:1582  r.recipient = _recipient */\n              0x0100\n              exp\n              dup2\n              sload\n              dup2\n              0xffffffffffffffffffffffffffffffffffffffff\n              mul\n              not\n              and\n              swap1\n              dup4\n              0xffffffffffffffffffffffffffffffffffffffff\n              and\n              mul\n              or\n              swap1\n              sstore\n              pop\n                /* \"Kickstarter.sol\":1605:1610  false */\n              0x00\n                /* \"Kickstarter.sol\":1592:1593  r */\n              dup2\n                /* \"Kickstarter.sol\":1592:1602  r.complete */\n              0x02\n              add\n              0x14\n                /* \"Kickstarter.sol\":1592:1610  r.complete = false */\n              0x0100\n              exp\n              dup2\n              sload\n              dup2\n              0xff\n              mul\n              not\n              and\n              swap1\n              dup4\n              iszero\n              iszero\n              mul\n              or\n              swap1\n              sstore\n              pop\n                /* \"Kickstarter.sol\":1638:1639  0 */\n              0x00\n                /* \"Kickstarter.sol\":1620:1621  r */\n              dup2\n                /* \"Kickstarter.sol\":1620:1635  r.approvalCount */\n              0x03\n              add\n                /* \"Kickstarter.sol\":1620:1639  r.approvalCount = 0 */\n              dup2\n              swap1\n              sstore\n              pop\n                /* \"Kickstarter.sol\":1431:1646  {... */\n              pop\n                /* \"Kickstarter.sol\":1296:1646  function createRequest(... */\n              pop\n              pop\n              pop\n              jump\t// out\n                /* \"Kickstarter.sol\":399:433  uint256 public minimumContribution */\n            tag_48:\n              sload(0x03)\n              dup2\n              jump\t// out\n                /* \"Kickstarter.sol\":290:316  uint256 public _numRequest */\n            tag_52:\n              sload(0x00)\n              dup2\n              jump\t// out\n                /* \"Kickstarter.sol\":855:1182  function contribute() public payable {... */\n            tag_55:\n                /* \"Kickstarter.sol\":936:955  minimumContribution */\n              sload(0x03)\n                /* \"Kickstarter.sol\":923:932  msg.value */\n              callvalue\n                /* \"Kickstarter.sol\":923:955  msg.value >= minimumContribution */\n              lt\n              iszero\n                /* \"Kickstarter.sol\":902:1046  require(... */\n              tag_95\n              jumpi\n              mload(0x40)\n              0x08c379a000000000000000000000000000000000000000000000000000000000\n              dup2\n              mstore\n              0x04\n              add\n              tag_96\n              swap1\n              tag_97\n              jump\t// in\n            tag_96:\n              mload(0x40)\n              dup1\n              swap2\n              sub\n              swap1\n              revert\n            tag_95:\n                /* \"Kickstarter.sol\":1061:1070  approvers */\n              0x04\n                /* \"Kickstarter.sol\":1061:1082  approvers[msg.sender] */\n              0x00\n                /* \"Kickstarter.sol\":1071:1081  msg.sender */\n              caller\n                /* \"Kickstarter.sol\":1061:1082  approvers[msg.sender] */\n              0xffffffffffffffffffffffffffffffffffffffff\n              and\n              0xffffffffffffffffffffffffffffffffffffffff\n              and\n              dup2\n              mstore\n              0x20\n              add\n              swap1\n              dup2\n              mstore\n              0x20\n              add\n              0x00\n              keccak256\n              0x00\n              swap1\n              sload\n              swap1\n              0x0100\n              exp\n              swap1\n              div\n              0xff\n              and\n                /* \"Kickstarter.sol\":1056:1138  if (!approvers[msg.sender]) {... */\n              tag_98\n              jumpi\n                /* \"Kickstarter.sol\":1098:1125  peopleJoinedForContribution */\n              0x05\n              0x00\n                /* \"Kickstarter.sol\":1098:1127  peopleJoinedForContribution++ */\n              dup2\n              sload\n              dup1\n              swap3\n              swap2\n              swap1\n              tag_99\n              swap1\n              tag_91\n              jump\t// in\n            tag_99:\n              swap2\n              swap1\n              pop\n              sstore\n              pop\n                /* \"Kickstarter.sol\":1056:1138  if (!approvers[msg.sender]) {... */\n            tag_98:\n                /* \"Kickstarter.sol\":1171:1175  true */\n              0x01\n                /* \"Kickstarter.sol\":1147:1156  approvers */\n              0x04\n                /* \"Kickstarter.sol\":1147:1168  approvers[msg.sender] */\n              0x00\n                /* \"Kickstarter.sol\":1157:1167  msg.sender */\n              caller\n                /* \"Kickstarter.sol\":1147:1168  approvers[msg.sender] */\n              0xffffffffffffffffffffffffffffffffffffffff\n              and\n              0xffffffffffffffffffffffffffffffffffffffff\n              and\n              dup2\n              mstore\n              0x20\n              add\n              swap1\n              dup2\n              mstore\n              0x20\n              add\n              0x00\n              keccak256\n              0x00\n                /* \"Kickstarter.sol\":1147:1175  approvers[msg.sender] = true */\n              0x0100\n              exp\n              dup2\n              sload\n              dup2\n              0xff\n              mul\n              not\n              and\n              swap1\n              dup4\n              iszero\n              iszero\n              mul\n              or\n              swap1\n              sstore\n              pop\n                /* \"Kickstarter.sol\":855:1182  function contribute() public payable {... */\n              jump\t// out\n                /* \"Kickstarter.sol\":1652:2057  function approveRequest(uint256 _index) public {... */\n            tag_59:\n                /* \"Kickstarter.sol\":1730:1739  approvers */\n              0x04\n                /* \"Kickstarter.sol\":1730:1751  approvers[msg.sender] */\n              0x00\n                /* \"Kickstarter.sol\":1740:1750  msg.sender */\n              caller\n                /* \"Kickstarter.sol\":1730:1751  approvers[msg.sender] */\n              0xffffffffffffffffffffffffffffffffffffffff\n              and\n              0xffffffffffffffffffffffffffffffffffffffff\n              and\n              dup2\n              mstore\n              0x20\n              add\n              swap1\n              dup2\n              mstore\n              0x20\n              add\n              0x00\n              keccak256\n              0x00\n              swap1\n              sload\n              swap1\n              0x0100\n              exp\n              swap1\n              div\n              0xff\n              and\n                /* \"Kickstarter.sol\":1709:1818  require(... */\n              tag_101\n              jumpi\n              mload(0x40)\n              0x08c379a000000000000000000000000000000000000000000000000000000000\n              dup2\n              mstore\n              0x04\n              add\n              tag_102\n              swap1\n              tag_103\n              jump\t// in\n            tag_102:\n              mload(0x40)\n              dup1\n              swap2\n              sub\n              swap1\n              revert\n            tag_101:\n                /* \"Kickstarter.sol\":1850:1858  requests */\n              0x01\n                /* \"Kickstarter.sol\":1850:1866  requests[_index] */\n              0x00\n                /* \"Kickstarter.sol\":1859:1865  _index */\n              dup3\n                /* \"Kickstarter.sol\":1850:1866  requests[_index] */\n              dup2\n              mstore\n              0x20\n              add\n              swap1\n              dup2\n              mstore\n              0x20\n              add\n              0x00\n              keccak256\n                /* \"Kickstarter.sol\":1850:1876  requests[_index].approvals */\n              0x04\n              add\n                /* \"Kickstarter.sol\":1850:1888  requests[_index].approvals[msg.sender] */\n              0x00\n                /* \"Kickstarter.sol\":1877:1887  msg.sender */\n              caller\n                /* \"Kickstarter.sol\":1850:1888  requests[_index].approvals[msg.sender] */\n              0xffffffffffffffffffffffffffffffffffffffff\n              and\n              0xffffffffffffffffffffffffffffffffffffffff\n              and\n              dup2\n              mstore\n              0x20\n              add\n              swap1\n              dup2\n              mstore\n              0x20\n              add\n              0x00\n              keccak256\n              0x00\n              swap1\n              sload\n              swap1\n              0x0100\n              exp\n              swap1\n              div\n              0xff\n              and\n                /* \"Kickstarter.sol\":1849:1888  !requests[_index].approvals[msg.sender] */\n              iszero\n                /* \"Kickstarter.sol\":1828:1953  require(... */\n              tag_104\n              jumpi\n              mload(0x40)\n              0x08c379a000000000000000000000000000000000000000000000000000000000\n              dup2\n              mstore\n              0x04\n              add\n              tag_105\n              swap1\n              tag_106\n              jump\t// in\n            tag_105:\n              mload(0x40)\n              dup1\n              swap2\n              sub\n              swap1\n              revert\n            tag_104:\n                /* \"Kickstarter.sol\":2004:2008  true */\n              0x01\n                /* \"Kickstarter.sol\":1963:1971  requests */\n              dup1\n                /* \"Kickstarter.sol\":1963:1979  requests[_index] */\n              0x00\n                /* \"Kickstarter.sol\":1972:1978  _index */\n              dup4\n                /* \"Kickstarter.sol\":1963:1979  requests[_index] */\n              dup2\n              mstore\n              0x20\n              add\n              swap1\n              dup2\n              mstore\n              0x20\n              add\n              0x00\n              keccak256\n                /* \"Kickstarter.sol\":1963:1989  requests[_index].approvals */\n              0x04\n              add\n                /* \"Kickstarter.sol\":1963:2001  requests[_index].approvals[msg.sender] */\n              0x00\n                /* \"Kickstarter.sol\":1990:2000  msg.sender */\n              caller\n                /* \"Kickstarter.sol\":1963:2001  requests[_index].approvals[msg.sender] */\n              0xffffffffffffffffffffffffffffffffffffffff\n              and\n              0xffffffffffffffffffffffffffffffffffffffff\n              and\n              dup2\n              mstore\n              0x20\n              add\n              swap1\n              dup2\n              mstore\n              0x20\n              add\n              0x00\n              keccak256\n              0x00\n                /* \"Kickstarter.sol\":1963:2008  requests[_index].approvals[msg.sender] = true */\n              0x0100\n              exp\n              dup2\n              sload\n              dup2\n              0xff\n              mul\n              not\n              and\n              swap1\n              dup4\n              iszero\n              iszero\n              mul\n              or\n              swap1\n              sstore\n              pop\n                /* \"Kickstarter.sol\":2018:2026  requests */\n              0x01\n                /* \"Kickstarter.sol\":2018:2034  requests[_index] */\n              0x00\n                /* \"Kickstarter.sol\":2027:2033  _index */\n              dup3\n                /* \"Kickstarter.sol\":2018:2034  requests[_index] */\n              dup2\n              mstore\n              0x20\n              add\n              swap1\n              dup2\n              mstore\n              0x20\n              add\n              0x00\n              keccak256\n                /* \"Kickstarter.sol\":2018:2048  requests[_index].approvalCount */\n              0x03\n              add\n              0x00\n                /* \"Kickstarter.sol\":2018:2050  requests[_index].approvalCount++ */\n              dup2\n              sload\n              dup1\n              swap3\n              swap2\n              swap1\n              tag_107\n              swap1\n              tag_91\n              jump\t// in\n            tag_107:\n              swap2\n              swap1\n              pop\n              sstore\n              pop\n                /* \"Kickstarter.sol\":1652:2057  function approveRequest(uint256 _index) public {... */\n              pop\n              jump\t// out\n                /* \"Kickstarter.sol\":486:528  uint256 public peopleJoinedForContribution */\n            tag_62:\n              sload(0x05)\n              dup2\n              jump\t// out\n                /* \"#utility.yul\":7:82   */\n            tag_108:\n                /* \"#utility.yul\":40:46   */\n              0x00\n                /* \"#utility.yul\":73:75   */\n              0x40\n                /* \"#utility.yul\":67:76   */\n              mload\n                /* \"#utility.yul\":57:76   */\n              swap1\n              pop\n                /* \"#utility.yul\":7:82   */\n              swap1\n              jump\t// out\n                /* \"#utility.yul\":88:205   */\n            tag_109:\n                /* \"#utility.yul\":197:198   */\n              0x00\n                /* \"#utility.yul\":194:195   */\n              dup1\n                /* \"#utility.yul\":187:199   */\n              revert\n                /* \"#utility.yul\":211:328   */\n            tag_110:\n                /* \"#utility.yul\":320:321   */\n              0x00\n                /* \"#utility.yul\":317:318   */\n              dup1\n                /* \"#utility.yul\":310:322   */\n              revert\n                /* \"#utility.yul\":334:411   */\n            tag_111:\n                /* \"#utility.yul\":371:378   */\n              0x00\n                /* \"#utility.yul\":400:405   */\n              dup2\n                /* \"#utility.yul\":389:405   */\n              swap1\n              pop\n                /* \"#utility.yul\":334:411   */\n              swap2\n              swap1\n              pop\n              jump\t// out\n                /* \"#utility.yul\":417:539   */\n            tag_112:\n                /* \"#utility.yul\":490:514   */\n              tag_172\n                /* \"#utility.yul\":508:513   */\n              dup2\n                /* \"#utility.yul\":490:514   */\n              tag_111\n              jump\t// in\n            tag_172:\n                /* \"#utility.yul\":483:488   */\n              dup2\n                /* \"#utility.yul\":480:515   */\n              eq\n                /* \"#utility.yul\":470:533   */\n              tag_173\n              jumpi\n                /* \"#utility.yul\":529:530   */\n              0x00\n                /* \"#utility.yul\":526:527   */\n              dup1\n                /* \"#utility.yul\":519:531   */\n              revert\n                /* \"#utility.yul\":470:533   */\n            tag_173:\n                /* \"#utility.yul\":417:539   */\n              pop\n              jump\t// out\n                /* \"#utility.yul\":545:684   */\n            tag_113:\n                /* \"#utility.yul\":591:596   */\n              0x00\n                /* \"#utility.yul\":629:635   */\n              dup2\n                /* \"#utility.yul\":616:636   */\n              calldataload\n                /* \"#utility.yul\":607:636   */\n              swap1\n              pop\n                /* \"#utility.yul\":645:678   */\n              tag_175\n                /* \"#utility.yul\":672:677   */\n              dup2\n                /* \"#utility.yul\":645:678   */\n              tag_112\n              jump\t// in\n            tag_175:\n                /* \"#utility.yul\":545:684   */\n              swap3\n              swap2\n              pop\n              pop\n              jump\t// out\n                /* \"#utility.yul\":690:1019   */\n            tag_16:\n                /* \"#utility.yul\":749:755   */\n              0x00\n                /* \"#utility.yul\":798:800   */\n              0x20\n                /* \"#utility.yul\":786:795   */\n              dup3\n                /* \"#utility.yul\":777:784   */\n              dup5\n                /* \"#utility.yul\":773:796   */\n              sub\n                /* \"#utility.yul\":769:801   */\n              slt\n                /* \"#utility.yul\":766:885   */\n              iszero\n              tag_177\n              jumpi\n                /* \"#utility.yul\":804:883   */\n              tag_178\n              tag_109\n              jump\t// in\n            tag_178:\n                /* \"#utility.yul\":766:885   */\n            tag_177:\n                /* \"#utility.yul\":924:925   */\n              0x00\n                /* \"#utility.yul\":949:1002   */\n              tag_179\n                /* \"#utility.yul\":994:1001   */\n              dup5\n                /* \"#utility.yul\":985:991   */\n              dup3\n                /* \"#utility.yul\":974:983   */\n              dup6\n                /* \"#utility.yul\":970:992   */\n              add\n                /* \"#utility.yul\":949:1002   */\n              tag_113\n              jump\t// in\n            tag_179:\n                /* \"#utility.yul\":939:1002   */\n              swap2\n              pop\n                /* \"#utility.yul\":895:1012   */\n              pop\n                /* \"#utility.yul\":690:1019   */\n              swap3\n              swap2\n              pop\n              pop\n              jump\t// out\n                /* \"#utility.yul\":1025:1151   */\n            tag_114:\n                /* \"#utility.yul\":1062:1069   */\n              0x00\n                /* \"#utility.yul\":1102:1144   */\n              0xffffffffffffffffffffffffffffffffffffffff\n                /* \"#utility.yul\":1095:1100   */\n              dup3\n                /* \"#utility.yul\":1091:1145   */\n              and\n                /* \"#utility.yul\":1080:1145   */\n              swap1\n              pop\n                /* \"#utility.yul\":1025:1151   */\n              swap2\n              swap1\n              pop\n              jump\t// out\n                /* \"#utility.yul\":1157:1253   */\n            tag_115:\n                /* \"#utility.yul\":1194:1201   */\n              0x00\n                /* \"#utility.yul\":1223:1247   */\n              tag_182\n                /* \"#utility.yul\":1241:1246   */\n              dup3\n                /* \"#utility.yul\":1223:1247   */\n              tag_114\n              jump\t// in\n            tag_182:\n                /* \"#utility.yul\":1212:1247   */\n              swap1\n              pop\n                /* \"#utility.yul\":1157:1253   */\n              swap2\n              swap1\n              pop\n              jump\t// out\n                /* \"#utility.yul\":1259:1381   */\n            tag_116:\n                /* \"#utility.yul\":1332:1356   */\n              tag_184\n                /* \"#utility.yul\":1350:1355   */\n              dup2\n                /* \"#utility.yul\":1332:1356   */\n              tag_115\n              jump\t// in\n            tag_184:\n                /* \"#utility.yul\":1325:1330   */\n              dup2\n                /* \"#utility.yul\":1322:1357   */\n              eq\n                /* \"#utility.yul\":1312:1375   */\n              tag_185\n              jumpi\n                /* \"#utility.yul\":1371:1372   */\n              0x00\n                /* \"#utility.yul\":1368:1369   */\n              dup1\n                /* \"#utility.yul\":1361:1373   */\n              revert\n                /* \"#utility.yul\":1312:1375   */\n            tag_185:\n                /* \"#utility.yul\":1259:1381   */\n              pop\n              jump\t// out\n                /* \"#utility.yul\":1387:1526   */\n            tag_117:\n                /* \"#utility.yul\":1433:1438   */\n              0x00\n                /* \"#utility.yul\":1471:1477   */\n              dup2\n                /* \"#utility.yul\":1458:1478   */\n              calldataload\n                /* \"#utility.yul\":1449:1478   */\n              swap1\n              pop\n                /* \"#utility.yul\":1487:1520   */\n              tag_187\n                /* \"#utility.yul\":1514:1519   */\n              dup2\n                /* \"#utility.yul\":1487:1520   */\n              tag_116\n              jump\t// in\n            tag_187:\n                /* \"#utility.yul\":1387:1526   */\n              swap3\n              swap2\n              pop\n              pop\n              jump\t// out\n                /* \"#utility.yul\":1532:1861   */\n            tag_21:\n                /* \"#utility.yul\":1591:1597   */\n              0x00\n                /* \"#utility.yul\":1640:1642   */\n              0x20\n                /* \"#utility.yul\":1628:1637   */\n              dup3\n                /* \"#utility.yul\":1619:1626   */\n              dup5\n                /* \"#utility.yul\":1615:1638   */\n              sub\n                /* \"#utility.yul\":1611:1643   */\n              slt\n                /* \"#utility.yul\":1608:1727   */\n              iszero\n              tag_189\n              jumpi\n                /* \"#utility.yul\":1646:1725   */\n              tag_190\n              tag_109\n              jump\t// in\n            tag_190:\n                /* \"#utility.yul\":1608:1727   */\n            tag_189:\n                /* \"#utility.yul\":1766:1767   */\n              0x00\n                /* \"#utility.yul\":1791:1844   */\n              tag_191\n                /* \"#utility.yul\":1836:1843   */\n              dup5\n                /* \"#utility.yul\":1827:1833   */\n              dup3\n                /* \"#utility.yul\":1816:1825   */\n              dup6\n                /* \"#utility.yul\":1812:1834   */\n              add\n                /* \"#utility.yul\":1791:1844   */\n              tag_117\n              jump\t// in\n            tag_191:\n                /* \"#utility.yul\":1781:1844   */\n              swap2\n              pop\n                /* \"#utility.yul\":1737:1854   */\n              pop\n                /* \"#utility.yul\":1532:1861   */\n              swap3\n              swap2\n              pop\n              pop\n              jump\t// out\n                /* \"#utility.yul\":1867:1957   */\n            tag_118:\n                /* \"#utility.yul\":1901:1908   */\n              0x00\n                /* \"#utility.yul\":1944:1949   */\n              dup2\n                /* \"#utility.yul\":1937:1950   */\n              iszero\n                /* \"#utility.yul\":1930:1951   */\n              iszero\n                /* \"#utility.yul\":1919:1951   */\n              swap1\n              pop\n                /* \"#utility.yul\":1867:1957   */\n              swap2\n              swap1\n              pop\n              jump\t// out\n                /* \"#utility.yul\":1963:2072   */\n            tag_119:\n                /* \"#utility.yul\":2044:2065   */\n              tag_194\n                /* \"#utility.yul\":2059:2064   */\n              dup2\n                /* \"#utility.yul\":2044:2065   */\n              tag_118\n              jump\t// in\n            tag_194:\n                /* \"#utility.yul\":2039:2042   */\n              dup3\n                /* \"#utility.yul\":2032:2066   */\n              mstore\n                /* \"#utility.yul\":1963:2072   */\n              pop\n              pop\n              jump\t// out\n                /* \"#utility.yul\":2078:2288   */\n            tag_24:\n                /* \"#utility.yul\":2165:2169   */\n              0x00\n                /* \"#utility.yul\":2203:2205   */\n              0x20\n                /* \"#utility.yul\":2192:2201   */\n              dup3\n                /* \"#utility.yul\":2188:2206   */\n              add\n                /* \"#utility.yul\":2180:2206   */\n              swap1\n              pop\n                /* \"#utility.yul\":2216:2281   */\n              tag_196\n                /* \"#utility.yul\":2278:2279   */\n              0x00\n                /* \"#utility.yul\":2267:2276   */\n              dup4\n                /* \"#utility.yul\":2263:2280   */\n              add\n                /* \"#utility.yul\":2254:2260   */\n              dup5\n                /* \"#utility.yul\":2216:2281   */\n              tag_119\n              jump\t// in\n            tag_196:\n                /* \"#utility.yul\":2078:2288   */\n              swap3\n              swap2\n              pop\n              pop\n              jump\t// out\n                /* \"#utility.yul\":2294:2412   */\n            tag_120:\n                /* \"#utility.yul\":2381:2405   */\n              tag_198\n                /* \"#utility.yul\":2399:2404   */\n              dup2\n                /* \"#utility.yul\":2381:2405   */\n              tag_111\n              jump\t// in\n            tag_198:\n                /* \"#utility.yul\":2376:2379   */\n              dup3\n                /* \"#utility.yul\":2369:2406   */\n              mstore\n                /* \"#utility.yul\":2294:2412   */\n              pop\n              pop\n              jump\t// out\n                /* \"#utility.yul\":2418:2640   */\n            tag_29:\n                /* \"#utility.yul\":2511:2515   */\n              0x00\n                /* \"#utility.yul\":2549:2551   */\n              0x20\n                /* \"#utility.yul\":2538:2547   */\n              dup3\n                /* \"#utility.yul\":2534:2552   */\n              add\n                /* \"#utility.yul\":2526:2552   */\n              swap1\n              pop\n                /* \"#utility.yul\":2562:2633   */\n              tag_200\n                /* \"#utility.yul\":2630:2631   */\n              0x00\n                /* \"#utility.yul\":2619:2628   */\n              dup4\n                /* \"#utility.yul\":2615:2632   */\n              add\n                /* \"#utility.yul\":2606:2612   */\n              dup5\n                /* \"#utility.yul\":2562:2633   */\n              tag_120\n              jump\t// in\n            tag_200:\n                /* \"#utility.yul\":2418:2640   */\n              swap3\n              swap2\n              pop\n              pop\n              jump\t// out\n                /* \"#utility.yul\":2646:2764   */\n            tag_121:\n                /* \"#utility.yul\":2733:2757   */\n              tag_202\n                /* \"#utility.yul\":2751:2756   */\n              dup2\n                /* \"#utility.yul\":2733:2757   */\n              tag_115\n              jump\t// in\n            tag_202:\n                /* \"#utility.yul\":2728:2731   */\n              dup3\n                /* \"#utility.yul\":2721:2758   */\n              mstore\n                /* \"#utility.yul\":2646:2764   */\n              pop\n              pop\n              jump\t// out\n                /* \"#utility.yul\":2770:2992   */\n            tag_34:\n                /* \"#utility.yul\":2863:2867   */\n              0x00\n                /* \"#utility.yul\":2901:2903   */\n              0x20\n                /* \"#utility.yul\":2890:2899   */\n              dup3\n                /* \"#utility.yul\":2886:2904   */\n              add\n                /* \"#utility.yul\":2878:2904   */\n              swap1\n              pop\n                /* \"#utility.yul\":2914:2985   */\n              tag_204\n                /* \"#utility.yul\":2982:2983   */\n              0x00\n                /* \"#utility.yul\":2971:2980   */\n              dup4\n                /* \"#utility.yul\":2967:2984   */\n              add\n                /* \"#utility.yul\":2958:2964   */\n              dup5\n                /* \"#utility.yul\":2914:2985   */\n              tag_121\n              jump\t// in\n            tag_204:\n                /* \"#utility.yul\":2770:2992   */\n              swap3\n              swap2\n              pop\n              pop\n              jump\t// out\n                /* \"#utility.yul\":2998:3097   */\n            tag_122:\n                /* \"#utility.yul\":3050:3056   */\n              0x00\n                /* \"#utility.yul\":3084:3089   */\n              dup2\n                /* \"#utility.yul\":3078:3090   */\n              mload\n                /* \"#utility.yul\":3068:3090   */\n              swap1\n              pop\n                /* \"#utility.yul\":2998:3097   */\n              swap2\n              swap1\n              pop\n              jump\t// out\n                /* \"#utility.yul\":3103:3272   */\n            tag_123:\n                /* \"#utility.yul\":3187:3198   */\n              0x00\n                /* \"#utility.yul\":3221:3227   */\n              dup3\n                /* \"#utility.yul\":3216:3219   */\n              dup3\n                /* \"#utility.yul\":3209:3228   */\n              mstore\n                /* \"#utility.yul\":3261:3265   */\n              0x20\n                /* \"#utility.yul\":3256:3259   */\n              dup3\n                /* \"#utility.yul\":3252:3266   */\n              add\n                /* \"#utility.yul\":3237:3266   */\n              swap1\n              pop\n                /* \"#utility.yul\":3103:3272   */\n              swap3\n              swap2\n              pop\n              pop\n              jump\t// out\n                /* \"#utility.yul\":3278:3524   */\n            tag_124:\n                /* \"#utility.yul\":3359:3360   */\n              0x00\n                /* \"#utility.yul\":3369:3482   */\n            tag_208:\n                /* \"#utility.yul\":3383:3389   */\n              dup4\n                /* \"#utility.yul\":3380:3381   */\n              dup2\n                /* \"#utility.yul\":3377:3390   */\n              lt\n                /* \"#utility.yul\":3369:3482   */\n              iszero\n              tag_210\n              jumpi\n                /* \"#utility.yul\":3468:3469   */\n              dup1\n                /* \"#utility.yul\":3463:3466   */\n              dup3\n                /* \"#utility.yul\":3459:3470   */\n              add\n                /* \"#utility.yul\":3453:3471   */\n              mload\n                /* \"#utility.yul\":3449:3450   */\n              dup2\n                /* \"#utility.yul\":3444:3447   */\n              dup5\n                /* \"#utility.yul\":3440:3451   */\n              add\n                /* \"#utility.yul\":3433:3472   */\n              mstore\n                /* \"#utility.yul\":3405:3407   */\n              0x20\n                /* \"#utility.yul\":3402:3403   */\n              dup2\n                /* \"#utility.yul\":3398:3408   */\n              add\n                /* \"#utility.yul\":3393:3408   */\n              swap1\n              pop\n                /* \"#utility.yul\":3369:3482   */\n              jump(tag_208)\n            tag_210:\n                /* \"#utility.yul\":3516:3517   */\n              0x00\n                /* \"#utility.yul\":3507:3513   */\n              dup5\n                /* \"#utility.yul\":3502:3505   */\n              dup5\n                /* \"#utility.yul\":3498:3514   */\n              add\n                /* \"#utility.yul\":3491:3518   */\n              mstore\n                /* \"#utility.yul\":3340:3524   */\n              pop\n                /* \"#utility.yul\":3278:3524   */\n              pop\n              pop\n              pop\n              jump\t// out\n                /* \"#utility.yul\":3530:3632   */\n            tag_125:\n                /* \"#utility.yul\":3571:3577   */\n              0x00\n                /* \"#utility.yul\":3622:3624   */\n              0x1f\n                /* \"#utility.yul\":3618:3625   */\n              not\n                /* \"#utility.yul\":3613:3615   */\n              0x1f\n                /* \"#utility.yul\":3606:3611   */\n              dup4\n                /* \"#utility.yul\":3602:3616   */\n              add\n                /* \"#utility.yul\":3598:3626   */\n              and\n                /* \"#utility.yul\":3588:3626   */\n              swap1\n              pop\n                /* \"#utility.yul\":3530:3632   */\n              swap2\n              swap1\n              pop\n              jump\t// out\n                /* \"#utility.yul\":3638:4015   */\n            tag_126:\n                /* \"#utility.yul\":3726:3729   */\n              0x00\n                /* \"#utility.yul\":3754:3793   */\n              tag_213\n                /* \"#utility.yul\":3787:3792   */\n              dup3\n                /* \"#utility.yul\":3754:3793   */\n              tag_122\n              jump\t// in\n            tag_213:\n                /* \"#utility.yul\":3809:3880   */\n              tag_214\n                /* \"#utility.yul\":3873:3879   */\n              dup2\n                /* \"#utility.yul\":3868:3871   */\n              dup6\n                /* \"#utility.yul\":3809:3880   */\n              tag_123\n              jump\t// in\n            tag_214:\n                /* \"#utility.yul\":3802:3880   */\n              swap4\n              pop\n                /* \"#utility.yul\":3889:3954   */\n              tag_215\n                /* \"#utility.yul\":3947:3953   */\n              dup2\n                /* \"#utility.yul\":3942:3945   */\n              dup6\n                /* \"#utility.yul\":3935:3939   */\n              0x20\n                /* \"#utility.yul\":3928:3933   */\n              dup7\n                /* \"#utility.yul\":3924:3940   */\n              add\n                /* \"#utility.yul\":3889:3954   */\n              tag_124\n              jump\t// in\n            tag_215:\n                /* \"#utility.yul\":3979:4008   */\n              tag_216\n                /* \"#utility.yul\":4001:4007   */\n              dup2\n                /* \"#utility.yul\":3979:4008   */\n              tag_125\n              jump\t// in\n            tag_216:\n                /* \"#utility.yul\":3974:3977   */\n              dup5\n                /* \"#utility.yul\":3970:4009   */\n              add\n                /* \"#utility.yul\":3963:4009   */\n              swap2\n              pop\n                /* \"#utility.yul\":3730:4015   */\n              pop\n                /* \"#utility.yul\":3638:4015   */\n              swap3\n              swap2\n              pop\n              pop\n              jump\t// out\n                /* \"#utility.yul\":4021:4764   */\n            tag_40:\n                /* \"#utility.yul\":4240:4244   */\n              0x00\n                /* \"#utility.yul\":4278:4281   */\n              0xa0\n                /* \"#utility.yul\":4267:4276   */\n              dup3\n                /* \"#utility.yul\":4263:4282   */\n              add\n                /* \"#utility.yul\":4255:4282   */\n              swap1\n              pop\n                /* \"#utility.yul\":4328:4337   */\n              dup2\n                /* \"#utility.yul\":4322:4326   */\n              dup2\n                /* \"#utility.yul\":4318:4338   */\n              sub\n                /* \"#utility.yul\":4314:4315   */\n              0x00\n                /* \"#utility.yul\":4303:4312   */\n              dup4\n                /* \"#utility.yul\":4299:4316   */\n              add\n                /* \"#utility.yul\":4292:4339   */\n              mstore\n                /* \"#utility.yul\":4356:4434   */\n              tag_218\n                /* \"#utility.yul\":4429:4433   */\n              dup2\n                /* \"#utility.yul\":4420:4426   */\n              dup9\n                /* \"#utility.yul\":4356:4434   */\n              tag_126\n              jump\t// in\n            tag_218:\n                /* \"#utility.yul\":4348:4434   */\n              swap1\n              pop\n                /* \"#utility.yul\":4444:4516   */\n              tag_219\n                /* \"#utility.yul\":4512:4514   */\n              0x20\n                /* \"#utility.yul\":4501:4510   */\n              dup4\n                /* \"#utility.yul\":4497:4515   */\n              add\n                /* \"#utility.yul\":4488:4494   */\n              dup8\n                /* \"#utility.yul\":4444:4516   */\n              tag_120\n              jump\t// in\n            tag_219:\n                /* \"#utility.yul\":4526:4598   */\n              tag_220\n                /* \"#utility.yul\":4594:4596   */\n              0x40\n                /* \"#utility.yul\":4583:4592   */\n              dup4\n                /* \"#utility.yul\":4579:4597   */\n              add\n                /* \"#utility.yul\":4570:4576   */\n              dup7\n                /* \"#utility.yul\":4526:4598   */\n              tag_121\n              jump\t// in\n            tag_220:\n                /* \"#utility.yul\":4608:4674   */\n              tag_221\n                /* \"#utility.yul\":4670:4672   */\n              0x60\n                /* \"#utility.yul\":4659:4668   */\n              dup4\n                /* \"#utility.yul\":4655:4673   */\n              add\n                /* \"#utility.yul\":4646:4652   */\n              dup6\n                /* \"#utility.yul\":4608:4674   */\n              tag_119\n              jump\t// in\n            tag_221:\n                /* \"#utility.yul\":4684:4757   */\n              tag_222\n                /* \"#utility.yul\":4752:4755   */\n              0x80\n                /* \"#utility.yul\":4741:4750   */\n              dup4\n                /* \"#utility.yul\":4737:4756   */\n              add\n                /* \"#utility.yul\":4728:4734   */\n              dup5\n                /* \"#utility.yul\":4684:4757   */\n              tag_120\n              jump\t// in\n            tag_222:\n                /* \"#utility.yul\":4021:4764   */\n              swap7\n              swap6\n              pop\n              pop\n              pop\n              pop\n              pop\n              pop\n              jump\t// out\n                /* \"#utility.yul\":4770:4887   */\n            tag_127:\n                /* \"#utility.yul\":4879:4880   */\n              0x00\n                /* \"#utility.yul\":4876:4877   */\n              dup1\n                /* \"#utility.yul\":4869:4881   */\n              revert\n                /* \"#utility.yul\":4893:5010   */\n            tag_128:\n                /* \"#utility.yul\":5002:5003   */\n              0x00\n                /* \"#utility.yul\":4999:5000   */\n              dup1\n                /* \"#utility.yul\":4992:5004   */\n              revert\n                /* \"#utility.yul\":5016:5196   */\n            tag_129:\n                /* \"#utility.yul\":5064:5141   */\n              0x4e487b7100000000000000000000000000000000000000000000000000000000\n                /* \"#utility.yul\":5061:5062   */\n              0x00\n                /* \"#utility.yul\":5054:5142   */\n              mstore\n                /* \"#utility.yul\":5161:5165   */\n              0x41\n                /* \"#utility.yul\":5158:5159   */\n              0x04\n                /* \"#utility.yul\":5151:5166   */\n              mstore\n                /* \"#utility.yul\":5185:5189   */\n              0x24\n                /* \"#utility.yul\":5182:5183   */\n              0x00\n                /* \"#utility.yul\":5175:5190   */\n              revert\n                /* \"#utility.yul\":5202:5483   */\n            tag_130:\n                /* \"#utility.yul\":5285:5312   */\n              tag_227\n                /* \"#utility.yul\":5307:5311   */\n              dup3\n                /* \"#utility.yul\":5285:5312   */\n              tag_125\n              jump\t// in\n            tag_227:\n                /* \"#utility.yul\":5277:5283   */\n              dup2\n                /* \"#utility.yul\":5273:5313   */\n              add\n                /* \"#utility.yul\":5415:5421   */\n              dup2\n                /* \"#utility.yul\":5403:5413   */\n              dup2\n                /* \"#utility.yul\":5400:5422   */\n              lt\n                /* \"#utility.yul\":5379:5397   */\n              0xffffffffffffffff\n                /* \"#utility.yul\":5367:5377   */\n              dup3\n                /* \"#utility.yul\":5364:5398   */\n              gt\n                /* \"#utility.yul\":5361:5423   */\n              or\n                /* \"#utility.yul\":5358:5446   */\n              iszero\n              tag_228\n              jumpi\n                /* \"#utility.yul\":5426:5444   */\n              tag_229\n              tag_129\n              jump\t// in\n            tag_229:\n                /* \"#utility.yul\":5358:5446   */\n            tag_228:\n                /* \"#utility.yul\":5466:5476   */\n              dup1\n                /* \"#utility.yul\":5462:5464   */\n              0x40\n                /* \"#utility.yul\":5455:5477   */\n              mstore\n                /* \"#utility.yul\":5245:5483   */\n              pop\n                /* \"#utility.yul\":5202:5483   */\n              pop\n              pop\n              jump\t// out\n                /* \"#utility.yul\":5489:5618   */\n            tag_131:\n                /* \"#utility.yul\":5523:5529   */\n              0x00\n                /* \"#utility.yul\":5550:5570   */\n              tag_231\n              tag_108\n              jump\t// in\n            tag_231:\n                /* \"#utility.yul\":5540:5570   */\n              swap1\n              pop\n                /* \"#utility.yul\":5579:5612   */\n              tag_232\n                /* \"#utility.yul\":5607:5611   */\n              dup3\n                /* \"#utility.yul\":5599:5605   */\n              dup3\n                /* \"#utility.yul\":5579:5612   */\n              tag_130\n              jump\t// in\n            tag_232:\n                /* \"#utility.yul\":5489:5618   */\n              swap2\n              swap1\n              pop\n              jump\t// out\n                /* \"#utility.yul\":5624:5932   */\n            tag_132:\n                /* \"#utility.yul\":5686:5690   */\n              0x00\n                /* \"#utility.yul\":5776:5794   */\n              0xffffffffffffffff\n                /* \"#utility.yul\":5768:5774   */\n              dup3\n                /* \"#utility.yul\":5765:5795   */\n              gt\n                /* \"#utility.yul\":5762:5818   */\n              iszero\n              tag_234\n              jumpi\n                /* \"#utility.yul\":5798:5816   */\n              tag_235\n              tag_129\n              jump\t// in\n            tag_235:\n                /* \"#utility.yul\":5762:5818   */\n            tag_234:\n                /* \"#utility.yul\":5836:5865   */\n              tag_236\n                /* \"#utility.yul\":5858:5864   */\n              dup3\n                /* \"#utility.yul\":5836:5865   */\n              tag_125\n              jump\t// in\n            tag_236:\n                /* \"#utility.yul\":5828:5865   */\n              swap1\n              pop\n                /* \"#utility.yul\":5920:5924   */\n              0x20\n                /* \"#utility.yul\":5914:5918   */\n              dup2\n                /* \"#utility.yul\":5910:5925   */\n              add\n                /* \"#utility.yul\":5902:5925   */\n              swap1\n              pop\n                /* \"#utility.yul\":5624:5932   */\n              swap2\n              swap1\n              pop\n              jump\t// out\n                /* \"#utility.yul\":5938:6084   */\n            tag_133:\n                /* \"#utility.yul\":6035:6041   */\n              dup3\n                /* \"#utility.yul\":6030:6033   */\n              dup2\n                /* \"#utility.yul\":6025:6028   */\n              dup4\n                /* \"#utility.yul\":6012:6042   */\n              calldatacopy\n                /* \"#utility.yul\":6076:6077   */\n              0x00\n                /* \"#utility.yul\":6067:6073   */\n              dup4\n                /* \"#utility.yul\":6062:6065   */\n              dup4\n                /* \"#utility.yul\":6058:6074   */\n              add\n                /* \"#utility.yul\":6051:6078   */\n              mstore\n                /* \"#utility.yul\":5938:6084   */\n              pop\n              pop\n              pop\n              jump\t// out\n                /* \"#utility.yul\":6090:6515   */\n            tag_134:\n                /* \"#utility.yul\":6168:6173   */\n              0x00\n                /* \"#utility.yul\":6193:6259   */\n              tag_239\n                /* \"#utility.yul\":6209:6258   */\n              tag_240\n                /* \"#utility.yul\":6251:6257   */\n              dup5\n                /* \"#utility.yul\":6209:6258   */\n              tag_132\n              jump\t// in\n            tag_240:\n                /* \"#utility.yul\":6193:6259   */\n              tag_131\n              jump\t// in\n            tag_239:\n                /* \"#utility.yul\":6184:6259   */\n              swap1\n              pop\n                /* \"#utility.yul\":6282:6288   */\n              dup3\n                /* \"#utility.yul\":6275:6280   */\n              dup2\n                /* \"#utility.yul\":6268:6289   */\n              mstore\n                /* \"#utility.yul\":6320:6324   */\n              0x20\n                /* \"#utility.yul\":6313:6318   */\n              dup2\n                /* \"#utility.yul\":6309:6325   */\n              add\n                /* \"#utility.yul\":6358:6361   */\n              dup5\n                /* \"#utility.yul\":6349:6355   */\n              dup5\n                /* \"#utility.yul\":6344:6347   */\n              dup5\n                /* \"#utility.yul\":6340:6356   */\n              add\n                /* \"#utility.yul\":6337:6362   */\n              gt\n                /* \"#utility.yul\":6334:6446   */\n              iszero\n              tag_241\n              jumpi\n                /* \"#utility.yul\":6365:6444   */\n              tag_242\n              tag_128\n              jump\t// in\n            tag_242:\n                /* \"#utility.yul\":6334:6446   */\n            tag_241:\n                /* \"#utility.yul\":6455:6509   */\n              tag_243\n                /* \"#utility.yul\":6502:6508   */\n              dup5\n                /* \"#utility.yul\":6497:6500   */\n              dup3\n                /* \"#utility.yul\":6492:6495   */\n              dup6\n                /* \"#utility.yul\":6455:6509   */\n              tag_133\n              jump\t// in\n            tag_243:\n                /* \"#utility.yul\":6174:6515   */\n              pop\n                /* \"#utility.yul\":6090:6515   */\n              swap4\n              swap3\n              pop\n              pop\n              pop\n              jump\t// out\n                /* \"#utility.yul\":6535:6875   */\n            tag_135:\n                /* \"#utility.yul\":6591:6596   */\n              0x00\n                /* \"#utility.yul\":6640:6643   */\n              dup3\n                /* \"#utility.yul\":6633:6637   */\n              0x1f\n                /* \"#utility.yul\":6625:6631   */\n              dup4\n                /* \"#utility.yul\":6621:6638   */\n              add\n                /* \"#utility.yul\":6617:6644   */\n              slt\n                /* \"#utility.yul\":6607:6729   */\n              tag_245\n              jumpi\n                /* \"#utility.yul\":6648:6727   */\n              tag_246\n              tag_127\n              jump\t// in\n            tag_246:\n                /* \"#utility.yul\":6607:6729   */\n            tag_245:\n                /* \"#utility.yul\":6765:6771   */\n              dup2\n                /* \"#utility.yul\":6752:6772   */\n              calldataload\n                /* \"#utility.yul\":6790:6869   */\n              tag_247\n                /* \"#utility.yul\":6865:6868   */\n              dup5\n                /* \"#utility.yul\":6857:6863   */\n              dup3\n                /* \"#utility.yul\":6850:6854   */\n              0x20\n                /* \"#utility.yul\":6842:6848   */\n              dup7\n                /* \"#utility.yul\":6838:6855   */\n              add\n                /* \"#utility.yul\":6790:6869   */\n              tag_134\n              jump\t// in\n            tag_247:\n                /* \"#utility.yul\":6781:6869   */\n              swap2\n              pop\n                /* \"#utility.yul\":6597:6875   */\n              pop\n                /* \"#utility.yul\":6535:6875   */\n              swap3\n              swap2\n              pop\n              pop\n              jump\t// out\n                /* \"#utility.yul\":6881:7680   */\n            tag_44:\n                /* \"#utility.yul\":6968:6974   */\n              0x00\n                /* \"#utility.yul\":6976:6982   */\n              dup1\n                /* \"#utility.yul\":6984:6990   */\n              0x00\n                /* \"#utility.yul\":7033:7035   */\n              0x60\n                /* \"#utility.yul\":7021:7030   */\n              dup5\n                /* \"#utility.yul\":7012:7019   */\n              dup7\n                /* \"#utility.yul\":7008:7031   */\n              sub\n                /* \"#utility.yul\":7004:7036   */\n              slt\n                /* \"#utility.yul\":7001:7120   */\n              iszero\n              tag_249\n              jumpi\n                /* \"#utility.yul\":7039:7118   */\n              tag_250\n              tag_109\n              jump\t// in\n            tag_250:\n                /* \"#utility.yul\":7001:7120   */\n            tag_249:\n                /* \"#utility.yul\":7187:7188   */\n              0x00\n                /* \"#utility.yul\":7176:7185   */\n              dup5\n                /* \"#utility.yul\":7172:7189   */\n              add\n                /* \"#utility.yul\":7159:7190   */\n              calldataload\n                /* \"#utility.yul\":7217:7235   */\n              0xffffffffffffffff\n                /* \"#utility.yul\":7209:7215   */\n              dup2\n                /* \"#utility.yul\":7206:7236   */\n              gt\n                /* \"#utility.yul\":7203:7320   */\n              iszero\n              tag_251\n              jumpi\n                /* \"#utility.yul\":7239:7318   */\n              tag_252\n              tag_110\n              jump\t// in\n            tag_252:\n                /* \"#utility.yul\":7203:7320   */\n            tag_251:\n                /* \"#utility.yul\":7344:7407   */\n              tag_253\n                /* \"#utility.yul\":7399:7406   */\n              dup7\n                /* \"#utility.yul\":7390:7396   */\n              dup3\n                /* \"#utility.yul\":7379:7388   */\n              dup8\n                /* \"#utility.yul\":7375:7397   */\n              add\n                /* \"#utility.yul\":7344:7407   */\n              tag_135\n              jump\t// in\n            tag_253:\n                /* \"#utility.yul\":7334:7407   */\n              swap4\n              pop\n                /* \"#utility.yul\":7130:7417   */\n              pop\n                /* \"#utility.yul\":7456:7458   */\n              0x20\n                /* \"#utility.yul\":7482:7535   */\n              tag_254\n                /* \"#utility.yul\":7527:7534   */\n              dup7\n                /* \"#utility.yul\":7518:7524   */\n              dup3\n                /* \"#utility.yul\":7507:7516   */\n              dup8\n                /* \"#utility.yul\":7503:7525   */\n              add\n                /* \"#utility.yul\":7482:7535   */\n              tag_113\n              jump\t// in\n            tag_254:\n                /* \"#utility.yul\":7472:7535   */\n              swap3\n              pop\n                /* \"#utility.yul\":7427:7545   */\n              pop\n                /* \"#utility.yul\":7584:7586   */\n              0x40\n                /* \"#utility.yul\":7610:7663   */\n              tag_255\n                /* \"#utility.yul\":7655:7662   */\n              dup7\n                /* \"#utility.yul\":7646:7652   */\n              dup3\n                /* \"#utility.yul\":7635:7644   */\n              dup8\n                /* \"#utility.yul\":7631:7653   */\n              add\n                /* \"#utility.yul\":7610:7663   */\n              tag_117\n              jump\t// in\n            tag_255:\n                /* \"#utility.yul\":7600:7663   */\n              swap2\n              pop\n                /* \"#utility.yul\":7555:7673   */\n              pop\n                /* \"#utility.yul\":6881:7680   */\n              swap3\n              pop\n              swap3\n              pop\n              swap3\n              jump\t// out\n                /* \"#utility.yul\":7686:7916   */\n            tag_136:\n                /* \"#utility.yul\":7826:7860   */\n              0x4f6e6c7920746865206d616e616765722063616e206578656375746520746869\n                /* \"#utility.yul\":7822:7823   */\n              0x00\n                /* \"#utility.yul\":7814:7820   */\n              dup3\n                /* \"#utility.yul\":7810:7824   */\n              add\n                /* \"#utility.yul\":7803:7861   */\n              mstore\n                /* \"#utility.yul\":7895:7908   */\n              0x732066756e6374696f6e2e000000000000000000000000000000000000000000\n                /* \"#utility.yul\":7890:7892   */\n              0x20\n                /* \"#utility.yul\":7882:7888   */\n              dup3\n                /* \"#utility.yul\":7878:7893   */\n              add\n                /* \"#utility.yul\":7871:7909   */\n              mstore\n                /* \"#utility.yul\":7686:7916   */\n              pop\n              jump\t// out\n                /* \"#utility.yul\":7922:8288   */\n            tag_137:\n                /* \"#utility.yul\":8064:8067   */\n              0x00\n                /* \"#utility.yul\":8085:8152   */\n              tag_258\n                /* \"#utility.yul\":8149:8151   */\n              0x2b\n                /* \"#utility.yul\":8144:8147   */\n              dup4\n                /* \"#utility.yul\":8085:8152   */\n              tag_123\n              jump\t// in\n            tag_258:\n                /* \"#utility.yul\":8078:8152   */\n              swap2\n              pop\n                /* \"#utility.yul\":8161:8254   */\n              tag_259\n                /* \"#utility.yul\":8250:8253   */\n              dup3\n                /* \"#utility.yul\":8161:8254   */\n              tag_136\n              jump\t// in\n            tag_259:\n                /* \"#utility.yul\":8279:8281   */\n              0x40\n                /* \"#utility.yul\":8274:8277   */\n              dup3\n                /* \"#utility.yul\":8270:8282   */\n              add\n                /* \"#utility.yul\":8263:8282   */\n              swap1\n              pop\n                /* \"#utility.yul\":7922:8288   */\n              swap2\n              swap1\n              pop\n              jump\t// out\n                /* \"#utility.yul\":8294:8713   */\n            tag_67:\n                /* \"#utility.yul\":8460:8464   */\n              0x00\n                /* \"#utility.yul\":8498:8500   */\n              0x20\n                /* \"#utility.yul\":8487:8496   */\n              dup3\n                /* \"#utility.yul\":8483:8501   */\n              add\n                /* \"#utility.yul\":8475:8501   */\n              swap1\n              pop\n                /* \"#utility.yul\":8547:8556   */\n              dup2\n                /* \"#utility.yul\":8541:8545   */\n              dup2\n                /* \"#utility.yul\":8537:8557   */\n              sub\n                /* \"#utility.yul\":8533:8534   */\n              0x00\n                /* \"#utility.yul\":8522:8531   */\n              dup4\n                /* \"#utility.yul\":8518:8535   */\n              add\n                /* \"#utility.yul\":8511:8558   */\n              mstore\n                /* \"#utility.yul\":8575:8706   */\n              tag_261\n                /* \"#utility.yul\":8701:8705   */\n              dup2\n                /* \"#utility.yul\":8575:8706   */\n              tag_137\n              jump\t// in\n            tag_261:\n                /* \"#utility.yul\":8567:8706   */\n              swap1\n              pop\n                /* \"#utility.yul\":8294:8713   */\n              swap2\n              swap1\n              pop\n              jump\t// out\n                /* \"#utility.yul\":8719:8899   */\n            tag_138:\n                /* \"#utility.yul\":8767:8844   */\n              0x4e487b7100000000000000000000000000000000000000000000000000000000\n                /* \"#utility.yul\":8764:8765   */\n              0x00\n                /* \"#utility.yul\":8757:8845   */\n              mstore\n                /* \"#utility.yul\":8864:8868   */\n              0x12\n                /* \"#utility.yul\":8861:8862   */\n              0x04\n                /* \"#utility.yul\":8854:8869   */\n              mstore\n                /* \"#utility.yul\":8888:8892   */\n              0x24\n                /* \"#utility.yul\":8885:8886   */\n              0x00\n                /* \"#utility.yul\":8878:8893   */\n              revert\n                /* \"#utility.yul\":8905:9085   */\n            tag_139:\n                /* \"#utility.yul\":8953:9030   */\n              0x4e487b7100000000000000000000000000000000000000000000000000000000\n                /* \"#utility.yul\":8950:8951   */\n              0x00\n                /* \"#utility.yul\":8943:9031   */\n              mstore\n                /* \"#utility.yul\":9050:9054   */\n              0x11\n                /* \"#utility.yul\":9047:9048   */\n              0x04\n                /* \"#utility.yul\":9040:9055   */\n              mstore\n                /* \"#utility.yul\":9074:9078   */\n              0x24\n                /* \"#utility.yul\":9071:9072   */\n              0x00\n                /* \"#utility.yul\":9064:9079   */\n              revert\n                /* \"#utility.yul\":9091:9276   */\n            tag_70:\n                /* \"#utility.yul\":9131:9132   */\n              0x00\n                /* \"#utility.yul\":9148:9168   */\n              tag_265\n                /* \"#utility.yul\":9166:9167   */\n              dup3\n                /* \"#utility.yul\":9148:9168   */\n              tag_111\n              jump\t// in\n            tag_265:\n                /* \"#utility.yul\":9143:9168   */\n              swap2\n              pop\n                /* \"#utility.yul\":9182:9202   */\n              tag_266\n                /* \"#utility.yul\":9200:9201   */\n              dup4\n                /* \"#utility.yul\":9182:9202   */\n              tag_111\n              jump\t// in\n            tag_266:\n                /* \"#utility.yul\":9177:9202   */\n              swap3\n              pop\n                /* \"#utility.yul\":9221:9222   */\n              dup3\n                /* \"#utility.yul\":9211:9246   */\n              tag_267\n              jumpi\n                /* \"#utility.yul\":9226:9244   */\n              tag_268\n              tag_138\n              jump\t// in\n            tag_268:\n                /* \"#utility.yul\":9211:9246   */\n            tag_267:\n                /* \"#utility.yul\":9268:9269   */\n              dup3\n                /* \"#utility.yul\":9265:9266   */\n              dup3\n                /* \"#utility.yul\":9261:9270   */\n              div\n                /* \"#utility.yul\":9256:9270   */\n              swap1\n              pop\n                /* \"#utility.yul\":9091:9276   */\n              swap3\n              swap2\n              pop\n              pop\n              jump\t// out\n                /* \"#utility.yul\":9282:9514   */\n            tag_140:\n                /* \"#utility.yul\":9422:9456   */\n              0x596f7520646f206e6f742068617665207265717569726564206e756d62657220\n                /* \"#utility.yul\":9418:9419   */\n              0x00\n                /* \"#utility.yul\":9410:9416   */\n              dup3\n                /* \"#utility.yul\":9406:9420   */\n              add\n                /* \"#utility.yul\":9399:9457   */\n              mstore\n                /* \"#utility.yul\":9491:9506   */\n              0x6f6620617070726f76616c732e00000000000000000000000000000000000000\n                /* \"#utility.yul\":9486:9488   */\n              0x20\n                /* \"#utility.yul\":9478:9484   */\n              dup3\n                /* \"#utility.yul\":9474:9489   */\n              add\n                /* \"#utility.yul\":9467:9507   */\n              mstore\n                /* \"#utility.yul\":9282:9514   */\n              pop\n              jump\t// out\n                /* \"#utility.yul\":9520:9886   */\n            tag_141:\n                /* \"#utility.yul\":9662:9665   */\n              0x00\n                /* \"#utility.yul\":9683:9750   */\n              tag_271\n                /* \"#utility.yul\":9747:9749   */\n              0x2d\n                /* \"#utility.yul\":9742:9745   */\n              dup4\n                /* \"#utility.yul\":9683:9750   */\n              tag_123\n              jump\t// in\n            tag_271:\n                /* \"#utility.yul\":9676:9750   */\n              swap2\n              pop\n                /* \"#utility.yul\":9759:9852   */\n              tag_272\n                /* \"#utility.yul\":9848:9851   */\n              dup3\n                /* \"#utility.yul\":9759:9852   */\n              tag_140\n              jump\t// in\n            tag_272:\n                /* \"#utility.yul\":9877:9879   */\n              0x40\n                /* \"#utility.yul\":9872:9875   */\n              dup3\n                /* \"#utility.yul\":9868:9880   */\n              add\n                /* \"#utility.yul\":9861:9880   */\n              swap1\n              pop\n                /* \"#utility.yul\":9520:9886   */\n              swap2\n              swap1\n              pop\n              jump\t// out\n                /* \"#utility.yul\":9892:10311   */\n            tag_73:\n                /* \"#utility.yul\":10058:10062   */\n              0x00\n                /* \"#utility.yul\":10096:10098   */\n              0x20\n                /* \"#utility.yul\":10085:10094   */\n              dup3\n                /* \"#utility.yul\":10081:10099   */\n              add\n                /* \"#utility.yul\":10073:10099   */\n              swap1\n              pop\n                /* \"#utility.yul\":10145:10154   */\n              dup2\n                /* \"#utility.yul\":10139:10143   */\n              dup2\n                /* \"#utility.yul\":10135:10155   */\n              sub\n                /* \"#utility.yul\":10131:10132   */\n              0x00\n                /* \"#utility.yul\":10120:10129   */\n              dup4\n                /* \"#utility.yul\":10116:10133   */\n              add\n                /* \"#utility.yul\":10109:10156   */\n              mstore\n                /* \"#utility.yul\":10173:10304   */\n              tag_274\n                /* \"#utility.yul\":10299:10303   */\n              dup2\n                /* \"#utility.yul\":10173:10304   */\n              tag_141\n              jump\t// in\n            tag_274:\n                /* \"#utility.yul\":10165:10304   */\n              swap1\n              pop\n                /* \"#utility.yul\":9892:10311   */\n              swap2\n              swap1\n              pop\n              jump\t// out\n                /* \"#utility.yul\":10317:10538   */\n            tag_142:\n                /* \"#utility.yul\":10457:10491   */\n              0x5265717565737420686173206265656e20617070726f76656420616c72656164\n                /* \"#utility.yul\":10453:10454   */\n              0x00\n                /* \"#utility.yul\":10445:10451   */\n              dup3\n                /* \"#utility.yul\":10441:10455   */\n              add\n                /* \"#utility.yul\":10434:10492   */\n              mstore\n                /* \"#utility.yul\":10526:10530   */\n              0x792e000000000000000000000000000000000000000000000000000000000000\n                /* \"#utility.yul\":10521:10523   */\n              0x20\n                /* \"#utility.yul\":10513:10519   */\n              dup3\n                /* \"#utility.yul\":10509:10524   */\n              add\n                /* \"#utility.yul\":10502:10531   */\n              mstore\n                /* \"#utility.yul\":10317:10538   */\n              pop\n              jump\t// out\n                /* \"#utility.yul\":10544:10910   */\n            tag_143:\n                /* \"#utility.yul\":10686:10689   */\n              0x00\n                /* \"#utility.yul\":10707:10774   */\n              tag_277\n                /* \"#utility.yul\":10771:10773   */\n              0x22\n                /* \"#utility.yul\":10766:10769   */\n              dup4\n                /* \"#utility.yul\":10707:10774   */\n              tag_123\n              jump\t// in\n            tag_277:\n                /* \"#utility.yul\":10700:10774   */\n              swap2\n              pop\n                /* \"#utility.yul\":10783:10876   */\n              tag_278\n                /* \"#utility.yul\":10872:10875   */\n              dup3\n                /* \"#utility.yul\":10783:10876   */\n              tag_142\n              jump\t// in\n            tag_278:\n                /* \"#utility.yul\":10901:10903   */\n              0x40\n                /* \"#utility.yul\":10896:10899   */\n              dup3\n                /* \"#utility.yul\":10892:10904   */\n              add\n                /* \"#utility.yul\":10885:10904   */\n              swap1\n              pop\n                /* \"#utility.yul\":10544:10910   */\n              swap2\n              swap1\n              pop\n              jump\t// out\n                /* \"#utility.yul\":10916:11335   */\n            tag_76:\n                /* \"#utility.yul\":11082:11086   */\n              0x00\n                /* \"#utility.yul\":11120:11122   */\n              0x20\n                /* \"#utility.yul\":11109:11118   */\n              dup3\n                /* \"#utility.yul\":11105:11123   */\n              add\n                /* \"#utility.yul\":11097:11123   */\n              swap1\n              pop\n                /* \"#utility.yul\":11169:11178   */\n              dup2\n                /* \"#utility.yul\":11163:11167   */\n              dup2\n                /* \"#utility.yul\":11159:11179   */\n              sub\n                /* \"#utility.yul\":11155:11156   */\n              0x00\n                /* \"#utility.yul\":11144:11153   */\n              dup4\n                /* \"#utility.yul\":11140:11157   */\n              add\n                /* \"#utility.yul\":11133:11180   */\n              mstore\n                /* \"#utility.yul\":11197:11328   */\n              tag_280\n                /* \"#utility.yul\":11323:11327   */\n              dup2\n                /* \"#utility.yul\":11197:11328   */\n              tag_143\n              jump\t// in\n            tag_280:\n                /* \"#utility.yul\":11189:11328   */\n              swap1\n              pop\n                /* \"#utility.yul\":10916:11335   */\n              swap2\n              swap1\n              pop\n              jump\t// out\n                /* \"#utility.yul\":11341:11521   */\n            tag_144:\n                /* \"#utility.yul\":11389:11466   */\n              0x4e487b7100000000000000000000000000000000000000000000000000000000\n                /* \"#utility.yul\":11386:11387   */\n              0x00\n                /* \"#utility.yul\":11379:11467   */\n              mstore\n                /* \"#utility.yul\":11486:11490   */\n              0x22\n                /* \"#utility.yul\":11483:11484   */\n              0x04\n                /* \"#utility.yul\":11476:11491   */\n              mstore\n                /* \"#utility.yul\":11510:11514   */\n              0x24\n                /* \"#utility.yul\":11507:11508   */\n              0x00\n                /* \"#utility.yul\":11500:11515   */\n              revert\n                /* \"#utility.yul\":11527:11847   */\n            tag_81:\n                /* \"#utility.yul\":11571:11577   */\n              0x00\n                /* \"#utility.yul\":11608:11609   */\n              0x02\n                /* \"#utility.yul\":11602:11606   */\n              dup3\n                /* \"#utility.yul\":11598:11610   */\n              div\n                /* \"#utility.yul\":11588:11610   */\n              swap1\n              pop\n                /* \"#utility.yul\":11655:11656   */\n              0x01\n                /* \"#utility.yul\":11649:11653   */\n              dup3\n                /* \"#utility.yul\":11645:11657   */\n              and\n                /* \"#utility.yul\":11676:11694   */\n              dup1\n                /* \"#utility.yul\":11666:11747   */\n              tag_283\n              jumpi\n                /* \"#utility.yul\":11732:11736   */\n              0x7f\n                /* \"#utility.yul\":11724:11730   */\n              dup3\n                /* \"#utility.yul\":11720:11737   */\n              and\n                /* \"#utility.yul\":11710:11737   */\n              swap2\n              pop\n                /* \"#utility.yul\":11666:11747   */\n            tag_283:\n                /* \"#utility.yul\":11794:11796   */\n              0x20\n                /* \"#utility.yul\":11786:11792   */\n              dup3\n                /* \"#utility.yul\":11783:11797   */\n              lt\n                /* \"#utility.yul\":11763:11781   */\n              dup2\n                /* \"#utility.yul\":11760:11798   */\n              sub\n                /* \"#utility.yul\":11757:11841   */\n              tag_284\n              jumpi\n                /* \"#utility.yul\":11813:11831   */\n              tag_285\n              tag_144\n              jump\t// in\n            tag_285:\n                /* \"#utility.yul\":11757:11841   */\n            tag_284:\n                /* \"#utility.yul\":11578:11847   */\n              pop\n                /* \"#utility.yul\":11527:11847   */\n              swap2\n              swap1\n              pop\n              jump\t// out\n                /* \"#utility.yul\":11853:12086   */\n            tag_91:\n                /* \"#utility.yul\":11892:11895   */\n              0x00\n                /* \"#utility.yul\":11915:11939   */\n              tag_287\n                /* \"#utility.yul\":11933:11938   */\n              dup3\n                /* \"#utility.yul\":11915:11939   */\n              tag_111\n              jump\t// in\n            tag_287:\n                /* \"#utility.yul\":11906:11939   */\n              swap2\n              pop\n                /* \"#utility.yul\":11961:12027   */\n              0xffffffffffffffffffffffffffffffffffffffffffffffffffffffffffffffff\n                /* \"#utility.yul\":11954:11959   */\n              dup3\n                /* \"#utility.yul\":11951:12028   */\n              sub\n                /* \"#utility.yul\":11948:12051   */\n              tag_288\n              jumpi\n                /* \"#utility.yul\":12031:12049   */\n              tag_289\n              tag_139\n              jump\t// in\n            tag_289:\n                /* \"#utility.yul\":11948:12051   */\n            tag_288:\n                /* \"#utility.yul\":12078:12079   */\n              0x01\n                /* \"#utility.yul\":12071:12076   */\n              dup3\n                /* \"#utility.yul\":12067:12080   */\n              add\n                /* \"#utility.yul\":12060:12080   */\n              swap1\n              pop\n                /* \"#utility.yul\":11853:12086   */\n              swap2\n              swap1\n              pop\n              jump\t// out\n                /* \"#utility.yul\":12092:12233   */\n            tag_145:\n                /* \"#utility.yul\":12141:12145   */\n              0x00\n                /* \"#utility.yul\":12164:12167   */\n              dup2\n                /* \"#utility.yul\":12156:12167   */\n              swap1\n              pop\n                /* \"#utility.yul\":12187:12190   */\n              dup2\n                /* \"#utility.yul\":12184:12185   */\n              0x00\n                /* \"#utility.yul\":12177:12191   */\n              mstore\n                /* \"#utility.yul\":12221:12225   */\n              0x20\n                /* \"#utility.yul\":12218:12219   */\n              0x00\n                /* \"#utility.yul\":12208:12226   */\n              keccak256\n                /* \"#utility.yul\":12200:12226   */\n              swap1\n              pop\n                /* \"#utility.yul\":12092:12233   */\n              swap2\n              swap1\n              pop\n              jump\t// out\n                /* \"#utility.yul\":12239:12332   */\n            tag_146:\n                /* \"#utility.yul\":12276:12282   */\n              0x00\n                /* \"#utility.yul\":12323:12325   */\n              0x20\n                /* \"#utility.yul\":12318:12320   */\n              0x1f\n                /* \"#utility.yul\":12311:12316   */\n              dup4\n                /* \"#utility.yul\":12307:12321   */\n              add\n                /* \"#utility.yul\":12303:12326   */\n              div\n                /* \"#utility.yul\":12293:12326   */\n              swap1\n              pop\n                /* \"#utility.yul\":12239:12332   */\n              swap2\n              swap1\n              pop\n              jump\t// out\n                /* \"#utility.yul\":12338:12445   */\n            tag_147:\n                /* \"#utility.yul\":12382:12390   */\n              0x00\n                /* \"#utility.yul\":12432:12437   */\n              dup3\n                /* \"#utility.yul\":12426:12430   */\n              dup3\n                /* \"#utility.yul\":12422:12438   */\n              shl\n                /* \"#utility.yul\":12401:12438   */\n              swap1\n              pop\n                /* \"#utility.yul\":12338:12445   */\n              swap3\n              swap2\n              pop\n              pop\n              jump\t// out\n                /* \"#utility.yul\":12451:12844   */\n            tag_148:\n                /* \"#utility.yul\":12520:12526   */\n              0x00\n                /* \"#utility.yul\":12570:12571   */\n              0x08\n                /* \"#utility.yul\":12558:12568   */\n              dup4\n                /* \"#utility.yul\":12554:12572   */\n              mul\n                /* \"#utility.yul\":12593:12690   */\n              tag_294\n                /* \"#utility.yul\":12623:12689   */\n              0xffffffffffffffffffffffffffffffffffffffffffffffffffffffffffffffff\n                /* \"#utility.yul\":12612:12621   */\n              dup3\n                /* \"#utility.yul\":12593:12690   */\n              tag_147\n              jump\t// in\n            tag_294:\n                /* \"#utility.yul\":12711:12750   */\n              tag_295\n                /* \"#utility.yul\":12741:12749   */\n              dup7\n                /* \"#utility.yul\":12730:12739   */\n              dup4\n                /* \"#utility.yul\":12711:12750   */\n              tag_147\n              jump\t// in\n            tag_295:\n                /* \"#utility.yul\":12699:12750   */\n              swap6\n              pop\n                /* \"#utility.yul\":12783:12787   */\n              dup1\n                /* \"#utility.yul\":12779:12788   */\n              not\n                /* \"#utility.yul\":12772:12777   */\n              dup5\n                /* \"#utility.yul\":12768:12789   */\n              and\n                /* \"#utility.yul\":12759:12789   */\n              swap4\n              pop\n                /* \"#utility.yul\":12832:12836   */\n              dup1\n                /* \"#utility.yul\":12822:12830   */\n              dup7\n                /* \"#utility.yul\":12818:12837   */\n              and\n                /* \"#utility.yul\":12811:12816   */\n              dup5\n                /* \"#utility.yul\":12808:12838   */\n              or\n                /* \"#utility.yul\":12798:12838   */\n              swap3\n              pop\n                /* \"#utility.yul\":12527:12844   */\n              pop\n              pop\n                /* \"#utility.yul\":12451:12844   */\n              swap4\n              swap3\n              pop\n              pop\n              pop\n              jump\t// out\n                /* \"#utility.yul\":12850:12910   */\n            tag_149:\n                /* \"#utility.yul\":12878:12881   */\n              0x00\n                /* \"#utility.yul\":12899:12904   */\n              dup2\n                /* \"#utility.yul\":12892:12904   */\n              swap1\n              pop\n                /* \"#utility.yul\":12850:12910   */\n              swap2\n              swap1\n              pop\n              jump\t// out\n                /* \"#utility.yul\":12916:13058   */\n            tag_150:\n                /* \"#utility.yul\":12966:12975   */\n              0x00\n                /* \"#utility.yul\":12999:13052   */\n              tag_298\n                /* \"#utility.yul\":13017:13051   */\n              tag_299\n                /* \"#utility.yul\":13026:13050   */\n              tag_300\n                /* \"#utility.yul\":13044:13049   */\n              dup5\n                /* \"#utility.yul\":13026:13050   */\n              tag_111\n              jump\t// in\n            tag_300:\n                /* \"#utility.yul\":13017:13051   */\n              tag_149\n              jump\t// in\n            tag_299:\n                /* \"#utility.yul\":12999:13052   */\n              tag_111\n              jump\t// in\n            tag_298:\n                /* \"#utility.yul\":12986:13052   */\n              swap1\n              pop\n                /* \"#utility.yul\":12916:13058   */\n              swap2\n              swap1\n              pop\n              jump\t// out\n                /* \"#utility.yul\":13064:13139   */\n            tag_151:\n                /* \"#utility.yul\":13107:13110   */\n              0x00\n                /* \"#utility.yul\":13128:13133   */\n              dup2\n                /* \"#utility.yul\":13121:13133   */\n              swap1\n              pop\n                /* \"#utility.yul\":13064:13139   */\n              swap2\n              swap1\n              pop\n              jump\t// out\n                /* \"#utility.yul\":13145:13414   */\n            tag_152:\n                /* \"#utility.yul\":13255:13294   */\n              tag_303\n                /* \"#utility.yul\":13286:13293   */\n              dup4\n                /* \"#utility.yul\":13255:13294   */\n              tag_150\n              jump\t// in\n            tag_303:\n                /* \"#utility.yul\":13316:13407   */\n              tag_304\n                /* \"#utility.yul\":13365:13406   */\n              tag_305\n                /* \"#utility.yul\":13389:13405   */\n              dup3\n                /* \"#utility.yul\":13365:13406   */\n              tag_151\n              jump\t// in\n            tag_305:\n                /* \"#utility.yul\":13357:13363   */\n              dup5\n                /* \"#utility.yul\":13350:13354   */\n              dup5\n                /* \"#utility.yul\":13344:13355   */\n              sload\n                /* \"#utility.yul\":13316:13407   */\n              tag_148\n              jump\t// in\n            tag_304:\n                /* \"#utility.yul\":13310:13314   */\n              dup3\n                /* \"#utility.yul\":13303:13408   */\n              sstore\n                /* \"#utility.yul\":13221:13414   */\n              pop\n                /* \"#utility.yul\":13145:13414   */\n              pop\n              pop\n              pop\n              jump\t// out\n                /* \"#utility.yul\":13420:13493   */\n            tag_153:\n                /* \"#utility.yul\":13465:13468   */\n              0x00\n                /* \"#utility.yul\":13420:13493   */\n              swap1\n              jump\t// out\n                /* \"#utility.yul\":13499:13688   */\n            tag_154:\n                /* \"#utility.yul\":13576:13608   */\n              tag_308\n              tag_153\n              jump\t// in\n            tag_308:\n                /* \"#utility.yul\":13617:13682   */\n              tag_309\n                /* \"#utility.yul\":13675:13681   */\n              dup2\n                /* \"#utility.yul\":13667:13673   */\n              dup5\n                /* \"#utility.yul\":13661:13665   */\n              dup5\n                /* \"#utility.yul\":13617:13682   */\n              tag_152\n              jump\t// in\n            tag_309:\n                /* \"#utility.yul\":13552:13688   */\n              pop\n                /* \"#utility.yul\":13499:13688   */\n              pop\n              pop\n              jump\t// out\n                /* \"#utility.yul\":13694:13880   */\n            tag_155:\n                /* \"#utility.yul\":13754:13874   */\n            tag_311:\n                /* \"#utility.yul\":13771:13774   */\n              dup2\n                /* \"#utility.yul\":13764:13769   */\n              dup2\n                /* \"#utility.yul\":13761:13775   */\n              lt\n                /* \"#utility.yul\":13754:13874   */\n              iszero\n              tag_313\n              jumpi\n                /* \"#utility.yul\":13825:13864   */\n              tag_314\n                /* \"#utility.yul\":13862:13863   */\n              0x00\n                /* \"#utility.yul\":13855:13860   */\n              dup3\n                /* \"#utility.yul\":13825:13864   */\n              tag_154\n              jump\t// in\n            tag_314:\n                /* \"#utility.yul\":13798:13799   */\n              0x01\n                /* \"#utility.yul\":13791:13796   */\n              dup2\n                /* \"#utility.yul\":13787:13800   */\n              add\n                /* \"#utility.yul\":13778:13800   */\n              swap1\n              pop\n                /* \"#utility.yul\":13754:13874   */\n              jump(tag_311)\n            tag_313:\n                /* \"#utility.yul\":13694:13880   */\n              pop\n              pop\n              jump\t// out\n                /* \"#utility.yul\":13886:14429   */\n            tag_156:\n                /* \"#utility.yul\":13987:13989   */\n              0x1f\n                /* \"#utility.yul\":13982:13985   */\n              dup3\n                /* \"#utility.yul\":13979:13990   */\n              gt\n                /* \"#utility.yul\":13976:14422   */\n              iszero\n              tag_316\n              jumpi\n                /* \"#utility.yul\":14021:14059   */\n              tag_317\n                /* \"#utility.yul\":14053:14058   */\n              dup2\n                /* \"#utility.yul\":14021:14059   */\n              tag_145\n              jump\t// in\n            tag_317:\n                /* \"#utility.yul\":14105:14134   */\n              tag_318\n                /* \"#utility.yul\":14123:14133   */\n              dup5\n                /* \"#utility.yul\":14105:14134   */\n              tag_146\n              jump\t// in\n            tag_318:\n                /* \"#utility.yul\":14095:14103   */\n              dup2\n                /* \"#utility.yul\":14091:14135   */\n              add\n                /* \"#utility.yul\":14288:14290   */\n              0x20\n                /* \"#utility.yul\":14276:14286   */\n              dup6\n                /* \"#utility.yul\":14273:14291   */\n              lt\n                /* \"#utility.yul\":14270:14319   */\n              iszero\n              tag_319\n              jumpi\n                /* \"#utility.yul\":14309:14317   */\n              dup2\n                /* \"#utility.yul\":14294:14317   */\n              swap1\n              pop\n                /* \"#utility.yul\":14270:14319   */\n            tag_319:\n                /* \"#utility.yul\":14332:14412   */\n              tag_320\n                /* \"#utility.yul\":14388:14410   */\n              tag_321\n                /* \"#utility.yul\":14406:14409   */\n              dup6\n                /* \"#utility.yul\":14388:14410   */\n              tag_146\n              jump\t// in\n            tag_321:\n                /* \"#utility.yul\":14378:14386   */\n              dup4\n                /* \"#utility.yul\":14374:14411   */\n              add\n                /* \"#utility.yul\":14361:14372   */\n              dup3\n                /* \"#utility.yul\":14332:14412   */\n              tag_155\n              jump\t// in\n            tag_320:\n                /* \"#utility.yul\":13991:14422   */\n              pop\n              pop\n                /* \"#utility.yul\":13976:14422   */\n            tag_316:\n                /* \"#utility.yul\":13886:14429   */\n              pop\n              pop\n              pop\n              jump\t// out\n                /* \"#utility.yul\":14435:14552   */\n            tag_157:\n                /* \"#utility.yul\":14489:14497   */\n              0x00\n                /* \"#utility.yul\":14539:14544   */\n              dup3\n                /* \"#utility.yul\":14533:14537   */\n              dup3\n                /* \"#utility.yul\":14529:14545   */\n              shr\n                /* \"#utility.yul\":14508:14545   */\n              swap1\n              pop\n                /* \"#utility.yul\":14435:14552   */\n              swap3\n              swap2\n              pop\n              pop\n              jump\t// out\n                /* \"#utility.yul\":14558:14727   */\n            tag_158:\n                /* \"#utility.yul\":14602:14608   */\n              0x00\n                /* \"#utility.yul\":14635:14686   */\n              tag_324\n                /* \"#utility.yul\":14683:14684   */\n              0x00\n                /* \"#utility.yul\":14679:14685   */\n              not\n                /* \"#utility.yul\":14671:14676   */\n              dup5\n                /* \"#utility.yul\":14668:14669   */\n              0x08\n                /* \"#utility.yul\":14664:14677   */\n              mul\n                /* \"#utility.yul\":14635:14686   */\n              tag_157\n              jump\t// in\n            tag_324:\n                /* \"#utility.yul\":14631:14687   */\n              not\n                /* \"#utility.yul\":14716:14720   */\n              dup1\n                /* \"#utility.yul\":14710:14714   */\n              dup4\n                /* \"#utility.yul\":14706:14721   */\n              and\n                /* \"#utility.yul\":14696:14721   */\n              swap2\n              pop\n                /* \"#utility.yul\":14609:14727   */\n              pop\n                /* \"#utility.yul\":14558:14727   */\n              swap3\n              swap2\n              pop\n              pop\n              jump\t// out\n                /* \"#utility.yul\":14732:15027   */\n            tag_159:\n                /* \"#utility.yul\":14808:14812   */\n              0x00\n                /* \"#utility.yul\":14954:14983   */\n              tag_326\n                /* \"#utility.yul\":14979:14982   */\n              dup4\n                /* \"#utility.yul\":14973:14977   */\n              dup4\n                /* \"#utility.yul\":14954:14983   */\n              tag_158\n              jump\t// in\n            tag_326:\n                /* \"#utility.yul\":14946:14983   */\n              swap2\n              pop\n                /* \"#utility.yul\":15016:15019   */\n              dup3\n                /* \"#utility.yul\":15013:15014   */\n              0x02\n                /* \"#utility.yul\":15009:15020   */\n              mul\n                /* \"#utility.yul\":15003:15007   */\n              dup3\n                /* \"#utility.yul\":15000:15021   */\n              or\n                /* \"#utility.yul\":14992:15021   */\n              swap1\n              pop\n                /* \"#utility.yul\":14732:15027   */\n              swap3\n              swap2\n              pop\n              pop\n              jump\t// out\n                /* \"#utility.yul\":15032:16427   */\n            tag_93:\n                /* \"#utility.yul\":15149:15186   */\n              tag_328\n                /* \"#utility.yul\":15182:15185   */\n              dup3\n                /* \"#utility.yul\":15149:15186   */\n              tag_122\n              jump\t// in\n            tag_328:\n                /* \"#utility.yul\":15251:15269   */\n              0xffffffffffffffff\n                /* \"#utility.yul\":15243:15249   */\n              dup2\n                /* \"#utility.yul\":15240:15270   */\n              gt\n                /* \"#utility.yul\":15237:15293   */\n              iszero\n              tag_329\n              jumpi\n                /* \"#utility.yul\":15273:15291   */\n              tag_330\n              tag_129\n              jump\t// in\n            tag_330:\n                /* \"#utility.yul\":15237:15293   */\n            tag_329:\n                /* \"#utility.yul\":15317:15355   */\n              tag_331\n                /* \"#utility.yul\":15349:15353   */\n              dup3\n                /* \"#utility.yul\":15343:15354   */\n              sload\n                /* \"#utility.yul\":15317:15355   */\n              tag_81\n              jump\t// in\n            tag_331:\n                /* \"#utility.yul\":15402:15469   */\n              tag_332\n                /* \"#utility.yul\":15462:15468   */\n              dup3\n                /* \"#utility.yul\":15454:15460   */\n              dup3\n                /* \"#utility.yul\":15448:15452   */\n              dup6\n                /* \"#utility.yul\":15402:15469   */\n              tag_156\n              jump\t// in\n            tag_332:\n                /* \"#utility.yul\":15496:15497   */\n              0x00\n                /* \"#utility.yul\":15520:15524   */\n              0x20\n                /* \"#utility.yul\":15507:15524   */\n              swap1\n              pop\n                /* \"#utility.yul\":15552:15554   */\n              0x1f\n                /* \"#utility.yul\":15544:15550   */\n              dup4\n                /* \"#utility.yul\":15541:15555   */\n              gt\n                /* \"#utility.yul\":15569:15570   */\n              0x01\n                /* \"#utility.yul\":15564:16182   */\n              dup2\n              eq\n              tag_334\n              jumpi\n                /* \"#utility.yul\":16226:16227   */\n              0x00\n                /* \"#utility.yul\":16243:16249   */\n              dup5\n                /* \"#utility.yul\":16240:16317   */\n              iszero\n              tag_335\n              jumpi\n                /* \"#utility.yul\":16292:16301   */\n              dup3\n                /* \"#utility.yul\":16287:16290   */\n              dup8\n                /* \"#utility.yul\":16283:16302   */\n              add\n                /* \"#utility.yul\":16277:16303   */\n              mload\n                /* \"#utility.yul\":16268:16303   */\n              swap1\n              pop\n                /* \"#utility.yul\":16240:16317   */\n            tag_335:\n                /* \"#utility.yul\":16343:16410   */\n              tag_336\n                /* \"#utility.yul\":16403:16409   */\n              dup6\n                /* \"#utility.yul\":16396:16401   */\n              dup3\n                /* \"#utility.yul\":16343:16410   */\n              tag_159\n              jump\t// in\n            tag_336:\n                /* \"#utility.yul\":16337:16341   */\n              dup7\n                /* \"#utility.yul\":16330:16411   */\n              sstore\n                /* \"#utility.yul\":16199:16421   */\n              pop\n                /* \"#utility.yul\":15534:16421   */\n              jump(tag_333)\n                /* \"#utility.yul\":15564:16182   */\n            tag_334:\n                /* \"#utility.yul\":15616:15620   */\n              0x1f\n                /* \"#utility.yul\":15612:15621   */\n              not\n                /* \"#utility.yul\":15604:15610   */\n              dup5\n                /* \"#utility.yul\":15600:15622   */\n              and\n                /* \"#utility.yul\":15650:15687   */\n              tag_337\n                /* \"#utility.yul\":15682:15686   */\n              dup7\n                /* \"#utility.yul\":15650:15687   */\n              tag_145\n              jump\t// in\n            tag_337:\n                /* \"#utility.yul\":15709:15710   */\n              0x00\n                /* \"#utility.yul\":15723:15931   */\n            tag_338:\n                /* \"#utility.yul\":15737:15744   */\n              dup3\n                /* \"#utility.yul\":15734:15735   */\n              dup2\n                /* \"#utility.yul\":15731:15745   */\n              lt\n                /* \"#utility.yul\":15723:15931   */\n              iszero\n              tag_340\n              jumpi\n                /* \"#utility.yul\":15816:15825   */\n              dup5\n                /* \"#utility.yul\":15811:15814   */\n              dup10\n                /* \"#utility.yul\":15807:15826   */\n              add\n                /* \"#utility.yul\":15801:15827   */\n              mload\n                /* \"#utility.yul\":15793:15799   */\n              dup3\n                /* \"#utility.yul\":15786:15828   */\n              sstore\n                /* \"#utility.yul\":15867:15868   */\n              0x01\n                /* \"#utility.yul\":15859:15865   */\n              dup3\n                /* \"#utility.yul\":15855:15869   */\n              add\n                /* \"#utility.yul\":15845:15869   */\n              swap2\n              pop\n                /* \"#utility.yul\":15914:15916   */\n              0x20\n                /* \"#utility.yul\":15903:15912   */\n              dup6\n                /* \"#utility.yul\":15899:15917   */\n              add\n                /* \"#utility.yul\":15886:15917   */\n              swap5\n              pop\n                /* \"#utility.yul\":15760:15764   */\n              0x20\n                /* \"#utility.yul\":15757:15758   */\n              dup2\n                /* \"#utility.yul\":15753:15765   */\n              add\n                /* \"#utility.yul\":15748:15765   */\n              swap1\n              pop\n                /* \"#utility.yul\":15723:15931   */\n              jump(tag_338)\n            tag_340:\n                /* \"#utility.yul\":15959:15965   */\n              dup7\n                /* \"#utility.yul\":15950:15957   */\n              dup4\n                /* \"#utility.yul\":15947:15966   */\n              lt\n                /* \"#utility.yul\":15944:16123   */\n              iszero\n              tag_341\n              jumpi\n                /* \"#utility.yul\":16017:16026   */\n              dup5\n                /* \"#utility.yul\":16012:16015   */\n              dup10\n                /* \"#utility.yul\":16008:16027   */\n              add\n                /* \"#utility.yul\":16002:16028   */\n              mload\n                /* \"#utility.yul\":16060:16108   */\n              tag_342\n                /* \"#utility.yul\":16102:16106   */\n              0x1f\n                /* \"#utility.yul\":16094:16100   */\n              dup10\n                /* \"#utility.yul\":16090:16107   */\n              and\n                /* \"#utility.yul\":16079:16088   */\n              dup3\n                /* \"#utility.yul\":16060:16108   */\n              tag_158\n              jump\t// in\n            tag_342:\n                /* \"#utility.yul\":16052:16058   */\n              dup4\n                /* \"#utility.yul\":16045:16109   */\n              sstore\n                /* \"#utility.yul\":15967:16123   */\n              pop\n                /* \"#utility.yul\":15944:16123   */\n            tag_341:\n                /* \"#utility.yul\":16169:16170   */\n              0x01\n                /* \"#utility.yul\":16165:16166   */\n              0x02\n                /* \"#utility.yul\":16157:16163   */\n              dup9\n                /* \"#utility.yul\":16153:16167   */\n              mul\n                /* \"#utility.yul\":16149:16171   */\n              add\n                /* \"#utility.yul\":16143:16147   */\n              dup9\n                /* \"#utility.yul\":16136:16172   */\n              sstore\n                /* \"#utility.yul\":15571:16182   */\n              pop\n              pop\n              pop\n                /* \"#utility.yul\":15534:16421   */\n            tag_333:\n              pop\n                /* \"#utility.yul\":15124:16427   */\n              pop\n              pop\n              pop\n                /* \"#utility.yul\":15032:16427   */\n              pop\n              pop\n              jump\t// out\n                /* \"#utility.yul\":16433:16722   */\n            tag_160:\n                /* \"#utility.yul\":16573:16607   */\n              0x4e6f7420656e6f756768207765692073656e7420746f206d6565742074686520\n                /* \"#utility.yul\":16569:16570   */\n              0x00\n                /* \"#utility.yul\":16561:16567   */\n              dup3\n                /* \"#utility.yul\":16557:16571   */\n              add\n                /* \"#utility.yul\":16550:16608   */\n              mstore\n                /* \"#utility.yul\":16642:16676   */\n              0x6d696e696d756d20636f6e747269627574696f6e20726571756972656d656e74\n                /* \"#utility.yul\":16637:16639   */\n              0x20\n                /* \"#utility.yul\":16629:16635   */\n              dup3\n                /* \"#utility.yul\":16625:16640   */\n              add\n                /* \"#utility.yul\":16618:16677   */\n              mstore\n                /* \"#utility.yul\":16711:16714   */\n              0x2e00000000000000000000000000000000000000000000000000000000000000\n                /* \"#utility.yul\":16706:16708   */\n              0x40\n                /* \"#utility.yul\":16698:16704   */\n              dup3\n                /* \"#utility.yul\":16694:16709   */\n              add\n                /* \"#utility.yul\":16687:16715   */\n              mstore\n                /* \"#utility.yul\":16433:16722   */\n              pop\n              jump\t// out\n                /* \"#utility.yul\":16728:17094   */\n            tag_161:\n                /* \"#utility.yul\":16870:16873   */\n              0x00\n                /* \"#utility.yul\":16891:16958   */\n              tag_345\n                /* \"#utility.yul\":16955:16957   */\n              0x41\n                /* \"#utility.yul\":16950:16953   */\n              dup4\n                /* \"#utility.yul\":16891:16958   */\n              tag_123\n              jump\t// in\n            tag_345:\n                /* \"#utility.yul\":16884:16958   */\n              swap2\n              pop\n                /* \"#utility.yul\":16967:17060   */\n              tag_346\n                /* \"#utility.yul\":17056:17059   */\n              dup3\n                /* \"#utility.yul\":16967:17060   */\n              tag_160\n              jump\t// in\n            tag_346:\n                /* \"#utility.yul\":17085:17087   */\n              0x60\n                /* \"#utility.yul\":17080:17083   */\n              dup3\n                /* \"#utility.yul\":17076:17088   */\n              add\n                /* \"#utility.yul\":17069:17088   */\n              swap1\n              pop\n                /* \"#utility.yul\":16728:17094   */\n              swap2\n              swap1\n              pop\n              jump\t// out\n                /* \"#utility.yul\":17100:17519   */\n            tag_97:\n                /* \"#utility.yul\":17266:17270   */\n              0x00\n                /* \"#utility.yul\":17304:17306   */\n              0x20\n                /* \"#utility.yul\":17293:17302   */\n              dup3\n                /* \"#utility.yul\":17289:17307   */\n              add\n                /* \"#utility.yul\":17281:17307   */\n              swap1\n              pop\n                /* \"#utility.yul\":17353:17362   */\n              dup2\n                /* \"#utility.yul\":17347:17351   */\n              dup2\n                /* \"#utility.yul\":17343:17363   */\n              sub\n                /* \"#utility.yul\":17339:17340   */\n              0x00\n                /* \"#utility.yul\":17328:17337   */\n              dup4\n                /* \"#utility.yul\":17324:17341   */\n              add\n                /* \"#utility.yul\":17317:17364   */\n              mstore\n                /* \"#utility.yul\":17381:17512   */\n              tag_348\n                /* \"#utility.yul\":17507:17511   */\n              dup2\n                /* \"#utility.yul\":17381:17512   */\n              tag_161\n              jump\t// in\n            tag_348:\n                /* \"#utility.yul\":17373:17512   */\n              swap1\n              pop\n                /* \"#utility.yul\":17100:17519   */\n              swap2\n              swap1\n              pop\n              jump\t// out\n                /* \"#utility.yul\":17525:17753   */\n            tag_162:\n                /* \"#utility.yul\":17665:17699   */\n              0x4163636f756e74206973206e6f742070617274696369706174696e6720696e20\n                /* \"#utility.yul\":17661:17662   */\n              0x00\n                /* \"#utility.yul\":17653:17659   */\n              dup3\n                /* \"#utility.yul\":17649:17663   */\n              add\n                /* \"#utility.yul\":17642:17700   */\n              mstore\n                /* \"#utility.yul\":17734:17745   */\n              0x43616d706169676e2e0000000000000000000000000000000000000000000000\n                /* \"#utility.yul\":17729:17731   */\n              0x20\n                /* \"#utility.yul\":17721:17727   */\n              dup3\n                /* \"#utility.yul\":17717:17732   */\n              add\n                /* \"#utility.yul\":17710:17746   */\n              mstore\n                /* \"#utility.yul\":17525:17753   */\n              pop\n              jump\t// out\n                /* \"#utility.yul\":17759:18125   */\n            tag_163:\n                /* \"#utility.yul\":17901:17904   */\n              0x00\n                /* \"#utility.yul\":17922:17989   */\n              tag_351\n                /* \"#utility.yul\":17986:17988   */\n              0x29\n                /* \"#utility.yul\":17981:17984   */\n              dup4\n                /* \"#utility.yul\":17922:17989   */\n              tag_123\n              jump\t// in\n            tag_351:\n                /* \"#utility.yul\":17915:17989   */\n              swap2\n              pop\n                /* \"#utility.yul\":17998:18091   */\n              tag_352\n                /* \"#utility.yul\":18087:18090   */\n              dup3\n                /* \"#utility.yul\":17998:18091   */\n              tag_162\n              jump\t// in\n            tag_352:\n                /* \"#utility.yul\":18116:18118   */\n              0x40\n                /* \"#utility.yul\":18111:18114   */\n              dup3\n                /* \"#utility.yul\":18107:18119   */\n              add\n                /* \"#utility.yul\":18100:18119   */\n              swap1\n              pop\n                /* \"#utility.yul\":17759:18125   */\n              swap2\n              swap1\n              pop\n              jump\t// out\n                /* \"#utility.yul\":18131:18550   */\n            tag_103:\n                /* \"#utility.yul\":18297:18301   */\n              0x00\n                /* \"#utility.yul\":18335:18337   */\n              0x20\n                /* \"#utility.yul\":18324:18333   */\n              dup3\n                /* \"#utility.yul\":18320:18338   */\n              add\n                /* \"#utility.yul\":18312:18338   */\n              swap1\n              pop\n                /* \"#utility.yul\":18384:18393   */\n              dup2\n                /* \"#utility.yul\":18378:18382   */\n              dup2\n                /* \"#utility.yul\":18374:18394   */\n              sub\n                /* \"#utility.yul\":18370:18371   */\n              0x00\n                /* \"#utility.yul\":18359:18368   */\n              dup4\n                /* \"#utility.yul\":18355:18372   */\n              add\n                /* \"#utility.yul\":18348:18395   */\n              mstore\n                /* \"#utility.yul\":18412:18543   */\n              tag_354\n                /* \"#utility.yul\":18538:18542   */\n              dup2\n                /* \"#utility.yul\":18412:18543   */\n              tag_163\n              jump\t// in\n            tag_354:\n                /* \"#utility.yul\":18404:18543   */\n              swap1\n              pop\n                /* \"#utility.yul\":18131:18550   */\n              swap2\n              swap1\n              pop\n              jump\t// out\n                /* \"#utility.yul\":18556:18782   */\n            tag_164:\n                /* \"#utility.yul\":18696:18730   */\n              0x557365722063616e6e6f7420617070726f76652073616d652072657175657374\n                /* \"#utility.yul\":18692:18693   */\n              0x00\n                /* \"#utility.yul\":18684:18690   */\n              dup3\n                /* \"#utility.yul\":18680:18694   */\n              add\n                /* \"#utility.yul\":18673:18731   */\n              mstore\n                /* \"#utility.yul\":18765:18774   */\n              0x2074776963652e00000000000000000000000000000000000000000000000000\n                /* \"#utility.yul\":18760:18762   */\n              0x20\n                /* \"#utility.yul\":18752:18758   */\n              dup3\n                /* \"#utility.yul\":18748:18763   */\n              add\n                /* \"#utility.yul\":18741:18775   */\n              mstore\n                /* \"#utility.yul\":18556:18782   */\n              pop\n              jump\t// out\n                /* \"#utility.yul\":18788:19154   */\n            tag_165:\n                /* \"#utility.yul\":18930:18933   */\n              0x00\n                /* \"#utility.yul\":18951:19018   */\n              tag_357\n                /* \"#utility.yul\":19015:19017   */\n              0x27\n                /* \"#utility.yul\":19010:19013   */\n              dup4\n                /* \"#utility.yul\":18951:19018   */\n              tag_123\n              jump\t// in\n            tag_357:\n                /* \"#utility.yul\":18944:19018   */\n              swap2\n              pop\n                /* \"#utility.yul\":19027:19120   */\n              tag_358\n                /* \"#utility.yul\":19116:19119   */\n              dup3\n                /* \"#utility.yul\":19027:19120   */\n              tag_164\n              jump\t// in\n            tag_358:\n                /* \"#utility.yul\":19145:19147   */\n              0x40\n                /* \"#utility.yul\":19140:19143   */\n              dup3\n                /* \"#utility.yul\":19136:19148   */\n              add\n                /* \"#utility.yul\":19129:19148   */\n              swap1\n              pop\n                /* \"#utility.yul\":18788:19154   */\n              swap2\n              swap1\n              pop\n              jump\t// out\n                /* \"#utility.yul\":19160:19579   */\n            tag_106:\n                /* \"#utility.yul\":19326:19330   */\n              0x00\n                /* \"#utility.yul\":19364:19366   */\n              0x20\n                /* \"#utility.yul\":19353:19362   */\n              dup3\n                /* \"#utility.yul\":19349:19367   */\n              add\n                /* \"#utility.yul\":19341:19367   */\n              swap1\n              pop\n                /* \"#utility.yul\":19413:19422   */\n              dup2\n                /* \"#utility.yul\":19407:19411   */\n              dup2\n                /* \"#utility.yul\":19403:19423   */\n              sub\n                /* \"#utility.yul\":19399:19400   */\n              0x00\n                /* \"#utility.yul\":19388:19397   */\n              dup4\n                /* \"#utility.yul\":19384:19401   */\n              add\n                /* \"#utility.yul\":19377:19424   */\n              mstore\n                /* \"#utility.yul\":19441:19572   */\n              tag_360\n                /* \"#utility.yul\":19567:19571   */\n              dup2\n                /* \"#utility.yul\":19441:19572   */\n              tag_165\n              jump\t// in\n            tag_360:\n                /* \"#utility.yul\":19433:19572   */\n              swap1\n              pop\n                /* \"#utility.yul\":19160:19579   */\n              swap2\n              swap1\n              pop\n              jump\t// out\n\n            auxdata: 0xa26469706673582212202512628d286c3b4ed4ba36309991c628ffeca585dbce473b49c361708603e78464736f6c63430008130033\n        }\n    }\n\n    auxdata: 0xa2646970667358221220c8ecffae88ea01b623b72fbc2d11dada9fc03038b1e7cd158160e0f627adfb9a64736f6c63430008130033\n}\n","bytecode":{"linkReferences":{},"object":"608060405234801561001057600080fd5b50611b04806100206000396000f3fe608060405234801561001057600080fd5b50600436106100415760003560e01c80634acb9d4f14610046578063a3303a7514610064578063b7ccb9ab14610080575b600080fd5b61004e6100b0565b60405161005b919061031b565b60405180910390f35b61007e60048036038101906100799190610378565b61013e565b005b61009a60048036038101906100959190610378565b6101df565b6040516100a791906103b4565b60405180910390f35b6060600080548060200260200160405190810160405280929190818152602001828054801561013457602002820191906000526020600020905b8160009054906101000a900473ffffffffffffffffffffffffffffffffffffffff1673ffffffffffffffffffffffffffffffffffffffff16815260200190600101908083116100ea575b5050505050905090565b6000813360405161014e9061021e565b6101599291906103de565b604051809103906000f080158015610175573d6000803e3d6000fd5b5090506000819080600181540180825580915050600190039060005260206000200160009091909190916101000a81548173ffffffffffffffffffffffffffffffffffffffff021916908373ffffffffffffffffffffffffffffffffffffffff1602179055505050565b600081815481106101ef57600080fd5b906000526020600020016000915054906101000a900473ffffffffffffffffffffffffffffffffffffffff1681565b6116c78061040883390190565b600081519050919050565b600082825260208201905092915050565b6000819050602082019050919050565b600073ffffffffffffffffffffffffffffffffffffffff82169050919050565b600061028282610257565b9050919050565b61029281610277565b82525050565b60006102a48383610289565b60208301905092915050565b6000602082019050919050565b60006102c88261022b565b6102d28185610236565b93506102dd83610247565b8060005b8381101561030e5781516102f58882610298565b9750610300836102b0565b9250506001810190506102e1565b5085935050505092915050565b6000602082019050818103600083015261033581846102bd565b905092915050565b600080fd5b6000819050919050565b61035581610342565b811461036057600080fd5b50565b6000813590506103728161034c565b92915050565b60006020828403121561038e5761038d61033d565b5b600061039c84828501610363565b91505092915050565b6103ae81610277565b82525050565b60006020820190506103c960008301846103a5565b92915050565b6103d881610342565b82525050565b60006040820190506103f360008301856103cf565b61040060208301846103a5565b939250505056fe60806040523480156200001157600080fd5b50604051620016c7380380620016c783398181016040528101906200003791906200012c565b80600260006101000a81548173ffffffffffffffffffffffffffffffffffffffff021916908373ffffffffffffffffffffffffffffffffffffffff16021790555081600381905550505062000173565b600080fd5b6000819050919050565b620000a1816200008c565b8114620000ad57600080fd5b50565b600081519050620000c18162000096565b92915050565b600073ffffffffffffffffffffffffffffffffffffffff82169050919050565b6000620000f482620000c7565b9050919050565b6200010681620000e7565b81146200011257600080fd5b50565b6000815190506200012681620000fb565b92915050565b6000806040838503121562000146576200014562000087565b5b60006200015685828601620000b0565b9250506020620001698582860162000115565b9150509250929050565b61154480620001836000396000f3fe60806040526004361061009c5760003560e01c80638a9cfd55116100645780638a9cfd5514610191578063937e09b1146101ba578063b7e622cb146101e5578063d7bb99ba14610210578063d7d1bbdb1461021a578063f0fa0eb9146102435761009c565b806303441006146100a15780630a144391146100bd57806312b58349146100fa578063481c6a751461012557806381d12c5814610150575b600080fd5b6100bb60048036038101906100b691906109f7565b61026e565b005b3480156100c957600080fd5b506100e460048036038101906100df9190610a82565b61044b565b6040516100f19190610aca565b60405180910390f35b34801561010657600080fd5b5061010f61046b565b60405161011c9190610af4565b60405180910390f35b34801561013157600080fd5b5061013a610473565b6040516101479190610b1e565b60405180910390f35b34801561015c57600080fd5b50610177600480360381019061017291906109f7565b610499565b604051610188959493929190610bc9565b60405180910390f35b34801561019d57600080fd5b506101b860048036038101906101b39190610d58565b610584565b005b3480156101c657600080fd5b506101cf6106cb565b6040516101dc9190610af4565b60405180910390f35b3480156101f157600080fd5b506101fa6106d1565b6040516102079190610af4565b60405180910390f35b6102186106d7565b005b34801561022657600080fd5b50610241600480360381019061023c91906109f7565b6107e0565b005b34801561024f57600080fd5b506102586109a7565b6040516102659190610af4565b60405180910390f35b600260009054906101000a900473ffffffffffffffffffffffffffffffffffffffff1673ffffffffffffffffffffffffffffffffffffffff163373ffffffffffffffffffffffffffffffffffffffff16146102fe576040517f08c379a00000000000000000000000000000000000000000000000000000000081526004016102f590610e39565b60405180910390fd5b600060016000838152602001908152602001600020905060026005546103249190610eb7565b816003015411610369576040517f08c379a000000000000000000000000000000000000000000000000000000000815260040161036090610f5a565b60405180910390fd5b8060020160149054906101000a900460ff16156103bb576040517f08c379a00000000000000000000000000000000000000000000000000000000081526004016103b290610fec565b60405180910390fd5b8060020160009054906101000a900473ffffffffffffffffffffffffffffffffffffffff1673ffffffffffffffffffffffffffffffffffffffff166108fc82600101549081150290604051600060405180830381858888f19350505050158015610429573d6000803e3d6000fd5b5060018160020160146101000a81548160ff0219169083151502179055505050565b60046020528060005260406000206000915054906101000a900460ff1681565b600047905090565b600260009054906101000a900473ffffffffffffffffffffffffffffffffffffffff1681565b60016020528060005260406000206000915090508060000180546104bc9061103b565b80601f01602080910402602001604051908101604052809291908181526020018280546104e89061103b565b80156105355780601f1061050a57610100808354040283529160200191610535565b820191906000526020600020905b81548152906001019060200180831161051857829003601f168201915b5050505050908060010154908060020160009054906101000a900473ffffffffffffffffffffffffffffffffffffffff16908060020160149054906101000a900460ff16908060030154905085565b600260009054906101000a900473ffffffffffffffffffffffffffffffffffffffff1673ffffffffffffffffffffffffffffffffffffffff163373ffffffffffffffffffffffffffffffffffffffff1614610614576040517f08c379a000000000000000000000000000000000000000000000000000000000815260040161060b90610e39565b60405180910390fd5b60006001600080600081548092919061062c9061106c565b9190505581526020019081526020016000209050838160000190816106519190611260565b50828160010181905550818160020160006101000a81548173ffffffffffffffffffffffffffffffffffffffff021916908373ffffffffffffffffffffffffffffffffffffffff16021790555060008160020160146101000a81548160ff0219169083151502179055506000816003018190555050505050565b60035481565b60005481565b60035434101561071c576040517f08c379a0000000000000000000000000000000000000000000000000000000008152600401610713906113ca565b60405180910390fd5b600460003373ffffffffffffffffffffffffffffffffffffffff1673ffffffffffffffffffffffffffffffffffffffff16815260200190815260200160002060009054906101000a900460ff1661078657600560008154809291906107809061106c565b91905055505b6001600460003373ffffffffffffffffffffffffffffffffffffffff1673ffffffffffffffffffffffffffffffffffffffff16815260200190815260200160002060006101000a81548160ff021916908315150217905550565b600460003373ffffffffffffffffffffffffffffffffffffffff1673ffffffffffffffffffffffffffffffffffffffff16815260200190815260200160002060009054906101000a900460ff1661086c576040517f08c379a00000000000000000000000000000000000000000000000000000000081526004016108639061145c565b60405180910390fd5b6001600082815260200190815260200160002060040160003373ffffffffffffffffffffffffffffffffffffffff1673ffffffffffffffffffffffffffffffffffffffff16815260200190815260200160002060009054906101000a900460ff161561090d576040517f08c379a0000000000000000000000000000000000000000000000000000000008152600401610904906114ee565b60405180910390fd5b600180600083815260200190815260200160002060040160003373ffffffffffffffffffffffffffffffffffffffff1673ffffffffffffffffffffffffffffffffffffffff16815260200190815260200160002060006101000a81548160ff02191690831515021790555060016000828152602001908152602001600020600301600081548092919061099f9061106c565b919050555050565b60055481565b6000604051905090565b600080fd5b600080fd5b6000819050919050565b6109d4816109c1565b81146109df57600080fd5b50565b6000813590506109f1816109cb565b92915050565b600060208284031215610a0d57610a0c6109b7565b5b6000610a1b848285016109e2565b91505092915050565b600073ffffffffffffffffffffffffffffffffffffffff82169050919050565b6000610a4f82610a24565b9050919050565b610a5f81610a44565b8114610a6a57600080fd5b50565b600081359050610a7c81610a56565b92915050565b600060208284031215610a9857610a976109b7565b5b6000610aa684828501610a6d565b91505092915050565b60008115159050919050565b610ac481610aaf565b82525050565b6000602082019050610adf6000830184610abb565b92915050565b610aee816109c1565b82525050565b6000602082019050610b096000830184610ae5565b92915050565b610b1881610a44565b82525050565b6000602082019050610b336000830184610b0f565b92915050565b600081519050919050565b600082825260208201905092915050565b60005b83811015610b73578082015181840152602081019050610b58565b60008484015250505050565b6000601f19601f8301169050919050565b6000610b9b82610b39565b610ba58185610b44565b9350610bb5818560208601610b55565b610bbe81610b7f565b840191505092915050565b600060a0820190508181036000830152610be38188610b90565b9050610bf26020830187610ae5565b610bff6040830186610b0f565b610c0c6060830185610abb565b610c196080830184610ae5565b9695505050505050565b600080fd5b600080fd5b7f4e487b7100000000000000000000000000000000000000000000000000000000600052604160045260246000fd5b610c6582610b7f565b810181811067ffffffffffffffff82111715610c8457610c83610c2d565b5b80604052505050565b6000610c976109ad565b9050610ca38282610c5c565b919050565b600067ffffffffffffffff821115610cc357610cc2610c2d565b5b610ccc82610b7f565b9050602081019050919050565b82818337600083830152505050565b6000610cfb610cf684610ca8565b610c8d565b905082815260208101848484011115610d1757610d16610c28565b5b610d22848285610cd9565b509392505050565b600082601f830112610d3f57610d3e610c23565b5b8135610d4f848260208601610ce8565b91505092915050565b600080600060608486031215610d7157610d706109b7565b5b600084013567ffffffffffffffff811115610d8f57610d8e6109bc565b5b610d9b86828701610d2a565b9350506020610dac868287016109e2565b9250506040610dbd86828701610a6d565b9150509250925092565b7f4f6e6c7920746865206d616e616765722063616e20657865637574652074686960008201527f732066756e6374696f6e2e000000000000000000000000000000000000000000602082015250565b6000610e23602b83610b44565b9150610e2e82610dc7565b604082019050919050565b60006020820190508181036000830152610e5281610e16565b9050919050565b7f4e487b7100000000000000000000000000000000000000000000000000000000600052601260045260246000fd5b7f4e487b7100000000000000000000000000000000000000000000000000000000600052601160045260246000fd5b6000610ec2826109c1565b9150610ecd836109c1565b925082610edd57610edc610e59565b5b828204905092915050565b7f596f7520646f206e6f742068617665207265717569726564206e756d6265722060008201527f6f6620617070726f76616c732e00000000000000000000000000000000000000602082015250565b6000610f44602d83610b44565b9150610f4f82610ee8565b604082019050919050565b60006020820190508181036000830152610f7381610f37565b9050919050565b7f5265717565737420686173206265656e20617070726f76656420616c7265616460008201527f792e000000000000000000000000000000000000000000000000000000000000602082015250565b6000610fd6602283610b44565b9150610fe182610f7a565b604082019050919050565b6000602082019050818103600083015261100581610fc9565b9050919050565b7f4e487b7100000000000000000000000000000000000000000000000000000000600052602260045260246000fd5b6000600282049050600182168061105357607f821691505b6020821081036110665761106561100c565b5b50919050565b6000611077826109c1565b91507fffffffffffffffffffffffffffffffffffffffffffffffffffffffffffffffff82036110a9576110a8610e88565b5b600182019050919050565b60008190508160005260206000209050919050565b60006020601f8301049050919050565b600082821b905092915050565b6000600883026111167fffffffffffffffffffffffffffffffffffffffffffffffffffffffffffffffff826110d9565b61112086836110d9565b95508019841693508086168417925050509392505050565b6000819050919050565b600061115d611158611153846109c1565b611138565b6109c1565b9050919050565b6000819050919050565b61117783611142565b61118b61118382611164565b8484546110e6565b825550505050565b600090565b6111a0611193565b6111ab81848461116e565b505050565b5b818110156111cf576111c4600082611198565b6001810190506111b1565b5050565b601f821115611214576111e5816110b4565b6111ee846110c9565b810160208510156111fd578190505b611211611209856110c9565b8301826111b0565b50505b505050565b600082821c905092915050565b600061123760001984600802611219565b1980831691505092915050565b60006112508383611226565b9150826002028217905092915050565b61126982610b39565b67ffffffffffffffff81111561128257611281610c2d565b5b61128c825461103b565b6112978282856111d3565b600060209050601f8311600181146112ca57600084156112b8578287015190505b6112c28582611244565b86555061132a565b601f1984166112d8866110b4565b60005b82811015611300578489015182556001820191506020850194506020810190506112db565b8683101561131d5784890151611319601f891682611226565b8355505b6001600288020188555050505b505050505050565b7f4e6f7420656e6f756768207765692073656e7420746f206d656574207468652060008201527f6d696e696d756d20636f6e747269627574696f6e20726571756972656d656e7460208201527f2e00000000000000000000000000000000000000000000000000000000000000604082015250565b60006113b4604183610b44565b91506113bf82611332565b606082019050919050565b600060208201905081810360008301526113e3816113a7565b9050919050565b7f4163636f756e74206973206e6f742070617274696369706174696e6720696e2060008201527f43616d706169676e2e0000000000000000000000000000000000000000000000602082015250565b6000611446602983610b44565b9150611451826113ea565b604082019050919050565b6000602082019050818103600083015261147581611439565b9050919050565b7f557365722063616e6e6f7420617070726f76652073616d65207265717565737460008201527f2074776963652e00000000000000000000000000000000000000000000000000602082015250565b60006114d8602783610b44565b91506114e38261147c565b604082019050919050565b60006020820190508181036000830152611507816114cb565b905091905056fea26469706673582212202512628d286c3b4ed4ba36309991c628ffeca585dbce473b49c361708603e78464736f6c63430008130033a2646970667358221220c8ecffae88ea01b623b72fbc2d11dada9fc03038b1e7cd158160e0f627adfb9a64736f6c63430008130033","opcodes":"PUSH1 0x80 PUSH1 0x40 MSTORE CALLVALUE DUP1 ISZERO PUSH2 0x10 JUMPI PUSH1 0x0 DUP1 REVERT JUMPDEST POP PUSH2 0x1B04 DUP1 PUSH2 0x20 PUSH1 0x0 CODECOPY PUSH1 0x0 RETURN INVALID PUSH1 0x80 PUSH1 0x40 MSTORE CALLVALUE DUP1 ISZERO PUSH2 0x10 JUMPI PUSH1 0x0 DUP1 REVERT JUMPDEST POP PUSH1 0x4 CALLDATASIZE LT PUSH2 0x41 JUMPI PUSH1 0x0 CALLDATALOAD PUSH1 0xE0 SHR DUP1 PUSH4 0x4ACB9D4F EQ PUSH2 0x46 JUMPI DUP1 PUSH4 0xA3303A75 EQ PUSH2 0x64 JUMPI DUP1 PUSH4 0xB7CCB9AB EQ PUSH2 0x80 JUMPI JUMPDEST PUSH1 0x0 DUP1 REVERT JUMPDEST PUSH2 0x4E PUSH2 0xB0 JUMP JUMPDEST PUSH1 0x40 MLOAD PUSH2 0x5B SWAP2 SWAP1 PUSH2 0x31B JUMP JUMPDEST PUSH1 0x40 MLOAD DUP1 SWAP2 SUB SWAP1 RETURN JUMPDEST PUSH2 0x7E PUSH1 0x4 DUP1 CALLDATASIZE SUB DUP2 ADD SWAP1 PUSH2 0x79 SWAP2 SWAP1 PUSH2 0x378 JUMP JUMPDEST PUSH2 0x13E JUMP JUMPDEST STOP JUMPDEST PUSH2 0x9A PUSH1 0x4 DUP1 CALLDATASIZE SUB DUP2 ADD SWAP1 PUSH2 0x95 SWAP2 SWAP1 PUSH2 0x378 JUMP JUMPDEST PUSH2 0x1DF JUMP JUMPDEST PUSH1 0x40 MLOAD PUSH2 0xA7 SWAP2 SWAP1 PUSH2 0x3B4 JUMP JUMPDEST PUSH1 0x40 MLOAD DUP1 SWAP2 SUB SWAP1 RETURN JUMPDEST PUSH1 0x60 PUSH1 0x0 DUP1 SLOAD DUP1 PUSH1 0x20 MUL PUSH1 0x20 ADD PUSH1 0x40 MLOAD SWAP1 DUP2 ADD PUSH1 0x40 MSTORE DUP1 SWAP3 SWAP2 SWAP1 DUP2 DUP2 MSTORE PUSH1 0x20 ADD DUP3 DUP1 SLOAD DUP1 ISZERO PUSH2 0x134 JUMPI PUSH1 0x20 MUL DUP3 ADD SWAP2 SWAP1 PUSH1 0x0 MSTORE PUSH1 0x20 PUSH1 0x0 KECCAK256 SWAP1 JUMPDEST DUP2 PUSH1 0x0 SWAP1 SLOAD SWAP1 PUSH2 0x100 EXP SWAP1 DIV PUSH20 0xFFFFFFFFFFFFFFFFFFFFFFFFFFFFFFFFFFFFFFFF AND PUSH20 0xFFFFFFFFFFFFFFFFFFFFFFFFFFFFFFFFFFFFFFFF AND DUP2 MSTORE PUSH1 0x20 ADD SWAP1 PUSH1 0x1 ADD SWAP1 DUP1 DUP4 GT PUSH2 0xEA JUMPI JUMPDEST POP POP POP POP POP SWAP1 POP SWAP1 JUMP JUMPDEST PUSH1 0x0 DUP2 CALLER PUSH1 0x40 MLOAD PUSH2 0x14E SWAP1 PUSH2 0x21E JUMP JUMPDEST PUSH2 0x159 SWAP3 SWAP2 SWAP1 PUSH2 0x3DE JUMP JUMPDEST PUSH1 0x40 MLOAD DUP1 SWAP2 SUB SWAP1 PUSH1 0x0 CREATE DUP1 ISZERO DUP1 ISZERO PUSH2 0x175 JUMPI RETURNDATASIZE PUSH1 0x0 DUP1 RETURNDATACOPY RETURNDATASIZE PUSH1 0x0 REVERT JUMPDEST POP SWAP1 POP PUSH1 0x0 DUP2 SWAP1 DUP1 PUSH1 0x1 DUP2 SLOAD ADD DUP1 DUP3 SSTORE DUP1 SWAP2 POP POP PUSH1 0x1 SWAP1 SUB SWAP1 PUSH1 0x0 MSTORE PUSH1 0x20 PUSH1 0x0 KECCAK256 ADD PUSH1 0x0 SWAP1 SWAP2 SWAP1 SWAP2 SWAP1 SWAP2 PUSH2 0x100 EXP DUP2 SLOAD DUP2 PUSH20 0xFFFFFFFFFFFFFFFFFFFFFFFFFFFFFFFFFFFFFFFF MUL NOT AND SWAP1 DUP4 PUSH20 0xFFFFFFFFFFFFFFFFFFFFFFFFFFFFFFFFFFFFFFFF AND MUL OR SWAP1 SSTORE POP POP POP JUMP JUMPDEST PUSH1 0x0 DUP2 DUP2 SLOAD DUP2 LT PUSH2 0x1EF JUMPI PUSH1 0x0 DUP1 REVERT JUMPDEST SWAP1 PUSH1 0x0 MSTORE PUSH1 0x20 PUSH1 0x0 KECCAK256 ADD PUSH1 0x0 SWAP2 POP SLOAD SWAP1 PUSH2 0x100 EXP SWAP1 DIV PUSH20 0xFFFFFFFFFFFFFFFFFFFFFFFFFFFFFFFFFFFFFFFF AND DUP2 JUMP JUMPDEST PUSH2 0x16C7 DUP1 PUSH2 0x408 DUP4 CODECOPY ADD SWAP1 JUMP JUMPDEST PUSH1 0x0 DUP2 MLOAD SWAP1 POP SWAP2 SWAP1 POP JUMP JUMPDEST PUSH1 0x0 DUP3 DUP3 MSTORE PUSH1 0x20 DUP3 ADD SWAP1 POP SWAP3 SWAP2 POP POP JUMP JUMPDEST PUSH1 0x0 DUP2 SWAP1 POP PUSH1 0x20 DUP3 ADD SWAP1 POP SWAP2 SWAP1 POP JUMP JUMPDEST PUSH1 0x0 PUSH20 0xFFFFFFFFFFFFFFFFFFFFFFFFFFFFFFFFFFFFFFFF DUP3 AND SWAP1 POP SWAP2 SWAP1 POP JUMP JUMPDEST PUSH1 0x0 PUSH2 0x282 DUP3 PUSH2 0x257 JUMP JUMPDEST SWAP1 POP SWAP2 SWAP1 POP JUMP JUMPDEST PUSH2 0x292 DUP2 PUSH2 0x277 JUMP JUMPDEST DUP3 MSTORE POP POP JUMP JUMPDEST PUSH1 0x0 PUSH2 0x2A4 DUP4 DUP4 PUSH2 0x289 JUMP JUMPDEST PUSH1 0x20 DUP4 ADD SWAP1 POP SWAP3 SWAP2 POP POP JUMP JUMPDEST PUSH1 0x0 PUSH1 0x20 DUP3 ADD SWAP1 POP SWAP2 SWAP1 POP JUMP JUMPDEST PUSH1 0x0 PUSH2 0x2C8 DUP3 PUSH2 0x22B JUMP JUMPDEST PUSH2 0x2D2 DUP2 DUP6 PUSH2 0x236 JUMP JUMPDEST SWAP4 POP PUSH2 0x2DD DUP4 PUSH2 0x247 JUMP JUMPDEST DUP1 PUSH1 0x0 JUMPDEST DUP4 DUP2 LT ISZERO PUSH2 0x30E JUMPI DUP2 MLOAD PUSH2 0x2F5 DUP9 DUP3 PUSH2 0x298 JUMP JUMPDEST SWAP8 POP PUSH2 0x300 DUP4 PUSH2 0x2B0 JUMP JUMPDEST SWAP3 POP POP PUSH1 0x1 DUP2 ADD SWAP1 POP PUSH2 0x2E1 JUMP JUMPDEST POP DUP6 SWAP4 POP POP POP POP SWAP3 SWAP2 POP POP JUMP JUMPDEST PUSH1 0x0 PUSH1 0x20 DUP3 ADD SWAP1 POP DUP2 DUP2 SUB PUSH1 0x0 DUP4 ADD MSTORE PUSH2 0x335 DUP2 DUP5 PUSH2 0x2BD JUMP JUMPDEST SWAP1 POP SWAP3 SWAP2 POP POP JUMP JUMPDEST PUSH1 0x0 DUP1 REVERT JUMPDEST PUSH1 0x0 DUP2 SWAP1 POP SWAP2 SWAP1 POP JUMP JUMPDEST PUSH2 0x355 DUP2 PUSH2 0x342 JUMP JUMPDEST DUP2 EQ PUSH2 0x360 JUMPI PUSH1 0x0 DUP1 REVERT JUMPDEST POP JUMP JUMPDEST PUSH1 0x0 DUP2 CALLDATALOAD SWAP1 POP PUSH2 0x372 DUP2 PUSH2 0x34C JUMP JUMPDEST SWAP3 SWAP2 POP POP JUMP JUMPDEST PUSH1 0x0 PUSH1 0x20 DUP3 DUP5 SUB SLT ISZERO PUSH2 0x38E JUMPI PUSH2 0x38D PUSH2 0x33D JUMP JUMPDEST JUMPDEST PUSH1 0x0 PUSH2 0x39C DUP5 DUP3 DUP6 ADD PUSH2 0x363 JUMP JUMPDEST SWAP2 POP POP SWAP3 SWAP2 POP POP JUMP JUMPDEST PUSH2 0x3AE DUP2 PUSH2 0x277 JUMP JUMPDEST DUP3 MSTORE POP POP JUMP JUMPDEST PUSH1 0x0 PUSH1 0x20 DUP3 ADD SWAP1 POP PUSH2 0x3C9 PUSH1 0x0 DUP4 ADD DUP5 PUSH2 0x3A5 JUMP JUMPDEST SWAP3 SWAP2 POP POP JUMP JUMPDEST PUSH2 0x3D8 DUP2 PUSH2 0x342 JUMP JUMPDEST DUP3 MSTORE POP POP JUMP JUMPDEST PUSH1 0x0 PUSH1 0x40 DUP3 ADD SWAP1 POP PUSH2 0x3F3 PUSH1 0x0 DUP4 ADD DUP6 PUSH2 0x3CF JUMP JUMPDEST PUSH2 0x400 PUSH1 0x20 DUP4 ADD DUP5 PUSH2 0x3A5 JUMP JUMPDEST SWAP4 SWAP3 POP POP POP JUMP INVALID PUSH1 0x80 PUSH1 0x40 MSTORE CALLVALUE DUP1 ISZERO PUSH3 0x11 JUMPI PUSH1 0x0 DUP1 REVERT JUMPDEST POP PUSH1 0x40 MLOAD PUSH3 0x16C7 CODESIZE SUB DUP1 PUSH3 0x16C7 DUP4 CODECOPY DUP2 DUP2 ADD PUSH1 0x40 MSTORE DUP2 ADD SWAP1 PUSH3 0x37 SWAP2 SWAP1 PUSH3 0x12C JUMP JUMPDEST DUP1 PUSH1 0x2 PUSH1 0x0 PUSH2 0x100 EXP DUP2 SLOAD DUP2 PUSH20 0xFFFFFFFFFFFFFFFFFFFFFFFFFFFFFFFFFFFFFFFF MUL NOT AND SWAP1 DUP4 PUSH20 0xFFFFFFFFFFFFFFFFFFFFFFFFFFFFFFFFFFFFFFFF AND MUL OR SWAP1 SSTORE POP DUP2 PUSH1 0x3 DUP2 SWAP1 SSTORE POP POP POP PUSH3 0x173 JUMP JUMPDEST PUSH1 0x0 DUP1 REVERT JUMPDEST PUSH1 0x0 DUP2 SWAP1 POP SWAP2 SWAP1 POP JUMP JUMPDEST PUSH3 0xA1 DUP2 PUSH3 0x8C JUMP JUMPDEST DUP2 EQ PUSH3 0xAD JUMPI PUSH1 0x0 DUP1 REVERT JUMPDEST POP JUMP JUMPDEST PUSH1 0x0 DUP2 MLOAD SWAP1 POP PUSH3 0xC1 DUP2 PUSH3 0x96 JUMP JUMPDEST SWAP3 SWAP2 POP POP JUMP JUMPDEST PUSH1 0x0 PUSH20 0xFFFFFFFFFFFFFFFFFFFFFFFFFFFFFFFFFFFFFFFF DUP3 AND SWAP1 POP SWAP2 SWAP1 POP JUMP JUMPDEST PUSH1 0x0 PUSH3 0xF4 DUP3 PUSH3 0xC7 JUMP JUMPDEST SWAP1 POP SWAP2 SWAP1 POP JUMP JUMPDEST PUSH3 0x106 DUP2 PUSH3 0xE7 JUMP JUMPDEST DUP2 EQ PUSH3 0x112 JUMPI PUSH1 0x0 DUP1 REVERT JUMPDEST POP JUMP JUMPDEST PUSH1 0x0 DUP2 MLOAD SWAP1 POP PUSH3 0x126 DUP2 PUSH3 0xFB JUMP JUMPDEST SWAP3 SWAP2 POP POP JUMP JUMPDEST PUSH1 0x0 DUP1 PUSH1 0x40 DUP4 DUP6 SUB SLT ISZERO PUSH3 0x146 JUMPI PUSH3 0x145 PUSH3 0x87 JUMP JUMPDEST JUMPDEST PUSH1 0x0 PUSH3 0x156 DUP6 DUP3 DUP7 ADD PUSH3 0xB0 JUMP JUMPDEST SWAP3 POP POP PUSH1 0x20 PUSH3 0x169 DUP6 DUP3 DUP7 ADD PUSH3 0x115 JUMP JUMPDEST SWAP2 POP POP SWAP3 POP SWAP3 SWAP1 POP JUMP JUMPDEST PUSH2 0x1544 DUP1 PUSH3 0x183 PUSH1 0x0 CODECOPY PUSH1 0x0 RETURN INVALID PUSH1 0x80 PUSH1 0x40 MSTORE PUSH1 0x4 CALLDATASIZE LT PUSH2 0x9C JUMPI PUSH1 0x0 CALLDATALOAD PUSH1 0xE0 SHR DUP1 PUSH4 0x8A9CFD55 GT PUSH2 0x64 JUMPI DUP1 PUSH4 0x8A9CFD55 EQ PUSH2 0x191 JUMPI DUP1 PUSH4 0x937E09B1 EQ PUSH2 0x1BA JUMPI DUP1 PUSH4 0xB7E622CB EQ PUSH2 0x1E5 JUMPI DUP1 PUSH4 0xD7BB99BA EQ PUSH2 0x210 JUMPI DUP1 PUSH4 0xD7D1BBDB EQ PUSH2 0x21A JUMPI DUP1 PUSH4 0xF0FA0EB9 EQ PUSH2 0x243 JUMPI PUSH2 0x9C JUMP JUMPDEST DUP1 PUSH4 0x3441006 EQ PUSH2 0xA1 JUMPI DUP1 PUSH4 0xA144391 EQ PUSH2 0xBD JUMPI DUP1 PUSH4 0x12B58349 EQ PUSH2 0xFA JUMPI DUP1 PUSH4 0x481C6A75 EQ PUSH2 0x125 JUMPI DUP1 PUSH4 0x81D12C58 EQ PUSH2 0x150 JUMPI JUMPDEST PUSH1 0x0 DUP1 REVERT JUMPDEST PUSH2 0xBB PUSH1 0x4 DUP1 CALLDATASIZE SUB DUP2 ADD SWAP1 PUSH2 0xB6 SWAP2 SWAP1 PUSH2 0x9F7 JUMP JUMPDEST PUSH2 0x26E JUMP JUMPDEST STOP JUMPDEST CALLVALUE DUP1 ISZERO PUSH2 0xC9 JUMPI PUSH1 0x0 DUP1 REVERT JUMPDEST POP PUSH2 0xE4 PUSH1 0x4 DUP1 CALLDATASIZE SUB DUP2 ADD SWAP1 PUSH2 0xDF SWAP2 SWAP1 PUSH2 0xA82 JUMP JUMPDEST PUSH2 0x44B JUMP JUMPDEST PUSH1 0x40 MLOAD PUSH2 0xF1 SWAP2 SWAP1 PUSH2 0xACA JUMP JUMPDEST PUSH1 0x40 MLOAD DUP1 SWAP2 SUB SWAP1 RETURN JUMPDEST CALLVALUE DUP1 ISZERO PUSH2 0x106 JUMPI PUSH1 0x0 DUP1 REVERT JUMPDEST POP PUSH2 0x10F PUSH2 0x46B JUMP JUMPDEST PUSH1 0x40 MLOAD PUSH2 0x11C SWAP2 SWAP1 PUSH2 0xAF4 JUMP JUMPDEST PUSH1 0x40 MLOAD DUP1 SWAP2 SUB SWAP1 RETURN JUMPDEST CALLVALUE DUP1 ISZERO PUSH2 0x131 JUMPI PUSH1 0x0 DUP1 REVERT JUMPDEST POP PUSH2 0x13A PUSH2 0x473 JUMP JUMPDEST PUSH1 0x40 MLOAD PUSH2 0x147 SWAP2 SWAP1 PUSH2 0xB1E JUMP JUMPDEST PUSH1 0x40 MLOAD DUP1 SWAP2 SUB SWAP1 RETURN JUMPDEST CALLVALUE DUP1 ISZERO PUSH2 0x15C JUMPI PUSH1 0x0 DUP1 REVERT JUMPDEST POP PUSH2 0x177 PUSH1 0x4 DUP1 CALLDATASIZE SUB DUP2 ADD SWAP1 PUSH2 0x172 SWAP2 SWAP1 PUSH2 0x9F7 JUMP JUMPDEST PUSH2 0x499 JUMP JUMPDEST PUSH1 0x40 MLOAD PUSH2 0x188 SWAP6 SWAP5 SWAP4 SWAP3 SWAP2 SWAP1 PUSH2 0xBC9 JUMP JUMPDEST PUSH1 0x40 MLOAD DUP1 SWAP2 SUB SWAP1 RETURN JUMPDEST CALLVALUE DUP1 ISZERO PUSH2 0x19D JUMPI PUSH1 0x0 DUP1 REVERT JUMPDEST POP PUSH2 0x1B8 PUSH1 0x4 DUP1 CALLDATASIZE SUB DUP2 ADD SWAP1 PUSH2 0x1B3 SWAP2 SWAP1 PUSH2 0xD58 JUMP JUMPDEST PUSH2 0x584 JUMP JUMPDEST STOP JUMPDEST CALLVALUE DUP1 ISZERO PUSH2 0x1C6 JUMPI PUSH1 0x0 DUP1 REVERT JUMPDEST POP PUSH2 0x1CF PUSH2 0x6CB JUMP JUMPDEST PUSH1 0x40 MLOAD PUSH2 0x1DC SWAP2 SWAP1 PUSH2 0xAF4 JUMP JUMPDEST PUSH1 0x40 MLOAD DUP1 SWAP2 SUB SWAP1 RETURN JUMPDEST CALLVALUE DUP1 ISZERO PUSH2 0x1F1 JUMPI PUSH1 0x0 DUP1 REVERT JUMPDEST POP PUSH2 0x1FA PUSH2 0x6D1 JUMP JUMPDEST PUSH1 0x40 MLOAD PUSH2 0x207 SWAP2 SWAP1 PUSH2 0xAF4 JUMP JUMPDEST PUSH1 0x40 MLOAD DUP1 SWAP2 SUB SWAP1 RETURN JUMPDEST PUSH2 0x218 PUSH2 0x6D7 JUMP JUMPDEST STOP JUMPDEST CALLVALUE DUP1 ISZERO PUSH2 0x226 JUMPI PUSH1 0x0 DUP1 REVERT JUMPDEST POP PUSH2 0x241 PUSH1 0x4 DUP1 CALLDATASIZE SUB DUP2 ADD SWAP1 PUSH2 0x23C SWAP2 SWAP1 PUSH2 0x9F7 JUMP JUMPDEST PUSH2 0x7E0 JUMP JUMPDEST STOP JUMPDEST CALLVALUE DUP1 ISZERO PUSH2 0x24F JUMPI PUSH1 0x0 DUP1 REVERT JUMPDEST POP PUSH2 0x258 PUSH2 0x9A7 JUMP JUMPDEST PUSH1 0x40 MLOAD PUSH2 0x265 SWAP2 SWAP1 PUSH2 0xAF4 JUMP JUMPDEST PUSH1 0x40 MLOAD DUP1 SWAP2 SUB SWAP1 RETURN JUMPDEST PUSH1 0x2 PUSH1 0x0 SWAP1 SLOAD SWAP1 PUSH2 0x100 EXP SWAP1 DIV PUSH20 0xFFFFFFFFFFFFFFFFFFFFFFFFFFFFFFFFFFFFFFFF AND PUSH20 0xFFFFFFFFFFFFFFFFFFFFFFFFFFFFFFFFFFFFFFFF AND CALLER PUSH20 0xFFFFFFFFFFFFFFFFFFFFFFFFFFFFFFFFFFFFFFFF AND EQ PUSH2 0x2FE JUMPI PUSH1 0x40 MLOAD PUSH32 0x8C379A000000000000000000000000000000000000000000000000000000000 DUP2 MSTORE PUSH1 0x4 ADD PUSH2 0x2F5 SWAP1 PUSH2 0xE39 JUMP JUMPDEST PUSH1 0x40 MLOAD DUP1 SWAP2 SUB SWAP1 REVERT JUMPDEST PUSH1 0x0 PUSH1 0x1 PUSH1 0x0 DUP4 DUP2 MSTORE PUSH1 0x20 ADD SWAP1 DUP2 MSTORE PUSH1 0x20 ADD PUSH1 0x0 KECCAK256 SWAP1 POP PUSH1 0x2 PUSH1 0x5 SLOAD PUSH2 0x324 SWAP2 SWAP1 PUSH2 0xEB7 JUMP JUMPDEST DUP2 PUSH1 0x3 ADD SLOAD GT PUSH2 0x369 JUMPI PUSH1 0x40 MLOAD PUSH32 0x8C379A000000000000000000000000000000000000000000000000000000000 DUP2 MSTORE PUSH1 0x4 ADD PUSH2 0x360 SWAP1 PUSH2 0xF5A JUMP JUMPDEST PUSH1 0x40 MLOAD DUP1 SWAP2 SUB SWAP1 REVERT JUMPDEST DUP1 PUSH1 0x2 ADD PUSH1 0x14 SWAP1 SLOAD SWAP1 PUSH2 0x100 EXP SWAP1 DIV PUSH1 0xFF AND ISZERO PUSH2 0x3BB JUMPI PUSH1 0x40 MLOAD PUSH32 0x8C379A000000000000000000000000000000000000000000000000000000000 DUP2 MSTORE PUSH1 0x4 ADD PUSH2 0x3B2 SWAP1 PUSH2 0xFEC JUMP JUMPDEST PUSH1 0x40 MLOAD DUP1 SWAP2 SUB SWAP1 REVERT JUMPDEST DUP1 PUSH1 0x2 ADD PUSH1 0x0 SWAP1 SLOAD SWAP1 PUSH2 0x100 EXP SWAP1 DIV PUSH20 0xFFFFFFFFFFFFFFFFFFFFFFFFFFFFFFFFFFFFFFFF AND PUSH20 0xFFFFFFFFFFFFFFFFFFFFFFFFFFFFFFFFFFFFFFFF AND PUSH2 0x8FC DUP3 PUSH1 0x1 ADD SLOAD SWAP1 DUP2 ISZERO MUL SWAP1 PUSH1 0x40 MLOAD PUSH1 0x0 PUSH1 0x40 MLOAD DUP1 DUP4 SUB DUP2 DUP6 DUP9 DUP9 CALL SWAP4 POP POP POP POP ISZERO DUP1 ISZERO PUSH2 0x429 JUMPI RETURNDATASIZE PUSH1 0x0 DUP1 RETURNDATACOPY RETURNDATASIZE PUSH1 0x0 REVERT JUMPDEST POP PUSH1 0x1 DUP2 PUSH1 0x2 ADD PUSH1 0x14 PUSH2 0x100 EXP DUP2 SLOAD DUP2 PUSH1 0xFF MUL NOT AND SWAP1 DUP4 ISZERO ISZERO MUL OR SWAP1 SSTORE POP POP POP JUMP JUMPDEST PUSH1 0x4 PUSH1 0x20 MSTORE DUP1 PUSH1 0x0 MSTORE PUSH1 0x40 PUSH1 0x0 KECCAK256 PUSH1 0x0 SWAP2 POP SLOAD SWAP1 PUSH2 0x100 EXP SWAP1 DIV PUSH1 0xFF AND DUP2 JUMP JUMPDEST PUSH1 0x0 SELFBALANCE SWAP1 POP SWAP1 JUMP JUMPDEST PUSH1 0x2 PUSH1 0x0 SWAP1 SLOAD SWAP1 PUSH2 0x100 EXP SWAP1 DIV PUSH20 0xFFFFFFFFFFFFFFFFFFFFFFFFFFFFFFFFFFFFFFFF AND DUP2 JUMP JUMPDEST PUSH1 0x1 PUSH1 0x20 MSTORE DUP1 PUSH1 0x0 MSTORE PUSH1 0x40 PUSH1 0x0 KECCAK256 PUSH1 0x0 SWAP2 POP SWAP1 POP DUP1 PUSH1 0x0 ADD DUP1 SLOAD PUSH2 0x4BC SWAP1 PUSH2 0x103B JUMP JUMPDEST DUP1 PUSH1 0x1F ADD PUSH1 0x20 DUP1 SWAP2 DIV MUL PUSH1 0x20 ADD PUSH1 0x40 MLOAD SWAP1 DUP2 ADD PUSH1 0x40 MSTORE DUP1 SWAP3 SWAP2 SWAP1 DUP2 DUP2 MSTORE PUSH1 0x20 ADD DUP3 DUP1 SLOAD PUSH2 0x4E8 SWAP1 PUSH2 0x103B JUMP JUMPDEST DUP1 ISZERO PUSH2 0x535 JUMPI DUP1 PUSH1 0x1F LT PUSH2 0x50A JUMPI PUSH2 0x100 DUP1 DUP4 SLOAD DIV MUL DUP4 MSTORE SWAP2 PUSH1 0x20 ADD SWAP2 PUSH2 0x535 JUMP JUMPDEST DUP3 ADD SWAP2 SWAP1 PUSH1 0x0 MSTORE PUSH1 0x20 PUSH1 0x0 KECCAK256 SWAP1 JUMPDEST DUP2 SLOAD DUP2 MSTORE SWAP1 PUSH1 0x1 ADD SWAP1 PUSH1 0x20 ADD DUP1 DUP4 GT PUSH2 0x518 JUMPI DUP3 SWAP1 SUB PUSH1 0x1F AND DUP3 ADD SWAP2 JUMPDEST POP POP POP POP POP SWAP1 DUP1 PUSH1 0x1 ADD SLOAD SWAP1 DUP1 PUSH1 0x2 ADD PUSH1 0x0 SWAP1 SLOAD SWAP1 PUSH2 0x100 EXP SWAP1 DIV PUSH20 0xFFFFFFFFFFFFFFFFFFFFFFFFFFFFFFFFFFFFFFFF AND SWAP1 DUP1 PUSH1 0x2 ADD PUSH1 0x14 SWAP1 SLOAD SWAP1 PUSH2 0x100 EXP SWAP1 DIV PUSH1 0xFF AND SWAP1 DUP1 PUSH1 0x3 ADD SLOAD SWAP1 POP DUP6 JUMP JUMPDEST PUSH1 0x2 PUSH1 0x0 SWAP1 SLOAD SWAP1 PUSH2 0x100 EXP SWAP1 DIV PUSH20 0xFFFFFFFFFFFFFFFFFFFFFFFFFFFFFFFFFFFFFFFF AND PUSH20 0xFFFFFFFFFFFFFFFFFFFFFFFFFFFFFFFFFFFFFFFF AND CALLER PUSH20 0xFFFFFFFFFFFFFFFFFFFFFFFFFFFFFFFFFFFFFFFF AND EQ PUSH2 0x614 JUMPI PUSH1 0x40 MLOAD PUSH32 0x8C379A000000000000000000000000000000000000000000000000000000000 DUP2 MSTORE PUSH1 0x4 ADD PUSH2 0x60B SWAP1 PUSH2 0xE39 JUMP JUMPDEST PUSH1 0x40 MLOAD DUP1 SWAP2 SUB SWAP1 REVERT JUMPDEST PUSH1 0x0 PUSH1 0x1 PUSH1 0x0 DUP1 PUSH1 0x0 DUP2 SLOAD DUP1 SWAP3 SWAP2 SWAP1 PUSH2 0x62C SWAP1 PUSH2 0x106C JUMP JUMPDEST SWAP2 SWAP1 POP SSTORE DUP2 MSTORE PUSH1 0x20 ADD SWAP1 DUP2 MSTORE PUSH1 0x20 ADD PUSH1 0x0 KECCAK256 SWAP1 POP DUP4 DUP2 PUSH1 0x0 ADD SWAP1 DUP2 PUSH2 0x651 SWAP2 SWAP1 PUSH2 0x1260 JUMP JUMPDEST POP DUP3 DUP2 PUSH1 0x1 ADD DUP2 SWAP1 SSTORE POP DUP2 DUP2 PUSH1 0x2 ADD PUSH1 0x0 PUSH2 0x100 EXP DUP2 SLOAD DUP2 PUSH20 0xFFFFFFFFFFFFFFFFFFFFFFFFFFFFFFFFFFFFFFFF MUL NOT AND SWAP1 DUP4 PUSH20 0xFFFFFFFFFFFFFFFFFFFFFFFFFFFFFFFFFFFFFFFF AND MUL OR SWAP1 SSTORE POP PUSH1 0x0 DUP2 PUSH1 0x2 ADD PUSH1 0x14 PUSH2 0x100 EXP DUP2 SLOAD DUP2 PUSH1 0xFF MUL NOT AND SWAP1 DUP4 ISZERO ISZERO MUL OR SWAP1 SSTORE POP PUSH1 0x0 DUP2 PUSH1 0x3 ADD DUP2 SWAP1 SSTORE POP POP POP POP POP JUMP JUMPDEST PUSH1 0x3 SLOAD DUP2 JUMP JUMPDEST PUSH1 0x0 SLOAD DUP2 JUMP JUMPDEST PUSH1 0x3 SLOAD CALLVALUE LT ISZERO PUSH2 0x71C JUMPI PUSH1 0x40 MLOAD PUSH32 0x8C379A000000000000000000000000000000000000000000000000000000000 DUP2 MSTORE PUSH1 0x4 ADD PUSH2 0x713 SWAP1 PUSH2 0x13CA JUMP JUMPDEST PUSH1 0x40 MLOAD DUP1 SWAP2 SUB SWAP1 REVERT JUMPDEST PUSH1 0x4 PUSH1 0x0 CALLER PUSH20 0xFFFFFFFFFFFFFFFFFFFFFFFFFFFFFFFFFFFFFFFF AND PUSH20 0xFFFFFFFFFFFFFFFFFFFFFFFFFFFFFFFFFFFFFFFF AND DUP2 MSTORE PUSH1 0x20 ADD SWAP1 DUP2 MSTORE PUSH1 0x20 ADD PUSH1 0x0 KECCAK256 PUSH1 0x0 SWAP1 SLOAD SWAP1 PUSH2 0x100 EXP SWAP1 DIV PUSH1 0xFF AND PUSH2 0x786 JUMPI PUSH1 0x5 PUSH1 0x0 DUP2 SLOAD DUP1 SWAP3 SWAP2 SWAP1 PUSH2 0x780 SWAP1 PUSH2 0x106C JUMP JUMPDEST SWAP2 SWAP1 POP SSTORE POP JUMPDEST PUSH1 0x1 PUSH1 0x4 PUSH1 0x0 CALLER PUSH20 0xFFFFFFFFFFFFFFFFFFFFFFFFFFFFFFFFFFFFFFFF AND PUSH20 0xFFFFFFFFFFFFFFFFFFFFFFFFFFFFFFFFFFFFFFFF AND DUP2 MSTORE PUSH1 0x20 ADD SWAP1 DUP2 MSTORE PUSH1 0x20 ADD PUSH1 0x0 KECCAK256 PUSH1 0x0 PUSH2 0x100 EXP DUP2 SLOAD DUP2 PUSH1 0xFF MUL NOT AND SWAP1 DUP4 ISZERO ISZERO MUL OR SWAP1 SSTORE POP JUMP JUMPDEST PUSH1 0x4 PUSH1 0x0 CALLER PUSH20 0xFFFFFFFFFFFFFFFFFFFFFFFFFFFFFFFFFFFFFFFF AND PUSH20 0xFFFFFFFFFFFFFFFFFFFFFFFFFFFFFFFFFFFFFFFF AND DUP2 MSTORE PUSH1 0x20 ADD SWAP1 DUP2 MSTORE PUSH1 0x20 ADD PUSH1 0x0 KECCAK256 PUSH1 0x0 SWAP1 SLOAD SWAP1 PUSH2 0x100 EXP SWAP1 DIV PUSH1 0xFF AND PUSH2 0x86C JUMPI PUSH1 0x40 MLOAD PUSH32 0x8C379A000000000000000000000000000000000000000000000000000000000 DUP2 MSTORE PUSH1 0x4 ADD PUSH2 0x863 SWAP1 PUSH2 0x145C JUMP JUMPDEST PUSH1 0x40 MLOAD DUP1 SWAP2 SUB SWAP1 REVERT JUMPDEST PUSH1 0x1 PUSH1 0x0 DUP3 DUP2 MSTORE PUSH1 0x20 ADD SWAP1 DUP2 MSTORE PUSH1 0x20 ADD PUSH1 0x0 KECCAK256 PUSH1 0x4 ADD PUSH1 0x0 CALLER PUSH20 0xFFFFFFFFFFFFFFFFFFFFFFFFFFFFFFFFFFFFFFFF AND PUSH20 0xFFFFFFFFFFFFFFFFFFFFFFFFFFFFFFFFFFFFFFFF AND DUP2 MSTORE PUSH1 0x20 ADD SWAP1 DUP2 MSTORE PUSH1 0x20 ADD PUSH1 0x0 KECCAK256 PUSH1 0x0 SWAP1 SLOAD SWAP1 PUSH2 0x100 EXP SWAP1 DIV PUSH1 0xFF AND ISZERO PUSH2 0x90D JUMPI PUSH1 0x40 MLOAD PUSH32 0x8C379A000000000000000000000000000000000000000000000000000000000 DUP2 MSTORE PUSH1 0x4 ADD PUSH2 0x904 SWAP1 PUSH2 0x14EE JUMP JUMPDEST PUSH1 0x40 MLOAD DUP1 SWAP2 SUB SWAP1 REVERT JUMPDEST PUSH1 0x1 DUP1 PUSH1 0x0 DUP4 DUP2 MSTORE PUSH1 0x20 ADD SWAP1 DUP2 MSTORE PUSH1 0x20 ADD PUSH1 0x0 KECCAK256 PUSH1 0x4 ADD PUSH1 0x0 CALLER PUSH20 0xFFFFFFFFFFFFFFFFFFFFFFFFFFFFFFFFFFFFFFFF AND PUSH20 0xFFFFFFFFFFFFFFFFFFFFFFFFFFFFFFFFFFFFFFFF AND DUP2 MSTORE PUSH1 0x20 ADD SWAP1 DUP2 MSTORE PUSH1 0x20 ADD PUSH1 0x0 KECCAK256 PUSH1 0x0 PUSH2 0x100 EXP DUP2 SLOAD DUP2 PUSH1 0xFF MUL NOT AND SWAP1 DUP4 ISZERO ISZERO MUL OR SWAP1 SSTORE POP PUSH1 0x1 PUSH1 0x0 DUP3 DUP2 MSTORE PUSH1 0x20 ADD SWAP1 DUP2 MSTORE PUSH1 0x20 ADD PUSH1 0x0 KECCAK256 PUSH1 0x3 ADD PUSH1 0x0 DUP2 SLOAD DUP1 SWAP3 SWAP2 SWAP1 PUSH2 0x99F SWAP1 PUSH2 0x106C JUMP JUMPDEST SWAP2 SWAP1 POP SSTORE POP POP JUMP JUMPDEST PUSH1 0x5 SLOAD DUP2 JUMP JUMPDEST PUSH1 0x0 PUSH1 0x40 MLOAD SWAP1 POP SWAP1 JUMP JUMPDEST PUSH1 0x0 DUP1 REVERT JUMPDEST PUSH1 0x0 DUP1 REVERT JUMPDEST PUSH1 0x0 DUP2 SWAP1 POP SWAP2 SWAP1 POP JUMP JUMPDEST PUSH2 0x9D4 DUP2 PUSH2 0x9C1 JUMP JUMPDEST DUP2 EQ PUSH2 0x9DF JUMPI PUSH1 0x0 DUP1 REVERT JUMPDEST POP JUMP JUMPDEST PUSH1 0x0 DUP2 CALLDATALOAD SWAP1 POP PUSH2 0x9F1 DUP2 PUSH2 0x9CB JUMP JUMPDEST SWAP3 SWAP2 POP POP JUMP JUMPDEST PUSH1 0x0 PUSH1 0x20 DUP3 DUP5 SUB SLT ISZERO PUSH2 0xA0D JUMPI PUSH2 0xA0C PUSH2 0x9B7 JUMP JUMPDEST JUMPDEST PUSH1 0x0 PUSH2 0xA1B DUP5 DUP3 DUP6 ADD PUSH2 0x9E2 JUMP JUMPDEST SWAP2 POP POP SWAP3 SWAP2 POP POP JUMP JUMPDEST PUSH1 0x0 PUSH20 0xFFFFFFFFFFFFFFFFFFFFFFFFFFFFFFFFFFFFFFFF DUP3 AND SWAP1 POP SWAP2 SWAP1 POP JUMP JUMPDEST PUSH1 0x0 PUSH2 0xA4F DUP3 PUSH2 0xA24 JUMP JUMPDEST SWAP1 POP SWAP2 SWAP1 POP JUMP JUMPDEST PUSH2 0xA5F DUP2 PUSH2 0xA44 JUMP JUMPDEST DUP2 EQ PUSH2 0xA6A JUMPI PUSH1 0x0 DUP1 REVERT JUMPDEST POP JUMP JUMPDEST PUSH1 0x0 DUP2 CALLDATALOAD SWAP1 POP PUSH2 0xA7C DUP2 PUSH2 0xA56 JUMP JUMPDEST SWAP3 SWAP2 POP POP JUMP JUMPDEST PUSH1 0x0 PUSH1 0x20 DUP3 DUP5 SUB SLT ISZERO PUSH2 0xA98 JUMPI PUSH2 0xA97 PUSH2 0x9B7 JUMP JUMPDEST JUMPDEST PUSH1 0x0 PUSH2 0xAA6 DUP5 DUP3 DUP6 ADD PUSH2 0xA6D JUMP JUMPDEST SWAP2 POP POP SWAP3 SWAP2 POP POP JUMP JUMPDEST PUSH1 0x0 DUP2 ISZERO ISZERO SWAP1 POP SWAP2 SWAP1 POP JUMP JUMPDEST PUSH2 0xAC4 DUP2 PUSH2 0xAAF JUMP JUMPDEST DUP3 MSTORE POP POP JUMP JUMPDEST PUSH1 0x0 PUSH1 0x20 DUP3 ADD SWAP1 POP PUSH2 0xADF PUSH1 0x0 DUP4 ADD DUP5 PUSH2 0xABB JUMP JUMPDEST SWAP3 SWAP2 POP POP JUMP JUMPDEST PUSH2 0xAEE DUP2 PUSH2 0x9C1 JUMP JUMPDEST DUP3 MSTORE POP POP JUMP JUMPDEST PUSH1 0x0 PUSH1 0x20 DUP3 ADD SWAP1 POP PUSH2 0xB09 PUSH1 0x0 DUP4 ADD DUP5 PUSH2 0xAE5 JUMP JUMPDEST SWAP3 SWAP2 POP POP JUMP JUMPDEST PUSH2 0xB18 DUP2 PUSH2 0xA44 JUMP JUMPDEST DUP3 MSTORE POP POP JUMP JUMPDEST PUSH1 0x0 PUSH1 0x20 DUP3 ADD SWAP1 POP PUSH2 0xB33 PUSH1 0x0 DUP4 ADD DUP5 PUSH2 0xB0F JUMP JUMPDEST SWAP3 SWAP2 POP POP JUMP JUMPDEST PUSH1 0x0 DUP2 MLOAD SWAP1 POP SWAP2 SWAP1 POP JUMP JUMPDEST PUSH1 0x0 DUP3 DUP3 MSTORE PUSH1 0x20 DUP3 ADD SWAP1 POP SWAP3 SWAP2 POP POP JUMP JUMPDEST PUSH1 0x0 JUMPDEST DUP4 DUP2 LT ISZERO PUSH2 0xB73 JUMPI DUP1 DUP3 ADD MLOAD DUP2 DUP5 ADD MSTORE PUSH1 0x20 DUP2 ADD SWAP1 POP PUSH2 0xB58 JUMP JUMPDEST PUSH1 0x0 DUP5 DUP5 ADD MSTORE POP POP POP POP JUMP JUMPDEST PUSH1 0x0 PUSH1 0x1F NOT PUSH1 0x1F DUP4 ADD AND SWAP1 POP SWAP2 SWAP1 POP JUMP JUMPDEST PUSH1 0x0 PUSH2 0xB9B DUP3 PUSH2 0xB39 JUMP JUMPDEST PUSH2 0xBA5 DUP2 DUP6 PUSH2 0xB44 JUMP JUMPDEST SWAP4 POP PUSH2 0xBB5 DUP2 DUP6 PUSH1 0x20 DUP7 ADD PUSH2 0xB55 JUMP JUMPDEST PUSH2 0xBBE DUP2 PUSH2 0xB7F JUMP JUMPDEST DUP5 ADD SWAP2 POP POP SWAP3 SWAP2 POP POP JUMP JUMPDEST PUSH1 0x0 PUSH1 0xA0 DUP3 ADD SWAP1 POP DUP2 DUP2 SUB PUSH1 0x0 DUP4 ADD MSTORE PUSH2 0xBE3 DUP2 DUP9 PUSH2 0xB90 JUMP JUMPDEST SWAP1 POP PUSH2 0xBF2 PUSH1 0x20 DUP4 ADD DUP8 PUSH2 0xAE5 JUMP JUMPDEST PUSH2 0xBFF PUSH1 0x40 DUP4 ADD DUP7 PUSH2 0xB0F JUMP JUMPDEST PUSH2 0xC0C PUSH1 0x60 DUP4 ADD DUP6 PUSH2 0xABB JUMP JUMPDEST PUSH2 0xC19 PUSH1 0x80 DUP4 ADD DUP5 PUSH2 0xAE5 JUMP JUMPDEST SWAP7 SWAP6 POP POP POP POP POP POP JUMP JUMPDEST PUSH1 0x0 DUP1 REVERT JUMPDEST PUSH1 0x0 DUP1 REVERT JUMPDEST PUSH32 0x4E487B7100000000000000000000000000000000000000000000000000000000 PUSH1 0x0 MSTORE PUSH1 0x41 PUSH1 0x4 MSTORE PUSH1 0x24 PUSH1 0x0 REVERT JUMPDEST PUSH2 0xC65 DUP3 PUSH2 0xB7F JUMP JUMPDEST DUP2 ADD DUP2 DUP2 LT PUSH8 0xFFFFFFFFFFFFFFFF DUP3 GT OR ISZERO PUSH2 0xC84 JUMPI PUSH2 0xC83 PUSH2 0xC2D JUMP JUMPDEST JUMPDEST DUP1 PUSH1 0x40 MSTORE POP POP POP JUMP JUMPDEST PUSH1 0x0 PUSH2 0xC97 PUSH2 0x9AD JUMP JUMPDEST SWAP1 POP PUSH2 0xCA3 DUP3 DUP3 PUSH2 0xC5C JUMP JUMPDEST SWAP2 SWAP1 POP JUMP JUMPDEST PUSH1 0x0 PUSH8 0xFFFFFFFFFFFFFFFF DUP3 GT ISZERO PUSH2 0xCC3 JUMPI PUSH2 0xCC2 PUSH2 0xC2D JUMP JUMPDEST JUMPDEST PUSH2 0xCCC DUP3 PUSH2 0xB7F JUMP JUMPDEST SWAP1 POP PUSH1 0x20 DUP2 ADD SWAP1 POP SWAP2 SWAP1 POP JUMP JUMPDEST DUP3 DUP2 DUP4 CALLDATACOPY PUSH1 0x0 DUP4 DUP4 ADD MSTORE POP POP POP JUMP JUMPDEST PUSH1 0x0 PUSH2 0xCFB PUSH2 0xCF6 DUP5 PUSH2 0xCA8 JUMP JUMPDEST PUSH2 0xC8D JUMP JUMPDEST SWAP1 POP DUP3 DUP2 MSTORE PUSH1 0x20 DUP2 ADD DUP5 DUP5 DUP5 ADD GT ISZERO PUSH2 0xD17 JUMPI PUSH2 0xD16 PUSH2 0xC28 JUMP JUMPDEST JUMPDEST PUSH2 0xD22 DUP5 DUP3 DUP6 PUSH2 0xCD9 JUMP JUMPDEST POP SWAP4 SWAP3 POP POP POP JUMP JUMPDEST PUSH1 0x0 DUP3 PUSH1 0x1F DUP4 ADD SLT PUSH2 0xD3F JUMPI PUSH2 0xD3E PUSH2 0xC23 JUMP JUMPDEST JUMPDEST DUP2 CALLDATALOAD PUSH2 0xD4F DUP5 DUP3 PUSH1 0x20 DUP7 ADD PUSH2 0xCE8 JUMP JUMPDEST SWAP2 POP POP SWAP3 SWAP2 POP POP JUMP JUMPDEST PUSH1 0x0 DUP1 PUSH1 0x0 PUSH1 0x60 DUP5 DUP7 SUB SLT ISZERO PUSH2 0xD71 JUMPI PUSH2 0xD70 PUSH2 0x9B7 JUMP JUMPDEST JUMPDEST PUSH1 0x0 DUP5 ADD CALLDATALOAD PUSH8 0xFFFFFFFFFFFFFFFF DUP2 GT ISZERO PUSH2 0xD8F JUMPI PUSH2 0xD8E PUSH2 0x9BC JUMP JUMPDEST JUMPDEST PUSH2 0xD9B DUP7 DUP3 DUP8 ADD PUSH2 0xD2A JUMP JUMPDEST SWAP4 POP POP PUSH1 0x20 PUSH2 0xDAC DUP7 DUP3 DUP8 ADD PUSH2 0x9E2 JUMP JUMPDEST SWAP3 POP POP PUSH1 0x40 PUSH2 0xDBD DUP7 DUP3 DUP8 ADD PUSH2 0xA6D JUMP JUMPDEST SWAP2 POP POP SWAP3 POP SWAP3 POP SWAP3 JUMP JUMPDEST PUSH32 0x4F6E6C7920746865206D616E616765722063616E206578656375746520746869 PUSH1 0x0 DUP3 ADD MSTORE PUSH32 0x732066756E6374696F6E2E000000000000000000000000000000000000000000 PUSH1 0x20 DUP3 ADD MSTORE POP JUMP JUMPDEST PUSH1 0x0 PUSH2 0xE23 PUSH1 0x2B DUP4 PUSH2 0xB44 JUMP JUMPDEST SWAP2 POP PUSH2 0xE2E DUP3 PUSH2 0xDC7 JUMP JUMPDEST PUSH1 0x40 DUP3 ADD SWAP1 POP SWAP2 SWAP1 POP JUMP JUMPDEST PUSH1 0x0 PUSH1 0x20 DUP3 ADD SWAP1 POP DUP2 DUP2 SUB PUSH1 0x0 DUP4 ADD MSTORE PUSH2 0xE52 DUP2 PUSH2 0xE16 JUMP JUMPDEST SWAP1 POP SWAP2 SWAP1 POP JUMP JUMPDEST PUSH32 0x4E487B7100000000000000000000000000000000000000000000000000000000 PUSH1 0x0 MSTORE PUSH1 0x12 PUSH1 0x4 MSTORE PUSH1 0x24 PUSH1 0x0 REVERT JUMPDEST PUSH32 0x4E487B7100000000000000000000000000000000000000000000000000000000 PUSH1 0x0 MSTORE PUSH1 0x11 PUSH1 0x4 MSTORE PUSH1 0x24 PUSH1 0x0 REVERT JUMPDEST PUSH1 0x0 PUSH2 0xEC2 DUP3 PUSH2 0x9C1 JUMP JUMPDEST SWAP2 POP PUSH2 0xECD DUP4 PUSH2 0x9C1 JUMP JUMPDEST SWAP3 POP DUP3 PUSH2 0xEDD JUMPI PUSH2 0xEDC PUSH2 0xE59 JUMP JUMPDEST JUMPDEST DUP3 DUP3 DIV SWAP1 POP SWAP3 SWAP2 POP POP JUMP JUMPDEST PUSH32 0x596F7520646F206E6F742068617665207265717569726564206E756D62657220 PUSH1 0x0 DUP3 ADD MSTORE PUSH32 0x6F6620617070726F76616C732E00000000000000000000000000000000000000 PUSH1 0x20 DUP3 ADD MSTORE POP JUMP JUMPDEST PUSH1 0x0 PUSH2 0xF44 PUSH1 0x2D DUP4 PUSH2 0xB44 JUMP JUMPDEST SWAP2 POP PUSH2 0xF4F DUP3 PUSH2 0xEE8 JUMP JUMPDEST PUSH1 0x40 DUP3 ADD SWAP1 POP SWAP2 SWAP1 POP JUMP JUMPDEST PUSH1 0x0 PUSH1 0x20 DUP3 ADD SWAP1 POP DUP2 DUP2 SUB PUSH1 0x0 DUP4 ADD MSTORE PUSH2 0xF73 DUP2 PUSH2 0xF37 JUMP JUMPDEST SWAP1 POP SWAP2 SWAP1 POP JUMP JUMPDEST PUSH32 0x5265717565737420686173206265656E20617070726F76656420616C72656164 PUSH1 0x0 DUP3 ADD MSTORE PUSH32 0x792E000000000000000000000000000000000000000000000000000000000000 PUSH1 0x20 DUP3 ADD MSTORE POP JUMP JUMPDEST PUSH1 0x0 PUSH2 0xFD6 PUSH1 0x22 DUP4 PUSH2 0xB44 JUMP JUMPDEST SWAP2 POP PUSH2 0xFE1 DUP3 PUSH2 0xF7A JUMP JUMPDEST PUSH1 0x40 DUP3 ADD SWAP1 POP SWAP2 SWAP1 POP JUMP JUMPDEST PUSH1 0x0 PUSH1 0x20 DUP3 ADD SWAP1 POP DUP2 DUP2 SUB PUSH1 0x0 DUP4 ADD MSTORE PUSH2 0x1005 DUP2 PUSH2 0xFC9 JUMP JUMPDEST SWAP1 POP SWAP2 SWAP1 POP JUMP JUMPDEST PUSH32 0x4E487B7100000000000000000000000000000000000000000000000000000000 PUSH1 0x0 MSTORE PUSH1 0x22 PUSH1 0x4 MSTORE PUSH1 0x24 PUSH1 0x0 REVERT JUMPDEST PUSH1 0x0 PUSH1 0x2 DUP3 DIV SWAP1 POP PUSH1 0x1 DUP3 AND DUP1 PUSH2 0x1053 JUMPI PUSH1 0x7F DUP3 AND SWAP2 POP JUMPDEST PUSH1 0x20 DUP3 LT DUP2 SUB PUSH2 0x1066 JUMPI PUSH2 0x1065 PUSH2 0x100C JUMP JUMPDEST JUMPDEST POP SWAP2 SWAP1 POP JUMP JUMPDEST PUSH1 0x0 PUSH2 0x1077 DUP3 PUSH2 0x9C1 JUMP JUMPDEST SWAP2 POP PUSH32 0xFFFFFFFFFFFFFFFFFFFFFFFFFFFFFFFFFFFFFFFFFFFFFFFFFFFFFFFFFFFFFFFF DUP3 SUB PUSH2 0x10A9 JUMPI PUSH2 0x10A8 PUSH2 0xE88 JUMP JUMPDEST JUMPDEST PUSH1 0x1 DUP3 ADD SWAP1 POP SWAP2 SWAP1 POP JUMP JUMPDEST PUSH1 0x0 DUP2 SWAP1 POP DUP2 PUSH1 0x0 MSTORE PUSH1 0x20 PUSH1 0x0 KECCAK256 SWAP1 POP SWAP2 SWAP1 POP JUMP JUMPDEST PUSH1 0x0 PUSH1 0x20 PUSH1 0x1F DUP4 ADD DIV SWAP1 POP SWAP2 SWAP1 POP JUMP JUMPDEST PUSH1 0x0 DUP3 DUP3 SHL SWAP1 POP SWAP3 SWAP2 POP POP JUMP JUMPDEST PUSH1 0x0 PUSH1 0x8 DUP4 MUL PUSH2 0x1116 PUSH32 0xFFFFFFFFFFFFFFFFFFFFFFFFFFFFFFFFFFFFFFFFFFFFFFFFFFFFFFFFFFFFFFFF DUP3 PUSH2 0x10D9 JUMP JUMPDEST PUSH2 0x1120 DUP7 DUP4 PUSH2 0x10D9 JUMP JUMPDEST SWAP6 POP DUP1 NOT DUP5 AND SWAP4 POP DUP1 DUP7 AND DUP5 OR SWAP3 POP POP POP SWAP4 SWAP3 POP POP POP JUMP JUMPDEST PUSH1 0x0 DUP2 SWAP1 POP SWAP2 SWAP1 POP JUMP JUMPDEST PUSH1 0x0 PUSH2 0x115D PUSH2 0x1158 PUSH2 0x1153 DUP5 PUSH2 0x9C1 JUMP JUMPDEST PUSH2 0x1138 JUMP JUMPDEST PUSH2 0x9C1 JUMP JUMPDEST SWAP1 POP SWAP2 SWAP1 POP JUMP JUMPDEST PUSH1 0x0 DUP2 SWAP1 POP SWAP2 SWAP1 POP JUMP JUMPDEST PUSH2 0x1177 DUP4 PUSH2 0x1142 JUMP JUMPDEST PUSH2 0x118B PUSH2 0x1183 DUP3 PUSH2 0x1164 JUMP JUMPDEST DUP5 DUP5 SLOAD PUSH2 0x10E6 JUMP JUMPDEST DUP3 SSTORE POP POP POP POP JUMP JUMPDEST PUSH1 0x0 SWAP1 JUMP JUMPDEST PUSH2 0x11A0 PUSH2 0x1193 JUMP JUMPDEST PUSH2 0x11AB DUP2 DUP5 DUP5 PUSH2 0x116E JUMP JUMPDEST POP POP POP JUMP JUMPDEST JUMPDEST DUP2 DUP2 LT ISZERO PUSH2 0x11CF JUMPI PUSH2 0x11C4 PUSH1 0x0 DUP3 PUSH2 0x1198 JUMP JUMPDEST PUSH1 0x1 DUP2 ADD SWAP1 POP PUSH2 0x11B1 JUMP JUMPDEST POP POP JUMP JUMPDEST PUSH1 0x1F DUP3 GT ISZERO PUSH2 0x1214 JUMPI PUSH2 0x11E5 DUP2 PUSH2 0x10B4 JUMP JUMPDEST PUSH2 0x11EE DUP5 PUSH2 0x10C9 JUMP JUMPDEST DUP2 ADD PUSH1 0x20 DUP6 LT ISZERO PUSH2 0x11FD JUMPI DUP2 SWAP1 POP JUMPDEST PUSH2 0x1211 PUSH2 0x1209 DUP6 PUSH2 0x10C9 JUMP JUMPDEST DUP4 ADD DUP3 PUSH2 0x11B0 JUMP JUMPDEST POP POP JUMPDEST POP POP POP JUMP JUMPDEST PUSH1 0x0 DUP3 DUP3 SHR SWAP1 POP SWAP3 SWAP2 POP POP JUMP JUMPDEST PUSH1 0x0 PUSH2 0x1237 PUSH1 0x0 NOT DUP5 PUSH1 0x8 MUL PUSH2 0x1219 JUMP JUMPDEST NOT DUP1 DUP4 AND SWAP2 POP POP SWAP3 SWAP2 POP POP JUMP JUMPDEST PUSH1 0x0 PUSH2 0x1250 DUP4 DUP4 PUSH2 0x1226 JUMP JUMPDEST SWAP2 POP DUP3 PUSH1 0x2 MUL DUP3 OR SWAP1 POP SWAP3 SWAP2 POP POP JUMP JUMPDEST PUSH2 0x1269 DUP3 PUSH2 0xB39 JUMP JUMPDEST PUSH8 0xFFFFFFFFFFFFFFFF DUP2 GT ISZERO PUSH2 0x1282 JUMPI PUSH2 0x1281 PUSH2 0xC2D JUMP JUMPDEST JUMPDEST PUSH2 0x128C DUP3 SLOAD PUSH2 0x103B JUMP JUMPDEST PUSH2 0x1297 DUP3 DUP3 DUP6 PUSH2 0x11D3 JUMP JUMPDEST PUSH1 0x0 PUSH1 0x20 SWAP1 POP PUSH1 0x1F DUP4 GT PUSH1 0x1 DUP2 EQ PUSH2 0x12CA JUMPI PUSH1 0x0 DUP5 ISZERO PUSH2 0x12B8 JUMPI DUP3 DUP8 ADD MLOAD SWAP1 POP JUMPDEST PUSH2 0x12C2 DUP6 DUP3 PUSH2 0x1244 JUMP JUMPDEST DUP7 SSTORE POP PUSH2 0x132A JUMP JUMPDEST PUSH1 0x1F NOT DUP5 AND PUSH2 0x12D8 DUP7 PUSH2 0x10B4 JUMP JUMPDEST PUSH1 0x0 JUMPDEST DUP3 DUP2 LT ISZERO PUSH2 0x1300 JUMPI DUP5 DUP10 ADD MLOAD DUP3 SSTORE PUSH1 0x1 DUP3 ADD SWAP2 POP PUSH1 0x20 DUP6 ADD SWAP5 POP PUSH1 0x20 DUP2 ADD SWAP1 POP PUSH2 0x12DB JUMP JUMPDEST DUP7 DUP4 LT ISZERO PUSH2 0x131D JUMPI DUP5 DUP10 ADD MLOAD PUSH2 0x1319 PUSH1 0x1F DUP10 AND DUP3 PUSH2 0x1226 JUMP JUMPDEST DUP4 SSTORE POP JUMPDEST PUSH1 0x1 PUSH1 0x2 DUP9 MUL ADD DUP9 SSTORE POP POP POP JUMPDEST POP POP POP POP POP POP JUMP JUMPDEST PUSH32 0x4E6F7420656E6F756768207765692073656E7420746F206D6565742074686520 PUSH1 0x0 DUP3 ADD MSTORE PUSH32 0x6D696E696D756D20636F6E747269627574696F6E20726571756972656D656E74 PUSH1 0x20 DUP3 ADD MSTORE PUSH32 0x2E00000000000000000000000000000000000000000000000000000000000000 PUSH1 0x40 DUP3 ADD MSTORE POP JUMP JUMPDEST PUSH1 0x0 PUSH2 0x13B4 PUSH1 0x41 DUP4 PUSH2 0xB44 JUMP JUMPDEST SWAP2 POP PUSH2 0x13BF DUP3 PUSH2 0x1332 JUMP JUMPDEST PUSH1 0x60 DUP3 ADD SWAP1 POP SWAP2 SWAP1 POP JUMP JUMPDEST PUSH1 0x0 PUSH1 0x20 DUP3 ADD SWAP1 POP DUP2 DUP2 SUB PUSH1 0x0 DUP4 ADD MSTORE PUSH2 0x13E3 DUP2 PUSH2 0x13A7 JUMP JUMPDEST SWAP1 POP SWAP2 SWAP1 POP JUMP JUMPDEST PUSH32 0x4163636F756E74206973206E6F742070617274696369706174696E6720696E20 PUSH1 0x0 DUP3 ADD MSTORE PUSH32 0x43616D706169676E2E0000000000000000000000000000000000000000000000 PUSH1 0x20 DUP3 ADD MSTORE POP JUMP JUMPDEST PUSH1 0x0 PUSH2 0x1446 PUSH1 0x29 DUP4 PUSH2 0xB44 JUMP JUMPDEST SWAP2 POP PUSH2 0x1451 DUP3 PUSH2 0x13EA JUMP JUMPDEST PUSH1 0x40 DUP3 ADD SWAP1 POP SWAP2 SWAP1 POP JUMP JUMPDEST PUSH1 0x0 PUSH1 0x20 DUP3 ADD SWAP1 POP DUP2 DUP2 SUB PUSH1 0x0 DUP4 ADD MSTORE PUSH2 0x1475 DUP2 PUSH2 0x1439 JUMP JUMPDEST SWAP1 POP SWAP2 SWAP1 POP JUMP JUMPDEST PUSH32 0x557365722063616E6E6F7420617070726F76652073616D652072657175657374 PUSH1 0x0 DUP3 ADD MSTORE PUSH32 0x2074776963652E00000000000000000000000000000000000000000000000000 PUSH1 0x20 DUP3 ADD MSTORE POP JUMP JUMPDEST PUSH1 0x0 PUSH2 0x14D8 PUSH1 0x27 DUP4 PUSH2 0xB44 JUMP JUMPDEST SWAP2 POP PUSH2 0x14E3 DUP3 PUSH2 0x147C JUMP JUMPDEST PUSH1 0x40 DUP3 ADD SWAP1 POP SWAP2 SWAP1 POP JUMP JUMPDEST PUSH1 0x0 PUSH1 0x20 DUP3 ADD SWAP1 POP DUP2 DUP2 SUB PUSH1 0x0 DUP4 ADD MSTORE PUSH2 0x1507 DUP2 PUSH2 0x14CB JUMP JUMPDEST SWAP1 POP SWAP2 SWAP1 POP JUMP INVALID LOG2 PUSH5 0x6970667358 0x22 SLT KECCAK256 0x25 SLT PUSH3 0x8D286C EXTCODESIZE 0x4E 0xD4 0xBA CALLDATASIZE ADDRESS SWAP10 SWAP2 0xC6 0x28 SELFDESTRUCT 0xEC 0xA5 DUP6 0xDB 0xCE SELFBALANCE EXTCODESIZE 0x49 0xC3 PUSH2 0x7086 SUB 0xE7 DUP5 PUSH5 0x736F6C6343 STOP ADDMOD SGT STOP CALLER LOG2 PUSH5 0x6970667358 0x22 SLT KECCAK256 0xC8 0xEC SELFDESTRUCT 0xAE DUP9 0xEA ADD 0xB6 0x23 0xB7 0x2F 0xBC 0x2D GT 0xDA 0xDA SWAP16 0xC0 ADDRESS CODESIZE 0xB1 0xE7 0xCD ISZERO DUP2 PUSH1 0xE0 0xF6 0x27 0xAD 0xFB SWAP11 PUSH5 0x736F6C6343 STOP ADDMOD SGT STOP CALLER "},"gasEstimates":{"creation":{"codeDepositCost":"1383200","executionCost":"1444","totalCost":"1384644"},"external":{"createCampaign(uint256)":"infinite","deployedCampaign(uint256)":"4978","getDeployedCampaigns()":"infinite"}},"methodIdentifiers":{"createCampaign(uint256)":"a3303a75","deployedCampaign(uint256)":"b7ccb9ab","getDeployedCampaigns()":"4acb9d4f"}},"storageLayout":{"storage":[{"astId":251,"contract":"KickstarterFactory.sol:CampaignFactory","label":"deployedCampaign","offset":0,"slot":"0","type":"t_array(t_address)dyn_storage"}],"types":{"t_address":{"encoding":"inplace","label":"address","numberOfBytes":"20"},"t_array(t_address)dyn_storage":{"base":"t_address","encoding":"dynamic_array","label":"address[]","numberOfBytes":"32"}}},"userdoc":{"kind":"user","methods":{},"version":1}}